:020000041000EA
:10000000E0750020E9CD0010F1CD0010F3CD001017
:1000100000000000000000000000000000000000E0
:100020000000000000000000000000003FBC0010C5
:10003000000000000000000003010010F9CD0010D6
:1000400000000000FBCD001017010110FBCD0010D7
:10005000FBCD0010FBCD001051860010FBCD001031
:10006000B9F9001069FA00105DFB0010FBCD00101B
:1000700033830010FBCD0010FBCD0010FBCD001032
:10008000FB8B0010FBCD0010FBCD0010FBCD001052
:10009000FBCD0010B7900010FBCD0010FBCD001081
:1000A0000000000000000000000000000000000050
:1000B0000000000000000000000000000000000040
:1000C0000348854610F0AAFC00480047BD0E00100A
:1000D000E0750020064B19680868203080F3098815
:1000E000022080F314883FBCAE4662B600BD00001B
:1000F000D8320020EFF3108072B6704780F310887A
:100100007047EFF309800E4B1A6820381060F0C07A
:1001100044464D4656465F46F0C008B572B60AF0F2
:1001200026FA62B60CBC116808681030F0C8A04608
:10013000A946B246BB4680F309882038F0C8184764
:10014000D832002010B500BFFCA100200CF0F2FD59
:1001500000BFC8200BF082FC044620460AF02BFFAB
:1001600000BF2246FCA100200CF0E4FD00BF00BF50
:10017000F2A100200CF0DEFD00BF20460BF0F2FCE7
:1001800010BD38B5F5480068182141180A781046A6
:100190004A78120210438A7812041043C97809067B
:1001A000084304460021EE4801710120C0022040AE
:1001B000002811D00AF0CDFB0546002003462A4650
:1001C00002210090E74800680BF06AF900BFE6A141
:1001D00000200CF0AFFD51E0FF200130204000284E
:1001E00014D00AF0B6FB0546002003462A46022139
:1001F0000090E24800680BF053F90120E049887054
:1002000000BFE0A100200CF095FD37E080202040E9
:10021000002814D00AF09DFB0546002003462A461C
:1002200002210090D54800680BF03AF90120D4492A
:10023000C87000BFD8A100200CF07CFD1EE0042097
:100240002040002814D00AF084FB05460020034615
:100250002A4602210090D44800680BF021F90120C1
:10026000C749087100BFD1A100200CF063FD05E073
:1002700000BFD4A100200CF05DFD00BF38BD10B55B
:100280000EF0B4FC0446002C03D112200EF09DFCAD
:1002900002E020460EF099FC012008F07DFB10BD25
:1002A000F8B5002500240026002700200090FF213B
:1002B000C848006820300170C6480068203041708E
:1002C000C448006820308170CF21C24800682030C7
:1002D000C170FF21BF48006820300171002057E045
:1002E000811E0B0010F01DFC1E392021254A382AE2
:1002F0002B2C2910114847182219234A494A4A4AE7
:100300004A4A4A4A4A4A244A00BF012181400C43D2
:10031000012181400E4338E000BF012181400C43A0
:10032000012181400E4330E000BF00BF00BF00BF8D
:1003300000BF012181400C4327E000BF00BF00BF88
:10034000012181400D43012181400F430121814062
:10035000009A1143009118E000BF012181400D4334
:10036000012181403A468A43174601228240009982
:100370009143009109E000BF00BF06E001218140E8
:100380000D43012181400F4300BF00BF411CC8B293
:100390002028A5DB8F48006820300078042188439E
:1003A0008C490968203108708A480068203000783C
:1003B0008021884387490968203108708548006892
:1003C0002030407804218843001D8249096820318B
:1003D00048708048006820304078022188437D4979
:1003E000096820314870204607F010FE21460020A1
:1003F00007F0C2FD2146B143084607F01EFD304616
:1004000007F002FD2846009907F019FE3946002042
:1004100007F067FDF8BD10B50446002C0DD0032190
:100420004902002007F0A8FD0320400207F0EEFD7E
:100430000320400207F0E8FC09E0032149020846D6
:1004400007F0FDFD03214902002007F04AFD10BD21
:1004500086B000220821042008F05FFF5E49086092
:1004600000BF5D4900235A1E086804A909F091F9EC
:100470000028F6D06846007C0A38030010F051FBD3
:100480000906FCFAF9F8F7F6F5F4F30000BF53A1FA
:1004900000200CF04FFC00BF0120000407F0B4FC6A
:1004A0000AF057FA04460020034622460121009034
:1004B0004F4800680AF0F4FF29484078C007C00F91
:1004C000002800D01FE2012125484170002120387A
:1004D000C17704F0DAFF474800680BF0F5F900280F
:1004E00008D00020034602460321009041480068DE
:1004F0000AF0D6FF1A484079C007C00F002808D07C
:100500000020FFF788FF01200DF035F80021144886
:10051000417108F0C8FD06F050FA08F0D7FA3648E5
:100520004078C007C00F002875D000BF33A100205D
:100530000CF000FC00BF06F02FFB88E02D2D2D2DC8
:100540002D2D2D2D2D2D2D2D2D2D2D2D2D2D2D2DDB
:100550002D2D2D2D0D0A0000257300009432002052
:10056000283400201430002077616B6520757020DE
:100570006B6579206972710D0A0000001C30002043
:1005800000300020636C6F7365206C6F636B2069B3
:1005900072710D0A0000000068616C6C206F70655C
:1005A0006E206972710D0A00183000206261747447
:1005B00065727920646574656374206972710D0ACF
:1005C00000000000646F206E6F7468696E670D0A2A
:1005D0000000000084320020383400206B65792050
:1005E0006E62206D7367206576740D0A000000004E
:1005F0000C30002038300020D836002073656E643F
:1006000020756E6C6F636B20726571756573740D08
:100610000A000000FFE700BFFBA100200CF08AFBEE
:1006200000BF002003467D22120104210090FD48F6
:1006300000680AF035FF0AF08CF9044600200346F2
:10064000224601210090F84800680AF029FFF74887
:10065000007B012806D1F649F64807F0DBFD0020B3
:10066000F2490873B3E3B1E350E3EFE24CE1FFE09A
:10067000A9E060E052E0FFE700BFEFA100200CF02E
:1006800059FB00BF002003467D2212010421009087
:10069000EF4800680AF004FF0AF05BF90446002006
:1006A0000346224601210090E94800680AF0F8FE5E
:1006B0000120800407F0A8FBDC4840308078C007A8
:1006C000C00F002800D082E30121D848403081705B
:1006D00008F0E9FC08F0FAF90020FFF79CFE0BF0A7
:1006E000F5FA0CF0E1FF00BFDAA100200CF022FBCC
:1006F00000BF07F09EFA0DF073FD0BF0F2FA6520D3
:1007000001F047FBC948007B012806D1C849C94808
:1007100007F080FD0020C549087358E3C348403006
:10072000007B012806D101F0E9F91E200EF071FAD4
:1007300001F0C8F94BE30021BC4840300173CE48BA
:1007400001F009FB0120000407F05EFB012080049A
:1007500007F05AFBFF20F5300DF089FF012000045F
:1007600007F06BFB0120800407F067FBFF20F530EA
:100770000DF07DFF0120000407F046FB01208004FE
:1007800007F042FBFF20F5300DF071FF012000045F
:1007900007F053FB0120800407F04FFB102007F007
:1007A00033FB08F060FB7D2000010DF060FFB248D4
:1007B00040300078002805D1082007F03EFB0220D9
:1007C0000FF01AF803E399484030807800280DD1E3
:1007D000964840304079012808D100BFA7A10020E9
:1007E0000CF0A8FA00BF0020FFF715FE0120400220
:1007F00007F0EDFC002804D08C484030007B012835
:100800001ED100BFABA100200CF094FA00BF08F08D
:100810004AFC02218548403081710AF09AF804466A
:1008200000200346224601210090AE4800680AF0ED
:1008300037FE01F063F90120800407F0E5FA16E0C5
:100840007A4840308078002811D17848403040798B
:1008500001280CD100BFA4A100200CF06BFA00BF4E
:100860000120FFF7D8FD0121704840300171AEE250
:1008700064200EF0CEF90120000307F0C5FA012034
:10088000400307F0C1FA00BFA6A100200CF052FA05
:1008900000BF002007F0A4F90120800407F0CDFA82
:1008A00062484030C07802280FD1652001F071FA0B
:1008B00000216846017007214172FF21E131418129
:1008C000012181810DF069FB1DE001215748203095
:1008D000C177012055494872974800680AF0F4FF33
:1008E000002808D0002003460246032100909248C9
:1008F00000680AF0D5FD00BF90A100200CF01AFAA4
:1009000000BF06F049F962E264200EF082F901208E
:10091000000307F079FA0120400307F075FA00BFE1
:100920008DA100200CF006FA00BF012007F058F955
:100930000120800407F081FA3C4840304078C0072D
:10094000C00F002809D0012138484030C17100BFD4
:1009500086A100200CF0EEF94EE001213348403032
:1009600041702038C17702203049487200212F4859
:1009700040304173704800680AF0A6FF002808D094
:10098000002003460246032100906B4800680AF0ED
:1009900087FD264840304079C007C00F002806D0A8
:1009A00001200CF0E8FD002120484030417108F0A2
:1009B0007AFB72484078C007C00F002808D000BFFB
:1009C0006FA100200CF0B6F900BF06F0E5F813E0C7
:1009D00000BF72A100200CF0ADF900BF05F0EDFFE3
:1009E00009F0B7FF0446002003462246012100908B
:1009F0000D4800680AF054FD0C484030C0780228C9
:100A000001D100BFD8E020E1726571756573742073
:100A100064656C61792073656E6420617420636D18
:100A2000640D0A000C30002030300020E833002034
:100A300083010010840900006B657920626C756584
:100A4000746F6F7468206D7367206576740D0A008B
:100A5000103000206B657920626C7565746F6F745F
:100A600068206D73672065767420524677616B65E8
:100A700075700D0A00000000A43400206C6F636BD9
:100A80005F696E666F2E626C655F776F726B696E01
:100A900067203D3D2030202626206C6F636B5F6908
:100AA0006E666F2E6E625F666C6167203D3D203121
:100AB000200D0A00214750494F5F50696E5F526513
:100AC000616428553332424954284D4F544F525F88
:100AD0005354415455535F434C4F53452929200DDE
:100AE0000A000000083000206C6F636B5F696E665F
:100AF0006F2E626C655F776F726B696E67203D3D2C
:100B000020302920262620286C6F636B5F696E6673
:100B10006F2E6E625F666C6167203D3D2031200D57
:100B20000A0000006D6F746F72206F70656E206533
:100B300076740D0A00000000383000204C6F636BA3
:100B4000206F70656E204C4F434B5F5449524747AE
:100B50004552200D0A0000006D6F746F7220636CA7
:100B60006F7365206576740D0A0000006C6F636B0F
:100B700065642072657475726E0D0A00D8360020A7
:100B80004C6F636B20636C6F7365204C4F434B5FFE
:100B900054495247474552200D0A00006C6F636B61
:100BA00065642064656C61792073656E642061748E
:100BB00020636D640D0A0000E9A100200CF0BAF872
:100BC00000BF002003467D22120104210090EB4863
:100BD00000680AF065FC09F0BCFE044600200346EC
:100BE000224601210090E54800680AF059FC0120E6
:100BF000800407F009F9E2488078C007C00F002898
:100C000003D0652001F0C5F8E1E00121DC488170E6
:100C100008F049FA07F05AFF0020FFF7FCFB0BF041
:100C200055F80CF041FD00BFD6A100200CF082F871
:100C300000BF1E21D248817306F0FBFF0DF0D0FAF1
:100C40000BF04FF8652001F0A4F8C0E000BFD6A17A
:100C500000200CF06FF800BF0120C949403908732B
:100C6000C7484078C007C00F002800D0AFE001217E
:100C7000C3484170802007F01CFB0321C048203886
:100C8000C1770120BE494039C872CB4800680AF0DC
:100C90001BFE002808D000200346024603210090D6
:100CA000C54800680AF0FCFBB5484079C007C00F92
:100CB000002805D001200CF05EFC0021B0484171F5
:100CC00008F0F1F905F079FEBC484078C007C00F84
:100CD000002808D000BFBAA100200CF02BF800BFFC
:100CE00005F05AFF11E000BFBCA100200CF022F873
:100CF00000BF09F02EFE04460020034622460121D3
:100D00000090BD4800680AF0CBFB60E000BFBBA1CB
:100D100000200CF00FF800BF0120994940390873FA
:100D200097484078C007C00F002800D04FE001214D
:100D300093484170042007F0BCFA03219048203802
:100D4000C17703208E494039C8729B4800680AF079
:100D5000BBFD002808D00020034602460321009076
:100D6000954800680AF09CFB85484079C007C00F91
:100D7000002805D001200CF0FEFB002180484171C5
:100D800008F091F905F019FE8C484078C007C00FB3
:100D9000002808D000BF9FA100200BF0CBFF00BFB0
:100DA00005F0FAFE11E000BFA2A100200BF0C2FF87
:100DB00000BF09F0CEFD0446002003462246012173
:100DC00000908D4800680AF06BFB00E000BFFFF761
:100DD00048FBFEB504460D4616461F46002000900F
:100DE00068460571C680029700BFEFF305800028B2
:100DF00008D0A100964A505800236A4601A908F07D
:100E0000C8FD07E0A100924A505800231A4601A9E4
:100E100008F09CFBFEBD1FB50124002007230190B4
:100E20000290009303900346FF22053289A18D486A
:100E300009F051F80446012C05D100BF8AA1002019
:100E40000BF078FF00BF0020052301900290009373
:100E500003900346FF2205328CA1904809F03BF82D
:100E60000446012C05D100BF8DA100200BF062FFCC
:100E700000BF0020062301900290009303900346D8
:100E8000FF2205328EA1934809F025F80446012C73
:100E900005D100BF90A100200BF04CFF00BF00BFA8
:100EA00096A100200BF046FF00BF1FBD10B500BF8C
:100EB00099A100200BF03EFF00BF10BD08B572B62F
:100EC00000200DF0B4FB0CF031FB00200CF0E7FB30
:100ED00064200DF09EFE0CF0F2FBFFF7E1F906F046
:100EE000C5FF0BF0E3FB00BF0420102303228EA1FB
:100EF000009000200BF01EFF00BF01F0D6F900F0BB
:100F000009FF06F017FE07F05DFA00200CF033FB36
:100F1000012006F065FE00F0E7FB00F0A2FCFFF701
:100F2000AEF908F066F962B608208D4908700846E7
:100F3000007807F019FD07F0C9FD0CF017FB012040
:100F4000FFF769FA01210E48417101718549864810
:100F500007F060F9FFF75FFF09F0CDFC002008BD46
:100F60006C6F636B20626C7565746F6F7468206D55
:100F70007367206576740D0A0000000010300020B1
:100F8000283400206C6F636B20626C7565746F6F22
:100F90007468206D73672065767420524677616BA4
:100FA0006575700D0A0000006C6F636B2068616CE2
:100FB0006C206D73670D0A0038300020D836002091
:100FC0004C6F636B2048414C4C20414C41524D5F6B
:100FD00054495247474552200D0A000068616C6C25
:100FE0002064656C61792073656E64206174206390
:100FF0006D640D0A000000003030002062617474DE
:1010000065727920646574656374206D73670D0A79
:101010000000000062617474657279206465746513
:10102000637420414C41524D5F54495247474552E9
:10103000200D0A00626174746572792064656C61C8
:10104000792073656E6420617420636D640D0A00FD
:10105000383400204B657948616E646C655F54617B
:10106000736B000051040010437265617465204B7E
:10107000657948616E646C655F5461736B2053756C
:101080006363657373210D0A00000000536F66747B
:1010900074696D65725461736B000000676E0010B7
:1010A00043726561746520536F667474696D65720F
:1010B0005461736B2053756363657373210D0A006C
:1010C000556172743048616E646C655F5461736B16
:1010D000000000007188001043726561746520553E
:1010E0006172743048616E646C655F5461736B202B
:1010F00053756363657373210D0A000053594438B7
:10110000383131206672656552544F5320537461F3
:1011100072742E0D0A00000068656C6C6F20746993
:101120006D65720D0A00000068656C6C6F20535984
:101130004438383131206861726477617265203DCE
:101140002030782530327820736F6674776172654D
:10115000203D20307825303278253032780D0A0055
:10116000D4320020830100108409000010B5002350
:101170001A4619460120FFF72CFE10BD10B50023BA
:101180001A4601210846FFF724FE10BD10B50120C4
:10119000000407F003F810BD10B50120800406F02C
:1011A000FDFF10BD08B5F8480078401CF6490870EE
:1011B00008460078642815DB0020087003460246C4
:1011C00003210090F14800680AF06AF900231A46EA
:1011D00004210120FFF7FDFD00BFEDA100200BF071
:1011E000A9FD00BF0120400206F0F1FF002824D035
:1011F000ED488079022820D10020E34908700021C1
:10120000E9480173817100200346024603210090E2
:10121000DE4800680AF044F932200DF0FAFC00F0D4
:1012200047FC0023BB2210211846FFF7D2FD00BF68
:10123000DEA100200BF07EFD2BE00120800206F0F5
:10124000C6FF002825D0D8488079012821D1002068
:10125000CD4908700121D44801730021817100201B
:101260000346024603210090C84800680AF018F9B6
:1012700032200DF0CEFC00F01BFC0023BB220F211E
:101280001846FFF7A6FD00BFCDA100200BF052FDD0
:1012900000BF08BD10B500231A4608210120FFF742
:1012A00098FD10BD10B500231A4609210120FFF753
:1012B00090FD10BD10B500231A4605210120FFF74F
:1012C00088FD10BD10B500231A4613210120FFF739
:1012D00080FD10BD38B50120C00206F078FF00285F
:1012E00038D0BC4800680AF0EFFA00280CD0002083
:1012F0000346024603210090B64800680AF0D0F881
:101300000120000406F099FDB34800680AF0DCFAF9
:1013100000280CD000200346024603210090AE486E
:1013200000680AF0BDF80120800406F086FD012067
:10133000800406F069FD09F00CFB0446002003461A
:10134000224602210090A54800680AF0A9F8002171
:101350009548017000BFA2A100200BF0EBFC00BF7C
:1013600038BD10B5042006F032FF00280FD0A04889
:10137000007900280BD00023BB2212211846FFF76A
:1013800028FD00BF9BA100200BF0D4FC05E000BFAE
:101390009EA100200BF0CEFC00BF052194480EF06A
:1013A00032FF10BD10B5FF20013006F010FF0028FD
:1013B0000FD08F48807800280BD00023BB220E214D
:1013C0001846FFF706FD00BF98A100200BF0B2FC05
:1013D00020E0802006F0FBFE002815D08448C0786D
:1013E000002811D00120400206F0F1FE002811D0A3
:1013F0000023BB2211211846FFF7EBFC00BF90A190
:1014000000200BF097FC05E000BF92A100200BF03C
:1014100091FC00BF052176480EF0F5FE10BD08B521
:1014200061480078401CC1B25F480170007805280F
:101430000CDB5D480078192808DA0120000406F06A
:10144000E3FC0120800406F0F8FC3BE056480078FD
:1014500019280CDB54480078322808DA01200004EF
:1014600006F0D2FC0120800406F0CEFC2AE04E48B3
:10147000007832280CDB4C480078462808DA012036
:10148000800406F0DAFC0120000406F0D6FC19E026
:1014900045480078642815DB0120800406F0CDFC67
:1014A0000120000406F0C9FC002003460246032187
:1014B00000904A48006809F0F3FF00213A480170A3
:1014C000012101710120C00206F081FE002851D1E6
:1014D00003460246032100904048006809F0E0FFFF
:1014E00031480078052809DA0023BB220B21184671
:1014F000FFF76FFC02212C48C17032E02A480078C7
:10150000052811DB2848007819280DDA012000048D
:1015100006F093FC0023BB220A211846FFF759FC72
:1015200001212148C1701CE01F480078192812DBF6
:101530001D48007832280EDA0120000406F07DFCF8
:101540000120800406F079FC0023BB220D211846FF
:10155000FFF73FFC05E00023BB220C211846FFF7F4
:1015600038FC00211048017000BF3FA100200BF0A3
:10157000E1FB00BF08BD10B50023BB2216210220ED
:10158000FFF727FC10BD0000483000200830002085
:101590006D6F746F722074696D656F7574207469F6
:1015A0006D65720D0A000000283400206D6F746FA5
:1015B0007220636C6F73652074696D65720D0A002B
:1015C0006D6F746F72206F70656E2074696D6572D7
:1015D0000D0A00000C300020103000202C300020BC
:1015E0006B65792070756C6C20646F776E0D0A00E6
:1015F00000300020626174746572792064657465DE
:1016000063742074696D65720D0A00006261747400
:1016100065727920646574656374206E6F7468699F
:101620006E672074696D65720D0A00006C6F636BE4
:10163000207374617475732074696D65720D0A008E
:101640006C6F636B2068616C6C2074696D65720DE2
:101650000A000000697271206E6F7468696E6720FD
:1016600074696D65720D0A006B65792070756C6C1C
:101670002075700D0A00000010B50023BB22182150
:101680000220FFF7A6FB10BD10B505F0B7F910BD9D
:1016900010B50023BB2217210220FFF79AFB10BDD3
:1016A00010B50520000406F0C8FB8948C079012860
:1016B00008D100218648C1710023BB2203210120EB
:1016C000FFF787FB10BD10B5082006F067FD8148C5
:1016D0000088401C7F490880084600887E4988426F
:1016E00001D10DF03FF810BD08B57C4902200EF085
:1016F00024F900237A4A7D21C90001200DF042FF20
:101700000023784A012102200DF03CFF7648032394
:101710000122FF219131009074A00AF082F87749EC
:1017200008607748022301220C21009075A00AF07E
:1017300078F8794908607948032301227D2109015D
:10174000009077A00AF06DF87B4908607B4803237E
:1017500001227D21C900009079A00AF062F87D493C
:1017600008607D48032300227D21C90000907BA0F2
:101770000AF057F87E4908607E48032300221421AE
:1017800000907DA00AF04DF880490860804803234E
:1017900000227D21C90000907EA00AF042F8844911
:1017A00008608448032300221421009082A00AF0DC
:1017B00038F886490860864803230022854900904E
:1017C0006DA00AF02EF884490860844803230022A3
:1017D0007D210901009068A00AF023F88049086083
:1017E000804803230122FF21F531009062A00AF016
:1017F00018F87D4908607D48032300227549009050
:101800005DA00AF00EF87A4908607A4803230022A6
:101810003149009078A00AF004F87A4908607A48C3
:10182000032300227949009079A009F0FAFF7E494C
:10183000086008BD10B526480089401C81B22448C4
:10184000018100897949898D884209DB002120487E
:101850000171018100231A4607210120FFF7B9FA1F
:1018600010BD10B57148808D002803D06F48808D61
:10187000002802D118206D4988856C48808D0A287F
:1018800002DC0A206949888500211148018100BFD6
:101890006648828D66A100200BF04CFA00BF6949B2
:1018A00002200EF024FC0023674AE12109010220F6
:1018B0000EF029FA0023654A0E2101200EF023FACA
:1018C00001200EF0C8FA02200EF0C5FA10BD00008B
:1018D000283400204A300020102700004434002023
:1018E0007D110010C71600101F1400104B65795FA2
:1018F00048616E646C6554696D6572002C3000201F
:10190000A51100104D6F746F725F54696D656F752E
:101910007454696D65720000083000208D1100104C
:10192000477265656E4C65645F506572696F64549B
:10193000696D6572000000000C30002099110010E4
:10194000426C75654C65645F506572696F6454697B
:101950006D65720010300020A11600104C65645FA8
:101960004F6E655365636F6E6454696D65720000F8
:1019700034300020D51200104B65795F4465626FEA
:10198000756E636554696D65720000001430002047
:1019900063130010426174746572794465745F4426
:1019A00065626F756E636554696D65720000000055
:1019B00018300020A51300104770696F5F446562FE
:1019C0006F756E636554696D657200001C30002090
:1019D00079160010B80B000020300020911600107E
:1019E00024300020891600102830002077150010C0
:1019F00030300020B5120010536C65657054696D6D
:101A00006572000038300020A5120010307500000B
:101A1000424C455F636F6E6E65637454696D656FAC
:101A2000757454696D65720040300020A434002044
:101A3000706572696F642074696D65203D2025644E
:101A40000D0A00007434002035180010C512001073
:101A500070B505460E46002400BF08E000BF2A5DB1
:101A6000FDA100200BF066F900BF601CC4B2B442B7
:101A7000F4DB00BFFAA100200BF05CF900BF70BDE1
:101A800070B505460E46002400BF08E000BF2A5D81
:101A9000F1A100200BF04EF900BF601CC4B2B442AB
:101AA000F4DB00BFEEA100200BF044F900BF70BDD5
:101AB00010B50120000306F0C0F90120400306F034
:101AC000BCF910BD10B532200DF0A3F8FFF7F0FF00
:101AD00064200DF09EF80120000306F095F9012026
:101AE000400306F091F910BD10B50120000306F087
:101AF000A4F90120400306F087F910BD10B50120BC
:101B0000400306F09AF90120000306F07DF910BDAC
:101B100038B5002400BF05E00CF0A5FD6946085566
:101B2000601CC4B2042CF7DB009D284638BD30B5DC
:101B300087B005460C46CB48006ECA495031C94AA9
:101B4000D26C0B46083B0393049205910690C5485E
:101B5000008E2C39029400910190C248438C0246B9
:101B600014320169284601F0CEFFC0B207B030BD83
:101B700030B58DB004460D46002009900A900B90B8
:101B80000C9014222946B74832300EF023FBB54C96
:101B900080212046503009AA04230493059207911E
:101BA000069040380C22014614310E230294019213
:101BB00000910390021D1421284602F03BF8C0B2A8
:101BC0000DB030BD10B50120800206F000FB0028EA
:101BD00008D06F20A449087200BFA4A100200BF018
:101BE000A9F808E06420A049087200BFA4A1002061
:101BF0000BF0A0F800BF9C48007A10BD10B59A4CBD
:101C0000313401202070652060700920A070964852
:101C1000007820710320E071102060710420A07111
:101C20009C48407920729B4880796072FFF7CAFF18
:101C3000E070207A98494873607A88739548807E6E
:101C4000087604229349491C204624380EF0C2FA33
:101C500010BD10B586B00446002002900390049099
:101C60000590019401980290042201A98A48093044
:101C70000EF0B0FA7B48403086494A890282898951
:101C800041820C2283490E3114300EF0A3FA7549BB
:101C9000503102A802F087FE6846017C714820306E
:101CA00001716846C17B6F48243041706846C17C31
:101CB0006C48243081706846417B6A482430C1708A
:101CC0006846817A6748243001716846817C65489E
:101CD000243041716846017B624824308171684636
:101CE000817D60482430C1716846017A5D482430A6
:101CF00001726846817B5B48243041726846417DB1
:101D00005848243081726846417C56482430C1725C
:101D100006B010BD10B5FFF7FBFE52494866486E8D
:101D2000FFF797FFFFF76AFF4E480021016041600F
:101D30008160C1600A224C4931310EF04BFA4949A9
:101D400032314848FFF7F3FE1422464932315348F6
:101D50000EF040FA10BD70B50446422522462946D1
:101D600000200CF02CFD06460CF050FE70BD10B5A6
:101D7000044601202070662060700D20A0700C22A7
:101D800044490E31E01C0EF025FA4248807EE07393
:101D900010BD7FB504460020009001900290039092
:101DA00000BF3FA10AF0C6FF00BF652C04D0662C1F
:101DB00027D06E2C2FD114E0FFF704FF2A493131D0
:101DC000C87029480178313001710A2201466846FD
:101DD0000EF000FA00BF37A100200AF0ABFF00BFF1
:101DE0001AE06E2120483130C1700A22014668464F
:101DF0000EF0F0F900BF33A100200AF09BFF00BFF6
:101E00000AE06846FFF7B3FF00BF32A100200AF0E6
:101E100091FF00BF00E000BF00BF12480021016039
:101E200041608160C16069462EC92EC000BF2CA1EF
:101E300000200AF07FFF00BF10210A48FFF720FEB4
:101E4000084932310748FFF772FE14210548323045
:101E500005F0F7FA7FBD0000253032780000000061
:101E60000D0A000064300020E83300206F70656EBA
:101E7000206C6F636B207374617475730D0A0000BE
:101E8000636C6F7365206C6F636B20737461747522
:101E9000730D0A00A434002062320020473700206E
:101EA000676174745F73656E645F64617461202D33
:101EB0002D000000524541445F5354415455533A5C
:101EC000202000005057445F4552524F523A202084
:101ED00000000000524541444B45593A2020000083
:101EE000676174745F73656E645F646174613A20E6
:101EF0002000000070B504464225224629460020F5
:101F00000CF05AFC002070BD1FB50D22FD4968463B
:101F10000EF060F90C226946FB480EF05BF968464A
:101F2000007BF9490E3988760846FFF714FF00BF99
:101F3000F6A100200AF0FEFE00BF0C21F248FFF7D8
:101F40009FFDF1480E38FFF7D5FF00BFF2A100203A
:101F50000AF0F0FE00BF0C21EB48FFF791FDFFF700
:101F60004DFE05F01CFAE749C91E486EFFF771FEE9
:101F70006620FFF70EFF1FBD1CB50622E14968462B
:101F80000EF028F968460078DF490E394870684637
:101F90004178DD480E38817068468178DA480E381D
:101FA000C1706846C178D8480E380171684600791A
:101FB000D5490E39487168464179D3480E38817148
:101FC000FFF7C9FE00BFD1A100200AF0B3FE00BF99
:101FD0000421CD480D38FFF753FD0221CA480938C6
:101FE000FFF74EFDC8480E38FFF784FF00BFCAA1B7
:101FF00000200AF09FFE00BF0421C3480D38FFF700
:102000003FFD0221C0480938FFF73AFDFFF7F6FD12
:1020100005F0C5F96520FFF7BCFE1CBD70B5044690
:102020000B46551E5B19204603E01D7805705B1EAC
:10203000401C1546521E002DF7D170BDFEB504465A
:1020400000BFB8A100200AF075FE00BF1421204691
:10205000FFF716FD2146AB48C01EFFF789FD054678
:102060001021A848C01EFFF70BFD002D70D0A54819
:10207000C01E4078792863D008DC662864D06E28BA
:102080000DD06F2859D078287ED15AE07A2860D0B8
:102090007B287AD07C2879D07D28F5D1E8E004220D
:1020A000984902A8FFF7BAFF0422A34901A8FFF745
:1020B000B5FF00BFA1A10020029A0AF03BFE00BFBD
:1020C00001990298884227D101219B48133001775A
:1020D00002212030C170480405F096FE08F039FC5A
:1020E00006460020034632460121009096480068CB
:1020F00009F0D6F90121904833308171FFF7F4FCE3
:1021000000BF92A100200AF015FE00BF10217D48FB
:10211000C01EFFF7B5FC0FE000BF93A10020019A9D
:102120000AF008FE00BF6E20FFF733FE00BF91A14A
:1021300000200AF0FFFD00BFB5E0FFF71DFFB2E091
:1021400000BFFFF7E1FEAEE06620FFF722FEAAE047
:10215000AAE001206B49C91E08707A204870092046
:102160008870092168482930FFF78AFC09226649EE
:10217000293164480EF02EF810216248C01EFFF786
:102180007FFC60492F3102E08CE00AE02DE0084638
:102190003238FFF7CCFC14215A482F3005F051F9A2
:1021A00081E001205749C91E08707B2048700A2031
:1021B00088700A2154480D30FFF762FC0A22524908
:1021C0000D3150480EF006F810214E48C01EFFF7A2
:1021D00057FC4C492F3108463238FFF7A8FC142130
:1021E00048482F3005F02DF95DE000BF66A10020C2
:1021F0000AF0A0FD00BF062143481730FFF740FC5E
:1022000006224049404817300DF0E4FF10213D48B8
:10221000C01EFFF735FC3C480E38FFF79CFD3A48DE
:10222000173004F0C2FC00BF5FA100200AF082FD5D
:1022300000BF062134481730FFF722FC0120314946
:10224000C91E08707D2048700620887006222E491D
:1022500017312C480DF0BEFF2A492F31084632387D
:10226000FFF765FC142127482F3005F0EAF81AE043
:1022700001202449C91E08707D20487006208870FE
:102280000622214917311F480DF0A4FF1D492F31A7
:1022900008463238FFF74BFC14211A482F3005F05E
:1022A000D0F800BF00BF00BFFEBD1FB516480E38F6
:1022B000FFF720FE032014490E39C8711020087260
:1022C0000420487208460078A7287FD042210E4893
:1022D0000E380DF098FFA7200B490E390870082022
:1022E0004870082108480E3881700621C1700171BC
:1022F000002005490E394871002103480E388171CC
:1023000031A064E067300020B23400206368675F6A
:1023100077203D20000000006368675F72203D2049
:1023200000000000434344322061707020646174F7
:1023300061200D0A00000000F53300207077642052
:1023400025780D0A0000000008300020626C65202E
:102350006F70656E206C6F636B206973207375639B
:1023600063657373730D0A0070776420213D202527
:10237000780D0A0070617373776F7264206973203F
:102380006572726F720D0A004348414E47455F49BE
:1023900050414444523A20666C6173685F646174D2
:1023A000615F6F6C640000004348414E47455F49E0
:1023B00050414444523A20666C6173685F646174B2
:1023C000615F6E65770000002B7E151630E00068B7
:1023D00003903CA207CA6B4607C33D4869468989FA
:1023E00041816946C98981810C2269460E300DF010
:1023F000F1FE182036498885862135482030417104
:10240000AF21401D4170322181705221C1702721BE
:1024100001711A21417100211B30017000BF2DA1F3
:1024200000200AF087FC00BF2948FFF794FC00BF9A
:102430002748253004F0B9FB1FBDF0B5034615460B
:1024400000201DE01E5CF7173F0FBF193F113C46EF
:1024500030341E5CF7173F0FBF193F113F01F71BC8
:102460003037FAB2392C01DDE61DF4B2392A01DD2C
:10247000D61DF2B246008C554600761C8A55401C8B
:10248000A842DFDBF0BD10B50120C00705F0D5FC88
:102490000F200CF0EAF80120C00705F0B5FC10BDD4
:1024A0000021002800D1704706E00E4900BF0A460F
:1024B0004B1E99B2002AFAD10246401E002AF4D1DE
:1024C00000BFF0E7280E02060B071508090F4F3C66
:1024D000A4340020666C61736820696E69742E2EC6
:1024E0002E0D0A00C819000030B50346002004E094
:1024F0000C5C1D5C6C400C54401C9042F8D330BD09
:1025000008B50A68130E6A4613700A681202130EA1
:102510006A4653700A881204130E6A4693700B7849
:10252000D370037812785340037003796A46527867
:1025300053400371037A6A46927853400372037BD7
:102540006A46D278534003734A68130E6A46137082
:102550004A681202130E6A4653708A881204130ED8
:102560006A4693700B79D370437812785340437066
:1025700043796A4652785A404271437A6A46927861
:102580005A404272437B6A46D2785A4042738A6804
:10259000130E6A4613708A681202130E6A4653704D
:1025A0000A891204130E6A4693700B7AD3708378EB
:1025B00012785340837083796A4652785A40827108
:1025C000837A6A4692785A408272837B6A46D278CE
:1025D0005A408273CA68130E6A461370CA681202A0
:1025E000130E6A4653708A891204130E6A4693705A
:1025F0000B7BD370C37812785340C370C3796A469B
:1026000052785A40C271C37A6A4692785A40C2726E
:10261000C27B6B46DB785A40C27308BD01794279B0
:10262000027183794371C3798371C171017A827AAE
:1026300002728172417AC37A4372C172017BC27B9A
:102640000273837BC373437B837341737047017849
:1026500009110901FE4A891802781207120F895CD4
:102660000170417809110901F94A89184278120765
:10267000120F895C4170817809110901F44A8918A7
:1026800082781207120F895C8170C17809110901E3
:10269000EF4A8918C2781207120F895CC17001795C
:1026A00009110901EA4A891802791207120F895C97
:1026B0000171417909110901E54A8A18417909072F
:1026C000090F525C4271817909110901E04A8A18A7
:1026D00081790907090F525C8271C17909110901D9
:1026E000DB4A8A18C1790907090F525CC271017A65
:1026F00009110901D64A8918027A1207120F895C5A
:102700000172417A09110901D14A8A18417A0907EF
:10271000090F525C4272817A09110901CC4A8A1868
:10272000817A0907090F525C8272C17A0911090185
:10273000C74A8A18C17A0907090F525CC272017B25
:1027400009110901C24A8918027B1207120F895C1C
:102750000173417B09110901BD4A8A18417B0907B0
:10276000090F525C4273817B09110901B84A8A182A
:10277000817B0907090F525C8273C17B0911090132
:10278000B34A8A18C17B0907090F525CC2737047AC
:1027900008B5027869460A7002794A70027A8A702E
:1027A000027BCA70097806225143AA4A515C017023
:1027B00002786946497806235943A64BC9184978D7
:1027C0004A4002700278694689784A40027002786D
:1027D0006946C9784A4002706946097801710279F0
:1027E00069464978062359439A4B595C4A4002711D
:1027F00002796946897806235943964BC918497866
:102800004A40027102796946C9784A4002716946B4
:1028100009780172027A694649784A400272027A5E
:1028200069468978062359438A4B595C4A400272AB
:10283000027A6946C97806235943864BC9184978F4
:102840004A40027269460978062251431A4689189D
:1028500049780173027B694649784A400273027BDA
:10286000694689784A400273027B6946C978062323
:102870005943784B595C4A400273427869460A7062
:1028800042794A70427A8A70427BCA70097806227D
:1028900051431A46515C4170427869464978062393
:1028A00059436C4BC91849784A404270427869468E
:1028B00089784A40427042786946C9784A404270F5
:1028C00069460A7842714279497806235943614B37
:1028D000595C5140417142796946897806235943D0
:1028E0005C4BC91849784A40427142796946C978B7
:1028F0005140417169460A784272427A49785140A2
:102900004172427A6946897806235943514B595C92
:102910004A404272427A6946C978062359434D4B70
:10292000C91849784A4042726946097806225143DB
:102930001A4689184A784273427B69464978514061
:102940004173427B6946897851404173427B6946B5
:10295000C978062359433F4B595C4A4042738278F9
:1029600069460A7082794A70827A8A70827BCA705C
:102970000978062251431A46515C81708278694673
:10298000497806235943334BC91849784A40827025
:102990008278694689784A40827082786946C97827
:1029A0004A40827069460A788271827949780623A2
:1029B0005943284B595C4A4082718279694689782B
:1029C00006235943234BC9184978514081718279B4
:1029D0006946C9785140817169460A788272827A63
:1029E000497851408172827A694689780623594331
:1029F000184B595C4A408272827A6946C97806232C
:102A00005943144BC91849784A408272694609787B
:102A1000062251431A4689184A788273827B694696
:102A2000497851408173827B69468978514081732E
:102A3000817B6A46D27806235A43064B9A5C514002
:102A40008173C27869460A70C2794A70C27A03E01B
:102A5000E8140110E81601108A70C27BCA70097868
:102A6000062251431A46515CC170C27869464978C2
:102A700006235943FE4BC91849784A40C270C278B0
:102A8000694689784A40C270C2786946C9784A4026
:102A9000C27069460A78C271C279497806235943DF
:102AA000F34B595C5140C171C2796946897806235C
:102AB0005943EF4BC91849785140C171C2796946F1
:102AC000C9785140C17169460A78C272C27A4978A0
:102AD0005140C172C27A6946897806235943E44B52
:102AE000595C4A40C272C27A6946C9780623594382
:102AF000DF4BC91849784A40C272694609780622F4
:102B000051431A4689184A78C273C27B694649788C
:102B10005140C173C27B694689785140C173C17B02
:102B20006A46D27806235A43D14B9A5C5140C1730E
:102B300008BDFFB505460E4614461F46297868466F
:102B4000017069780171A9780172E97801732979B6
:102B5000417069794171A9794172E9794173297AA2
:102B60008170697A8171A97A8172E97A8173297B8E
:102B7000C170697BC171A97BC172E97BC1732146B8
:102B8000FFF7BEFC6846FFF762FD6846FFF746FDAB
:102B90006846FFF7FDFD214610316846FFF7B0FC9F
:102BA0006846FFF754FD6846FFF738FD6846FFF7B3
:102BB000EFFD214620316846FFF7A2FC6846FFF78B
:102BC00046FD6846FFF72AFD6846FFF7E1FD21460E
:102BD00030316846FFF794FC6846FFF738FD6846D9
:102BE000FFF71CFD6846FFF7D3FD214640316846DC
:102BF000FFF786FC6846FFF72AFD6846FFF70EFDE3
:102C00006846FFF7C5FD214650316846FFF778FC5E
:102C10006846FFF71CFD6846FFF700FD6846FFF7B2
:102C2000B7FD214660316846FFF76AFC6846FFF74A
:102C30000EFD6846FFF7F2FC6846FFF7A9FD214646
:102C400070316846FFF75CFC6846FFF700FD684698
:102C5000FFF7E4FC6846FFF79BFD2146803168469C
:102C6000FFF74EFC6846FFF7F2FC6846FFF7D6FC1C
:102C70006846FFF78DFD214690316846FFF740FC1E
:102C8000802F51D06846FFF7E2FC6846FFF7C6FC8C
:102C90006846FFF77DFD2146A0316846FFF730FC0E
:102CA0006846FFF7D4FC6846FFF7B8FC6846FFF7B4
:102CB0006FFD2146B0316846FFF722FCC02F27D0B8
:102CC0006846FFF7C4FC6846FFF7A8FC6846FFF7B4
:102CD0005FFD2146C0316846FFF712FC6846FFF7EA
:102CE000B6FC6846FFF79AFC6846FFF751FD21469F
:102CF000D0316846FFF704FC6846FFF7A8FC684639
:102D0000FFF78CFC2146E0316846FFF7F9FB16E03F
:102D10006846FFF79CFC6846FFF780FC2146C031FF
:102D20006846FFF7EDFB0AE06846FFF790FC68464F
:102D3000FFF774FC2146A0316846FFF7E1FB6846C7
:102D4000007830706846007970706846007AB0701C
:102D50006846007BF070684640783071684640797C
:102D600070716846407AB0716846407BF071684681
:102D7000807830726846807970726846807AB07266
:102D80006846807BF0726846C07830736846C079C8
:102D900070736846C07AB0736846C07BF073FFBD3D
:102DA000FFB58DB0074615461E460E9800090090E7
:102DB000102201A818990DF00DFA00241CE0200142
:102DC000C119102209A80DF005FA102209A901A8BD
:102DD000FFF78AFB05A909A8179B169AFFF7A9FE1A
:102DE00021018819102205A90DF0F4F905A80FC8D2
:102DF000049301AB07C3641C00988442DFDB002D01
:102E00001AD01022294609A80DF0E4F9102209A9C8
:102E100001A8FFF769FB05A909A8179B169AFFF7F8
:102E200088FE21018819102205A90DF0D3F905A803
:102E30000FC8049301AB07C311B0F0BD01780911AD
:102E400009010C4A891802781207120F895C017077
:102E5000417809110901074A891842781207120FAF
:102E6000895C4170817809110901024A891803E0DF
:102E7000E8160110E815011082781207120F895C1C
:102E80008170C17809110901FE4A8918C2781207B8
:102E9000120F895CC170017909110901F94A891879
:102EA00002791207120F895C017141790911090138
:102EB000F44A8A1841790907090F525C42718179F5
:102EC00009110901EF4A8A1881790907090F525C33
:102ED0008271C17909110901EA4A8A18C179090781
:102EE000090F525CC271017A09110901E54A89187A
:102EF000027A1207120F895C0172417A09110901E5
:102F0000E04A8A18417A0907090F525C4272817AB5
:102F100009110901DB4A8A18817A0907090F525CF5
:102F20008272C17A09110901D64A8A18C17A090741
:102F3000090F525CC272017B09110901D14A89183B
:102F4000027B1207120F895C0173417B0911090191
:102F5000CC4A8A18417B0907090F525C4273817B76
:102F600009110901C74A8A18817B0907090F525CB8
:102F70008273C17B09110901C24A8A18C17B090702
:102F8000090F525CC2737047C1798379C371437969
:102F90008371037943710171C17A437AC3724172BB
:102FA000817A037A83720172C17B037BC373427B94
:102FB0000273837B43738173704708B50278694657
:102FC0000A7002794A70027A8A70027BCA700978A4
:102FD00006225143AC4A8918497901700278694642
:102FE000497806235943A84BC918C9784A4002704A
:102FF00002786946897806235943A34BC918097991
:103000004A40027002786946C978062359439E4BAC
:10301000C91889784A4002706946097806225143E6
:103020001A46891889780171027969464978062318
:103030005943954BC91849794A400271027969464A
:10304000897806235943904BC918C9784A400271C0
:1030500002796946C978062359438B4BC918097907
:103060004A40027169460978062251431A46891876
:1030700009790172027A6946497806235943824BDD
:10308000C91889784A400272027A6946897806230B
:1030900059437D4BC91849794A400272027A694600
:1030A000C97806235943784BC918C9784A40027237
:1030B00069460978062251431A468918C97801736E
:1030C000027B69464978062359436F4BC918097931
:1030D0004A400273027B69468978062359436A4B4A
:1030E000C91889784A400273027B6946C978062369
:1030F0005943654BC91849794A4002734278694679
:103100000A7042794A70427A8A70427BCA700978A2
:10311000062251431A468918497941704278694616
:10312000497806235943584BC918C9784A40427018
:1031300042786946897806235943534BC91809795F
:103140004A40427042786946C978062359434E4B3B
:10315000C91889784A404270694609780622514365
:103160001A4689188A784271427969464978062355
:103170005943454BC91849795140417142796946D3
:10318000897806235943404BC918C9784A4042718F
:1031900042796946C978062359433B4BC9180979D6
:1031A0004A40427169460978062251431A468918F5
:1031B0000A794272427A6946497806235943324B6A
:1031C000C918897851404172427A69468978062344
:1031D00059432D4BC918497951404172427A694689
:1031E000C97806235943284BC918C9784A40427206
:1031F00069460978062251431A468918CA784273EB
:10320000427B69464978062359431F4BC9180979FF
:1032100051404173427B69468978062359431A4BD2
:10322000C91889784A404273427B6946C9780623A7
:103230005943154BC9184979514041738278694601
:103240000A7082794A70827A8A70827BCA700978A1
:10325000062251431A468918497981708278694655
:10326000497806235943084BC918C9784A408270E7
:1032700082786946897806235943034BC91809792E
:103280004A4003E0E8150110E816011082708278C8
:103290006946C97806235943FE4BC91889784A40C4
:1032A000827069460978062251431A4689188A783D
:1032B000827182796946497806235943F54BC918CA
:1032C0004979514081718279694689780623594349
:1032D000F04BC918C9785140817181796A46D2781A
:1032E00006235A43EB4BD21812795140817169463B
:1032F0000978062251431A4689180A798272827A1D
:103300006946497806235943E24BC91889784A40EF
:103310008272827A6946897806235943DD4BC9183F
:1033200049794A408272827A6946C97806235943AC
:10333000D84BC918C978514081726946097806226C
:1033400051431A468918CA788273827B6946497844
:1033500006235943CF4BC91809794A408273827BAF
:103360006946897806235943CA4BC9188978514060
:103370008173827B6946C97806235943C54BC918B6
:1033800049794A408273C27869460A70C2794A70A4
:10339000C27A8A70C27BCA700978062251431A46E3
:1033A00089184979C170C27869464978062359431A
:1033B000B84BC918C9784A40C270C2786946897842
:1033C00006235943B34BC91809794A40C270C278E1
:1033D0006946C97806235943AE4BC91889784A40D3
:1033E000C27069460978062251431A4689188A78BC
:1033F000C271C2796946497806235943A54BC91859
:1034000049794A40C271C27969468978062359438D
:10341000A04BC918C9785140C171C2796946C978B1
:10342000062359439B4BC91809794A40C271694622
:103430000978062251431A4689180A79C272C27A5B
:103440006946497806235943924BC91889784A40FE
:10345000C272C27A69468978062359438D4BC918CE
:1034600049794A40C272C27A6946C97806235943EB
:10347000884BC918C9784A40C27269460978062241
:1034800051431A468918CA78C273C27B6946497883
:10349000062359437F4BC91809795140C173C27B38
:1034A00069468978062359437A4BC91889784A4076
:1034B000C273C17B6A46D27806235A43754BD21831
:1034C00052795140C17308BDFFB505460E461446FA
:1034D0001F4629786846017069780171A9780172E0
:1034E000E97801732979417069794171A97941724B
:1034F000E9794173297A8170697A8171A97A817237
:10350000E97A8173297BC170697BC171A97BC17222
:10351000E97BC173802F44DDC02F20DD2146E031DF
:10352000FEF7EEFF6846FFF72FFD6846FFF786FCC3
:103530002146D0316846FEF7E3FF6846FFF73DFDC0
:103540006846FFF721FD6846FFF778FC2146C03149
:103550006846FEF7D5FF6846FFF72FFD04E02146D9
:10356000C0316846FEF7CCFF6846FFF70DFD6846A0
:10357000FFF764FC2146B0316846FEF7C1FF68469C
:10358000FFF71BFD6846FFF7FFFC6846FFF756FC98
:103590002146A0316846FEF7B3FF6846FFF70DFDF0
:1035A00004E02146A0316846FEF7AAFF6846FFF70F
:1035B000EBFC6846FFF742FC214690316846FEF777
:1035C0009FFF6846FFF7F9FC6846FFF7DDFC684699
:1035D000FFF734FC214680316846FEF791FF6846CC
:1035E000FFF7EBFC6846FFF7CFFC6846FFF726FCC9
:1035F000214670316846FEF783FF6846FFF7DDFC21
:103600006846FFF7C1FC6846FFF718FC21466031A9
:103610006846FEF775FF6846FFF7CFFC6846FFF780
:10362000B3FC6846FFF70AFC214650316846FEF7B6
:1036300067FF6846FFF7C1FC6846FFF7A5FC6846D0
:10364000FFF7FCFB214640316846FEF759FF68460C
:10365000FFF7B3FC6846FFF797FC6846FFF7EEFB01
:10366000214630316846FEF74BFF6846FFF7A5FC60
:103670006846FFF789FC6846FFF7E0FB21462031EA
:103680006846FEF73DFF6846FFF797FC6846FFF780
:103690007BFC01E0E81601106846FFF7CFFB2146EE
:1036A00010316846FEF72CFF6846FFF786FC684637
:1036B000FFF76AFC6846FFF7C1FB21466846FEF744
:1036C0001FFF684600783070684600797070684661
:1036D000007AB0706846007BF070684640783071C0
:1036E0006846407970716846407AB0716846407BA0
:1036F000F0716846807830726846807970726846EA
:10370000807AB0726846807BF0726846C078307309
:103710006846C07970736846C07AB0736846C07BEB
:10372000F073FFBDFFB58DB005460E461746300954
:103730000090102201A817990CF04CFD00241CE009
:1037400020014119102209A80CF044FD05A909A87F
:10375000169B109AFFF7B8FE102205A901A8FEF7E4
:10376000C3FE2101C819102205A90CF033FD09A8D8
:103770000FC8049301AB07C3641C00988442DFDBCD
:1037800011B0F0BDFFB58DB006460D4617462807AF
:10379000000F002802D0002011B0F0BD28090090D1
:1037A000102201A817990CF015FD002416E0200145
:1037B0008119102209A80CF00DFD102209A901A8F9
:1037C000FEF792FE05A909A8169B109AFFF7B1F91A
:1037D00005A80FC8049301AB07C3641C009884427A
:1037E000E5DB102205A938460CF0F4FC0120D3E7F4
:1037F00002460F200BE0135C5B1C1354135C002B80
:1038000003D110235B1A834200D104E0401E102331
:103810005B1A8342EFDD00BF7047FFB589B00746F2
:103820000C4615460026AF4204D0224639462846AB
:103830000CF0D0FC102204A813990CF0CBFC20460D
:1038400010380890102C14D900260FE0694604A8FF
:10385000129B0C9AFFF76DF9A91910226846FEF722
:1038600043FE102104A8FFF7C3FF103608988642D4
:10387000ECD3694604A8129B0C9AFFF75AF9A21BD5
:10388000A9196846FEF730FE0DB0F0BDFFB583B054
:1038900004460D4616460C9F0D980097019032463F
:1038A00029462046069BFFF7B8FF07B0F0BDF8B5E4
:1038B00004460E4617461D46102120460CF0A3FC78
:1038C000681E4007400F20703A463146601C0CF0DD
:1038D00081FCF8BDFFB581B006460C461F46216845
:1038E00088193A4603990CF075FC2068C0192060CD
:1038F0002068C117090F091809110901451A002D7F
:1039000001D01020451B2168881929460CF07BFC4A
:1039100020684019206005B0F0BDF8B505460C469A
:1039200017461E462068401C2E543004000E2168A5
:1039300068542068801C2060216848193246394646
:103940000CF048FC2068801920602068C117090F1E
:10395000091809110901411A1022511A0091216810
:10396000481900990CF04FFC216800980818206055
:10397000F8BDFFB581B004460F4615460C9E0A9966
:10398000881EC10F09180907490FCA000499491E6A
:103990004907490F0A432270002F02DD207840308A
:1039A00020703246601C0B990CF014FC0F22911B06
:1039B000721C10190CF027FCE5732804000EA0738C
:1039C00005B0F0BD01460A06120F1201E44BD218F1
:1039D0000B071B0FD05C0A04120F1201E04BD21828
:1039E0000B051B0FD25C120210180A02120F1201F3
:1039F000DB4BD2180B031B0FD25C120410180A0FFA
:103A00001201D74BD2180B011B0FD25C12061018F3
:103A10007047F7B592B00646042011903C22D14978
:103A200068460CF0D7FB1498802806D0C02808D030
:103A3000FF38013800280CD107E00A201090042537
:103A400009E00C201090062505E00E2010900825B6
:103A500001E015B0F0BD00BF002414E0A000305C10
:103A60000106A000401C305C00040843A100891C32
:103A7000715C09020843A100C91C715C0843A200E3
:103A800013998850641CAC42E8DB2C4633E0601E7E
:103A90008100139840580F90294620460CF086FB71
:103AA000002912D10F9909020F9A120E11430846EC
:103AB000FFF788FF0746601E29460CF077FB800061
:103AC0006946085847400F970BE0062D09DD294647
:103AD00020460CF06BFB042903D10F98FFF772FF0F
:103AE0000F90601B8100139840580F994840A20026
:103AF00013998850641C1099491C11984843A0429E
:103B0000C5DC00BFA5E7FFB5CFB00D465A9F599E53
:103B10005C9C042C0ED0062C0CD0082C0AD00A2C4D
:103B200008D00C2C06D00E2C04D0102C02D0002073
:103B300053B0F0BD072E01DB0D2E01DD0020F7E7AD
:103B40000121C9035298884201DD0020F0E7529913
:103B50006918084630300DF091FC429042980028D8
:103B600000D1E5E704A95E9A5D98FFF752FF0F20A8
:103B7000801B409058980296009401902A46409BE2
:103B800052994298FFF7F5FE1020419041A9529BAF
:103B9000519A4298FFF7C1FE202041902B4641A93F
:103BA0004F9A4298FFF796FE324647A8409B589995
:103BB000FFF77DFE00204B904C904D904E904BA90E
:103BC0005E9804AB43AA0191009041994298FFF797
:103BD000D9FD2A4638464F990CF0FCFA781922464E
:103BE00043A90CF0F7FA47A80FC84E934BAB07C395
:103BF0000F20011B4BA8FFF7FBFD4BA95E9804AB00
:103C00003A460191009029463846FFF706FE47A93B
:103C10005E987A1901910090781904AB21460390BF
:103C2000FFF7FBFD42980DF0FFFB29195B9801603F
:103C300001207DE7FFB5D3B00E465FACB0CCAE42FD
:103C400002D8002057B0F0BD569989190846303087
:103C50000DF014FC42904298002800D1F2E704A92C
:103C6000639A6298FFF7D5FE701B20600F215D9864
:103C7000081A4090226853995E980CF0ABFA2268BB
:103C8000539811182A4647A80CF0A4FA4BA8409B59
:103C90005D9A5C99FFF70BFE4BA80FC852934FAB90
:103CA00007C30F20411B4FA8FFF7A2FD4FA9639840
:103CB0000191009004AB21685E9A1046FFF7E6FD83
:103CC000002F47D04BA9639804AB47AA01910090FD
:103CD000294647A8FFF7DAFD0F215D98081A4090A2
:103CE0005C995D980095019102902268409B5699DD
:103CF0004298FFF73EFE1020419041A9569B559AED
:103D00004298FFF70AFE20204190236841A95E9A5D
:103D10004298FFF7DFFD00204F9050905190529055
:103D20004FA9639804AB43AA01910090419942982E
:103D3000FFF728FD2A4643A947A80CF096FA002869
:103D400002D10120386005E00020386021685E98CB
:103D50000CF059FA42980DF067FB386872E70000E2
:103D6000E8140110E81C011030B50246002003E001
:103D70000C5C1454441CA0B21028F9DB0120B9E0FB
:103D80000401241F135D0401E41E145DFE4D2C5D2F
:103D9000451E2D01555D6C40FC4D2D5C6C400501B0
:103DA00054550401A41E145DF74D2C5D451E2D01D4
:103DB0006D1C555D6C4005016D1C54550401641E5D
:103DC000145DF14D2C5D451E2D01AD1C555D6C4003
:103DD0000501AD1C5455EC4CE45C451E2D01ED1C59
:103DE000555D6C400501ED1C5455441E2401241DF5
:103DF000145D0501555D65400401241D1555441EE3
:103E00002401641D155D0401641C145D65400401FA
:103E1000641D1555441E2401A41D155D0401A41C38
:103E2000145D65400401A41D1555441E2401E41DC4
:103E3000145D0501ED1C555D6C400501ED1D5455EB
:103E4000441E24010834145D05012D1D555D654097
:103E5000040108341555441E24010934145D05017C
:103E60006D1D555D6540040109341555441E24013E
:103E70000A34155D0401A41D145D6C4005010A356A
:103E80005455441E24010B34155D0401E41D145DDA
:103E9000654004010B341555441E24010C34145D97
:103EA00005010835555D654004010C341555441E67
:103EB00024010D34155D04010934145D65400401CD
:103EC0000D341555441E24010E34155D04010A34C9
:103ED000145D6C4005010E355455441E24010F3409
:103EE000145D05010B35555D654004010F34155512
:103EF000441CA0B20B2800DA42E730BD0146C811CD
:103F0000002805D04806010E08461B225040704785
:103F10004806000EFBE7FEB504460D46002681E18B
:103F200020783101695C48409749085C207020790D
:103F30003101091D695C48409349085C2071217A70
:103F400030010830285C41408F48405C2072217B62
:103F500030010C30285C41408B48405C2073607815
:103F60003101491C695C4840074661793001401DB8
:103F7000285C41408448405C6070607A31010931BE
:103F8000695C48408049085C6071617B30010D309C
:103F9000285C41407C48405C60727B48C05D607337
:103FA000A0783101891C695C48400746A17930013D
:103FB000801D285C41400191A07A31010A31695C81
:103FC00048407149085CA070A07B31010E31695CEA
:103FD00048406D49085CA0710846C05DA072019818
:103FE000085CA073E07B31010F31695C48400746F3
:103FF000E07A31010B31695C48406349085CE07349
:10400000E0793101C91D695C48405F49085CE07294
:10401000E0783101C91C695C48405B49085CE0718B
:104020000846C05DE070207861784840A17848403B
:10403000E178484007462078019020786178484030
:1040400000900098FFF75AFF0090207800994840B0
:10405000784020706078A178484000900098FFF781
:104060004DFF009060780099484078406070A078DB
:10407000E178484000900098FFF740FF0090A0785A
:10408000009948407840A070E0780199484000903D
:104090000098FFF733FF0090E0780099484078409F
:1040A000E070207961794840A1794840E179484041
:1040B0000746207901902079617948400090009866
:1040C000FFF71CFF0090207900994840784020714C
:1040D0006079A179484000900098FFF70FFF0090A9
:1040E00060790099484078406071A079E179484052
:1040F00000900098FFF702FF0090A07900994840D7
:104100007840A071E0790199484000900098FFF74D
:10411000F5FE0090E079009948407840E071207AFF
:10412000617A4840A17A4840E17A48400746207ABF
:104130000190207A617A484000900098FFF7DEFEF7
:104140000090207A0099484078402072607AA17AE5
:10415000484000900098FFF7D1FE0090607A0099E7
:10416000484078406072A07AE17A48400090009818
:10417000FFF7C4FE0090A07A009948407840A072F2
:10418000E07A0199484003E0241D0110241F01102A
:1041900000900098FFF7B2FE0090E07A0099484046
:1041A0007840E072207B617B4840A17B4840E17B06
:1041B00048400746207B0190207B617B484000906F
:1041C0000098FFF79BFE0090207B009948407840C4
:1041D0002073607BA17B484000900098FFF78EFE23
:1041E0000090607B0099484078406073A07BE17B41
:1041F000484000900098FFF781FE0090A07B009956
:1042000048407840A073E07B0199484000900098B6
:10421000FFF774FE0090E07B009948407840E0731F
:10422000701CC6B2092E00DA7AE620783101695C8A
:104230004840FE49085C207021793001001D285C4F
:104240004140FA48405C2071217A30010830285CF6
:104250004140F648405C2072217B30010C30285CE4
:104260004140F248405C207360783101491C695C30
:104270004840074660793101491D695C4840EB4977
:10428000085C6070617A30010930285C4140E74881
:10429000405C6071607B31010D31695C4840E349ED
:1042A000085C60720846C05D6073A1783001801CB4
:1042B000285C41400F46A1793001801D285C4140B7
:1042C0000191A17A30010A30285C4140D748405C16
:1042D000A070A17B30010E30285C4140D348405C87
:1042E000A071D248C05DA072D0490198085CA0734B
:1042F000E17B30010F30285C41400F46E07A31010C
:104300000B31695C4840C949085CE073E1793001D0
:10431000C01D285C4140C548405CE072E178300136
:10432000C01C285C4140C148405CE071BF48C05D92
:10433000E0702078A021495D484020706078A1217C
:10434000495D48406070A078A221495D4840A07056
:10435000E078A321495D4840E0702079A421495DBF
:10436000484020716079A521495D48406071A0797D
:10437000A621495D4840A071E079A721495D4840E8
:10438000E071207AA821495D48402072607AA92115
:10439000495D48406072A07AAA21495D4840A072F8
:1043A000E07AAB21495D4840E072207BAC21495D59
:1043B00048402073607BAD21495D48406073A07B1D
:1043C000AE21495D4840A073E07BAF21495D484084
:1043D000E073FEBDFEB504460D4609262078A021F7
:1043E000495D484020706078A121495D4840607077
:1043F000A078A221495D4840A070E078A321495DE2
:104400004840E0702079A421495D484020716079DE
:10441000A521495D48406071A079A621495D4840C9
:10442000A071E079A721495D4840E071207AA82178
:10443000495D48402072607AA921495D4840607218
:10444000A07AAA21495D4840A072E07AAB21495D7B
:104450004840E072207BAC21495D48402073607B7E
:10446000AD21495D48406073A07BAE21495D484065
:10447000A073E07BAF21495D4840E07320786C4930
:10448000085C3101695C4840207020796849085C0B
:104490003101091D695C48402071207A6449095C3A
:1044A00030010830285C41402172207B6049085C63
:1044B00031010C31695C48402073607B5C49085CC9
:1044C0003101491C695C48400746607A5849085CDC
:1044D00031010D31695C4840607360795449095C71
:1044E00030010930285C4140617260785049095CB4
:1044F0003001401D285C414061716770A0784C49D3
:10450000085C31010A31695C48400746A079484996
:10451000085C31010E31695C48400290A07A444940
:10452000085C3101891C695C4840A070A07B40494F
:10453000085C3101891D695C4840A071A77202982E
:10454000A073E0783A49095C30010F30285C4140A3
:104550000F46E0793649095C3001C01C285C4140B7
:10456000E170E07A3249095C3001C01D285C4140AD
:10457000E171E07B2E49085C31010B31695C4840F8
:10458000E072E77308260AE22178A27851400846D3
:10459000FFF7B4FC0090FFF7B1FC07466178E278C2
:1045A00051400846FFF7AAFC0090FFF7A7FC0290D5
:1045B0002078784020706078029948406070A07838
:1045C0007840A070E07802994840E0702179A279A3
:1045D00051400846FFF792FC0090FFF78FFC07461A
:1045E0006179E27951400846FFF788FC0090FFF7B7
:1045F00085FC0290207978402071607902994840CA
:104600006071A0797840A071E07902994840E0712A
:10461000217AA27A51400846FFF770FC0090FFF71C
:104620006DFC0746617AE27A514003E0241D0110D7
:10463000241E01100846FFF761FC0090FFF75EFCA6
:104640000290207A78402072607A02994840607225
:10465000A07A7840A072E07A02994840E072217B0B
:10466000A27B51400846FFF749FC0090FFF746FC4B
:104670000746617BE27B51400846FFF73FFC009014
:10468000FFF73CFC0290207B78402073607B02990E
:1046900048406073A07B7840A073E07B029948405B
:1046A000E073207861784840A1784840E17848403C
:1046B0000746207802902078617848400190019860
:1046C000FFF71CFC01902078019948407840207049
:1046D0006078A178484001900198FFF70FFC0190A5
:1046E00060780199484078406070A078E17848404F
:1046F00001900198FFF702FC0190A07801994840D1
:104700007840A070E0780299484001900198FFF746
:10471000F5FB0190E078019948407840E0702079FD
:1047200061794840A1794840E179484007462079BD
:10473000029020796179484001900198FFF7DEFBF3
:104740000190207901994840784020716079A179E1
:10475000484001900198FFF7D1FB019060790199E1
:10476000484078406071A079E17948400190019813
:10477000FFF7C4FB0190A079019948407840A071EF
:10478000E0790299484001900198FFF7B7FB01904A
:10479000E079019948407840E071207A617A484098
:1047A000A17A4840E17A48400746207A0290207A70
:1047B000617A484001900198FFF7A0FB0190207AB0
:1047C0000199484078402072607AA17A484001906F
:1047D0000198FFF793FB0190607A01994840784077
:1047E0006072A07AE17A484001900198FFF786FB59
:1047F0000190A07A019948407840A072E07A02992D
:10480000484001900198FFF779FB0190E07A019907
:1048100048407840E072207B617B4840A17B484063
:10482000E17B48400746207B0290207B617B48402B
:1048300001900198FFF762FB0190207B01994840AD
:1048400078402073607BA17B484001900198FFF77E
:1048500055FB0190607B0199484078406073A07BD4
:10486000E17B484001900198FFF748FB0190A07B55
:10487000019948407840A073E07B0299484001903C
:104880000198FFF73BFB0190E07B0199484078409D
:10489000E07320785249085C3101695C484020701F
:1048A00020794F49095C3001001D285C414021718D
:1048B000207A4B49085C31010831695C484020721C
:1048C000207B4749095C30010C30285C4140217352
:1048D000607B4349095C3001401C285C41400F4625
:1048E000607A3F49095C30010D30285C41406173BA
:1048F00060793B49085C31010931695C484060726C
:1049000060783749085C3101491D695C4840607135
:104910006770A0783249085C31010A31695C48400F
:104920000746A0792E49085C31010E31695C484088
:104930000290A07A2A49095C3001801C285C414021
:10494000A170A07B2649085C3101891D695C484043
:10495000A071A7720298A073E0782149095C300128
:104960000F30285C41400F46E0791D49085C310159
:10497000C91C695C4840E070E07A1949095C300163
:10498000C01D285C4140E171E07B1549085C3101A4
:104990000B31695C4840E072E773701E46B2002E2E
:1049A00000DBF1E5FEBD30B5ADB004460D4629464D
:1049B00001A8FFF7D9F901A92046FFF7ACFA2DB0FD
:1049C00030BD30B5ADB004460D46294601A8FFF70D
:1049D000CBF901A92046FFF7FDFC2DB030BD00004A
:1049E000241E011070B504460E4615460E20FE49E1
:1049F00009680870681CFC4909684870FA48006832
:104A000084702A463146F8480068C01C0BF0E2FB6F
:104A100070BD08B509F035FF0020009001226946FD
:104A20001620FFF7DFFF08BD38B50446607821780F
:104A30000002084301210903884200DD38BD607887
:104A4000217800020843A178401801210903884217
:104A500007DD607821780002084301210903081A64
:104A6000A070A2786178237809021943DF4BC81837
:104A7000E11C0BF0AFFB00BFA37860782178000247
:104A800008430246DAA1002008F054F900BF0020D4
:104A90000090012269461720FFF7A4FF00BFCDE771
:104AA0007CB504460D46164668464570290A817055
:104AB000C670310A01710470052269461420FFF79F
:104AC00091FF7CBD7CB504460025601C0BF0E3FB28
:104AD000064622783146C5480AF0A3F8054600BFCD
:104AE000601C0BF0D8FB0646207833462A46C7A147
:104AF0000090002008F01EF900BF002D02D1012017
:104B0000019001E000200190012201A91820FFF787
:104B100069FF7CBDF8B5054600BFC2480079002892
:104B200008D0C04A1179203A126A5001BD4A203A91
:104B300009F01AFF00BF28460BF0ADFB0646687966
:104B400029790002084303463246B7A1002008F045
:104B5000F1F800BF28460BF09EFB064668792979DC
:104B600000020843034632460021084609F00BFFC5
:104B7000044600BF2246B2A1002008F0DBF800BFC7
:104B8000002C02D10120009001E0002000900122C1
:104B900069461820FFF726FFF8BDF8B5054600BFA7
:104BA00000BF28460BF077FB06466879297900029A
:104BB0000843034632469CA1002008F0BBF800BF22
:104BC00028460BF068FB064668792A7900021043F4
:104BD0000146304609F0DCFE044600BF22469DA196
:104BE000002008F0A7F800BF002C02D1012000909F
:104BF00001E000200090012269461820FFF7F2FE34
:104C0000F8BD002804D00021974A1170974A11700E
:104C10000021974A1180974A1180974A1180974A3C
:104C20001180974A11607047F8B505460E462C462C
:104C30008F480088002803D08B480078002873D163
:104C40002078152840D008DC11281FD012282DD03C
:104C5000132832D0142818D13DE0162806D0202879
:104C600063D0232875D02428F5D19BE000BF85A10F
:104C7000002008F05FF800BF01200AF0BDFD012010
:104C80007949087000207E49086092E0002002F017
:104C9000FEFB00BF7FA1002008F04CF800BF0420FD
:104CA0007149087000207649086082E0A01CFFF777
:104CB000BBFE05206C4908707BE0A01CFFF702FFDB
:104CC00006206949087074E0A01CFFF723FF032049
:104CD000654908706DE0E179A279080210436449E2
:104CE0000880617A227A0802104362490880A01C79
:104CF0000BF0D1FA6249086000205F4908805F49E3
:104D0000088000BFA01C0BF0C6FA0746617A227A21
:104D1000080210430090564803883A4662A10020DA
:104D200008F008F800BF44E044E0002002F0AFFBC8
:104D300000BF6AA1002007F0FDFF00BF01200AF0BC
:104D40005BFD07204849087000204D49086030E0AD
:104D5000FFE7E179A2790802104345490880617AAA
:104D6000227A0802104343490880A01C0BF093FAF2
:104D7000434908600020404908804049088000BF3E
:104D8000A01C0BF088FA0746617A227A08021043C9
:104D90000090374803883A4655A1002007F0CAFF23
:104DA00000BF06E0A01CFFF7F8FE03202E490870A4
:104DB00000BF40E100202D490870002707E0E85DB2
:104DC0002E49098840182D490880781C87B2B742BF
:104DD000F5DB2846E917890F091889108900691A37
:104DE00000D0A1E0CAE00000E43000204A07002023
:104DF000636D64344B53455454494E47577269743C
:104E0000652025782025780D0A000000436F646531
:104E10005570646174653D25642025782025780DE2
:104E20000A000000083500206F746120737A3A256B
:104E30007820636865636B73756D3A257820000090
:104E4000436F64655570646174657632303D2564E6
:104E50000D0A0000436F64655570646174657633B4
:104E6000303D25640D0A0000CC300020CD300020FC
:104E7000CE300020D2300020D0300020D4300020AE
:104E8000D8300020434D445F46575F45524153455B
:104E90000D0A0000344B53455454494E475F455268
:104EA000415345200D0A0000434D445F46575F576C
:104EB000524954455F5354415254206F666673659E
:104EC000743A25782C73697A653A25782063686589
:104ED000636B73756D3A25780D0A0000464C41539B
:104EE00048444154415F4552415345200D0A00005A
:104EF000464C415348444154415F57524954455FE1
:104F00005354415254206F66667365743A25782C69
:104F100073697A653A257820636865636B73756D8C
:104F20003A25780D0A000000324629464D480BF01C
:104F300051F94D480078022803D04B4800780128E9
:104F40000AD14A4909684A4A12888818454A3146AE
:104F500009F00AFD074635E043480078082803D0E9
:104F60004148007807282DD140490968404A1288F5
:104F700088183C4A314609F068FC23E03A4800783A
:104F8000022803D03848007801280AD13749096837
:104F9000374A128888182A46314609F0E5FC074648
:104FA00010E031480078082803D02F4800780728FF
:104FB00008D12E4909682E4A128888182A46314697
:104FC00009F043FC2A4800888019294908800846CE
:104FD00000882849098888422CDB2748008827490F
:104FE000098888420CD12448028821480188002081
:104FF000FFF756FD00BF22A1002007F09BFE0CE04A
:105000001D4802881A4801880120FFF749FD00BFAA
:105010001FA1002007F08EFE00BF00BF17480388C5
:10502000154802881EA1002007F084FE00BF002062
:10503000FFF7E7FD00BFF8BD70B505460C462348F5
:1050400000684078821C224928460BF0C3F81F48AC
:1050500000684078801C20701D480021016041607C
:1050600070BD0000E8340020CC300020D830002093
:10507000D0300020CE300020D4300020D2300020AC
:1050800073656374696F6E204F4B21200000000030
:1050900073656374696F6E206661696C65212000B9
:1050A0006F74615F726563656976655F6368656388
:1050B0006B3A2578206F74615F73656374696F6EF6
:1050C0005F636865636B3A25780D0A00E430002061
:1050D000DC30002010B5002800D110BD0A24047374
:1050E00003718260FD4CC4810160002444734461FB
:1050F0000476047400BFF0E738B504460D46207905
:10510000002806D001280ED0022820D003282AD15A
:1051100013E0F3A24C21284623680BF0BDFC81B2BA
:105120004C20415320E0F0A24C21284623680BF08C
:10513000B3FC81B24C20415316E0EDA24C2128462D
:1051400023680BF0A9FC81B24C2041530CE0A0680D
:105150000090E9A24C21284623680BF09DFC81B207
:105160004C20415300E000BF00BF38BDF1B584B012
:105170000025E3A0039000260020029001900399EF
:1051800004980BF057F8054600BF2A46DEA1002020
:1051900007F0D0FD00BF002D71D0687C30380A21A7
:1051A0004843A97C30394018C6B2002006E029786F
:1051B000AB2900D104E06D1C411CC8B2C828F6DD43
:1051C00000BF32462946D6480BF004F8D448007890
:1051D000AB287DD100210AE0D148801C425CD14837
:1051E000405C824202D0032005B0F0BD491C082972
:1051F000F2DBCB48C07A0002C949097B0843019021
:105200000026002443E00C206043C74940188088F2
:1052100001990840002833D001210C206043C24A84
:10522000801881700C2060431146401880798019E5
:10523000C6B20C20604340184078002808D1701C8A
:10524000B7490B31095C0C2060438018C1711DE027
:10525000B6490C206043B44A801881600C23634334
:105260001746DB199A79731CAD4F0B37D9190C23EC
:105270006343AD4FDB1998680AF0ACFF06E079E0B4
:1052800000210C206043A84A80188170641C0F2CF8
:10529000B9DBA34840780B3803000BF042FC06044E
:1052A00036373839616900BFA1A1002007F042FDFF
:1052B00000BF9D488078002805D09B48C07903280E
:1052C00001D1022002909848A8308078002800E0A0
:1052D00052E019D09348123001789348A830C07931
:1052E000814211D09048A830C1798E4812300170A7
:1052F0004038FCF730FD00BF8A481230027891A197
:10530000002007F017FD00BF33E000BF00BF00BF63
:10531000012002908448A8308078002819D0814864
:10532000123001788048A830C079814211D07E487F
:10533000A830C1797B48123001704038FCF70BFD72
:1053400000BF7848123002787EA1002007F0F2FCFE
:1053500000BF00BF81A1002007F0ECFC00BF08E007
:1053600071486030C079402801D10120029000E0EE
:1053700000BF01E003200290029835E770B50446B3
:1053800005257C48007E00280AD07A4841692046DD
:105390000AF050FF002801D001256DE000256BE0E8
:1053A0007448406900280FD173A120460AF042FFDB
:1053B000002801D001255FE070A120460AF03AFFE5
:1053C000002859D0002557E06BA120460AF032FF93
:1053D000002851D06B480078132821D006DC0B2818
:1053E0001CD00C2809D00D2844D118E0152821D054
:1053F000172816D018283DD11DE05E484169204687
:105400000AF018FF002805D15FA120460AF012FF1C
:10541000002801D0002500E001252CE000BF00BFDE
:1054200000BF5448416920460AF004FF002800D01C
:10543000012520E000BF4F48416920460AF0FAFEEE
:1054400000280FD051480078401C50490870084689
:10545000007802280DDB002008702046FFF786FE4A
:10546000054606E04AA120460AF0E4FE002800D0E6
:10547000002500E000BF00BF40A120460AF0DAFE90
:10548000002800D00025284670BD10B5DE21424816
:105490000AF0B9FE10BD38B504464E213F480AF067
:1054A000B2FE3E492046FFF727FEFFF7EEFF06F06B
:1054B0000DFC3A4840308189403803F04CF806F042
:1054C00010FC00200090E289034604213448006863
:1054D00005F0E6FF607B401C607338BD701700006C
:1054E00025733D3F0D0A000025733F0D0A000000A3
:1054F00025730D0A0000000025733D25730D0A0079
:105500002B51495552433A0068616E646C655F6D7A
:1055100073673A20746D702B2025730D0A0000000C
:1055200015370020D23400209C3100209231002019
:10553000434154315F554E4C4F434B5F434D443ACA
:10554000200D0A0073687574646F776E20666C6155
:1055500067203D2025640D0A0000000043415431BE
:105560005F4C4F434B5F535543434553533A200DD4
:105570000A000000703600204F4B00004552524F89
:105580005200000089310020302C300050320020C1
:105590004641494C000000004235002020360020E2
:1055A0002030002030B502460B46FE4812E0147849
:1055B000521C604000210BE0C407E40F002C04D013
:1055C0004410F94D6C40204600E040104C1CE1B204
:1055D0000829F1DB1C465D1EEBB2002CE7D130BD83
:1055E00070B58EB00446202106A80AF00CFE0025F6
:1055F0000026A0782E2827D121786846417161784D
:1056000081710622E11CC01D0AF0E4FD207B2E28DA
:105610000BD101A8A27AC272E17A01730622214657
:105620000D310D300AF0D6FD36E0032221460A3155
:1056300003A802300AF0CEFD062221460E3104A84E
:1056400001300AF0C7FD27E00322214601A80AF035
:10565000C1FD0622211D01A803300AF0BBFD607BBD
:105660002E280BD101A8E27AC272217B0173062297
:1056700021460E310D300AF0ADFD0DE0032221462A
:105680000B3103A802300AF0A5FD062221460F3196
:1056900004A801300AF09EFDAB21684601760F2177
:1056A00041760822C1491A300AF094FD0C2108A85D
:1056B0008170BF488088BE490C31898808430646FE
:1056C000311208A8C1700671684600790007010E02
:1056D000684640790007000F014308A841716846F9
:1056E00080790007010E6846C0790007000F01436A
:1056F00008A8817101A800790007000E01A9497965
:105700000907090F014308A8C17101A880790007A2
:10571000000E01A9C9790907090F014308A8017200
:1057200001A8007A0007010E08A841726846807B34
:105730000007000E01A9C97A0907090F014308A84B
:10574000817201A8007B0007010E6846407C0007BB
:10575000000F014308A8C17201A8807B0007000E5A
:1057600001A9C97B0907090F014308A8017301A812
:10577000007C0007000E01A9497C0907090F0143BD
:1057800008A8417301A8807C0007010E08A8817356
:10579000172106A8FFF706FF85B2291208A8C173D2
:1057A0000574192206A983480AF014FD00BF82A1DE
:1057B000002007F0BFFA00BF19217E48FCF760F90E
:1057C0000EB070BD1CB50446002000900190312140
:1057D000684601702C2141700A2120460AF0E6FC3F
:1057E0003030C1B2684681700A2120460AF0DEFCE2
:1057F00030316846C1702C2101714C2173480AF088
:1058000002FD694671480AF009FD71496F480AF0C6
:1058100005FD1CBDF0B585B00546142168460AF0AB
:10582000F2FC002600270024AB21684601700D2100
:10583000417008225D49801C0AF0CCFC03216846B7
:1058400081725B481830878839126846C1720773C5
:105850005748183080790C30C4B268460555601C32
:10586000C4B221466846FFF79DFE86B2321220463A
:10587000611CCCB269460A542046611CCCB2694610
:105880000E5422464B480AF0A5FC00BF2A4651A1FF
:10589000002007F04FFA00BF21466846FCF7F0F8F9
:1058A00005B0F0BD70B588B0202168460AF0ABFCA9
:1058B000002500260024AB21684601700E214170AE
:1058C00008223A49801C0AF085FC0621684681724C
:1058D00037483C38808836493C39098A084334497E
:1058E0003C39898B0843324954318988084306463C
:1058F00031126846C17206732D483C3880790C30ED
:10590000C4B20120400202F062FC002803D0022051
:105910006946085502E001206946085524483C388C
:10592000807C0019C4B23148007869460855204887
:105930003C38807F0019C4B22D4800780855601C9F
:10594000C4B2802002F043FC002806D00222204688
:10595000611CCCB269460A5405E001222046611C54
:10596000CCB269460A5421466846FFF71BFE85B251
:105970002A122046611CCCB269460A542046611C9A
:10598000CCB269460D5422460A480AF023FC00BFF7
:1059900018A1002007F0CEF900BF21466846FCF7A9
:1059A0006FF839E0FFFF000001A00000D2340020B2
:1059B000D8310020203600205355425F51495345CD
:1059C0004E44206C62733A20000000008C360020A8
:1059D0004C3100205355425F514953454E4420619C
:1059E0006C61726D3A25643A20000000E8330020B3
:1059F000D83600205355425F514953454E442075D7
:105A000064705F73656E645F706572696F645F7206
:105A100065706F72743A200008B070BDF0B585B043
:105A20000746142168460AF0EEFB002500260024F4
:105A3000AB21684601700C2141700822FA49801C94
:105A40000AF0C8FB042168468172F8488088F7494B
:105A5000903189880843064631126846C172067340
:105A6000F24880790C30C4B20120400202F0AFFB52
:105A7000002803D002206946085502E0012069464B
:105A80000855601CC4B2802002F0A1FB002806D09B
:105A900002222046611CCCB269460A5405E001226C
:105AA0002046611CCCB269460A5421466846FFF77D
:105AB00079FD85B22A122046611CCCB269460A548F
:105AC0002046611CCCB269460D542246D8480AF0E3
:105AD00081FB00BFD7A1002007F02CF900BF2146B1
