:020000041000EA
:10000000B86D0020C5070110CD070110CF07011002
:1000100000000000000000000000000000000000E0
:100020000000000000000000000000001BF60010AF
:10003000000000000000000003010010D5070110BF
:1000400000000000D7070110F33A0110D707011094
:10005000D7070110D707011021B6001021B90010F1
:10006000953301104534011039350110D7070110BF
:10007000EFB20010D7070110D7070110D707011002
:1000800001C60010D7070110D7070110D7070110CC
:10009000D707011097CA0010D7070110D707011022
:1000A0000000000000000000000000000000000050
:1000B0000000000000000000000000000000000040
:1000C0000348854614F03AFA00480047251300100B
:1000D000B86D0020064B19680868203080F3098845
:1000E000022080F314883FBCAE4662B600BD00001B
:1000F00014340020EFF3108072B6704780F310883C
:100100007047EFF309800E4B1A6820381060F0C07A
:1001100044464D4656465F46F0C008B572B60DF0EF
:1001200016FF62B60CBC116808681030F0C8A04613
:10013000A946B246BB4680F309882038F0C8184764
:100140001434002010B500BFFEA1002010F0E0FA2A
:1001500000BFC8200FF070F9044620460EF018FCCE
:1001600000BF2246FEA1002010F0D2FA00BF00BF5F
:10017000F4A1002010F0CCFA00BF20460FF0E0F907
:1001800010BD38B5F7480068182141180A781046A4
:100190004A78120210438A7812041043C97809067B
:1001A000084304460120C0022040002814D000214A
:1001B000ED4881760EF0BAF80546002003462A463F
:1001C00002210090E94800680EF058FE00BFE8A147
:1001D000002010F09DFA38E0FF2001302040002878
:1001E00014D00021E04881760EF0A0F805460020EA
:1001F00003462A4602210090E24800680EF03EFEC7
:1002000000BFE1A1002010F083FA1EE0042020408E
:10021000002814D00021D44881760EF087F80546D6
:10022000002003462A4602210090DC4800680EF0B8
:1002300025FE00BFDAA1002010F06AFA05E000BF39
:10024000DDA1002010F064FA00BF38BD10B512F037
:10025000BBF90446002C03D1122012F0A4F902E0ED
:10026000204612F0A0F901200BF0A8FF10BDF8B550
:10027000002500240026002700200090FF21D248FE
:10028000006820300170D048006820304170CE48AE
:10029000006820308170CF21CB4800682030C170C9
:1002A000FF21C948006820300171002058E0811EFC
:1002B0000B0014F0C6F91E382021254B393A2B2C9F
:1002C0002A10114948182219234B4A4B4B4B4B4BD0
:1002D000264B4B4B244B00BF012181400C43012195
:1002E00081400E4339E000BF012181400C430121D0
:1002F00081400E4331E000BF00BF00BF00BF00BF20
:1003000000BF012181400C4327E000BF00BF012155
:1003100081400D43012181400F4301218140009A1A
:100320001143009119E000BF00BF012181400D433E
:10033000012181403A468A43174601218140009AB3
:100340001143009109E000BF00BF06E00121814098
:100350000D43012181400F4300BF00BF411CC8B2C3
:100360002028A4DB984800682030007804218843C6
:10037000954909682031087093480068203000785A
:100380008021884390490968203108708E480068B0
:1003900020304078400840008B490968203148707F
:1003A000894800682030407804218843001D864930
:1003B0000968203148708448006820304078022164
:1003C0008843814909682031487020460AF0DFFDE2
:1003D000214600200AF091FD2146B14308460AF06B
:1003E00087FC30460AF06BFC284600990AF0E8FDCD
:1003F000394600200AF036FDF8BD10B50446002C41
:100400000DD00321490200200AF077FD03204002AD
:100410000AF0BDFD032040020AF051FC09E003216F
:10042000490208460AF0CCFD0321490200200AF0E7
:1004300019FD10BD88B00022082104200CF05DFCDD
:100440006249086000BF614900235A1E086806A976
:100450000CF08FFE0028F6D06846007E0B380A2884
:1004600001D300F0E7FE43007B449B885B009F4480
:10047000090001016D017A01CC0166038604710651
:10048000A5050B0600BF52A1002010F041F900BFE6
:10049000012000040AF013FC0DF048FF0446002080
:1004A00003462246012100904E4800680EF0E6FC0B
:1004B0002D48C07DC007C00F002800D0FEE30121F9
:1004C0002948C175002168460174417404A9464851
:1004D000006803F053F8244914314348006803F0DE
:1004E0007AF806F02AF9414800680EF0DBFE002891
:1004F00008D0002003460246032100903B480068D4
:100500000EF0BCFC1848C07EC007C00F002808D001
:100510000020FFF772FF012010F01BFD00211248A0
:10052000C1760120C0060AF0CAFB642011F08DFDDF
:100530000D482030C07F00285CD10BF0D5FE012192
:10054000094855E02D2D2D2D2D2D2D2D2D2D2D2D09
:100550002D2D2D2D2D2D2D2D2D2D2D2D0D0A000068
:1005600025730000C03300203C35002014300020EB
:1005700077616B65207570206B6579206972710DEC
:100580000A0000001C3000206C6F636B20737461E4
:10059000747573206972710D0A0000001830002014
:1005A000626174746572792064657465637420692E
:1005B00072710D0A00000000646F206E6F7468692C
:1005C0006E670D0A00000000B03300208035002067
:1005D0006B6579206E62206D7367206576740D0AF5
:1005E000000000000C300020643000203830002073
:1005F0002030C177FE4800684078C007C00F00284F
:100600000AD000BFFBA1002010F082F800BFF8491B
:100610000968086E80471DE000BFFCA1002010F0B3
:1006200077F800BF08F0F7F8002003467D2212019A
:1006300004210090FC4800680EF020FC0DF076FECE
:10064000044600200346224601210090F748006836
:100650000EF014FCF648807801280AD1F549F648D6
:100660000AF0AEFD0020F2498870002103200AF054
:10067000E4F923E700BFF1A1002010F049F800BF22
:10068000002003467D22120104210090F1480068F9
:100690000EF0F4FB0DF04AFE04460020034622460D
:1006A00001210090EB4800680EF0E8FB0120800477
:1006B0000AF005FB0AF0E6FF012010F04AFC2121B8
:1006C000E54813F0DFFADA482030007EC007C00F9B
:1006D000002800D0F2E60121D54820300176C80676
:1006E0000AF0EDFA642011F0B0FCD1484030C07F30
:1006F000002805D10BF0F8FD0121CD484030C1772D
:100700000020FFF77AFE0EF0CFFF10F0BBFC00BF19
:10071000D2A100200FF0FCFF00BF0AF0D6F911F0C3
:100720004DFA652002F051F8C148807801280AD1BD
:10073000C049C1480AF044FD0020BD49887000212D
:1007400003200AF07AF90EF0BAFFB7E6B848403055
:100750000078012806D101F0EDFE1E2011F047FFC0
:1007600001F0CCFEAAE6B2484030017EC4480171D7
:10077000AF484030408BC2492039C8840121C0486D
:100780000174203802F014F8012000040AF097FAEE
:10079000012080040AF093FAFF20F53011F055FC97
:1007A000012000040AF0A4FA012080040AF0A0FA53
:1007B000FF20F53011F049FC012000040AF07FFA17
:1007C000012080040AF07BFAFF20F53011F03DFC97
:1007D000012000040AF08CFA012080040AF088FA53
:1007E00010200AF06CFA7D20000111F02EFCA448C4
:1007F0008078002806D108200AF07AFA022012F048
:10080000E9FC01E011F09CFC58E6012188484030E9
:1008100001709C480068082141180A7810464A78FF
:10082000120210438A7812041043C978090608435B
:10083000FF2101318843934909680872020A4A720C
:10084000020C8A72000EC87200BF8FA100200FF048
:100850005FFF00BF0DF06AFD0446002003462246FC
:10086000012100908C4800680EF008FB002108462A
:100870000AF0E3F8012080040AF03AFA6C482030CC
:10088000407E02280FD101F0A0FF002168460171CF
:1008900007214173FF21E131C1810721018201A8B4
:1008A00011F069F84AE162482030407E03287DD18A
:1008B000002500242121794813F0E4F9F02177483C
:1008C000203002780078401CC3B274482030037096
:1008D000203881540F21203002780078401CC3B2A8
:1008E0006E48203003702038815413212030027864
:1008F0000078401CC3B2694820300370203881540E
:1009000020300578022102780078401CC3B2634889
:100910002030037020388154012120300278007883
:10092000401CC3B25D4820300370203881544048D9
:1009300001785A48203002780078401CC3B25748EA
:100940002030037020388154002005E02918534AD4
:10095000515C4C40411CC8B20328F7DB4F482030A3
:1009600001780078401CC2B24C4820300270203818
:100970004454E021203002780078401CC3B247483C
:1009800020300370203881540E2120300278007806
:10099000401CC3B2414820300370203881540EF00F
:1009A00083FE3E4820300178203800E00EE00AF057
:1009B00037FF0EF084FE02211D4820304176374873
:1009C00020300178203801F077FDB7E0012168463A
:1009D0000174417404A93248006802F0CFFD144943
:1009E00034312F48006802F0F6FD2E4800685BE0C5
:1009F0000430002073656E6420756E6C6F636B202D
:100A0000726571756573740D0A0000007265717509
:100A10006573742064656C61792073656E64206110
:100A20007420636D640D0A000C300020303000200B
:100A30001C35002083010010040900006B6579203B
:100A4000626C7565746F6F7468206D73672065766E
:100A5000740D0A0010300020053B00206B657920E2
:100A6000626C7565746F6F7468206D73672065764E
:100A70007420524677616B6575700D0A00000000A6
:100A80000C360020BC3300206C6F636B206F7065E8
:100A90006E206576740D0A004C300020263B002045
:100AA00064300020383000200EF0FCFB002808D015
:100AB00000200346024603210090F74800680EF02C
:100AC000DDF900BFF5A100200FF022FE00BFFA48BB
:100AD000C07EC007C00F002805D0012010F039FAF1
:100AE0000021F548C1760120C0060AF0E8F8F34875
:100AF00000684078C007C00F00280AD000BFE7A1F7
:100B000000200FF005FE00BFEC490968086E804721
:100B100013E000BFEAA100200FF0FAFD00BF07F0CC
:100B20007AFE0DF003FC0446002003462246012114
:100B30000090EA4800680EF0A1F900BF7BE30120B5
:100B4000C0060AF0BCF80021DB4820300170E44800
:100B50000068082141180A7810464A7812021043AA
:100B60008A7812041043C97809060843FF2101312D
:100B70000843DB4909680872020A4A72020C8A7249
:100B8000000EC872642011F032FD0021CA482030E6
:100B90008177012000030AF092F8012040030AF057
:100BA0008EF800BFCFA100200FF0B2FD00BF0121E1
:100BB000002009F042FF012080040AF099F80DF0AE
:100BC000B5FB044600200346224601210090CA4896
:100BD00000680EF053F90121684601750221417544
:100BE00005A9C648006802F0C9FCB348C07DC0072B
:100BF000C00F002805D000BFC1A100200FF088FD64
:100C000051E00121AC48C17501461431BB48006870
:100C100002F0E1FC0021A848203041709E480068A5
:100C20000EF040FB002808D00020034602460321B6
:100C30000090994800680EF021F99F48C07EC007D7
:100C4000C00F002805D0012010F083F900219A4838
:100C5000C1760120C0060AF032F898480068407852
:100C6000C007C00F00280AD000BFA9A100200FF0C4
:100C70004FFD00BF91490968086E804713E000BF2F
:100C8000AAA100200FF044FD00BF07F0C4FD0DF045
:100C90004DFB0446002003462246012100908F4868
:100CA00000680EF0EBF800218348403041708170FD
:100CB000C1700DF03BFB0446002000E049E2034612
:100CC000224601210090A04800680EF0D7F80020CD
:100CD00003466422042100909C4800680EF0CEF880
:100CE0000DF024FB0446002003462246012100901B
:100CF000964800680EF0C2F86F48407E02283DD149
:100D000000BF93A100200FF003FD00BF6A48007EE2
:100D1000C007C00F002803D0012001F056FD8AE271
:100D2000012165480176C80609F0C9FF642011F069
:100D30008CF961482030C07F002805D10BF0D4FA2F
:100D400001215D482030C1770020FFF756FB0EF0EF
:100D5000ABFC10F097F900BF84A100200FF0D8FC85
:100D600000BF1E2154482030817009F0AEFE10F003
:100D700025FF0EF0A4FC012001F027FD5BE200BF7F
:100D800083A100200FF0C4FC00BF01214A4820309D
:100D9000017053480068082141180A7810464A78C3
:100DA000120210438A7812041043C97809060843D6
:100DB000FF21013188434A4909680872020A4A72D0
:100DC000020C8A72000EC87201203B4920398870DB
:100DD0000321684601740121417404A94748006851
:100DE00002F0CCFB3448C07DC007C00F002800D003
:100DF00021E201213048C1750021012009F01DFECA
:100E00002D4914313D48006802F0E5FB2248006896
:100E10000EF048FA002808D00020034602460321BD
:100E200000901D4800680EF029F82348C07EC007D6
:100E3000C00F002805D0012010F08BF800211E48BB
:100E4000C1760120C00609F03AFF1C4800684078CE
:100E5000C007C00F00280AD000BF51A100200FF02A
:100E600057FC00BF15490968086E804713E000BFB2
:100E700013A100200FF04CFC00BF07F0CCFC0DF0DC
:100E800055FA0446002003462246012100901348EB
:100E900000680DF0F3FFCEE1383000204C6F636B3B
:100EA000206F70656E204C4F434B5F54495247474B
:100EB00045520D0A000000003C350020043000209F
:100EC00068616C6C2064656C61792073656E642068
:100ED000617420636D640D0A000000003030002052
:100EE000BC3300206D6F746F7220636C6F7365206C
:100EF0006576740D0A0000000C300020643000207C
:100F00006C6F636B65642072657475726E0D0A0098
:100F10004C6F636B20636C6F7365204C4F434B5F6A
:100F200054495247474552200D0A00006C6F636BCD
:100F300065642064656C61792073656E64206174FA
:100F400020636D640D0A000048300020103000203E
:100F50006C6F636B20626C7565746F6F7468206D65
:100F60007367206576740D0A000000006C6F636B78
:100F700020626C7565746F6F7468206D736720658F
:100F8000767420524677616B6575700D0A0000001B
:100F90006C6F636B2068616C6C206D73670D0A0069
:100FA0004C6F636B2048414C4C20414C41524D5F8B
:100FB00054495247474552200D0A000000BFFEA188
:100FC00000200FF0A5FB00BF052168460174022137
:100FD000417404A9FE48006802F0D0FAFD48C07DC3
:100FE000C007C00F002800D025E10121F948C175D4
:100FF00001461431F648006802F0EDFAF648006840
:101000000EF050F9002808D00020034602460321C4
:101010000090F14800680DF031FFEE48C07EC00737
:10102000C00F002805D001200FF093FF0021E948F0
:10103000C1760120C00609F042FEE8480068407809
:10104000C007C00F00280AD000BFE5A100200FF0A4
:101050005FFB00BFE1490968086E804713E000BFED
:10106000E8A100200FF054FB00BF07F0D4FB0DF007
:101070005DF9044600200346224601210090E9481C
:1010800000680DF0FBFED6E000BFE7A100200FF0E6
:101090003FFB00BF0521684601740121417404A98A
:1010A000CB48006802F06AFACA48C07DC007C00F8A
:1010B000002800D0BFE00121C648C17501461431A7
:1010C000C348006802F087FAC34800680EF0EAF8E7
:1010D000002808D000200346024603210090BE48A5
:1010E00000680DF0CBFEBB48C07EC007C00F0028D3
:1010F00005D001200FF02DFF0021B648C176012058
:10110000C00609F0DCFDB54800684078C007C00F94
:1011100000280AD000BFB2A100200FF0F9FA00BFEA
:10112000AE490968086E804713E000BFC5A10020E2
:101130000FF0EEFA00BF07F06EFB0DF0F7F8044673
:1011400000200346224601210090B64800680DF0B9
:1011500095FE70E000BFC2A100200FF0D9FA00BFD9
:1011600001209C492039887003216846017441742C
:1011700004A99748006802F001FA9648C07DC007AC
:10118000C00F002800D056E001219248C17504200C
:101190000AF061F80021022009F04FFC8D4914315A
:1011A0008B48006802F017FA8B4800680EF07AF856
:1011B000002808D0002003460246032100908648FC
:1011C00000680DF05BFE8348C07EC007C00F00289A
:1011D00005D001200FF0BDFE00217E48C176012020
:1011E000C00609F06CFD7D4800684078C007C00F5C
:1011F00000280AD000BFA0A100200FF089FA00BF8C
:1012000076490968086E804713E000BFA2A100205C
:101210000FF07EFA00BF07F0FEFA0DF087F80446E3
:10122000002003462246012100907E4800680DF010
:1012300025FE00E000BFFFF706F9FEB504460D46A7
:1012400016461F460020009068460571C68002972A
:1012500000BFEFF30580002808D0A100954A505840
:1012600000236A4601A90CF084F807E0A100914A26
:10127000505800231A4601A90BF058FEFEBD1FB5B9
:10128000012400200723019002900093039003465D
:10129000FF22053288A18C480CF00DFB0446012C7E
:1012A00005D100BF89A100200FF032FA00BF002055
:1012B000052301900290009303900346FF2205321C
:1012C0008BA18F480CF0F7FA0446012C05D100BF22
:1012D0008CA100200FF01CFA00BF00200623019013
:1012E0000290009303900346FF2205328DA192489D
:1012F0000CF0E1FA0446012C05D100BF8FA10020BB
:101300000FF006FA00BF00BF95A100200FF000FA11
:1013100000BF1FBD10B500BF98A100200FF0F8F965
:1013200000BF10BD10B572B6002010F06EFE0FF0B9
:10133000EBFD00200FF0A1FE642011F058F90FF032
:10134000ACFE0EF0A1FEFEF792FF09F0EAFC02F0FF
:1013500024F800BF8D48C38C203002798CA1002076
:101360000FF0D6F900BF01F002FA09F010FB0AF005
:1013700026F80AF087F900200FF0EBFD012100208C
:1013800009F05BFB00F0BBFD00F065FFFEF75EFFC0
:1013900062B608208B490870084600780AF0F6FE0D
:1013A0000AF0A2FF0FF0D0FD0120FFF726F807F0AA
:1013B000E1FB0A49086007E16C6F636B20697320E9
:1013C0007469676874656E64206D73670D0A000048
:1013D000643000203C3500203830002004300020EC
:1013E0004C6F636B204C4F434B5F54494748544507
:1013F0004E445F4D53475F49445F455654200D0AA4
:10140000000000007469676874656E642064656C30
:1014100061792073656E6420617420636D640D0AC8
:1014200000000000303000206C6F636B2069732077
:101430006E6F74207469676874656E64206D73677D
:101440000D0A000074656E73696F6E2064656C61CF
:10145000792073656E6420617420636D640D0A00E9
:101460006261747465727920646574656374206D5B
:1014700073670D0A00000000626174746572792060
:1014800064657465637420414C41524D5F54495208
:1014900047474552200D0A006261747465727920D5
:1014A00064656C61792073656E6420617420636D7E
:1014B000640D0A00803500204B657948616E646CCC
:1014C000655F5461736B0000350400104372656101
:1014D0007465204B657948616E646C655F54617317
:1014E0006B2053756363657373210D0A0000000060
:1014F000536F667474696D65725461736B0000009C
:10150000EB9A001043726561746520536F667474C2
:10151000696D65725461736B205375636365737392
:10152000210D0A00556172743048616E646C655F0C
:101530005461736B00000000EBBF001043726561E3
:10154000746520556172743048616E646C655F54D7
:1015500061736B2053756363657373210D0A00001B
:1015600053594438383131206672656552544F53AF
:101570002053746172742E0D0A00000068656C6C53
:101580006F2074696D65720D0A000000EC35002053
:1015900068656C6C6F20535944383831312068616C
:1015A000726477617265203D203078253032782072
:1015B000736F667477617265203D20307825303412
:1015C000780D0A000434002001210648C176817696
:1015D0000549064809F0F4FDFFF751FE0CF078FECE
:1015E000002010BD3C3500208301001004090000DC
:1015F00010B500231A4619460120FFF71EFE10BD44
:1016000010B500231A4601210846FFF716FE10BD4B
:1016100010B50120000409F0BAFD10BD10B501207D
:10162000800409F0B4FD10BD38B5FE480088401CA8
:10163000FC49088008460088322835DB00200880F5
:101640000346024603210090F74800680DF016FC9F
:101650000120800209F022FB05460120400209F02A
:101660001DFB044600BF23462A46F0A100200FF0D0
:101670004FF800BF0021F84801770120000309F06E
:101680001EFB0120400309F01AFB0120800409F031
:101690002FFBF148007F022805D100231A460421C0
:1016A0000120FFF7CAFD00BF0120400209F0F6FA51
:1016B000002827D0E848007F022823D10021E648EF
:1016C000017700200346024603210090D6480068B7
:1016D0000DF0D4FB142010F08AFF0120000309F064
:1016E000EEFA0120400309F0EAFA00BFDA48837EEF
:1016F000CC480288D9A100200FF00AF800BF0020D2
:10170000C84908800120800209F0C8FA002824D0C6
:10171000D148007F012820D10021CF480177002047
:101720000346024603210090BF4800680DF0A6FB67
:101730000120000309F0C3FA0120400309F0BFFAB9
:1017400000BFC548837EB7480288CBA100200EF0B9
:10175000DFFF00BF0020B349088038BD38B5BE4860
:1017600040304078401CC1B2BB4840304170807866
:10177000002852D1802009F091FA00283AD100BF08
:10178000B54840304278C3A100200EF0C1FF00BF31
:101790000121B148403081704038007E00280CD1D2
:1017A0000346024603210090C44800680DF066FB22
:1017B0000120800409F09CFA0CE08B2001F005F870
:1017C000002003467D22120104210090BB480068DE
:1017D0000DF054FBA0484030C07800283BD10121D7
:1017E0009D484030C1700023BB2213211846FFF7EB
:1017F00024FD30E0B14800680DF054FD00282AD1E6
:101800000CF094FD0446002003462246012100907E
:10181000AA4800680DF032FB1DE0802009F03EFA76
:10182000002818D000218C484030817000200346E9
:10183000642204210090A14800680DF01FFB0CF009
:1018400075FD0446002003462246012100909B4876
:1018500000680DF013FB8048403040780E2839DBDB
:1018600000217D484030417081704038007E002862
:101870000CD10346024603210090904800680DF009
:10188000FDFA0120800409F033FA09E00020034644
:101890007D22120104210090884800680DF0EEFAC4
:1018A00000200346024603210090854800680DF0A1
:1018B000E5FA802009F0F2F900280BD000BF81A1E1
:1018C00000200EF025FF00BF0023BB221421184684
:1018D000FFF7B3FC38BD10B500BF81A100200EF0AA
:1018E00017FF00BF10BD08B5FF20013009F0D6F981
:1018F00000281FD00120400209F0D0F9002819D09B
:101900007E480078401C7D4908700846007805280C
:1019100026DB002008700346024603210090784829
:1019200000680DF0ABFA0023BB2211211846FFF727
:1019300084FC15E00020714908700346024603212B
:1019400000906F4800680DF099FA00BF6B4802786C
:101950006CA100200EF0DCFE00BF01213E48817624
:1019600008BD10B500231A460A210120FFF765FCC7
:1019700010BD38B50221384801770CF0D7FC044679
:1019800000200346224601210090274800680DF000
:1019900075FA00F0CFFD0120800409F090F938BD00
:1019A00010B500231A4605210120FFF746FC10BDA3
:1019B00010B500231A4615210120FFF73EFC10BD8B
:1019C00038B50120C00209F069F9002828D057482D
:1019D00000680DF067FC00280CD00020034602468A
:1019E00003210090514800680DF048FA01200004DE
:1019F00009F07EF9314800680DF054FC00280CD045
:101A0000002003460246032100902C4800680DF098
:101A100035FA0120800409F06BF90120800487E089
:101A200097E0000056300020083000206D6F746F82
:101A3000722074696D656F75742074696D657220AC
:101A40006F70656E203D20256420636C6F73652088
:101A50003D2025640D0A00003C3500206D6F746F39
:101A60007220636C6F73652074696D65723D2564C7
:101A70002025640D0A0000006D6F746F72206F7076
:101A8000656E2074696D65723D25642025640D0ABC
:101A90000000000068616C6C5F7469676874656E53
:101AA000645F74696D65725F6576745F6972715F9A
:101AB00068616E646C652025640D0A00103000209A
:101AC0004830002068616C6C5F7469676874656E8B
:101AD0006420697320636C6F73650D0A0000000059
:101AE00068616C6C20616C61726D2070726F7465DE
:101AF00063742074696D65720D0A00005430002013
:101B0000403000206C6F636B207069636B207469D8
:101B10006D657220736C65657020616C61726D5FBC
:101B2000636E743D25640D0A000000000C30002037
:101B300009F0C5F80CF0FAFB0446002003462246E3
:101B400002210090FE4800680DF098F90021FD4840
:101B5000817500BFFCA100200EF0DAFD00BF38BD8A
:101B600010B5042009F09AF800280BD00023BB22FE
:101B700012211846FFF761FB00BFF7A100200EF00D
:101B8000C7FD14E0EF48007E00280AD1ED48C07E72
:101B9000012806D1EB48C07D002802D10121E94887
:101BA000817600BFF2A100200EF0B2FD00BF04213B
:101BB000F74812F067F810BD38B5FF20013009F082
:101BC0006DF8002850D0DF482030007800284BD135
:101BD0000120400209F062F8002804D1D9482030E1
:101BE000807F002823D100BFEAA100200EF090FDE5
:101BF00000BFF24800680DF055FB002811D100BF6E
:101C0000EFA10EF085FD00BF0CF090FB0446002014
:101C10000346224601210090EE4800680DF02EF99F
:101C200081E000BFECA100200EF072FD7BE0E948EE
:101C300000680DF037FB01280AD10020ED4908703B
:101C40000346024603210090E24800680DF016F9B1
:101C50000023BB220F211846FFF7EFFA00BFE6A1D1
:101C600000200EF055FD5EE0FF20013009F016F86F
:101C700000282DD0B34820300078012828D1D5483D
:101C800000680DF00FFB01280AD10020D949087027
:101C90000346024603210090CE4800680DF0EEF89E
:101CA0000CF044FB0446002003462246022100902B
:101CB000C24800680DF0E2F80023BB22102118464C
:101CC000FFF7BBFA00BFD1A100200EF021FD2AE0F2
:101CD0009C48007E002816D19A48C07E012812D167
:101CE0009848C07D00280ED1B44800680DF0DAFA9B
:101CF000002808D1CA4800680DF0D4FA002802D1A3
:101D0000012190488176FF20013008F0C7FF04468A
:101D100000BF8C48203003782246C2A100200EF07C
:101D2000F7FC00BF00BF38BD08B58648807D401C69
:101D3000C1B284488175807D05280CDB8148807D97
:101D4000192808DA0120000408F0B9FF01208004F6
:101D500008F0CEFF3BE07B48807D19280CDB7948FA
:101D6000807D322808DA0120000408F0A8FF012055
:101D7000800408F0A4FF2AE07248807D32280CDB42
:101D80007048807D462808DA0120800408F0B0FF02
:101D90000120000408F0ACFF19E06A48807D642847
:101DA00015DB0120800408F0A3FF0120000408F0E7
:101DB0009FFF002003460246032100906048006810
:101DC0000DF05CF800215F488175012181760120CA
:101DD000C00208F063FF002851D1034602460321E8
:101DE0000090574800680DF049F85648807D052856
:101DF00009DA0023BB220C211846FFF71EFA022144
:101E00005048417632E04F48807D052811DB4D482F
:101E1000807D19280DDA0120000408F069FF0023F5
:101E2000BB220B211846FFF708FA012145484176ED
:101E30001CE04448807D192812DB4248807D32280E
:101E40000EDA0120000408F053FF0120800408F09E
:101E50004FFF0023BB220E211846FFF7EEF905E0E5
:101E60000023BB220D211846FFF7E7F90021354872
:101E7000817500BF75A100200EF04AFC00BF08BDAF
:101E800010B50023BB2218210220FFF7D6F910BDA0
:101E900010B50023BB221A210220FFF7CEF910BD96
:101EA00010B506F069FD10BD10B50023BB22192145
:101EB0000220FFF7C2F910BD10B50520000408F09C
:101EC00017FF6648006801F03EFB002805D100239B
:101ED000BB2203210120FFF7B0F910BD10B5082087
:101EE00009F055F95E480088401C5D4908800846A5
:101EF00000885C49884201D110F022F910BD08B574
:101F00005949022011F007FA0023584A7D21C900DF
:101F1000012011F025F80023554A0121022011F07B
:101F20001FF8544803230122FF219131009052A051
:101F30000DF065F902490860534802230122A5E02B
:101F40002C3000203C3500206B65792070756C6C5E
:101F500020646F776E0D0A00626174746572792077
:101F60006465746563742074696D65720D0A0000A0
:101F70006261747465727920646574656374206E3F
:101F80006F7468696E672074696D65720D0A000070
:101F9000003000206C6F636B5F696E666F2E6D6F33
:101FA000746F725F737461747573203D3D204D4F83
:101FB000544F525F434C4F53450D0A003C300020B4
:101FC0006C6F636B207069636B2074696D6572312F
:101FD0000D0A0000403000206C6F636B2070696355
:101FE0006B2074696D6572206973206572726F72FF
:101FF0000D0A0000543000206C6F636B206F706519
:102000006E2074696D65720D0A0000006C6F636B61
:1020100020636C6F73652074696D65720D0A000032
:10202000083000206C6F636B2073746174652069E5
:102030007271206E6F7468696E672074696D657265
:10204000202564202025640D0A0000006B6579209E
:1020500070756C6C2075700D0A00000064300020F3
:1020600058300020102700008C3500200116001089
:10207000DD1E0010291D00104B65795F48616E64FC
:102080006C6554696D65720029160010142100906A
:1020900086A00DF0B4F88A4908608A48032301221B
:1020A0007D210901009088A00DF0A9F88C490860F5
:1020B0008C48032301227D21C90000908AA00DF0E5
:1020C0009EF88E4908608E48032300227D21C900B6
:1020D00000908CA00DF093F88F4908608F4803237F
:1020E0000022142100908EA00DF089F8914908601B
:1020F0009148032300227D21C90000908FA00DF09C
:102100007EF895490860954803230022192149016A
:10211000009093A00DF073F8964908609648032349
:102120000022964900907EA00DF069F8944908605D
:102130009448032300227D210901009078A00DF02E
:102140005EF891490860914803230122FF21F5318F
:10215000009073A00DF053F88D4908608D4803235B
:1021600000228D4900906EA00DF049F88B4908605F
:102170008B48032300228B4900908BA00DF03FF881
:102180008C4908608C48032301227D21C9000090FE
:102190008AA00DF034F88E4908608E48032300228F
:1021A0007D4900908CA00DF02AF891490860914873
:1021B00003230122FF21F53100908FA00DF01FF8BD
:1021C000934908609348032300229349009093A009
:1021D0000DF015F8974908609748032300227D21E8
:1021E0004901009095A00DF00AF89C49086008BDCF
:1021F00010B59B48C08F401C9949C887002198485A
:102200004030C1774038C08F9649C98988420DDB7C
:10221000002193482030817600209149C88700230F
:102220001A4607210120FFF708F813E08C482030F8
:10223000807E01280ED10021894820308176C82077
:1022400010F0D5F90120C00608F052FD01218448A4
:102250002030817610BD10B58248C0890A2802DC82
:102260000A208049C88100207D49C88700BF7D4879
:10227000C2897DA100200EF04BFA00BF7F490220E9
:1022800011F023FC00237E4AE1210901022011F014
:1022900028FA00237B4A0E21012011F022FA0120A6
:1022A00011F0C7FA022011F0C4FA10BD4D6F746F1F
:1022B000725F54696D656F757454696D6572000065
:1022C0000830002011160010477265656E4C656479
:1022D0005F506572696F6454696D6572000000003B
:1022E0000C3000201D160010426C75654C65645F53
:1022F000506572696F6454696D657200103000201A
:10230000B91E00104C65645F4F6E655365636F6E58
:102310006454696D6572000034300020C1190010EA
:102320004B65795F4465626F756E636554696D6571
:102330007200000014300020611B001042617474B0
:102340006572794465745F4465626F756E63655448
:10235000696D65720000000018300020B91B001084
:102360004770696F5F4465626F756E636554696D30
:10237000657200001C300020911E0010B80B000098
:1023800020300020A91E001024300020A11E0010C3
:1023900028300020811E00108813000030300020FB
:1023A000A119001010270000536C65657054696D09
:1023B00065720000383000205D17001048616C6CB9
:1023C0005F5469676874656E6454696D6572000076
:1023D00048300020D718001048616C6C416C617265
:1023E0006D50726F7465637454696D65720000009E
:1023F0003C300020E718001048616C6C416C617241
:102400006D44657465637454696D65720000000005
:10241000403000206319001030750000424C455FC9
:10242000636F6E6E65637454696D656F757454691E
:102430006D65720044300020731900104F70656E96
:102440005F4C6F636B526F7461696F6E54696D6539
:102450006F757454696D6572000000004C30002087
:102460001C350020EC350020706572696F642074A3
:10247000696D65203D2025640D0A0000BC350020F3
:10248000F1210010B119001070B505460E46002468
:1024900000BF08E000BF2A5DFAA100200EF038F965
:1024A00000BF601CC4B2B442F4DB00BFF7A100203F
:1024B0000EF02EF900BF70BD70B505460E46002423
:1024C00000BF08E000BF2A5DEEA100200EF020F959
:1024D00000BF601CC4B2B442F4DB00BFEBA100201B
:1024E0000EF016F900BF70BD10B50120000308F012
:1024F000FFFB0120400308F0FBFB10BD10B53C20A2
:1025000010F075F8FFF7F0FF642010F070F801206C
:10251000000308F0D4FB0120400308F0D0FB10BDFD
:1025200010B50120000308F0E3FB0120400308F090
:10253000C6FB10BD10B50120400308F0D9FB0120F7
:10254000000308F0BCFB10BD38B5002400BF05E057
:102550000FF077FD69460855601CC4B2042CF7DB08
:10256000009D284638BD30B587B005460C46C848A2
:10257000006EC7495031C64AD26C0B46083B0393E4
:10258000049205910690C248008E2C390294009165
:102590000190BF48438C024614320169284602F07C
:1025A0006CFCC0B207B030BD30B58DB004460D46EE
:1025B000002009900A900B900C9014222946B448F0
:1025C000323011F046FB8021B148503009AA042373
:1025D000049305920791069040380C22014614316D
:1025E0000E230294019200910390021D14212846AB
:1025F00002F0DAFCC0B20DB030BD10B5A5480078CD
:10260000002809D16420A3494039487000BFA2A125
:1026100000200EF07DF809E06F209E494039487097
:1026200000BFA2A100200EF073F800BF9948403807
:10263000407810BD10B5974C193C012020706520E2
:1026400060700920A07020462738007820719C48CF
:102650000079E0719A482038C08C00126071984867
:102660002038C08CA0719648203840792072944858
:10267000203880796072FFF7C0FFE070207A9149BE
:102680004873607A8873E079C87360790874A079B8
:1026900048748B482038C0790876042288491F394D
:1026A0002046243811F0D5FA10BD10B58AB0044682
:1026B0000020069007900890099083A0006805907C
:1026C00082A207CA02AB07C30194019806900422B4
:1026D00001A97C48093011F0BCFA6D4805990165E3
:1026E00002A90EC954300EC00146103906A803F0E5
:1026F00014FB08A801786648203001716846C17F44
:1027000063482430417008A8C17861482430817042
:102710006846417F5E482430C1706846817E5C48CF
:102720002430017108A881785948243041716846E5
:10273000017F57482430817108A88179544824309A
:10274000C1716846017E5248243001726846817F1B
:102750004F482430417208A841794D482430817295
:1027600008A841784A482430C1720AB010BD10B59B
:10277000FFF7EAFE46494866486EFFF796FFFFF707
:1027800059FF43480021016041608160C1600A2215
:102790004049193911F05DFA3D4932313C48FFF7A3
:1027A000E2FE14223A4932314B4811F052FA10BD80
:1027B00070B5044678252246294600200FF0EDFC2E
:1027C00006460FF011FE70BD704730B585B0044667
:1027D0000020019002900390049000BF3FA10DF0F3
:1027E00097FF00BF662C4AD006DC012C09D0022CD2
:1027F0001BD0652C44D12CE06E2C42D08B2CF9D10F
:10280000A7E0642123481938C170273801782730A0
:1028100001710A22014601A811F01BFA00BF34A180
:1028200000200DF075FF00BFA8E06F21194819388E
:10283000C17027380178273001710A22014601A8AA
:1028400011F007FA00BF2EA100200DF061FF00BFBC
:1028500094E0FFF7D2FE0F491939C87008462738AF
:102860000178273001710A22014601A811F0F1F91F
:1028700000BF27A100200DF04BFF00BF7EE05EE00F
:102880007BE04DE025303278000000000D0A0000AA
:10289000783000205C350020636C6F7365206C6FAE
:1028A000636B207374617475730D0A006F70656ECD
:1028B000206C6F636B207374617475730D0A000074
:1028C0000C360020903300202B7E1516280E0206B1
:1028D0000B071508090F4F3CDD3A0020676174743F
:1028E0005F73656E645F64617461202D2D0000006C
:1028F000434C4F53455F5354415455533A202000A5
:102900004F50454E5F5354415455533A20200000D8
:10291000524541445F5354415455533A20200000DE
:102920006E21F948C1700A22014601A811F091F9FF
:1029300000BFF6A100200DF0EBFE00BF1EE001A8D5
:10294000FFF742FF00BFF5A100200DF0E1FE00BF40
:1029500014E0002000900121684601708B21417035
:10296000012181700221C1700098019000BFEEA189
:1029700000200DF0CDFE00BF00E000BF00BFEF481B
:102980000021016041608160C16001A92EC92EC093
:1029900000BFEBA100200DF0BBFE00BF1021E748F7
:1029A000FFF78AFDE5493231E448FFF7DCFD1421E9
:1029B000E248323007F059FC05B030BD704770B5C1
:1029C000044678252246294600200FF0E3FB00202C
:1029D00070BD1CB50622D949C91C684611F039F9E9
:1029E00068460078DB49487068464178D94881706C
:1029F00068468178D748C1706846C178D54801716A
:102A000068460079D349487168464179D148817157
:102A1000FFF7CEFE00BFD0A100200DF079FE00BF71
:102A20000421CC48401CFFF747FD0221C948401D46
:102A3000FFF742FDC748FFF7C2FF00BFC9A1002052
:102A40000DF066FE00BF0421C248401CFFF734FDB4
:102A50000221C048401DFFF72FFDFFF7EBFD07F0F7
:102A6000B2FB6520FFF7B1FE1CBD70B504460B46F6
:102A7000551E5B19204603E01D7805705B1E401C47
:102A80001546521E002DF7D170BDF1B584B000BFC0
:102A9000B7A100200DF03CFE00BF14210498FFF701
:102AA0000BFDA6480499FFF77FFD06461021A348B9
:102AB000FFF702FD002E7BD0A0484078663823281F
:102AC00077D243007B449B885B009F447A0072006E
:102AD00072007200720072007200720022007300B5
:102AE0007200720072007200720072007200720056
:102AF000770076007E00A000C20004017200720020
:102B0000A1012A025F02EC022403470375038B0331
:102B10000C0404228949C91C03A8FFF7A6FF04225C
:102B20007949243902A8FFF7A0FF00BF95A1002032
:102B3000039A0DF0EDFD00BF02990398884226D15B
:102B400001217148193081770221203841764804EB
:102B500008F0B5F80BF0EAFB0446002003462246D5
:102B6000012100908A4800680CF088F9012166482C
:102B7000C01F0177FFF7D4FC00BF86A100200DF035
:102B8000C7FD00BF10216D48FFF796FC0FE000BFA6
:102B900087A10020029A0DF0BBFD00BF6E20FFF759
:102BA00014FE00BF85A100200DF0B2FD00BFC4E3FC
:102BB000C4E3C1E3FFF70DFFBFE300BFFFF7FEFE75
:102BC000BBE36620FFF701FEB7E301205B49087015
:102BD0007A2048700920887009215E481930FFF773
:102BE0006BFC09225B4919315448C01C11F031F8C3
:102BF00010215248FFF760FC504932314F48FFF72F
:102C0000B2FC14214D48323007F02FFB95E3012030
:102C10004A4908707B2048700A2088700A213A4887
:102C20002630FFF749FC0A22374926314348C01CA9
:102C300011F00FF810214148FFF73EFC3F493231B7
:102C40003E48FFF790FC14213C48323007F00DFB62
:102C500073E300BF5EA100200DF05AFD00BF062106
:102C60003C480830FFF728FC06223449C91C394883
:102C7000083010F0EEFF10213048FFF71DFC3548FA
:102C8000FFF796FD00213348083005F0B5FE00BF80
:102C900057A100200DF03CFD00BF06212D48083053
:102CA000FFF70AFC0120254908707C2048700620A7
:102CB00088700622274908312048C01C10F0C9FF3F
:102CC0001E4932311D48FFF74EFC14211B4832309B
:102CD00007F0CBFA31E30120184908707D204870D5
:102CE0000620887006221B4908311448C01C10F0C9
:102CF000B0FF124932311148FFF735FC14210F485B
:102D0000323007F0B2FA18E3433500205057445FE1
:102D10004552524F523A2020000000005245414493
:102D20004B45593A20200000424C455F54454E53D4
:102D3000494F4E5F434D443A202000007830002038
:102D4000676174745F73656E645F646174613A2077
:102D500020000000EC3500206368675F77203D208D
:102D6000000000006368675F72203D2000000000E3
:102D700043434432206170702064617461200D0A05
:102D8000000000007077642025780D0A0000000024
:102D900008300020626C65206F70656E206C6F6378
:102DA0006B2069732073756363657373730D0A0019
:102DB00070776420213D2025780D0A0070617373BF
:102DC000776F7264206973206572726F720D0A00EA
:102DD0004348414E47455F4950414444523A20667A
:102DE0006C6173685F646174615F6F6C64000000A4
:102DF0004348414E47455F4950414444523A20665A
:102E00006C6173685F646174615F6E657700000078
:102E100000BFFE480379FE48427CFEA100200DF071
:102E200077FC00BFFA48407C002814D10120F74904
:102E300008708020487000208870C8700871487140
:102E400088713231F148FFF78EFB1421EF483230A0
:102E500007F00BFA64E0ED4804790025EC49487C62
:102E60000B2110F091FEC7B2E949487C0B2110F00C
:102E70008BFEC8B201900198002801D13D4601E0C7
:102E8000781CC5B2E1480079A84220DA0120DF4968
:102E90000870802048700D2088700846C570047145
:102EA000601E0B225043401CD94A113281180B225C
:102EB000D648401D10F0CDFED4493231D348FFF73B
:102EC00052FB1421D148323007F0CFF927E001201E
:102ED000CE49087080204870CD48417C601E0B228E
:102EE0005043081A801CC94988700846C57004718F
:102EF0008078821E601E0B235843401CC44B113344
:102F0000C118C248401D10F0A4FEC0493231BF486C
:102F1000FFF729FB1421BD48323007F0A6F900BFA6
:102F20000BE2BA480079012804D11421B8481130C5
:102F300010F0A8FEB54989788A1EB549497C491C1C
:102F4000B34B1133C818B149491D10F082FEB04887
:102F5000417CAE488078801E0818C1B2AC484174EC
:102F600000BF407C0090A94803798278AFA100207F
:102F70000DF0CEFB00BFA5493231A448FFF7F3FAAC
:102F80001421A248323007F070F9D6E100BF9F4803
:102F900003799F482030C27BABA100200DF0B8FB25
:102FA00000BF9B48407C002814D10120974908703D
:102FB0008220487000208870C8700871487188713C
:102FC00032319248FFF7CFFA14219048323007F09F
:102FD0004CF967E08D48047900258D492031C87B84
:102FE0000B2110F0D1FDC7B289492031C87B0B21DC
:102FF00010F0CAFDC8B201900198002801D13D46E9
:1030000001E0781CC5B281480079A84220DA01208D
:103010007E490870822048700D2088700846C5706F
:103020000471601E0B225043401C794A2F328118D4
:103030000B227648401D10F00CFE74493231734863
:10304000FFF791FA14217148323007F00EF928E0A9
:1030500001206E490870822048706D482030C17B85
:10306000601E0B225043081A801C6849887008466D
:10307000C57004718078821E601E0B235843401C6B
:10308000634B2F33C1186148401D10F0E2FD5F49CA
:1030900032315E48FFF767FA14215C48323007F09E
:1030A000E4F800BF49E159480079012804D1192109
:1030B00057482F3010F0E6FD544989788A1E54494C
:1030C0002031C97B491C524B2F33C8184F49491D29
:1030D00010F0BFFD4E482030C17B4C488078801EE8
:1030E0000818C1B24A482030C17300BFC07B0090AD
:1030F0004648037982785CA100200DF009FB00BFEF
:10310000424932314148FFF72EFA14213F4832300C
:1031100007F0ABF811E100BF5BA100200DF0F8FA59
:1031200000BF012039490870842048703848403079
:10313000007A887036484030027A014609313348B7
:10314000C01C10F086FD314932313048FFF70BFAD0
:1031500014212E48323007F088F8EEE000BF4FA16E
:1031600000200DF0D5FA00BF28488178284840306B
:103170000172027A2549C91C093010F06AFD01204C
:10318000224908708520487021484030007A8870B4
:103190001F484030027A014609311C48C01C10F01B
:1031A00058FD1A4932311948FFF7DDF91421174843
:1031B000323007F05AF8C0E000BF3DA100200DF00A
:1031C000A7FA00BF46223E491148113010F041FDD8
:1031D0000F482038FFF7ECFA14210C48323007F082
:1031E00044F8AAE000BF37A100200DF091FA00BF1B
:1031F0000120064908708720487001208870044823
:103200004030807DC8703231004865E07830002061
:103210000C3600204745545F41504E5F4D53475F89
:10322000434D443A25642025640D0A005345545FFC
:1032300041504E5F4D53475F434D443A256420252E
:10324000642025640D0A00004745545F41504E5FDD
:10325000555345524E414D455F434D443A256420F8
:1032600025640D0A000000005345545F41504E5F35
:10327000555345524E414D455F434D443A256420D8
:1032800025642025640D0A004745545F41504E5F78
:103290005057445F434D440D0A0000005345545FAE
:1032A00041504E5F5057445F434D440D0A000000AB
:1032B00052455345545F41504E5F434D440D0A0003
:1032C000643600204745545F41504E5F4B45595F7F
:1032D000434D440D0A000000FFF745F91421FE4854
:1032E00006F0C3FF29E000BFFCA100200DF010FA9A
:1032F00000BFF9483238C178FD4881751021F64881
:103300003238FFF7D9F8FA486038FFF751FA012050
:10331000F149323908708820487001208870F448DB
:10332000807DC870323108463238FFF71CF914210D
:10333000E94806F09AFF00E000BF01E00EF000FF50
:1033400005B0F0BD70B505460E46002408200CF00F
:1033500073F80446002C06D100BFE6A10DF0D8F9A1
:1033600000BF002070BD2946714308460CF064F888
:1033700020602068002809D100BFE5A10DF0C8F940
:1033800000BF20460CF0DCF80020EBE70020A07125
:10339000E071257166712046E4E710B50024D44839
:1033A0006038FFF70CFBD2484038C47B20380078E7
:1033B000262852D02620CE4960390870082048704F
:1033C0000821CB48603881700621C170017100204E
:1033D000C749603948710021C5486038817118209B
:1033E000C3496039C88186200872AF21C04860385F
:1033F0004172322181725221C172272101731A2137
:103400004173982120304172882109304170CE21CA
:1034100081702021C1702721017125214171002176
:10342000093881700121C17005210171BF48B0497F
:103430006039C8840021AE48403801724622BC4938
:10344000113010F006FC00BFBAA100200DF060F9A9
:1034500000BFA7486038FFF7ABF900BFA448C27DA2
:10346000B8A100200DF054F900BF0521A048403854
:103470000171AE489E496039C88408462030C47343
:103480000179B74801769A486038C18CB4484183C5
:10349000002101774177C177203001709448583876
:1034A00005F0AAFA01219248373805F0A5FA05215E
:1034B0000220FFF747FFAB49086010BDF0B5034697
:1034C000154600201DE01E5CF7173F0FBF193F1186
:1034D0003C4630341E5CF7173F0FBF193F113F01C8
:1034E000F71B3037FAB2392C01DDE61DF4B2392A68
:1034F00001DDD61DF2B246008C554600761C8A5579
:10350000401CA842DFDBF0BD10B50120C00707F06A
:10351000EFFB0F200EF097FD0120C00707F0CFFB57
:1035200010BD0021002800D1704706E08E4900BF81
:103530000A464B1E99B2002AFAD10246401E002AC2
:10354000F4D100BFF0E70146002901D10120704706
:10355000C8798A79904201D10120F8E70020F6E786
:1035600010B504466179E279501C10F00DFBA0798A
:10357000814201D1012010BD0020FCE770B5044656
:103580000D46002C00D170BD2046FFF7E9FF002852
:1035900007D000BF75A100200DF0BAF800BF0020D1
:1035A000F1E7E1792379594349002368C818227962
:1035B000294610F04EFB6179E279501C10F0E4FAD4
:1035C000E17100BF6B782A786DA100200DF0A0F8A2
:1035D00000BF0120D7E770B504460D46002C00D18E
:1035E00070BDA0792379584340002368C11822791F
:1035F000284610F02EFB6179A279501C10F0C4FA15
:10360000A17100BF6B782A7862A100200DF080F8CC
:1036100000BF0120E4E710B50446002C00D110BD26
:103620000020A071E071227963795A431146206825
:1036300010F028FB00BFF2E730B58DB000200990F4
:103640000A900B900C90584C0994584800680890C8
:10365000564A121D07CA05AB07C31F4832380899DE
:10366000016505A90EC954300EC010211038FEF7AF
:1036700023FF19491E3109A802F04FFB102109A8A8
:10368000FEF71AFF08A8017B13481238017108A839
:10369000C17A11480E38417008A8C17B0E480E3817
:1036A000817008A8417A0C480E38C17008A8817949
:1036B00009480E38017108A8817B07480E3841710E
:1036C00008A8017A04480E38817108A8817C024854
:1036D0000E38C17108A86BE0AA3000205345545F32
:1036E00041504E5F4B45595F434D440D0A00000069
:1036F0004C36002071756575655F74206D616C6C6A
:103700006F63206973206661696C65640D0A00004F
:10371000712D3E64617461206D616C6C6F63206912
:1037200073206661696C6564200D0A0001800000E9
:1037300064360020666C61736820696E69742E2E91
:103740002E0D0A00666C61736820696E69742E2EF6
:103750002E6261745F76616C203D2025640D0A0045
:103760005C35002064300020C81900007175657553
:10377000655F69735F66756C6C200D0A0000000060
:1037800071756575655F656E2025642025640D0A79
:103790000000000071756575655F64652025642013
:1037A00025640D0A0000000033C7B49AC828001031
:1037B00001791848017208A8817A1648417208A850
:1037C000417C1448817208A8417B1248C1721422BE
:1037D00011A1684610F03DFA14216846FEF76CFE10
:1037E00069460C482438FEF7DFFE0546002D04D15B
:1037F00000BF0EA10CF08CFF05E000BF11A100205E
:103800000CF086FF00BF102102482438FEF754FE5A
:103810000DB030BD9C300020075E2DAADCAA67B732
:10382000D5CCD49530BE6200C4D2F7926170705F7F
:103830006165735F63636D5F646563727970742043
:10384000300D0A006170705F6165735F63636D5F67
:103850006465637279707420310D0A0030B50346D7
:10386000002004E00C5C1D5C6C400C54401C904239
:10387000F8D330BD08B50A68130E6A4613700A689B
:103880001202130E6A4653700A881204130E6A4617
:1038900093700B78D37003781278534003700379D8
:1038A0006A46527853400371037A6A4692785340CD
:1038B0000372037B6A46D278534003734A68130E3F
:1038C0006A4613704A681202130E6A4653708A8859
:1038D0001204130E6A4693700B79D37043781278F2
:1038E0005340437043796A4652785A404271437A52
:1038F0006A4692785A404272437B6A46D2785A406E
:1039000042738A68130E6A4613708A681202130E95
:103910006A4653700A891204130E6A4693700B7A32
:10392000D370837812785340837083796A465278D3
:103930005A408271837A6A4692785A408272837BB7
:103940006A46D2785A408273CA68130E6A46137068
:10395000CA681202130E6A4653708A891204130E43
:103960006A4693700B7BD370C37812785340C37050
:10397000C3796A4652785A40C271C37A6A469278CD
:103980005A40C272C27B6B46DB785A40C27308BD94
:1039900001794279027183794371C3798371C1716D
:1039A000017A827A02728172417AC37A4372C17259
:1039B000017BC27B0273837BC373437B837341733D
:1039C0007047017809110901FE4A89180278120727
:1039D000120F895C0170417809110901F94A8918AF
:1039E00042781207120F895C417081780911090130
:1039F000F44A891882781207120F895C8170C178A5
:103A000009110901EF4A8918C2781207120F895C5F
:103A1000C170017909110901EA4A8918027912076E
:103A2000120F895C0171417909110901E54A8A186F
:103A300041790907090F525C427181790911090125
:103A4000E04A8A1881790907090F525C8271C179AD
:103A500009110901DB4A8A18C1790907090F525C6B
:103A6000C271017A09110901D64A8918027A12072E
:103A7000120F895C0172417A09110901D14A8A1831
:103A8000417A0907090F525C4272817A09110901D2
:103A9000CC4A8A18817A0907090F525C8272C17A6E
:103AA00009110901C74A8A18C17A0907090F525C2E
:103AB000C272017B09110901C24A8918027B1207EF
:103AC000120F895C0173417B09110901BD4A8A18F3
:103AD000417B0907090F525C4273817B091109017F
:103AE000B84A8A18817B0907090F525C8273C17B2F
:103AF00009110901B34A8A18C17B0907090F525CF1
:103B0000C273704708B5027869460A7002794A7034
:103B1000027A8A70027BCA70097806225143AA4A47
:103B2000515C017002786946497806235943A64BD7
:103B3000C91849784A4002700278694689784A4033
:103B4000027002786946C9784A400270694609786D
:103B50000171027969464978062359439A4B595CA9
:103B60004A40027102796946897806235943964B87
:103B7000C91849784A40027102796946C9784A40B1
:103B80000271694609780172027A694649784A40A9
:103B90000272027A69468978062359438A4B595C36
:103BA0004A400272027A6946C97806235943864B15
:103BB000C91849784A400272694609780622514379
:103BC0001A46891849780173027B694649784A4048
:103BD0000273027B694689784A400273027B694618
:103BE000C97806235943784B595C4A40027342789E
:103BF00069460A7042794A70427A8A70427BCA707A
:103C00000978062251431A46515C41704278694650
:103C10004978062359436C4BC91849784A40427089
:103C20004278694689784A40427042786946C97844
:103C30004A40427069460A784271427949780623BF
:103C40005943614B595C51404171427969468978C9
:103C5000062359435C4BC91849784A40427142795E
:103C60006946C9785140417169460A784272427A80
:103C7000497851404172427A69468978062359430E
:103C8000514B595C4A404272427A6946C9780623D0
:103C900059434D4BC91849784A40427269460978E0
:103CA000062251431A4689184A784273427B694674
:103CB000497851404173427B69468978514041734C
:103CC000427B6946C978062359433F4B595C4A40B9
:103CD0004273827869460A7082794A70827A8A7061
:103CE000827BCA700978062251431A46515C817062
:103CF00082786946497806235943334BC918497875
:103D00004A4082708278694689784A408270827817
:103D10006946C9784A40827069460A788271827918
:103D2000497806235943284B595C4A40827182796D
:103D30006946897806235943234BC918497851406D
:103D4000817182796946C9785140817169460A78E2
:103D50008272827A497851408172827A6946897882
:103D600006235943184B595C4A408272827A69464D
:103D7000C97806235943144BC91849784A408272BE
:103D800069460978062251431A4689184A7882738F
:103D9000827B6946497851408173827B6946897884
:103DA00051408173817B6A46D27806235A43064B81
:103DB0009A5C51408173C27869460A70C2794A7030
:103DC000C27A03E0484F0110485101108A70C27B4B
:103DD000CA700978062251431A46515CC170C278F4
:103DE0006946497806235943FE4BC91849784A4029
:103DF000C270C278694689784A40C270C278694602
:103E0000C9784A40C27069460A78C271C279497855
:103E100006235943F34B595C5140C171C27969463D
:103E2000897806235943EF4BC91849785140C1712D
:103E3000C2796946C9785140C17169460A78C2722F
:103E4000C27A49785140C172C27A6946897806239C
:103E50005943E44B595C4A40C272C27A6946C978F8
:103E600006235943DF4BC91849784A40C272694654
:103E70000978062251431A4689184A78C273C27BD0
:103E8000694649785140C173C27B6946897851407F
:103E9000C173C17B6A46D27806235A43D14B9A5CE0
:103EA0005140C17308BDFFB505460E4614461F4676
:103EB00029786846017069780171A9780172E978FA
:103EC00001732979417069794171A9794172E97960
:103ED0004173297A8170697A8171A97A8172E97A4C
:103EE0008173297BC170697BC171A97BC172E97B38
:103EF000C1732146FFF7BEFC6846FFF762FD6846C6
:103F0000FFF746FD6846FFF7FDFD21461031684684
:103F1000FFF7B0FC6846FFF754FD6846FFF738FD31
:103F20006846FFF7EFFD214620316846FFF7A2FC07
:103F30006846FFF746FD6846FFF72AFD6846FFF72B
:103F4000E1FD214630316846FFF794FC6846FFF7F3
:103F500038FD6846FFF71CFD6846FFF7D3FD214694
:103F600040316846FFF786FC6846FFF72AFD684641
:103F7000FFF70EFD6846FFF7C5FD21465031684644
:103F8000FFF778FC6846FFF71CFD6846FFF700FD69
:103F90006846FFF7B7FD214660316846FFF76AFCC7
:103FA0006846FFF70EFD6846FFF7F2FC6846FFF72C
:103FB000A9FD214670316846FFF75CFC6846FFF7B3
:103FC00000FD6846FFF7E4FC6846FFF79BFD2146CD
:103FD00080316846FFF74EFC6846FFF7F2FC684602
:103FE000FFF7D6FC6846FFF78DFD21469031684605
:103FF000FFF740FC802F51D06846FFF7E2FC68468F
:10400000FFF7C6FC6846FFF77DFD2146A0316846F4
:10401000FFF730FC6846FFF7D4FC6846FFF7B8FCB2
:104020006846FFF76FFD2146B0316846FFF722FC76
:10403000C02F27D06846FFF7C4FC6846FFF7A8FCEE
:104040006846FFF75FFD2146C0316846FFF712FC66
:104050006846FFF7B6FC6846FFF79AFC6846FFF72C
:1040600051FD2146D0316846FFF704FC6846FFF752
:10407000A8FC6846FFF78CFC2146E0316846FFF754
:10408000F9FB16E06846FFF79CFC6846FFF780FCEA
:104090002146C0316846FFF7EDFB0AE06846FFF7AE
:1040A00090FC6846FFF774FC2146A0316846FFF794
:1040B000E1FB6846007830706846007970706846A9
:1040C000007AB0706846007BF070684640783071C6
:1040D0006846407970716846407AB0716846407BA6
:1040E000F0716846807830726846807970726846F0
:1040F000807AB0726846807BF0726846C078307310
:104100006846C07970736846C07AB0736846C07BF1
:10411000F073FFBDFFB58DB0074615461E460E98DD
:1041200000090090102201A818990FF092FD0024B8
:104130001CE02001C119102209A80FF08AFD1022ED
:1041400009A901A8FFF78AFB05A909A8179B169AD8
:10415000FFF7A9FE21018819102205A90FF079FDAA
:1041600005A80FC8049301AB07C3641C00988442E0
:10417000DFDB002D1AD01022294609A80FF069FDB7
:10418000102209A901A8FFF769FB05A909A8179B37
:10419000169AFFF788FE21018819102205A90FF051
:1041A00058FD05A80FC8049301AB07C311B0F0BDBB
:1041B0000178091109010C4A891802781207120FB7
:1041C000895C0170417809110901074A8918427810
:1041D0001207120F895C4170817809110901024AA6
:1041E000891803E0485101104850011082781207E5
:1041F000120F895C8170C17809110901FE4A891882
:10420000C2781207120F895CC17001790911090186
:10421000F94A891802791207120F895C01714179F4
:1042200009110901F44A8A1841790907090F525CFA
:104230004271817909110901EF4A8A1881790907C8
:10424000090F525C8271C17909110901EA4A8A1881
:10425000C1790907090F525CC271017A091109017C
:10426000E54A8918027A1207120F895C0172417AB5
:1042700009110901E04A8A18417A0907090F525CBD
:104280004272817A09110901DB4A8A18817A090789
:10429000090F525C8272C17A09110901D64A8A1843
:1042A000C17A0907090F525CC272017B0911090129
:1042B000D14A8918027B1207120F895C0173417B76
:1042C00009110901CC4A8A18417B0907090F525C80
:1042D0004273817B09110901C74A8A18817B09074A
:1042E000090F525C8273C17B09110901C24A8A1805
:1042F000C17B0907090F525CC2737047C17983798A
:10430000C37143798371037943710171C17A437A2F
:10431000C3724172817A037A83720172C17B037B1B
:10432000C373427B0273837B43738173704708B509
:10433000027869460A7002794A70027A8A70027BB2
:10434000CA70097806225143AC4A8918497901702C
:1043500002786946497806235943A84BC918C97899
:104360004A40027002786946897806235943A34B74
:10437000C91809794A40027002786946C97806234B
:1043800059439E4BC91889784A400270694609789A
:10439000062251431A4689188978017102796946C3
:1043A000497806235943954BC91849794A40027107
:1043B00002796946897806235943904BC918C97810
:1043C0004A40027102796946C978062359438B4BEA
:1043D000C91809794A400271694609780622514391
:1043E0001A46891809790172027A694649780623C2
:1043F0005943824BC91889784A400272027A694649
:104400008978062359437D4BC91849794A4002727D
:10441000027A6946C97806235943784BC918C97886
:104420004A40027269460978062251431A468918A1
:10443000C9780173027B69464978062359436F4B5B
:10444000C91809794A400273027B694689780623B4
:1044500059436A4BC91889784A400273027B6946FE
:10446000C97806235943654BC91849794A400273F4
:10447000427869460A7042794A70427A8A70427B71
:10448000CA700978062251431A4689184979417041
:1044900042786946497806235943584BC918C97868
:1044A0004A40427042786946897806235943534B03
:1044B000C91809794A40427042786946C97806238A
:1044C00059434E4BC91889784A4042706946097869
:1044D000062251431A4689188A7842714279694600
:1044E000497806235943454BC918497951404171D0
:1044F00042796946897806235943404BC918C978DF
:104500004A40427142796946C978062359433B4B78
:10451000C91809794A40427169460978062251430F
:104520001A4689180A794272427A694649780623FE
:104530005943324BC918897851404172427A6946D1
:104540008978062359432D4BC91849795140417246
:10455000427A6946C97806235943284BC918C97855
:104560004A40427269460978062251431A46891820
:10457000CA784273427B69464978062359431F4BE8
:10458000C918097951404173427B694689780623ED
:1045900059431A4BC91889784A404273427B69468D
:1045A000C97806235943154BC918497951404173BD
:1045B000827869460A7082794A70827A8A70827B30
:1045C000CA700978062251431A46891849798170C0
:1045D00082786946497806235943084BC918C97837
:1045E0004A40827082786946897806235943034B92
:1045F000C91809794A4003E0485001104851011098
:10460000827082786946C97806235943FE4BC918DF
:1046100089784A40827069460978062251431A46D1
:1046200089188A78827182796946497806235943C4
:10463000F54BC91849795140817182796946897869
:1046400006235943F04BC918C978514081718179CB
:104650006A46D27806235A43EB4BD218127951405E
:10466000817169460978062251431A4689180A79E8
:104670008272827A6946497806235943E24BC91807
:1046800089784A408272827A69468978062359433A
:10469000DD4BC91849794A408272827A6946C978E5
:1046A00006235943D84BC918C978514081726946CD
:1046B0000978062251431A468918CA788273827B88
:1046C0006946497806235943CF4BC91809794A40AE
:1046D0008273827B6946897806235943CA4BC9187D
:1046E000897851408173827B6946C9780623594392
:1046F000C54BC91849794A408273C27869460A7025
:10470000C2794A70C27A8A70C27BCA70097806225E
:1047100051431A4689184979C170C2786946497867
:1047200006235943B84BC918C9784A40C270C278A9
:104730006946897806235943B34BC91809794A4019
:10474000C270C2786946C97806235943AE4BC9186E
:1047500089784A40C27069460978062251431A4650
:1047600089188A78C271C279694649780623594303
:10477000A54BC91849794A40C271C27969468978FE
:1047800006235943A04BC918C9785140C171C27959
:104790006946C978062359439B4BC91809794A4091
:1047A000C27169460978062251431A4689180A7966
:1047B000C272C27A6946497806235943924BC91896
:1047C00089784A40C272C27A694689780623594379
:1047D0008D4BC91849794A40C272C27A6946C97874
:1047E00006235943884BC918C9784A40C2726946A2
:1047F0000978062251431A468918CA78C273C27BC7
:1048000069464978062359437F4BC91809795140B5
:10481000C173C27B69468978062359437A4BC9180C
:1048200089784A40C273C17B6A46D27806235A43CC
:10483000754BD21852795140C17308BDFFB505467A
:104840000E4614461F462978684601706978017142
:10485000A9780172E9780173297941706979417108
:10486000A9794172E9794173297A8170697A8171F4
:10487000A97A8172E97A8173297BC170697BC171E0
:10488000A97BC172E97BC173802F44DDC02F20DD7D
:104890002146E031FEF7EEFF6846FFF72FFD684640
:1048A000FFF786FC2146D0316846FEF7E3FF6846F5
:1048B000FFF73DFD6846FFF721FD6846FFF778FCEE
:1048C0002146C0316846FEF7D5FF6846FFF72FFD49
:1048D00004E02146C0316846FEF7CCFF6846FFF78A
:1048E0000DFD6846FFF764FC2146B0316846FEF7CF
:1048F000C1FF6846FFF71BFD6846FFF7FFFC6846EF
:10490000FFF756FC2146A0316846FEF7B3FF684624
:10491000FFF70DFD04E02146A0316846FEF7AAFF2F
:104920006846FFF7EBFC6846FFF742FC21469031F2
:104930006846FEF79FFF6846FFF7F9FC6846FFF7F9
:10494000DDFC6846FFF734FC214680316846FEF7FF
:1049500091FF6846FFF7EBFC6846FFF7CFFC68461F
:10496000FFF726FC214670316846FEF783FF684654
:10497000FFF7DDFC6846FFF7C1FC6846FFF718FC4F
:10498000214660316846FEF775FF6846FFF7CFFCA9
:104990006846FFF7B3FC6846FFF70AFC2146503132
:1049A0006846FEF767FF6846FFF7C1FC6846FFF7F9
:1049B000A5FC6846FFF7FCFB214640316846FEF740
:1049C00059FF6846FFF7B3FC6846FFF797FC684657
:1049D000FFF7EEFB214630316846FEF74BFF684695
:1049E000FFF7A5FC6846FFF789FC6846FFF7E0FB88
:1049F000214620316846FEF73DFF6846FFF797FCE9
:104A00006846FFF77BFC01E0485101106846FFF75C
:104A1000CFFB214610316846FEF72CFF6846FFF7B2
:104A200086FC6846FFF76AFC6846FFF7C1FB214633
:104A30006846FEF71FFF68460078307068460079C8
:104A400070706846007AB0706846007BF070684607
:104A5000407830716846407970716846407AB0712C
:104A60006846407BF071684680783072684680798D
:104A700070726846807AB0726846807BF0726846D1
:104A8000C07830736846C07970736846C07AB07376
:104A90006846C07BF073FFBDFFB58DB005460E467E
:104AA000174630090090102201A817990FF0D1F88D
:104AB00000241CE020014119102209A80FF0C9F8B8
:104AC00005A909A8169B109AFFF7B8FE102205A9A0
:104AD00001A8FEF7C3FE2101C819102205A90FF095
:104AE000B8F809A80FC8049301AB07C3641C009869
:104AF0008442DFDB11B0F0BDFFB58DB006460D4638
:104B000017462807000F002802D0002011B0F0BD82
:104B100028090090102201A817990FF09AF8002494
:104B200016E020018119102209A80FF092F8102236
:104B300009A901A8FEF792FE05A909A8169B109ADB
:104B4000FFF7B1F905A80FC8049301AB07C3641CB4
:104B500000988442E5DB102205A938460FF079F869
:104B60000120D3E702460F200BE0135C5B1C1354BB
:104B7000135C002B03D110235B1A834200D104E0A5
:104B8000401E10235B1A8342EFDD00BF7047FFB564
:104B900089B007460C4615460026AF4204D022468F
:104BA000394628460FF055F8102204A813990FF043
:104BB00050F8204610380890102C14D900260FE029
:104BC000694604A8129B0C9AFFF76DF9A9191022E7
:104BD0006846FEF743FE102104A8FFF7C3FF103616
:104BE00008988642ECD3694604A8129B0C9AFFF7FA
:104BF0005AF9A21BA9196846FEF730FE0DB0F0BDA8
:104C0000FFB583B004460D4616460C9F0D980097DD
:104C10000190324629462046069BFFF7B8FF07B0B1
:104C2000F0BDF8B504460E4617461D461021204635
:104C30000FF028F8681E4007400F20703A463146B2
:104C4000601C0FF006F8F8BDFFB581B006460C46B3
:104C50001F46216888193A4603990EF0FAFF20682A
:104C6000C01920602068C117090F0918091109012E
:104C7000451A002D01D01020451B216888192946AE
:104C80000FF000F820684019206005B0F0BDF8B5BD
:104C900005460C4617461E462068401C2E5430041C
:104CA000000E216868542068801C20602168481923
:104CB000324639460EF0CDFF20688019206020680A
:104CC000C117090F091809110901411A1022511AB7
:104CD00000912168481900990EF0D4FF21680098CE
:104CE00008182060F8BDFFB581B004460F46154690
:104CF0000C9E0A99881EC10F09180907490FCA009E
:104D00000499491E4907490F0A432270002F02DD0A
:104D10002078403020703246601C0B990EF099FFCD
:104D20000F22911B721C10190EF0ACFFE5732804C2
:104D3000000EA07305B0F0BD01460A06120F120165
:104D4000E44BD2180B071B0FD05C0A04120F1201A0
:104D5000E04BD2180B051B0FD25C120210180A028E
:104D6000120F1201DB4BD2180B031B0FD25C120483
:104D700010180A0F1201D74BD2180B011B0FD25C6F
:104D8000120610187047F7B592B00646042011902D
:104D90003C22D14968460EF05CFF1498802806D06A
:104DA000C02808D0FF38013800280CD107E00A20BD
:104DB0001090042509E00C201090062505E00E2037
:104DC0001090082501E015B0F0BD00BF002414E0EC
:104DD000A000305C0106A000401C305C00040843C9
:104DE000A100891C715C09020843A100C91C715C07
:104DF0000843A20013998850641CAC42E8DB2C469F
:104E000033E0601E8100139840580F9029462046D9
:104E10000EF0BAFE002912D10F9909020F9A120E54
:104E200011430846FFF788FF0746601E29460EF02B
:104E3000ABFE80006946085847400F970BE0062DEF
:104E400009DD294620460EF09FFE042903D10F9864
:104E5000FFF772FF0F90601B8100139840580F9965
:104E60004840A20013998850641C1099491C11985D
:104E70004843A042C5DC00BFA5E7FFB5CFB00D4653
:104E80005A9F599E5C9C042C0ED0062C0CD0082CEA
:104E90000AD00A2C08D00C2C06D00E2C04D0102CD2
:104EA00002D0002053B0F0BD072E01DB0D2E01DD36
:104EB0000020F7E70121C9035298884201DD002054
:104EC000F0E752996918084630300AF0B5FA429076
:104ED0004298002800D1E5E704A95E9A5D98FFF7A3
:104EE00052FF0F20801B409058980296009401902A
:104EF0002A46409B52994298FFF7F5FE10204190B8
:104F000041A9529B519A4298FFF7C1FE202041903F
:104F10002B4641A94F9A4298FFF796FE324647A882
:104F2000409B5899FFF77DFE00204B904C904D9090
:104F30004E904BA95E9804AB43AA01910090419911
:104F40004298FFF7D9FD2A4638464F990EF081FE68
:104F50007819224643A90EF07CFE47A80FC84E934D
:104F60004BAB07C30F20011B4BA8FFF7FBFD4BA961
:104F70005E9804AB3A460191009029463846FFF707
:104F800006FE47A95E987A1901910090781904AB42
:104F900021460390FFF7FBFD42980AF0D1FA291948
:104FA0005B98016001207DE7FFB5D3B00E465FAC92
:104FB000B0CCAE4202D8002057B0F0BD5699891946
:104FC000084630300AF038FA42904298002800D162
:104FD000F2E704A9639A6298FFF7D5FE701B206080
:104FE0000F215D98081A4090226853995E980EF040
:104FF00030FE2268539811182A4647A80EF029FE61
:105000004BA8409B5D9A5C99FFF70BFE4BA80FC81D
:1050100052934FAB07C30F20411B4FA8FFF7A2FDD0
:105020004FA963980191009004AB21685E9A1046E5
:10503000FFF7E6FD002F47D04BA9639804AB47AAC2
:1050400001910090294647A8FFF7DAFD0F215D98EE
:10505000081A40905C995D98009501910290226831
:10506000409B56994298FFF73EFE1020419041A97F
:10507000569B559A4298FFF70AFE202041902368DC
:1050800041A95E9A4298FFF7DFFD00204F905090B3
:10509000519052904FA9639804AB43AA019100909C
:1050A00041994298FFF728FD2A4643A947A80EF0E8
:1050B0001BFE002802D10120386005E00020386086
:1050C00021685E980EF0DEFD42980AF039FA3868E1
:1050D00072E70000484F01104857011030B50246F2
:1050E000002003E00C5C1454441CA0B21028F9DB2F
:1050F0000120B9E00401241F135D0401E41E145DC6
:10510000FE4D2C5D451E2D01555D6C40FC4D2D5C0A
:105110006C40050154550401A41E145DF74D2C5D2F
:10512000451E2D016D1C555D6C4005016D1C5455CF
:105130000401641E145DF14D2C5D451E2D01AD1C56
:10514000555D6C400501AD1C5455EC4CE45C451EAE
:105150002D01ED1C555D6C400501ED1C5455441EA0
:105160002401241D145D0501555D65400401241DC5
:105170001555441E2401641D155D0401641C145D55
:1051800065400401641D1555441E2401A41D155DD0
:105190000401A41C145D65400401A41D1555441EA2
:1051A0002401E41D145D0501ED1C555D6C400501F5
:1051B000ED1D5455441E24010834145D05012D1DB8
:1051C000555D6540040108341555441E2401093419
:1051D000145D05016D1D555D6540040109341555CB
:1051E000441E24010A34155D0401A41D145D6C40A5
:1051F00005010A355455441E24010B34155D040184
:10520000E41D145D654004010B341555441E240152
:105210000C34145D05010835555D654004010C34FE
:105220001555441E24010D34155D04010934145D27
:10523000654004010D341555441E24010E34155DDE
:1052400004010A34145D6C4005010E355455441EAA
:1052500024010F34145D05010B35555D65400401D3
:105260000F341555441CA0B20B2800DA42E730BDBC
:105270000146C811002805D04806010E08461B2229
:10528000504070474806000EFBE7FEB504460D4649
:10529000002681E120783101695C48409749085C2B
:1052A000207020793101091D695C48409349085CF0
:1052B0002071217A30010830285C41408F48405CE1
:1052C0002072217B30010C30285C41408B48405CCF
:1052D000207360783101491C695C48400746617958
:1052E0003001401D285C41408448405C6070607A19
:1052F00031010931695C48408049085C6071617B1B
:1053000030010D30285C41407C48405C60727B4835
:10531000C05D6073A0783101891C695C4840074614
:10532000A1793001801D285C41400191A07A3101B2
:105330000A31695C48407149085CA070A07B31016A
:105340000E31695C48406D49085CA0710846C05D3B
:10535000A0720198085CA073E07B31010F31695C99
:1053600048400746E07A31010B31695C48406349A7
:10537000085CE073E0793101C91D695C48405F4910
:10538000085CE072E0783101C91C695C48405B4907
:10539000085CE0710846C05DE070207861784840A4
:1053A000A1784840E178484007462078019020786D
:1053B0006178484000900098FFF75AFF00902078ED
:1053C00000994840784020706078A178484000906B
:1053D0000098FFF74DFF00906078009948407840B2
:1053E0006070A078E178484000900098FFF740FF97
:1053F0000090A078009948407840A070E07801992A
:10540000484000900098FFF733FF0090E078009943
:1054100048407840E070207961794840A17948405F
:10542000E179484007462079019020796179484028
:1054300000900098FFF71CFF0090207900994840E9
:10544000784020716079A179484000900098FFF77A
:105450000FFF009060790099484078406071A07912
:10546000E179484000900098FFF702FF0090A07992
:10547000009948407840A071E07901994840009037
:105480000098FFF7F5FE0090E079009948407840D9
:10549000E071207A617A4840A17A4840E17A484038
:1054A0000746207A0190207A617A4840009000985F
:1054B000FFF7DEFE0090207A009948407840207285
:1054C000607AA17A484000900098FFF7D1FE0090E2
:1054D000607A0099484078406072A07AE17A48404A
:1054E00000900098FFF7C4FE0090A07A0099484011
:1054F0007840A072E07A0199484003E08457011097
:105500008459011000900098FFF7B2FE0090E07AF5
:10551000009948407840E072207B617B4840A17B45
:105520004840E17B48400746207B0190207B617B1F
:10553000484000900098FFF79BFE0090207B009968
:10554000484078402073607BA17B484000900098E1
:10555000FFF78EFE0090607B0099484078406073B2
:10556000A07BE17B484000900098FFF781FE00900F
:10557000A07B009948407840A073E07B01994840A7
:1055800000900098FFF774FE0090E07B009948407F
:105590007840E073701CC6B2092E00DA7AE62078F3
:1055A0003101695C4840FE49085C20702179300176
:1055B000001D285C4140FA48405C2071217A30018E
:1055C0000830285C4140F648405C2072217B300165
:1055D0000C30285C4140F248405C20736078310117
:1055E000491C695C4840074660793101491D695C86
:1055F0004840EB49085C6070617A30010930285CF2
:105600004140E748405C6071607B31010D31695C6D
:105610004840E349085C60720846C05D6073A17849
:105620003001801C285C41400F46A1793001801D6B
:10563000285C41400191A17A30010A30285C414048
:10564000D748405CA070A17B30010E30285C4140FF
:10565000D348405CA071D248C05DA072D049019887
:10566000085CA073E17B30010F30285C41400F469D
:10567000E07A31010B31695C4840C949085CE0734C
:10568000E1793001C01D285C4140C548405CE072B2
:10569000E1783001C01C285C4140C148405CE071A9
:1056A000BF48C05DE0702078A021495D484020706F
:1056B0006078A121495D48406070A078A221495DD1
:1056C0004840A070E078A321495D4840E07020790F
:1056D000A421495D484020716079A521495D484079
:1056E0006071A079A621495D4840A071E079A721A9
:1056F000495D4840E071207AA821495D4840207208
:10570000607AA921495D48406072A07AAA21495D6A
:105710004840A072E07AAB21495D4840E072207BAE
:10572000AC21495D48402073607BAD21495D484014
:105730006073A07BAE21495D4840A073E07BAF2140
:10574000495D4840E073FEBDFEB504460D4609269E
:105750002078A021495D484020706078A121495DF2
:1057600048406070A078A221495D4840A070E07870
:10577000A321495D4840E0702079A421495D48405B
:1057800020716079A521495D48406071A079A6210A
:10579000495D4840A071E079A721495D4840E0712A
:1057A000207AA821495D48402072607AA921495D8C
:1057B00048406072A07AAA21495D4840A072E07A10
:1057C000AB21495D4840E072207BAC21495D4840F7
:1057D0002073607BAD21495D48406073A07BAE21A2
:1057E000495D4840A073E07BAF21495D4840E073CC
:1057F00020786C49085C3101695C48402070207950
:105800006849085C3101091D695C48402071207AB3
:105810006449095C30010830285C41402172207BDA
:105820006049085C31010C31695C48402073607B41
:105830005C49085C3101491C695C48400746607A54
:105840005849085C31010D31695C484060736079EA
:105850005449095C30010930285C4140617260782C
:105860005049095C3001401D285C414061716770FE
:10587000A0784C49085C31010A31695C4840074610
:10588000A0794849085C31010E31695C48400290BA
:10589000A07A4449085C3101891C695C4840A070C9
:1058A000A07B4049085C3101891D695C4840A071BA
:1058B000A7720298A073E0783A49095C30010F3072
:1058C000285C41400F46E0793649095C3001C01C34
:1058D000285C4140E170E07A3249095C3001C01D2A
:1058E000285C4140E171E07B2E49085C31010B31BD
:1058F000695C4840E072E77308260AE22178A278E2
:1059000051400846FFF7B4FC0090FFF7B1FC074692
:105910006178E27851400846FFF7AAFC0090FFF753
:10592000A7FC029020787840207060780299484067
:105930006070A0787840A070E07802994840E070EC
:105940002179A27951400846FFF792FC0090FFF7B9
:105950008FFC07466179E27951400846FFF788FCE1
:105960000090FFF785FC02902079784020716079E3
:10597000029948406071A0797840A071E07902995D
:105980004840E071217AA27A51400846FFF770FC46
:105990000090FFF76DFC0746617AE27A514003E020
:1059A00084570110845801100846FFF761FC0090ED
:1059B000FFF75EFC0290207A78402072607A0299AC
:1059C00048406072A07A7840A072E07A029948401C
:1059D000E072217BA27B51400846FFF749FC009012
:1059E000FFF746FC0746617BE27B51400846FFF724
:1059F0003FFC0090FFF73CFC0290207B7840207336
:105A0000607B029948406073A07B7840A073E07B84
:105A100002994840E073207861784840A178484076
:105A2000E178484007462078029020786178484025
:105A300001900198FFF71CFC0190207801994840E3
:105A4000784020706078A178484001900198FFF775
:105A50000FFC019060780199484078406070A07810
:105A6000E178484001900198FFF702FC0190A0788E
:105A7000019948407840A070E07802994840019030
:105A80000198FFF7F5FB0190E078019948407840D4
:105A9000E070207961794840A1794840E179484037
:105AA0000746207902902079617948400190019859
:105AB000FFF7DEFB01902079019948407840207182
:105AC0006079A179484001900198FFF7D1FB0190DE
:105AD00060790199484078406071A079E179484047
