:020000041000EA
:10000000983500203D0A0010450A0010470A0010EC
:1000100000000000000000000000000000000000E0
:10002000000000000000000000000000490A00106D
:1000300000000000000000004B0A00104D0A0010F4
:10004000000000004F0A00104F0A00104F0A001075
:100050004F0A00104F0A0010F5080010A709001001
:1000600003030010E1030010BF0400104F0A00104A
:10007000490600104F0A00104F0A00104F0A0010E6
:100080004F0A00104F0A00104F0A00104F0A0010CC
:100090004F0A00104F0A0010890500104F0A001087
:1000A0000000000000000000000000000000000050
:1000B0000000000000000000000000000000000040
:1000C0000348854603F0BCFB0048004729010010A7
:1000D0009835002010B5012000F09DFA2EA000F008
:1000E00001FB10BD10B5022000F095FA2FA000F022
:1000F000F9FA10BD10B50120400500F08CFA30A0CF
:1001000000F0F0FA10BD10B5324801680068401CDC
:10011000304A10603048814205D100201146086005
:100120002EA000F0DFFA10BD72B601F087FC0020AF
:1001300002F099F8002001F0D2F8FF20F53000F02D
:100140006FF801F0DCF8012000F04CFA022000F01A
:1001500049FA0120400500F045FA254901208003B5
:1001600000F07CF823490120C00300F0E6F82249A2
:100170000520000400F050F920491920000200F089
:10018000BAF900F0ABFA1EA000F0ACFA62B601E0DA
:1001900002F056FAFCE7000054696D65725F305F4B
:1001A00063616C6C6261636B0D0A000054696D657C
:1001B000725F315F63616C6C6261636B0D0A00009A
:1001C00054696D65725F325F63616C6C6261636B11
:1001D0000D0A000000300020881300004874696D8B
:1001E00065725F63616C6C6261636B0D0A00000095
:1001F000D5000010E5000010F50000100701001008
:10020000535944383831312054696D657220546532
:10021000737420323031382D392D31320D0A0000FF
:10022000002108E0002201E0531C9AB20A4B9A42D6
:10023000FADB4B1C99B28142F4DB7047002107E0E6
:10024000002201E0531C9AB2022AFBDB4B1C99B23C
:100250008142F5DB704700008C0A000070B504464F
:100260000D46DB4800682030007CC007C00F002826
:100270000CD0D74800682030007C40084000D449AA
:100280000968203108743220FFF7D8FFD048006891
:1002900020300475210A4175210C8175210EC1752C
:1002A000CB4800682030007C102188431030C849BA
:1002B000096820310874C64800682030807C4008F6
:1002C0004000C349096820318874C2480560C048AD
:1002D00000682030407C40084000401CBC49096850
:1002E00020314874082000F066F9B94800682030D1
:1002F000007C40084000401CB54909682031087462
:1003000070BD10B5B24800682030C07CC007C00F77
:10031000002811D0AE4800682030407C40084000E2
:10032000401CAB49096820314874AA48006800287D
:1003300002D0A8490868804710BD70B504460D4634
:10034000A34800682030007C8007C00F00280CD034
:100350009F4800682030007C022188439C4909683E
:10036000203108743220FFF769FF99480068203077
:100370000476210A4176210C8176210EC1769448BB
:1003800000682030007C2021884320309049096893
:10039000203108748E4800682030807C0221884318
:1003A0008B490968203188748A484560884800680C
:1003B0002030407C02218843801C85490968203117
:1003C0004874092000F0F7F8814800682030007C6C
:1003D00002218843801C7E4909682031087470BD61
:1003E00010B57B4800682030C07C8007C00F002813
:1003F00011D0774800682030407C02218843801C5F
:10040000734909682031487472484068002802D056
:1004100070494868804710BD70B504460D466C4869
:1004200000682030007C4007C00F00280CD06848CE
:1004300000682030007C0421884365490968203128
:1004400008743220FFF7FAFE614800682030047714
:10045000210A4177210C8177210EC1775C48006821
:100460002030007C402188434030594909682031C0
:100470000874574800682030807C04218843544920
:1004800009682031887453488560514800682030DD
:10049000407C04218843001D4D490968203148747F
:1004A0000A2000F088F84A4800682030007C0421C7
:1004B0008843001D464909682031087470BD10B595
:1004C000434800682030C07C4007C00F002811D08E
:1004D0003F4800682030407C04218843001D3C498F
:1004E0000968203148743B488068002802D03949A7
:1004F0008868804710BD70B504460D4636480068D0
:10050000C07CC007C00F002808D0334800680079BD
:1005100040084000401C3049096808712E480068B6
:10052000007A400840002C49096808722A4800688F
:100530000473210A417328480068007AE021884347
:100540002549096808722548056023480068007D30
:1005500040084000401C2049096808751E48006892
:10056000007A02218843801C1B4909680872162002
:1005700000F021F818480068007840084000401C4E
:1005800015490968087070BD10B513480068007DF2
:10059000C407E40F10480068007D40084000401C7C
:1005A0000D49096808750D480068002802D00B48FD
:1005B0000068804710BD002809DB00BF00BFC206ED
:1005C000D20E01219140064A116000BF00BF704762
:1005D00004300020A4300020083000200C3000201F
:1005E00000E100E0394909680A4613781946537852
:1005F0001B02194393781B041943D2781206114346
:100600008143324A126811700B0A53700B0C9370BD
:10061000090ED17070472E4909680A4613781946A9
:1006200053781B02194393781B041943D27812069E
:1006300011434140264A126811700B0A53700B0C8B
:100640009370090ED170704710B5224800681821C8
:1006500041180A7810464A78120210438A78120428
:100660001043C978090608431A49096810228A18F4
:100670001378194653781B02194393781B041943C6
:10068000D27812061143884300281ED01248006811
:10069000002802D01048006880470E4800681821E2
:1006A00041180A7810464A78120210438A781204D8
:1006B0001043C97809060843064909680870020A08
:1006C0004A70020C8A70000EC87010BD14300020F1
:1006D00018300020203000202430002010B500F019
:1006E00027F810BD0FB438B5002500240498002861
:1006F00003D138BC08BC04B0184705A800900B48CB
:10070000009A049903F0AEF8C5B200200090802D45
:1007100000DD8025002405E00449085D00F0B2F802
:10072000601CC4B2AC42F7DB00BFE2E7B03000208F
:1007300010B5BE480068C07B80098001C01CBB4961
:100740000968C873B9480068007C80098001001DF1
:10075000B64909680874B5480068203080782021BF
:100760008843B249096820318870B0480068203059
:10077000807840218843AD49096820318870AC48B1
:100780000068807840084000A94909688870A84836
:1007900000680078000900010830A5490968087060
:1007A000A3480068007880218843A149096808703F
:1007B0009F48006800784021884340309C49096880
:1007C00008709B480068C078102188431030984911
:1007D0000968C87096480068807804218843001D25
:1007E000934909688870924800688078202188437E
:1007F0008F49096888708E48006880781021884386
:100800008B49096888708A4800688078802188430D
:100810008749096888708648006880784021884345
:1008200083490968887082480068007810218843ED
:100830007F49096808707E48006800782021884355
:100840007B49096808707A480068807802218843EB
:10085000801C77490968887075480068C078202135
:100860008843203072490968C870062000F0D0F82B
:100870006F48006880780821884308306C4909680F
:10088000887010BD6A490968487000BF68490968E6
:1008900009788906C90F0029F8D0654909680978DF
:1008A00020229143624A12681170704718B50246BF
:1008B00000200023009314E05D4B1B681B790B5450
:1008C000431CD8B26B461B785B1CDCB200946B46B1
:1008D0001B785B1CDCB200946B461B785B1CDCB2A3
:1008E0000094534B1B68DB78DB07DB0F002BE3D056
:1008F000107018BD0CB54E4800680078C006C00FD7
:1009000000280CD04A4800680078102188434849E4
:1009100009680870694601A8FFF7C8FF00BF44488E
:10092000006800788006C00F002807D040480068A3
:100930000078202188433E49096808703C480068D7
:1009400080788007C00F002808D039480068807878
:1009500002218843801C3649096888700CBD18B58F
:10096000024600200023009314E0324B1B681B79E1
:100970000B54431CD8B26B461B785B1CDCB2009452
:100980006B461B785B1CDCB200946B461B785B1CCF
:10099000DCB20094274B1B68DB78DB07DB0F002BF6
:1009A000E3D0107018BD0CB5224800680078C0066E
:1009B000C00F00280CD01F48006800781021884321
:1009C0001C4909680870694601A8FFF7C8FF00BF05
:1009D0001848006800788006C00F002807D0154826
:1009E000006800782021884312490968087011487E
:1009F000006880788007C00F002808D00D48006884
:100A0000807802218843801C0A49096888700CBDDF
:100A1000002809DB00BF00BFC206D20E01219140B1
:100A2000054A116000BF00BF704700001030002071
:100A3000583000205C30002000E100E0044880478E
:100A400004480047FEE7FEE7FEE7FEE7FEE7FEE7B5
:100A5000590A0010C100001001480249086070479F
:100A60000024F40060300020F1B5F84880470746C4
:100A7000F74880470646F54C0120183CA047F44D46
:100A800000200C35A847F349009888473046A8470E
:100A90003846A047F8BDF0B5EF4DF048E96885B09D
:100AA0000818044602F039FB2146401C02F03FFBC7
:100AB0000024E9480125C668E8480C38311803913C
:100AC000487C097C00020843A540284202903BD0A4
:100AD0000B2060438119E14800910930081801900A
:100AE00002F01BFB0746DD48301802F016FB874278
:100AF0002AD10F21009889014018007D00280CD0D0
:100B0000D64A00990D3A8A18517D127D0902114387
:100B10007818019902F00BFB05E002980399A843AD
:100B20000874000A4874CD4800990D30081802F086
:100B3000F4FA002808D0022D19D0042D17D0082D62
:100B400015D0102D1AD08047641CE4B20A2CB0D303
:100B5000C148C168C1480C380918487C097C0002AA
:100B60000843800501D1BE48804705B0F0BDBD49AE
:100B7000012088470028E7D0222005E0B94901205C
:100B800088470028E0D03B20FFF76EFFDCE710B578
:100B9000B14912200969887072B60121B04A032058
:100BA000B43A904762B610BDFEB5002168460171A7
:100BB0000170AD4F0172AD4EA74CB847A07102ABAA
:100BC0006A4601A9606902F064F900284ED0082045
:100BD000B047002803D00220B04700280FD0684655
:100BE0000078012811D0E0686569407A01283ED07C
:100BF0000228E2D19E4AA17928469047DDE70121EB
:100C000068460170007A00282DD02521E06849014E
:100C10004118497B6569002908D09049D4314118B1
:100C2000487B097B0002084392498847284602F026
:100C300075F90028C1D068468D4A017996326069FD
:100C400090472878C0438007B7D1A8781228B4D13C
:100C500021691320887072B60121814A0320B43AB9
:100C6000904762B6A9E73D20FFF7FEFEFEBD28785B
:100C70000007000F0528A0D1687E297E00020843E6
:100C8000062805D3687F297F000208430A2803D27B
:100C900070491220884790E77349EE31A81C8847B5
:100CA000287887224006C10FE06811540622A91C4B
:100CB000883002F001FA3721206902F016FA7CE749
:100CC000F0B5684999B00420884700280ED06549DE
:100CD00004201A31884762491F20AC318847664892
:100CE00080471620FFF7C0FE19B0F0BD634880476B
:100CF000002810D0584DEC68A1790807F4D5E079A8
:100D0000C2071CD05E49204698308847E868C17900
:100D1000490849001FE0594E574F574DB2361C370E
:100D20006C46103507E06846B0470128DCD16846BC
:100D30000178601CB847A8470028F4D0D4E78207A0
:100D40000BD54F4A20461C328E30811C9047E868F4
:100D5000FD22C17923E0C171C6E7420708D54849A1
:100D600020466031A8308847E868FB22C17916E048
:100D70000207F726002A09DA414A21464232A07AC0
:100D80000B319047E868C1793140E4E7C00608D5E7
:100D90003B4968467C318847E868EF22C1791140B9
:100DA000D9E720463140FF30A1712130017D002676
:100DB000002910D006752146072287310CA802F0C1
:100DC0007BF921460DA82A228E31033002F074F9F6
:100DD0002C490CA8884701206946087048708E701D
:100DE000E96800A82A2203308E3102F065F92D222D
:100DF0000821254C6B460020A04775E716490128BD
:100E0000896A0FD0022811D0042812D0082813D0E4
:100E1000102814D0202815D0402837D0802839D069
:100E2000012070478878C007C00F70478878800716
:100E30002EE0887840072BE08878000728E0887843
:100E4000C00625E08878800622E00000BF6500002B
:100E5000776A0000CF16000064300020CE03000047
:100E600001120000F50A000049570000791900003E
:100E70008B1E00002B620000BD600000054E0000CC
:100E800027260000DF470000A13E000088784006CA
:100E9000C00F70478878C009704710B501780129E4
:100EA0001FD1401C02F039F9FE4A10283AD00DDC5F
:100EB000012817D002281DD0042823D0082810D1DB
:100EC000FFF79CFF00280CD1F74809E0202839D013
:100ED000402806D1FFF792FF002802D1F248543093
:100EE000804710BD0120FFF789FF0028F9D1FFF7E7
:100EF000E7FE10BD0220FFF781FF0028F9D1FFF7C0
:100F000053FE10BD0420FFF779FF0028F9D1D06807
:100F1000407A012803D00228F3D1E448E0E7E3480F
:100F2000AE38DDE71020FFF769FF0028E9D1906AAD
:100F30002030407D400701D53E2000E00820FFF72B
:100F400093FD10BD2020FFF759FF0028F9D1D648A6
:100F50004830C5E770B5D34B1025996A08260C4672
:100F60000A462034603100281DD0907E30439076B0
:100F7000087E5A7840094001D206D20E1043087606
:100F8000607B267B0202D86832432330437C067C98
:100F90001802304382420ED02073000A6073C87D6D
:100FA0002843C87507E0002020736073C87D28437C
:100FB000C875BF480677012070BDBA48C0682330A5
:100FC000417C027C080210430BD0BA4948780A7869
:100FD00000021043032210430870000A48700120E9
:100FE000B8E7704730B4B44CA44630BC6047F8B59D
:100FF000B048407A000663D5AA48C6683046233018
:10100000417C007C0F02AB49074348780978040211
:101010000C43002F01D1600752D5A64DA87B697BF8
:1010200000026D1C08434BD0002F49D06879297904
:10103000000208432ED12136707C317C0002084327
:1010400002F086FA00229D4B02F086F902F08EFA39
:1010500080B27843642102F01BF84004010C29712E
:10106000080A68710A204143707D327D00021043F6
:10107000814206D30A21401E02F00AF82871000AB4
:101080006871687929790002084303D10120287129
:10109000002068718748A10709D502218C430121EE
:1010A0000C430470210A41700020FFF753FF687958
:1010B0002A7901021143824B00224020FFF792FF60
:1010C000F8BD1CB57B494A7A002A40D04A780B7893
:1010D00012021A43D3063AD4437804781802204304
:1010E000012834D1C878401E0006000EC8702FD0E9
:1010F0008B780846017BC47A0A022243017AC479BC
:1011000009022143C01C012B2AD0521A0272120A72
:1011100042721206037A120C1A43521A69460A8066
:10112000427A017A120612140A4369464A806149DA
:101130008A7B497B12020A4369468A80417B027B93
:10114000080210436946C8805E49684688471CBD4E
:10115000887AC870402002430A70100A48701CBD8B
:101160005218D3E7584A1047574A2032104738B52B
:10117000002469460C7021467F20FFF7F5FF00210F
:101180003B20FFF7F1FF29213B20FFF7EDFF6946E8
:101190003B20FFF7E7FF68460078800701D5012074
:1011A00038BD641CA4B2FF2CF1D9002038BD10B5A5
:1011B00046488047012010BD10B53A49444A88701E
:1011C000002807D1C8688078022803D00020904703
:1011D000012010BD0120FAE710B5324C0128E1686A
:1011E000887004D0002831D0022846D059E0206B06
:1011F0000146203002785208520002700278FD2326
:101200001A4002700878800980011C300870487804
:10121000800980011C30487000217F20FFF7A4FF67
:1012200003212120FFF7A0FF1F210320FFF79CFFD0
:1012300002217F20FFF798FF01210020FFF794FF94
:1012400000217F20FFF790FF0F2127E000217F2062
:10125000FFF78AFF00210420FFF786FF02217F208D
:10126000FFF782FF00210846FFF77EFF00217F2065
:10127000FFF77AFF0021032011E002217F20FFF712
:1012800073FF03210020FFF76FFF00217F20FFF78E
:101290006BFF00210320FFF767FF00210420FFF709
:1012A00063FF17E064300020791600002715000066
:1012B0002000024087310020AB4400000000F43FD2
:1012C000BB0F001033420000C5610000074700005B
:1012D000A7650000A078FFF76FFF012010BD10B5D3
:1012E000FFF77AFF012010BD10B5F6488047F64899
:1012F000C06A017ADF2211400172012010BDFEB5E3
:10130000F2488047F04C0190E06A817A007ACF077A
:10131000FF0F0026C506EE49ED0E48780978000259
:101320000843800608D5A06A2030417B027B080272
:10133000104301D0FFF75BFEA80702D00126FFF79C
:10134000D3FFE148C06A817A490849008172DF49C8
:101350000120183988470220FFF73EFFDD4964204D
:101360008847002469460C70254601217F20FFF73D
:10137000FBFE00210A20FFF7F7FE22210A20FFF7DB
:10138000F3FE69460A20FFF7EDFE68460078400745
:10139000EFD469460A20FFF7E5FE6846007840076B
:1013A00005D568460078000706D4012504E0641CD2
:1013B000C948A4B28442ECD3C649642088470020BF
:1013C000FFF70AFFC149019818398847BE48C06A2B
:1013D000817A4908490039438172002E02D0B94808
:1013E0000C388047002D01D00120FEBD0020FEBD3D
:1013F00010B51121B64801F078FE10BD70B5044655
:10140000401C01F08AFE022818D0042819D00121BE
:101410004904884247D125462035687B09230107C6
:101420000209090F0020072A1CD0032A20D0022A13
:1014300025D0012A29D0002A2DD032E0FFF7D8FF8D
:101440003AE0A14D0121E868FF302130017501F03B
:10145000B0FDE8688078002801D1FFF750FFFFF762
:1014600086FE29E0581A062148434121C94304E079
:10147000581A062148433521C943081A10E0581A62
:10148000062148432321C943F7E7581A0621484358
:101490001721C943F1E7581A06214843801D4042ED
:1014A00040B2687308E040281DD00121C90388427A
:1014B00002D1601DFFF705FE8549487809780002D2
:1014C0000843800607D5601C01F027FE0005000FC9
:1014D00001D0FFF78CFD7C483C3001F01EFE014638
:1014E0002046884770BD7848383001F016FE400627
:1014F000E2D570BDF0B5744C0646E0688DB0FF30A3
:101500002130407C0D46002829D0002D26D072B60F
:10151000A068183001F001FEE1683222FF3121316C
:10152000897C6E4B514340186A463221984762B617
:10153000002E04D0E068FF302130807C3070E768F6
:101540000A21FF372137B87C401C01F08BFDB974AC
:10155000E078401CC0B2E0700A2802D900200DB02B
:10156000F0BD684600780128D1D100A9072228469D
:10157000013101F0A1FD2A22E81D02A901F09CFD24
:101580000120ECE7F0B5054655498DB0202088478D
:101590004D4C0426E16820690F4686700822C01C65
:1015A000C931BD3701F088FD2069042239460B306E
:1015B00001F082FD0D214B4A03209047E068294647
:1015C00008220A31C13001F077FDE0682946042283
:1015D0001231B93001F070FD287A434F002802D152
:1015E000687A00281FD00020E070E0682A7A01465F
:1015F0008030837B9A420AD16A7AC07B824206D1CC
:1016000008222846903101F07BFD002817D069465A
:101610000020FFF76FFF012826D006220021334B60
:10162000012098479BE7E068022281791143024636
:101630008171C132FF3011461030B84710E0E068C8
:101640008179024631438171C13211469830B847E1
:10165000E06880308079012802D121490220884742
:101660002248A03080477AE7E06801A92A228E301C
:10167000033101F021FDB8E77CB5451C807829785D
:1016800000020843104C022810D00F2810D001216E
:101690001D2810D0FF3810280DD0154A69460120AA
:1016A0009047687829780002084302E0032000E0B0
:1016B000022060717CBD61717CBD03484079704738
:1016C0000C4908471347000064300020BF65000044
:1016D000873100202B620000FFFF000059530000FB
:1016E000050B00004D11000019220000D91900005F
:1016F0001F1D0000B34400001CB5FF480821017005
:1017000000214170017BC27A0902C01C114341D003
:101710004279037912021A43891A0BB26A4613807E
:10172000417A027A0906091411436A465180192246
:101730000624D201062B02DA6B461C8003E093429A
:1017400001DD6B461A80062902DA69464C8003E007
:10175000914201DD69464A80417B027B08021043C9
:101760006946C880E448817B427B08021043694691
:101770008880E248C0682330417C027C0802104324
:1017800002D00020FFF7E6FBDD4968468847DD49C7
:10179000402088471CBDD84948780A780002104389
:1017A000C2050CD5FF22013290430870000A487030
:1017B0000879401E0006000E087109D09CE720221F
:1017C000104310229043042210430870000A48700E
:1017D0007047FEB5C84D0446687829780002084372
:1017E00000077DD5C848804769782A7809021143E7
:1017F0000822914329700A0A6A706B7A06462846C5
:101800001A066ED5A27967791202651C3A43BB4F5E
:10181000E41C002A77D01022114301700A0A42709A
:1018200088065ED4687929790002084332D001F035
:101830008FFE01910090607821780002084301F04A
:1018400087FEB24C0022234601F086FD019B009AE0
:1018500001F082FD01910090F8682130417C027C0A
:101860000802104301F074FE0022234601F074FDCB
:1018700007460C46687A297A00020843801B01F06B
:1018800053FE3A46234601F067FD019B009A01F0A2
:10189000B1FC24E0607821780002084301F03CFEAE
:1018A0000446F8682130417C027C0802104301F0B4
:1018B00033FE214601F044FC01F076FE0022934BFA
:1018C00001F04AFD07460C46687A297A000208436F
:1018D000801B01F029FE3A46234601F03DFD02E05F
:1018E0006EE064E00FE00022894B01F09DFD01F005
:1018F0003DFE0104090C00D10121864B002280200D
:10190000FFF770FB53E09A0651D58278012A4ED139
:101910008A064CD4FF227848013211430170090A2B
:101920004170607821780002084373490A7BCB7AC2
:101930001102194388423AD901F0EEFD0446F868D5
:101940002130417C027C0802104301F0E5FD214674
:1019500001F0F6FB01F028FE00226C4B01F0FCFCCC
:1019600007460C46687A297A00020843801B01F07A
:10197000DBFD3A46234601F0EFFC0022644B01F008
:1019800053FD01F0F3FD0104090C00D10121614B6D
:1019900000228020FFF726FB574841780278090291
:1019A0001143FF22013211430170090A41700320E3
:1019B0006946088102229103574C02AB0020A047E0
:1019C000FEBD10B50446007800280DD1A1786278DC
:1019D0000802104309D001281CD0032823D00C286A
:1019E00002D1201DFFF748FE10BD4C49201D88473D
:1019F000002802D12820FFF737F8201DFFF7E9FE65
:101A00003E480121C368062209040020424C3133BC
:101A1000A04710BD4249201D88470028F9D1282041
:101A2000FFF722F810BD201DFFF7ACFD10BD10B56B
:101A30000078012801D1FFF72EF810BDF0B5394824
:101A400085B0804701217F20FFF78EFB694650203B
:101A5000FFF788FB68460078042801D032488047A9
:101A6000FFF785FB254CE068807801286ED00228BE
:101A700069D0FFF744FC01256846458005802B4866
:101A8000204901906846843988476846057045704A
:101A90000025458026480190264BE06808226946CB
:101AA000C01801F009FB184E012140205E3EB047EE
:101AB00001218020B04701212020B047FF210C31B7
:101AC000684601800B2141808580C5800581458164
:101AD0008581C58118480490184968468847A068E0
:101AE0000A3001F01AFB044A154B573A5721984720
:101AF00001F05FFA012027E08731002064300020E8
:101B000033420000B3440000BF5500000000F43F22
:101B10000000594097170010A13E00005D5B0000D7
:101B2000475F0000793D0000F74600002F1A0010C3
:101B30009B0E0010CE020000C31900108D43000060
:101B40005953000002E022E005B0F0BDFE48804796
:101B50000746E06A817ACD07817AED0F490849008E
:101B60008172F94E0120183EB0470220FFF734FB86
:101B7000F649642088470120FFF72EFB3846B0471E
:101B8000E06A817A490849002943817273E702209B
:101B9000FFF722FB6FE710B5ED488047012010BD2D
:101BA000EB4910B51E318847012010BDE84910B53A
:101BB00054318847012010BDE54910B56031884790
:101BC000012010BDE24910B56E318847012010BDDB
:101BD000DF4910B57E318847012010BD10B5DC4CBF
:101BE000E634A047012010BDF8B5DA4CDA49E068C8
:101BF0003730884720693B230178BF250A09E1680F
:101C000012015B5C1B071B0F1A4302701207120FB5
:101C1000012A79D00B4640335A781B7812021A43B6
:101C20000B4642331A70120A5A7002788B7A2A4095
:101C30009B011A435206520E027066235B5C427887
:101C40009B1D92099B0692019B0E1A43427006222D
:101C5000801C0B3101F030FAE1686620425C002AFA
:101C600004D020696731083001F026FAE0680021CD
:101C7000203041772069B94A41788906890E891C4C
:101C80009047206901780A091201121D0270E1686B
:101C90002A408B7ADB075B0E1A43027046235B5C9B
:101CA00042789B1D92099B0692019B0E1A4342703B
:101CB0000622801C0B3101F0FFF9E1684620425CEE
:101CC000002A04D020694731083001F0F5F9206975
:101CD000A24A41782C328906890E891C9047E06817
:101CE000012705462035E97E01293BD000294CD04B
:101CF00002294AD0062948D00023994C1A460121CE
:101D00001846A047F8BDFFE70A46403213795371E1
:101D10008B7A0278DB072A405B0E1A430270872316
:101D20005B5C5206520EDB011A43027042780B31A3
:101D3000920992010C3242700622801C01F0BCF91B
:101D40002069E16806220830883101F0B5F9E168C0
:101D500003223D204254804A8720405C323A883139
:101D6000904787E74030417900290AD02820062192
:101D7000A26A937EFD242340937617756B7F2A7F9A
:101D800043E0477101200146F2E70646423671788A
:101D900032780B02134317D0192189014B432230AB
:101DA000417F047F0802204301228004800C0090C0
:101DB00006D00146184601F055F9421C7F2A10D87A
:101DC000D4B23770380A14E03770390A7170223093
:101DD000417F027F0802104301248004800C0090A0
:101DE00008E07F24104621467E3001F03BF9307038
:101DF000000A70705748806A817E02221143817602
:101E000007756B7F2A7F00992046564CA04755489E
:101E10003E30804776E710B5FFF7E6FE012010BDA3
:101E200010B5514903200870484964201A31884789
:101E30004E488047012010BD72B60021454A906A85
:101E40004175037C01210B430374D0684522115472
:101E5000423001700021417062B60120704710B518
:101E600043498847012010BDF0B53A4CA56A2C467D
:101E700060342678FD27C0073E40800F0643267059
:101E8000A170627062352B71180A68710598207113
:101E9000000A6071F0BDF8B52E4D2F49E868373063
:101EA00088471120EF68002480013D186E79A879D9
:101EB0000321401C01F0D6F801208840A971064298
:101EC00003D1641CE4B2032CF1D31125AD017C19BC
:101ED000607B217B00020843A91C7F18010A1D4E6C
:101EE0003873797300280BD0607A227A01021920A6
:101EF0001143800101F0B6F80206120E04D004E08E
:101F000001203873002078730122787A397A000230
:101F100008430090607A217A03020B43A0791549A7
:101F2000095CE079FFF7A0FFF0680021401901711A
:101F3000C170017441748178002901D0082901D948
:101F400008218170044817E0BF6500002B62000083
:101F5000833D000064300020B1570000D9600000CC
:101F6000A13E00005F56000000000240074700004D
:101F700001410000A64100108C388047C2E610B530
:101F8000FFF789FF012010BD10B5F84880470120F8
:101F900010BDF64910B508318847012010BDF3493E
:101FA00010B516318847012010BDF04910B57831C1
:101FB0008847012010BDEE49487001207047EB4969
:101FC00010B586318847012010BDE84A10B58E3221
:101FD0009047012010BD7CB5054601F09EF8E4490C
:101FE0000446383101F0A3F8281D01F096F8E049C5
:101FF0003C3101F09CF840208443DE48DB490190ED
:10200000009468469631884701207CBD10B5DA49B6
:102010008847012010BDD84A10B5083290470120EA
:1020200010BD10B5D5488047022801D9002010BD49
:10203000012010BDF8B50E46D14907464878097809
:10204000000208431C461546800609D5C848806A28
:102050002030417B027B0802104301D0FEF7C7FF0E
:10206000C8490120884700280CD0C448804702286E
:1020700009D972B62346C04C2A4631463846183430
:10208000A04762B63EE600203CE6BF49084710B5CF
:102090000446BC4901208847002803D0BA4920469D
:1020A0000831884710BD70B50546B64A0C46012078
:1020B0009047002804D0B44A21462846223290474F
:1020C00070BDFFB50F4681B0AE491D4616460120D2
:1020D0000A9C8847002807D00094AB4C2B46324618
:1020E000394644340198A04705E5F8B50E46074641
:1020F000A4491C46154601208847002806D02346DF
:10210000A14C2A46314638467C34A047FAE510B542
:1021100004469C4901208847002803D09A4920465C
:10212000AC31884710BD70B50546964A0C46012073
:102130009047002804D0944A21462846C63290474A
:1021400070BD70B505468F4A0C46012090470028A7
:1021500004D08D4A21462846E832904770BDF8B534
:102160000E46074687491C46154601208847002829
:1021700005D02346854C2A4631463846A047C1E55E
:1021800070B50D4606467F49144601208847002851
:1021900005D07E4B2246294630463033984770BDE5
:1021A00070B50D4606467749144601208847002839
:1021B00005D0764B2246294630465C33984770BDA1
:1021C000F8B50E4607466F491C461546012088475C
:1021D000002806D023466D4C2A46314638468834BE
:1021E000A0478FE510B504466649012088470028BE
:1021F00003D066492046B831884710BD10B5614903
:1022000001208847002802D06048CC30804710BDAC
:1022100070B5574D0446082804D0E868407808286F
:102220000DD014E000217F20FEF79EFF0121402009
:10223000FEF79AFFE86A0178C908C9000EE000219C
:102240007F20FEF791FF00214020FEF78DFFE86A16
:1022500001786207C908C900520F11430170E8688C
:102260004470012070BDD3E710B50446484880474C
:102270002070012010BD10B504464548801D8047E0
:102280002070012010BD424910B51C318847012043
:1022900010BD3F4810B572308047012010BD3D4849
:1022A00000473D4908473C491A31084708B53B49B2
:1022B000684688476846C0788007C00F08BD08B5E3
:1022C0003649684688476846C078C00900D0012072
:1022D00008BD10B5FEF746FF10BD10B5FEF744FF70
:1022E00010BD2348806AC07B052805D0062803D08E
:1022F0000F2801D0002070470120704710B5FFF76C
:10230000F0FF002802D1224852308047012010BD42
:1023100010B517490122886A4275437CDB09DB014D
:102320009B1C4374931E83741B0AC374C96ACB7AC3
:10233000EF242340CB724B7B93434B738B7A134335
:102340008B72817E022319438176017C11430174D3
:10235000114905201A31884711488047012010BDD6
:102360000F4810B512308047012010BD1D420000FB
:1023700064300020FD1300102D4300002B4E0000A0
:1023800087310020F50A0000B73A0000BB3B00008F
:102390009F440000FB5F00002B6200004D650000C1
:1023A000E546000010B5F74988470120DDE7F5490B
:1023B00010B5183188470120D7E710B5F249884792
:1023C0000120D2E7F04954310847EF4910B5A23156
:1023D00088470120C9E7EC4810B5C6308047012086
:1023E000C3E7E94810B5DE3080470120BDE7E74B81
:1023F0001847E64B36331847F8B50746E448002639
:1024000080680D463446283000F087FE2903C9193C
:102410004118DF48406B814211D9002072E472B646
:10242000DB488068283000F078FE2103C919401885
:10243000D84A01219047064662B6641CE4B2AC4219
:10244000EDD330465EE4F8B5D14D0446A868174692
:102450000E46283000F061FE0146A21980186A6B12
:1024600090420AD8002908D072B60819C94B3A46DA
:102470003146EA3B984762B644E4002042E4F8B5AE
:10248000C34D0446A86817460E46283000F045FEA6
:102490000146A21980186A6B90420AD8002908D018
:1024A00072B60819BB4B3A463146823B984762B632
:1024B00028E4002026E470B5B74800240078B54E23
:1024C000B34D00280DD001281ED024E072B6143080
:1024D00000F023FE210340180121B04762B6641CBE
:1024E000E4B2A868C17B827B09021143A142EDD806
:1024F00011E072B6103000F010FE210340180121E7
:10250000B04762B6641CE4B2A868C17B827B090252
:102510001143A142EDD8012070BD70B504460D46AF
:10252000000B42199A488068C17B837B09021943DA
:102530008A4201D9002070BD9749964E097800293A
:1025400002D0012903D00AE072B6143001E072B65D
:10255000103000F0E2FD00192946B04762B60120B4
:1025600070BDF8B504468C480F4601788848894DFF
:102570008068823D1646002902D0012903D00BE075
:1025800072B6143001E072B6103000F0C6FD0019CA
:1025900032463946A84762B601203BE430B47C4B52
:1025A0009C68E37BA47B1B0223431B03834202D270
:1025B00030BC0020704730BCD3E730B4774CA44621
:1025C00030BC6047F3B5724889B080680024283079
:1025D00000F0A3FD074609984609002511E072B6F0
:1025E00068016C4BC01920216A46EA3B984762B6E5
:1025F000002069460A5C401C121994B22028F9D3C5
:102600006D1CB542EBD30998C606F60E72B631467C
:102610006801604BC0196A46EA3B984762B60020E1
:10262000694603E00A5C121994B2401CB042F9D327
:102630000A98844202D101200BB0F0BD0020FBE7D4
:10264000F8B55148E2388047534C5734607A002837
:1026500040D00006042500280FDA607821780002B7
:102660000843400709D5FEF7C2FC607821780002D4
:102670000843A8432070000A607060782178000247
:102680000843474F474E41060CD5402188432070F0
:10269000000A607002206946088002466B4639468F
:1026A0000020B0476078217800020843C10711D0AC
:1026B000400840002070010A6170800702D568461A
:1026C000058002E005206946088002226B463946F3
:1026D0000020B04752E43448004738B52C4C2078ED
:1026E000002805D1274968467E3988470120207097
:1026F000012038BDF8B50278002A70D0264957313C
:102700004A7242788A72002A01D0042A01D904222E
:102710008A72C278847813021F4A23435732D372D5
:102720001C0A14734479057924022C4315466C73F2
:10273000240AAC73C479857920022843D073000A37
:10274000107413480827C068D21C2130447C007CD8
:10275000240204430120A34228D900258D701B1BAD
:102760008C7AA34204DA1071000A50718B722AE04D
:10277000E400A34202DA1071000A01E01771380A7E
:10278000507120E0CB6500003D470000A5480000E7
:102790006430002043540000303100207B4A0000A8
:1027A00000800000A13E0000F94B000088708E7A86
:1027B000E51AB5420EDA060A107156719C4201D133
:1027C000887200E08D72887AC8700871FEF794FFF5
:1027D000012057E4F3009D42D0DACCE7FFE7002068
:1027E00050E4FE49496A0870020A4A70020C8A7075
:1027F000000EC870487A022210434872704738B5FC
:10280000044600200090F649684688470099F82061
:102810008143E006000E08430090FFF7E2FF38BD59
:1028200008B500200090EE496846884700980006E9
:10283000C00E009008BDEA4872300047E8495A319E
:102840000847E8490847E7491A310847E64800477A
:10285000E5490C310847F8B500260B46044601252A
:10286000304631462D03675C491CBE19A942FAD394
:102870000021675C491C7840A942FAD39E4221D1CD
:1028800090421FD1D54EB0680A3000F046FC0019C6
:102890005722D64900F010FCB0681C3000F03DFC17
:1028A000F168001907220A3100F006FC0121D04A24
:1028B00000209047CE4B002022462946823B984775
:1028C000012023E4002021E470B501260546C34C15
:1028D0003603C74B00203146EA3BA2699847C549F9
:1028E00028468847A0681C3000F017FCA169072221
:1028F0004018E1680A3100F0DFFB0121BC4A0020EA
:102900009047BB4B00203146823BA269984770BD7F
:1029100010B50446B14880680A3000F0FEFBB44BA5
:102920001021EA3B2246573098471EE570B5012634
:102930000546AA4C3603AE4B00203146EA3BA2695D
:1029400098470121AA4A00209047A0680A3000F069
:10295000E4FBA169102257314018294600F0ACFB76
:10296000A34B00203146823BA269984770BD9B482B
:1029700040690178C943890702D18078062801D0CF
:1029800000207047012070479B4A1047F3B581B083
:10299000060025D0914F386A0446C17980790D022E
:1029A0000543E01C00F0B9FB0102A07801430C468E
:1029B000002D17D0002C15D001218D4B09030020CC
:1029C000EA3BBA699847B8680A3000F0A6FBB969D3
:1029D0006731405C401CC7B2032F05D90220FEBD01
:1029E0000120FEBD0420FEBDB54204D10298844200
:1029F00001D10020FEBD01217D4A00209047774C87
:102A0000A0680A3000F089FBA269794B1146673152
:102A10004754012109030020823B98470320FEBD53
:102A200008B56F496846884700984108C90701D032
:102A3000002008BD022108436949009028318847D9
:102A4000012008BD694801210278644809078068AF
:102A5000002A03D0012A07D000207047C27B837B65
:102A600010021843400304E0C27B837B100218432A
:102A700000034018704770B504465C480D46017865
:102A800056480126B6038068002903D0012903D0E7
:102A9000002070BD143000E0103000F03EFB8019C3
:102AA00072B60019524A2946904762B670BDF8B511
:102AB00005464E480F46017848480124A403806823
:102AC0001646002903D0012903D00020A6E41430C3
:102AD00000E0103000F021FB001972B64019444BA1
:102AE00032463946EA3B984762B697E4F8B5054660
:102AF0003E480F46017839480124A40380681646F1
:102B0000002903D0012903D0002087E4143000E01D
:102B1000103000F002FB001972B64019344B3246F7
:102B20003946823B984762B678E410B5030000F05E
:102B3000C2FE09060C16202A343E416D890001218F
:102B40007F20FEF711FB882104E001217F20FEF7A2
:102B50000BFB8A216120FEF707FB81216FE0012139
:102B60007F20FEF701FB8A216120FEF7FDFA832119
:102B700065E001217F20FEF7F7FA8A216120FEF748
:102B8000F3FA87215BE001217F20FEF7EDFA8A212D
:102B90006120FEF7E9FA8F2151E001217F20FEF745
:102BA000E3FA8A216120FEF7DFFA9F2147E0012145
:102BB0007F203DE000217F20FEF7D6FA0221302061
:102BC000FEF7D2FA01217F20FEF7CEFA1F21632003
:102BD000FEF7CAFA03216D2010E0000064300020E7
:102BE0004D6500002B620000776A00003031002044
:102BF00043540000A13D0000D9600000FEF7B4FA84
:102C00008A216120FEF7B0FAB02118E000217F2070
:102C1000FEF7AAFA02213020FEF7A6FA01217F2052
:102C2000FEF7A2FA1F216320FEF79EFA07216D200E
:102C3000FEF79AFA8A216120FEF796FABF216520F5
:102C4000FEF792FA71E610B5FD4CA068283000F04E
:102C500064FA616B081A68E6FA4800787047F8B5BC
:102C60000546F74EF748B26900781446002801D0AF
:102C7000002003E4280502D02805000D2D1A72B6A5
:102C800001210903F04F0020B84762B6706B21465E
:102C9000401B283100F04BFA05462046103000F06A
:102CA0003CFA0090281A410800980818214614316F
:102CB00000F03DFA01460098081A0001000CA073CC
:102CC000000AE07372B60121DF4A0020EA32904721
:102CD00062B672B60121DC4B090300206833B26989
:102CE000984731210020B268B84762B6012054E409
:102CF000D348D34B80799B7902091B0709201B0F0E
:102D0000C01A062300215843072A08D0032A09D0F5
:102D1000022A0BD0012A0CD0002A0DD00FE041214D
:102D2000C94301E03521C943081A07E02321C943FB
:102D3000FAE71721C943F7E7801D404241B2C8B204
:102D40007047F3B5C14EC24F8DB005460024322204
:102D50006B4621460320B04768464088A84206D10A
:102D6000684601790E98017001200FB0F0BDB8429D
:102D700004D068460088001984B2E8E70020F4E730
:102D8000F3B5B24EB24F8DB00546002432226B46E9
:102D900021460320B04768464088A84208D1241D38
:102DA000A1B2012203200E9B00F012F90120DCE702
:102DB000B84204D068460088001984B2E6E70020D3
:102DC000D3E7F3B5A14EA24F8DB0054600243222C1
:102DD0006B4621460220B047684681784278080257
:102DE0001043A84205D1684641790E980170012030
:102DF000BBE7B84204D068460078001984B2E6E721
:102E00000020B2E78F4910B55731487809780002A1
:102E10000843800603D5FEF7EAF8012085E5002087
:102E200083E58C4B184710B50446854880680A3006
:102E300000F073F90821844B22466730984774E507
:102E400070B5054672B67E4C012636037E4B314680
:102E50000020A26998477C4A01210020EA3290476D
:102E6000A0680A3000F059F9A169082267314018BA
:102E7000294600F021F9744B002031466833A269DD
:102E8000984762B670BD7449082008476C4948638A
:102E90007047F0B56A4C0025A46AE678360701D57C
:102EA0000020F0BD00BF6D1CEDB2642DFAD32546A5
:102EB00040356E7CB607FCD400252646C0363779EF
:102EC00047556D1CEDB2022DF9D346780125F7095F
:102ED000002F08D0F606F60E0E70157042785206D6
:102EE000D20F1A7004E0B3069B0E0B700023137010
:102EF000534B0A789B6A801CC033272A0CD20022CD
:102F0000C03403E026798654521CD2B20E78964221
:102F1000F8D85D720120F0BD5D72C1E710B502788E
:102F200000219207920F464B012A39D0022A0CD079
:102F3000032A33D182780E2A2FD84078474BC00617
:102F40009A5CC00E904228D028E04278D206D20E79
:102F5000042A07D9C278847812022243172A01D89A
:102F6000012200E000221A71002A17D0417902796B
:102F700009021143052910D006290ED1C1788278A3
:102F8000090211438079354A40000F3280184038D9
:102F9000C08F814201D0002100E001210846C4E435
:102FA00019790029F7D04078C006C00E1728F4D947
:102FB000F1E770B52A4D0024214EA847F1680919A0
:102FC000FF310131641CE4B2C873102CF5D370BD1D
:102FD000FFB51B4C0200E06981B01E460D4606D0CD
:102FE000012A06D0022A06D0032A06D009E0001DD5
:102FF00004E0083002E00C3000E0103000F08DF802
:1030000001464D1972B601273F030F4B3946002088
:10301000A269984762B6A06931464019039A00F048
:103020004BF872B60121084A0020EA329047064B5D
:10303000002039466833A269984762B605B0F0BDF2
:10304000643000203031002059530000C9280000AE
:10305000FFFF00001922000079190000A9410010AB
:10306000FB5F000030B50B46014600202022012402
:1030700009E00D46D5409D4205D31D469540491BAC
:103080002546954040191546521E002DF1DC30BDF5
:1030900070B500242546002801DA012440420029A9
:1030A00001DA01254942FFF7DDFFAC4200D0404282
:1030B000002C00D0494270BD03460B439B0703D050
:1030C00009E008C9121F08C0042AFAD203E00B78ED
:1030D0000370401C491C521EF9D27047D2B201E065
:1030E0000270401C491EFBD270470022F6E710B563
:1030F00013460A4604461946FFF7F0FF204610BD66
:1031000030B504460020034600E05B1C934203D226
:10311000E05CCD5C401BF8D030BD0321001D401E9B
:10312000037812021A43491EF9D510467047034628
:1031300003220870000A491C521EFAD5184670472F
:10314000F8B502464A40D40F42004B0052085B08D3
:103150009A4202D20246084611464A0023D0C30DC5
:103160004A00DDB2120EAD1A202D35DA49020126D1
:10317000490AF6058A19002C00D0524220214F1B23
:103180001146B9402A411018C20D9A4221D0002C94
:1031900017D0012D08DCDA05801AD20F8019D2076A
:1031A000DBB200F081FAF8BDDA05801A0123400095
:1031B0001B06C01880185A428018CA0F10434900D5
:1031C00007E04908C2071143DA05801A8019400850
:1031D000801800F061FAF8BD61000122511A001B4D
:1031E000F7E70122D2075140AAE70122D207504057
:1031F000A6E70000F0B507460846584087B0C00F64
:10320000049048000E46590040084908BC1A8841FD
:1032100005D2384631461E4617460B460246580030
:10322000400810434CD0300D039040055900400D2C
:10323000490D0590401A0290402872DA18030121C6
:10324000000B09050843019004980092002805D05E
:103250000199524200208841009201900298402139
:103260000A1A0199009800F0E3F905460C466B46EE
:1032700007CB00F0FEF9C0197141039A0E0D00232F
:10328000D71756401A467A40164344D0049A002A6B
:103290002DD0029A012A039A15DC1205C01A914119
:1032A00001263605001C7141D20F059ED2070093FE
:1032B000019202962A46234600F03CFA07B0F0BD80
:1032C00038463146FAE71605224A0F46B218C01AA8
:1032D000B74101210905001C4F4100187F411146EB
:1032E00018187941E20F10436D19644113E0E207A9
:1032F0006D0815436408C2071443039A012612059A
:10330000C01A91413605001C7141CE074008304378
:103310004908C01851412A46234600F0FEF9CDE77E
:10332000FFE7049801224000C117121A00238B41C5
:1033300004983146C417381AA141EEE730B401248D
:10334000E407634030BC55E730B40124E407614032
:1033500030BC4FE70000E0FFF0B51FB488B00B9918
:103360000998002448400999C00F4900490809916B
:10337000C0070B990090490049080B9109990898DA
:10338000A64608431CD00B990A98084318D0099800
:1033900001244000420D4800410D09982405000316
:1033A000000B204309900B980003000B20430B9067
:1033B00050181C494018002201901446104605E0A0
:1033C000002001460DB0F0BD032801DA034600E0FD
:1033D00003239C46C11A0AAE0AE05F0008ADED5B0C
:1033E0004F00F75B7D430027AA187C41491C5B1EF8
:1033F0006145F2DD410004AB5A522104120C0A432C
:10340000240C401C0828DFDB0198029000997046CC
:1034100001910090059B049A0799069800F08AF99B
:10342000D0E700000DFCFFFFF0B50C465C4085B016
:10343000E40FE40703944C00002664085900944606
:10344000490802460296224321D062460A431ED012
:103450006200570D4A000E032303550D0124024656
:103460002C492405781B1B0B360B4018234326439D
:10347000614600901C46501AB44103D30098401C8A
:10348000009002E0921800985B41002803DA0020C7
:10349000014605B0F0BD002001210905074686461A
:1034A00011E064461D46141BB54106D36546521B08
:1034B000B341744607430C43A646CD07400849086C
:1034C000284392185B4105460D43EAD11046184344
:1034D00013D06046194650407140084306D06046FC
:1034E000101AB34106D20122002306E00022012374
:1034F000DB0702E00122D243531000987446010515
:10350000381C6141029C039D0019694100F005F9D6
:10351000BFE70000FD03000010B50022962311460E
:1035200000F0C2F810BD00000EB5C217C10F504028
:10353000CA0740180021054B0293019200910A46E8
:103540000B4600F0F7F803B000BD000033040000A4
:103550000EB505490291002100910A460B460191E2
:1035600000F0E8F803B000BD330400004A0009038E
:103570000123090B1B051943094B10B5520D9A4243
:1035800001DA002010BD064B34339A4203DC9A1A4C
:1035900000F05EF810BD03495118884010BD0000CE
:1035A000FF030000CDFBFFFFC20FD2074000400821
:1035B0000BD0C10D0723DB01C91840020905400AE1
:1035C0001143C2084007114370470020014670476D
:1035D000F0B51FB40646002082B005464024019194
:1035E00000901BE0019922460F46304600F030F86B
:1035F000049A059B801A994110D310461946224619
:1036000000F016F8361A8F4101972246012000215A
:10361000009F00F00DF838184D4100902046641EC0
:103620000028DFDC019B00982946324607B0F0BD38
:1036300010B5202A04DB0146203A9140002010BD3D
:10364000914020239C1A0346E3401943904010BD4B
:1036500010B5202A04DB0846203AD040002110BDD6
:103660000B46D340D0402024A21A9140084319466B
:1036700010BD10B5202A06DBCB170846203A1041B2
:10368000C1170B4306E00B461341D0402024A21A79
:1036900091400843194610BD002904DA401C490036
:1036A00001D140084000704770B40024050C05D1DA
:1036B0001024000402D1002921D01124050E01D1CB
:1036C00000020834050F01D10001241D850F01D12E
:1036D0008000A41C002801DB4000641C002908D0E5
:1036E00020252E1B0D46F540A14000D00121294385
:1036F000084301061B1B000ADB1D02D5002070BC1D
:103700007047DB05181880180029F8DA401C4900BA
:10371000F5D170BC40084000704710B5002B08DAA6
:103720000024401C614192185B411A4301D14008BA
:10373000400010BDF0B51FB482B005460C0003D0A8
:10374000084600F0A1F802E000F09EF820300246A2
:10375000009021462846FFF76BFF049B059A04461C
:103760000F4618431143084314D0184610431BD08A
:10377000009840210A1A18460599FFF769FF054687
:103780000E46009A05990498FFF752FF084305D0AA
:10379000012004E02046394607B0F0BD0020C117E3
:1037A00005430E432C43374300990E986305401A96
:1037B0007905E40A00220C43FD0A0A3002D50020F4
:1037C0000146E9E70105101969410C9C0D9D00199E
:1037D0006941FFF7A2FFDFE74A0009030123090B54
:1037E0001B0519430A4B10B5520D9A4202DA00200C
:1037F000014610BD064B34339A4203DC9A1AFFF798
:1038000027FF10BD034BD218FFF712FF10BD0000B9
:10381000FF030000CDFBFFFF10B5002904DB0124EE
:10382000E40740428C412146002B04DB1C46012367
:10383000DB075242A341994200D1904210BD0000E3
:10384000064C0125064E05E0E36807CC2B430C3CF3
:1038500098471034B442F7D3FCF736FCD04100103F
:10386000F041001037B514460846064B6A4621461B
:1038700000F0F8F804466946002000F08FFC20466E
:103880003EBD00009D4100102021020C01D01021FE
:103890001046020A01D010460839020901D010462C
:1038A000091F820801D01046891E420801D0881ED7
:1038B0007047081A704730B47446641E2578641C3B
:1038C000AB4200D21D46635D5B00E31830BC184775
:1038D00002E008C8121F08C1002AFAD170477047D9
:1038E000002001E001C1121F002AFBD17047000037
:1038F000F0B51FB486B00998089A030D0021024361
:1039000014D05148514A18185043051411980128F1
:1039100010981AD0281A401C00264D4F4D49009689
:1039200001910490002812DA444211E01198012418
:1039300049A3012801D11098C1430698119A8460C7
:103940000360C26041600BB0F0BD4042E4E7044652
:10395000210500203F4A001C51410391029012E0D2
:10396000E00707D032463B4601990098FFF7F4FC88
:103970000191009032463B4610461946FFF7ECFC99
:1039800006460F466410002CEAD10498039B0028D9
:10399000029A0999089806DAFFF7DEFC019B009A63
:1039A000FFF7DAFC05E0FFF73FFD019B009AFFF708
:1039B0003BFD04460E460022284BFFF72DFF03D89F
:1039C0000020C043014607E00022254B2046314637
:1039D000FFF710FCFFF700FF102409E0002C0ADBC2
:1039E0000A220023FFF7F4FD079B30321A55641EAC
:1039F00002460A43F2D11122641C079B121B1C19B8
:103A0000119B012B03D0012308430ED10AE0084388
:103A100004D0112010900020119077E71098151A0B
:103A20006D1E0BE01098824202DD00236D1C03E046
:103A3000824201DA00236D1E002BEED00698119908
:103A40008260C16030C07EE701FCFFFF104D0000C6
:103A5000000014400000F03F300000000000F04380
:103A60000000E03FFFB597B00646002518E2252884
:103A700077D100242746FD49049400E00443761CD6
:103A800032780120203A90400842F7D130782A2835
:103A90000ED00222307801463039092916D804990F
:103AA0000A235943303940181443761C0490F1E737
:103AB000189802C804911890002904DA01204003E4
:103AC00004434842049002200443761C30782E2898
:103AD00014D1042004437078761C2A2809D1189840
:103AE000761C80C8189009E00A214F43303FC7195F
:103AF000761C3078014630390929F5D930786C28A0
:103B000010D006DC4C281AD068280ED06A2817D1AD
:103B100004E0742813D07A2812D110E00120400567
:103B200004430CE00121090501E0032109050C43D0
:103B30007178814203D1012000052418761C761C7F
:103B40003078119066280BD013DC58287DD009DC22
:103B500000287BD04528F6D04628F4D047281AD133
:103B6000A5E118E0632835D0642870D0652812D10B
:103B70009DE170286CD008DC6728F1D069287BD0E3
:103B80006E280DD06F2806D1BAE073282ED0752884
:103B900071D0782859D01A9A199990476D1C7EE1F6
:103BA0006002400F022809D003280DD0042818987D
:103BB00001680DD00D60001D189070E11898EA178B
:103BC00001680D604A60F6E7189801680D80F2E719
:103BD0000D70F0E718986A4601781172001D189070
:103BE0000020507202A80090012005E0189802C839
:103BF000189000200091C04361070DD5002101E01D
:103C00000199491C0191B94212DA8142F8DB009A0C
:103C1000515C0029F4D10BE0002101E00199491C1D
:103C200001918142FADB019A0099895C0029F5D162
:103C3000019904981A9B471A21463846199A00F0B0
:103C400097FA0199401945180BE04FE02CE113E079
:103C50004EE0009800990078491C00911A9A199931
:103C600090470198401E0190401CF2D121463846F1
:103C70001A9B199A10E137E00A2000210090019167
:103C80006002410F022907D0189A01CA1892C21780
:103C90009446032908D00AE01898C01DC108C9003D
:103CA00005C91891944607E000B2C217944604294A
:103CB00002D140B2C1178C4600226146944506DA13
:103CC0000A460021404291418C462D2102E0210507
:103CD00004D52B216A461173012103E0E10701D0CD
:103CE0002021F7E7029155E00A200AE0102008E0C1
:103CF000102000900021042004430191082703E0D4
:103D000008200021019100906002410F022907D094
:103D1000189A01CA189200229446032908D008E094
:103D20001898C01DC108C90005C91891944603E040
:103D300080B2042900D1C0B200210291210729D507
:103D40001199702906D0009A1021019B4A401A430C
:103D500005D00EE040216A461173012108E061465A
:103D6000014306D030216A46117311995173022123
:103D70000291009A0821019B4A401A430AD16146E8
:103D8000014301D1610705D530216A461173012134
:103D90007F1E02911199582904D035A10E910DA9C9
:103DA0000D910DE037A1F9E76146019B009AFFF7FD
:103DB0000FFC0E9B8C469B5C0D9A521E0D9213704D
:103DC00061460143F0D10D9805A9081A20300190F1
:103DD000600703D501200004844300E00127019817
:103DE000874201DD381A00E0002001990090411857
:103DF000029809180498401A0490E00306D421465A
:103E00001A9B199A049800F0B3F94519002706E0A7
:103E100003A81A9AC05D199990476D1C7F1C0298DF
:103E20008742F5DBE0030CD521461A9B199A0498CA
:103E300000F09EF9451904E01A9A3020199990472C
:103E40006D1C0099481E00900029F5DC08E00D98D3
:103E50000D990078491C0D911A9A199990476D1C7B
:103E60000199481E01900029F1DC63E10928010055
:103E700030313233343536373839616263646566E0
:103E800000000000303132333435363738394142A2
:103E9000434445460000000000F05AF94519761CDD
:103EA0003078002800D0E2E528461BB0F0BD60075E
:103EB00000D406271898C01DC108C90048680A68C0
:103EC0000831C30FDB071891190001D09CA108E04D
:103ED000210501D59BA104E0E10701D09AA100E0F2
:103EE0009AA1430011985B08109165280CD006DC5C
:103EF000452809D046281DD0472841D141E06628F1
:103F000018D067283CD13CE00021112F01DB1120A3
:103F100000E0781C0191009008A911A8FFF7E8FCC7
:103F2000139905910021119A15927F1C12980197FF
:103F3000009150E00120C00703900120019008A9E2
:103F4000009711A8FFF7D4FC139A14990592002248
:103F5000119B009212981593059A0192002901D0A5
:103F6000104602E0791C40180190381A01D50198DA
:103F700004E04042401E0090781C0190C01B02905B
:103F800043E0012F00DA01270021112F01DD11206C
:103F900000E038460191009008A911A8FFF7A8FC9D
:103FA00013990591119A0021129815920091019789
:103FB00021070CD40599B94201DB019900E0019178
:103FC000012904DD159A491E515C302906D0B842FA
:103FD00001DA011D05DA0121029115E00199491E5E
:103FE000EDE7002805DC0099411800910199091AB4
:103FF00003E0019A411C914200DD01910099401AB1
:10400000401C02900120C0070390200706D40299AB
:104010000198814202DB0020C043029000206946E3
:10402000C87707AF012103980337C907884224D016
:10403000022011902B201290039800280CDA4042A5
:1040400003902D20129007E00A210398FFF70AF849
:1040500030317F1E039039701199481E119000294C
:10406000F2DC03980028EFD1791E1298087030789E
:10407000202108404530BF1E387006A8C01BC01D57
:10408000039010980078002800D001200199411871
:104090000298C0170918039809180498401A401E7E
:1040A0000490E00306D421461A9B199A049800F064
:1040B0005FF8451910980078002803D01A9A1999CA
:1040C00090476D1CE00324D521461A9B199A049849
:1040D00000F04EF845191CE00098002807DB009915
:1040E0000598884203DD1598405C199901E01999FB
:1040F00030201A9A904700986D1C401C009002983E
:10410000401E0290002804D11A9A2E201999904737
:104110006D1C0199481E01900029DDDC05E038780E
:104120001A9A7F1C199990476D1C0399481E039099
:104130000029F4DC21461A9B199A0498ACE6000089
:104140002D0000002B0000002000000000000000F7
:10415000F8B5044600251E461746880404D405E039
:1041600039462020B0476D1C641EF9D52846F8BD9D
:10417000FFB50446002581B01E46C80301D530278F
:1041800000E02027880404D505E038460399B047AD
:104190006D1C641EF9D5284605B0F0BD0A68531C95
:1041A0000B60107070472526270C0802170D0101BF
:1041B00002090901010602000700070011001100B1
:1041C000020011000B0011000800110002000000A5
:1041D000F041001000300020A4000000D038001092
:1041E00094420010A4300020F4040000E0380010D5
:1041F0000000000000100050C0030150000000004B
:10420000601000502410005014100050181000507E
:104210001000004000000000000102030405060732
:1042200008090A1112131415161718191A1B1E1F44
:1042300000010203040506090A07081115121617E2
:10424000181319141A1B1E1FD0000150E000015052
:104250000024F4000004000000000000ED05002030
:10426000DF0000208F050020C60500204A0700203F
:104270001E06002014000020901000500000024094
:104280000010005060100050000008000000000006
:04429000000000002A
:04000005100000C126
:00000001FF
