:020000041000EA
:1000000000430020E11A0010E91A00103708001020
:1000100000000000000000000000000000000000E0
:10002000000000000000000000000000ED1A0010B9
:100030000000000000000000EF1A0010F11A00108C
:1000400000000000F31A00109B4C0010F31A00107F
:10005000F31A0010F31A00103B140010651400107E
:100060003D450010ED450010E1460010F31A001068
:10007000BD120010F31A0010F31A0010F31A00104A
:10008000F31A0010F31A0010F31A0010F31A0010FC
:10009000F31A0010F31A0010F31A0010F31A0010EC
:1000A0000000000000000000000000000000000050
:1000B0000000000000000000000000000000000040
:1000C0000348854605F014FA004800475B07001016
:1000D000004300208307FF22DB0E9A408907090EA8
:1000E0009940002808DB8308FD489B001818036826
:1000F00093430B43036070470007000F08388308E1
:10010000F8489B001818C36993430B43C3617047B9
:10011000F8B50027F44800970068FF2120303D46DD
:100120003C463E46017041709F228270CF22C270D1
:10013000017138460122811F0B0005F042FA0B07BE
:100140000707070C0C0C0C0C10100C00114681401A
:100150000D430C4303E0114681400F430E43401C06
:10016000C0B22028E7D3284600F0F2FF294600203D
:1001700000F0BBFF2846A04301F058F8204601F0EC
:100180006DF83846009900F0FBFF3146002000F082
:1001900079FFF8BD70B586B0002069460872072067
:1001A00048741920800148821E20888202A802F02B
:1001B00061FD684602F04CFD6946CC484E78C67237
:1001C0008D780573CC7844730B7983734A79C27345
:1001D000897901741B30067145718471C371027293
:1001E0004172024614231B211B3802F049FDC0490D
:1001F0000120087506B070BD0EB5002802D0012898
:100200000FD106E010206946C880C8204881002030
:1002100006E050206946C8804B20C00048810A2073
:100220000881C020694608710420487101A803F0C4
:10023000B3FA6946488900900B89CA88ADA10020AD
:1002400001F0A4FB0EBDA94910B50C398878401CFB
:10025000C0B28870032808D3002048700120FFF73F
:10026000CBFFFF20013004F028F810BD3EB59F4CB5
:100270000C3CE278D2070ED001246A461480032594
:1002800055801F259580148103460A4669462046FD
:1002900002F022FF3EBD00203EBD944A10B50C3A4C
:1002A0009088401C81B29F48918009C8984205D12E
:1002B000032903D90020507004F080F910BDF0B577
:1002C000984E85B035687468A54231D0874F0C3F91
:1002D0007878002807D1012078700020B8809249F2
:1002E000A32004F03BF901239B02A54201D32D1B5F
:1002F00001E0281BC518142D1CD31F467B49002084
:100300000C398880894B69461A5D641C0A54BC42CA
:1003100000D30024401CC0B21428F5D31421684631
:10032000FFF7A4FF002803D0143D7460142DE5D21C
:1003300005B0F0BD002DFBD0B8880328F8D300200D
:10034000694608E0794A125D641C0A549C4200D355
:100350000024401CC0B2A842F4D3E9B26846FFF7BB
:1003600085FF002800D074600020B880E0E7F0B579
:1003700004468DB0401C04F029FDC11FFF39FA3935
:1003800019D0FF2101310027884239D1402000F0E7
:100390007DFF0822611D03A804F0DEFC6846C089C9
:1003A0001521490288421AD161A003C80191009029
:1003B0000820694621E0802000F068FF21460E22D7
:1003C0001531684604F0C8FC1E22611D04A804F023
:1003D000C3FC04AD0FCD00F033FA0DB0F0BD5649AB
:1003E0008842FAD1684607700197694601A80297CA
:1003F00000F0E8FC684601A9007802F05EFEECE738
:100400003A4E01210C3E02281FD0464D042830D020
:100410004A03641C904261D1607922790002104342
:100420000128DAD1607A237A020230461A43C07872
:10043000012A45D08843F070002001F00FFFFF2013
:10044000013000F00BFF3DA1A7E03170FF20B77035
:10045000013003F093FF0120400200F0E7FE062385
:10046000A21D3CA1002001F09DFA012000F099FBA3
:10047000B3E762793BA1002001F088FAF77037708A
:100480006868012464022860204604F007F8002808
:1004900006D03B480078032802D0204603F00DFF29
:1004A000FFF778FE02F009FD204600F0D7FEFF209E
:1004B000013000F0D3FE002001F0D0FE31A16CE04D
:1004C0000843F070012001F0C9FE00F0AFFF68683A
:1004D0002860FF20013000F0A9FE5DE061E000002F
:1004E00000E400E000ED00E0583000200C30002077
:1004F00000000240736D6172745F706172616D73B0
:1005000020696E74657276616C3A2578206C61742E
:10051000656E63793A2578207376746F3A25780D85
:100520000A000000343500209B0200103431002006
:100530005359445F5541525401FF000055415254F4
:10054000206E6F746966792044697361626C6564BA
:10055000210D0A00436F6E6E6563746564206164EB
:1005600064723A00446973636F6E6E6563746564A8
:100570002C7265736F6E3A3078253032780D0A0030
:100580003C300020737461727420616476204020D6
:1005900064697363210D0A00E9A1002001F0F6F9F6
:1005A0001BE70121C903884224D160792179000227
:1005B0000843030005F005F806051416181A1C0474
:1005C0000BE7E5A1002001F0E1F9684602F03FFDEC
:1005D000684643880288E6A1002001F0D7F9FCE6CE
:1005E000EAA1DAE7EFA1D8E7F4A1D6E7F9A1D4E7C9
:1005F000FDA1D2E70121090488420DD101A802F032
:1006000026FD6846008900906846C3888288FBA161
:10061000002001F0BBF9E0E60128C1D102F04DFC59
:10062000DBE6F8B5FD4C207800281BD00026FC4DF9
:10063000012818D001277F02022822D0032811D1D7
:100640002670384603F039FEF6A1002001F09EF92D
:100650007D20C00000F07EFAF6A1002001F096F99E
:1006600002F0D0FEF8BDF8A1002001F08FF900F0F3
:100670008DFAF9A1002001F089F9022020702E7076
:10068000F8BD2878401CC0B228702028F8D9F5A100
:10069000002001F07BF9384603F00FFEF8BD10B5DD
:1006A00002210120FFF716FD02210846FFF712FD87
:1006B00002210320FFF70EFD02210420FFF70AFDAF
:1006C00002210520FFF706FD00210620FFF702FDAD
:1006D00002210720FFF7FEFC02210820FFF7FAFCA9
:1006E00002210920FFF7F6FC02210A20FFF7F2FCA5
:1006F00002210B20FFF7EEFC02210C20FFF7EAFCA1
:1007000002210D20FFF7E6FC02210E20FFF7E2FC9C
:1007100000210F20FFF7DEFC02211020FFF7DAFC9A
:1007200002211120FFF7D6FC02211220FFF7D2FC94
:1007300002211320FFF7CEFC02211420FFF7CAFC90
:1007400002211520FFF7C6FC02211620FFF7C2FC8C
:1007500002211720FFF7BEFC10BD72B600F0B6F8FC
:10076000FFF79DFF002002F0D0FD01F052FD0020B8
:1007700001F007FEFF20F53003F0B7F801F011FE9D
:1007800000F07EFFBAA3BDA2BFA1002001F0FEF8D9
:10079000C349022003F093FE00F08EFEC149012000
:1007A00004F067FA00F0A6FEFFF7B2FC00F0C4FD0B
:1007B000BD4800210160416002F07FFB62B6BB4C86
:1007C000BB4D964EBB4F02F08DFF00F065F82068E0
:1007D000002814D0800509D5FFF723FF012040022F
:1007E00003F0C7FDB4A1002001F0D0F82088C005B7
:1007F00005D5FFF728FDFF20013003F0BAFD28687A
:1008000000280AD0400708D501F0CBFDAEA100209A
:1008100001F0BCF8042004F0A3F83078012801D1DD
:10082000FFF7FFFEF878C00702D0FFF748FDCAE7E0
:1008300002F0B6FDC7E7A8A1002001F0A7F8FEE787
:100840000FB4F8B569464A8B897F06A8022A09D0F9
:10085000A64B9A4202D1C01D00F0AFF9F8BC08BC0B
:1008600004B01847904B17241A686243A04CA15457
:10087000012207E08518AE791D6817277D432D19E1
:10088000AE54521C9142F5D21868401C18603228B0
:10089000E4D300201860E1E7F8B5834C2568606870
:1008A000A84212D0924E00276068A8420DD01721AE
:1008B0004843315C8019401C00F03BF96068401CE3
:1008C00060603228F0D36760EEE7F8BD10B588B0FD
:1008D00002F006F9012002F0C0FB7648083002F071
:1008E000E7FB03216A46117300245473907BFB22BB
:1008F0008843401C10406A4690731020D0731474D3
:10090000517403A802F097FBC02005907948069027
:1009100005A802F0B2FB002002F0A1FDFFF73AFCAF
:100920006A461470D4700120107150709470D11DFB
:10093000800204F055FA684602F0F7FC08B010BDDA
:1009400055415254206E6F7469667920456E61621C
:100950006C6564210D0A0000757064617465207215
:1009600073702041434345505445440D0A00000034
:10097000696E74657276616C3A2578206C61746575
:100980006E63793A25780D0A000000007570646185
:100990007465207273702052454A45435445440D96
:1009A0000A000000757064617465207273702054D1
:1009B000494D45524F55540D0A0000007570646151
:1009C00074652072737020535543434545440D0AA6
:1009D00000000000456E61626C65206C6174656E9C
:1009E00063790D0A0000000044697361626C652040
:1009F0006C6174656E63790D0A000000434F4E4EC2
:100A00005F5550444154455F434F4D503A20256453
:100A10002C2025642C2025640D0A00003C30002089
:100A20003D3000204F54412066696E6973680D0A9D
:100A30000000000053746172742052657365742065
:100A400031303030730D0A00737461727420467750
:100A500045726173650D0A004F54412073746172D1
:100A6000740D0A004F5441206661696C650D0A00DF
:100A700030393A35393A3430000000004D61792080
:100A80003331203230323100537964383831315FBC
:100A9000554152542025733A25730D0A0000000079
:100AA000EC3900201C3A0020BC390020FC3000202A
:100AB00014310020003000204556545F31535F4F01
:100AC00054410D0A000000005254434556545F3112
:100AD0003835530D0A0000004552523A20486172E1
:100AE000644661756C74210D0A00000001FF00006E
:100AF0003C3500206F030010FEB501A9684600F0E8
:100B00007BFC002001266A46104901AC104DB6025C
:100B100013780BE00F68225CEA550A68521C0A60E1
:100B2000B24201D300220A60401CC0B29842F1D305
:100B3000FEBD70B50D460646002404E0305D00F0B1
:100B400050FC641CE4B2AC42F8D370BD34350020D4
:100B5000343100200022064B06E00021491C89B2F6
:100B60009942FBD3521C92B28242F6D370470000E6
:100B70008C0A000010B5E74B0E241B691C70541C36
:100B80005C709870D81C04F0E7F810BD08B502F04E
:100B9000E4FC00206946087001221620FFF7EAFFF6
:100BA00008BD0022DB49002801D00A704A704A8043
:100BB000CA808A800A81CA607047FEB5D54D0E464C
:100BC00069880024002905D02A78002A02D06C7098
:100BD00000219FE00178032615296DD01CDC112926
:100BE00035D012293ED0132941D0142922D1C17900
:100BF00082790E0216436E80417A027A0F02174301
:100C0000EF80801C04F0E2F8E860AC802C81334671
:100C10000246C1A1009773E001277F0216290AD07E
:100C200020294DD0232957D0242903D1801C00F03E
:100C300048F92E70FEBD0020FFF7DEFAC3A10020A8
:100C400000F0A4FE384603F099FB012007E00020E5
:100C5000FFF7D2FAC1A1002000F098FE042028700E
:100C6000EC60FEBD801C00F0BFF805201EE0871C74
:100C7000C01C04F0ABF801463A78BD4802F03DFED6
:100C80000646781C04F0A2F80346387800903246F5
:100C9000B8A1002000F07AFE002E09D06846047149
:100CA000012201A91820FFF765FF06202870FEBD6C
:100CB000012069460871F3E7801C00F0CBF8B8E723
:100CC0000020FFF799FAB1A1002000F05FFE38463E
:100CD00003F054FB0720C2E7C17982790E02164364
:100CE0006E80417A027A0F021743EF80801C04F075
:100CF0006DF8E860AC802C8133460246A8A10097CD
:100D0000002000F043FEFEBD435C2C891B19491CEA
:100D10002B8189B2B142F7D381071AD001463246FE
:100D2000AD4804F019F82878022806D0012804D02C
:100D3000082808D0072806D023E0A988E868A64A32
:100D40004018314615E0A988E868A34A40183146A2
:100D500015E0704BD9689B88CB18022A06D0012A6F
:100D600004D0082A08D0072A06D00AE002463146F5
:100D7000184602F065FC04E002463146184602F0CF
:100D8000D0FBA888801981B2A98068888142BAD333
:100D90002A89E888824204D1002000F04CF88FA113
:100DA00003E0012000F047F890A1002000F0EEFDE4
:100DB000EB882A8991A1002000F0E8FD0020FFF7D0
:100DC000F0FEFEBD70B5534C0D4621694A782146B0
:100DD0001431921C03F0C0FF20694078801C2870F9
:100DE00000206061A06170BD38B50446407821786C
:100DF000000208430121090388421BD8A278821807
:100E00008A4201D9091AA1705949A2784018E11CF7
:100E100003F0A2FF6078217802020A43A37882A13E
:100E2000002000F0B3FD0020694608700122172061
:100E3000FFF7A0FE38BD1CB56B465970090A9970C2
:100E4000DA70110A19711870052269461420FFF72B
:100E500091FE1CBD38B504465F4820300179002959
:100E600005D02038006A5C4A400102F0E9FB2046C8
:100E700003F0ACFF617922790B021343024671A1A2
:100E8000002000F083FD204603F0A0FF6179227965
:100E90000B02134302460021084602F0E0FB044621
:100EA00002466EA1002000F071FD002C07D000204A
:100EB0006946087001221820FFF75CFE38BD01204A
:100EC000F6E738B5044603F081FF617922790B0219
:100ED000134302465BA1002000F058FD204603F0BA
:100EE00075FF617922790902114302F0BDFB0446C6
:100EF00002465FA1002000F049FD002C07D0002031
:100F00006946087001221820FFF734FE38BD012021
:100F1000F6E700003C300020434D445F46575F57E2
:100F2000524954455F5354415254206F666673656D
:100F3000743A25782C73697A653A25782063686558
:100F4000636B73756D3A25780D0A0000434D445F5D
:100F500046575F45524153450D0A0000344B5345F7
:100F60005454494E475F4552415345200D0A0000F5
:100F70004A070020436F64655570646174653D25C0
:100F8000642025782025780D0A000000464C415346
:100F900048444154415F4552415345200D0A0000E9
:100FA000464C415348444154415F57524954455F70
:100FB0005354415254206F66667365743A25782CF9
:100FC00073697A653A257820636865636B73756D1C
:100FD0003A25780D0A000000C43900207365637457
:100FE000696F6E204F4B2120000000007365637411
:100FF000696F6E206661696C652120006F74615FA6
:10100000726563656976655F636865636B3A2578C9
:10101000206F74615F73656374696F6E5F63686589
:10102000636B3A25780D0A00636D64344B53455465
:1010300054494E4757726974652025782025780DEC
:101040000A0000006F746120737A3A257820636883
:1010500065636B73756D3A2578200000436F646596
:101060005570646174657632303D25640D0A000068
:10107000436F64655570646174657633303D2564F3
:101080000D0A0000F0B5AA4C221D9446002829D074
:10109000012826D1A74B002B23D00020012282401B
:1010A000114207D01F5C01252668BD402E432660F3
:1010B000914302D0401C1828F0D3182001252A465D
:1010C00082402B46114209D0644606462478183ED9
:1010D000B3401C4363461C70914302D0401C20283F
:1010E000EDD3F0BD934B183BD5E7F0B5904C221DE6
:1010F0009446002829D0012826D18E4B002B23D0DE
:10110000002001228240114207D01F5C0125266881
:10111000BD40AE432660914302D0401C1828F0D356
:10112000182001252A4682402B46114209D06446E8
:1011300026780446183CA3409E4363461E709143A4
:1011400002D0401C2028EDD3F0BD7A4B183BD5E7E8
:10115000784910B530394A68147821465478240209
:1011600021439478D378240421431B0619438143F7
:101170001170080A5070080C9070080ED07010BDE5
:1011800070B56C4E303E73681D782A465D782D022E
:101190002A439D78DC782D042A4324062243024307
:1011A0001A70140A5C70140C9C70120EDA70F368DA
:1011B0001D782A465D782D022A439D78DC782D041F
:1011C0002A432406224302431A70140A5C70140C4A
:1011D0009C70120EDA7008229C1825782A466578D1
:1011E0002D022A43A578E4782D042A4324062243BD
:1011F00082431A72100A5872100C9872100ED8722C
:1012000008201A1814782046547824022043947831
:10121000D278240420431206104308431872010AAE
:101220005972010C9972000ED87270BD414910B507
:1012300030398A68147821465478240221439478FE
:10124000D378240421431B06194301431170080A73
:101250005070080C9070080ED07010BD354910B554
:1012600030398A68147821465478240221439478CE
:10127000D378240421431B06194381431170080AC3
:101280005070080C9070080ED07010BD294910B530
:1012900030398A681478214654782402214394789E
:1012A000D378240421431B06194341401170080AD6
:1012B0005070080C9070080ED07010BD10B51D4C09
:1012C0001820303C236919180A7810464A7812020F
:1012D00010438A78C9781204104309060843102184
:1012E0005A181378194653781B0219439378D27809
:1012F0001B04194312061143884318D06069002863
:1013000000D08047216918200A18137818465378AE
:101310001B0218439378D2781B041843120610431B
:101320000870020A4A70020C8A70000EC87010BD64
:101330008010005088300020F8B555480068C17B07
:1013400089098901C91CC173017C89098901091DA9
:10135000017420308178DF22114081708378BF21B1
:101360000B4083704B4C206883785B085B00837074
:1013700003781B091B010833037003785B065B0EBF
:10138000037003780B400370C37810252B43C370A0
:10139000837804252B438370857820231D43857033
:1013A0008678EF252E408670867880273E438670AB
:1013B00086780E40867001782940017001781140CE
:1013C00001708178022211438170C1781943C17084
:1013D000062000F054F820688178082211438170BB
:1013E000F8BD2C490968487008788006FCD5087853
:1013F000DF2210400870704738B500226C4622701A
:10140000244B1B680DE01C798C546D46521C2C78C3
:10141000D2B2641C2C702C78641C2C702C78641C48
:101420002C70DC78E407EED0027038BD19480068F3
:10143000C17820221143C170704710B5154C206847
:101440000178C90605D50178EF2211400170FFF738
:1014500053FB20688178890703D5817802221143E4
:10146000817010BD10B50B4840680178C90605D5DC
:101470000178EF2211400170FFF73EFB10BD0028FC
:1014800005DBC106C90E012088400349086070478A
:1014900058300020A030002000E100E00F48FF227B
:1014A000016801321143016070470C480122016854
:1014B000520211430160704710B57D242401FF20C2
:1014C0000023074A2146013002F01EFE01200023BE
:1014D000044A2146400202F017FE10BDFC300020F5
:1014E0009D140010AB140010084804220168114339
:1014F0000160704710B50023054AB921042003F0AC
:10150000C4F9042003F069FA10BD00001431002072
:10151000E914001010B5604C0120206160615FA0EB
:10152000A06120464830E061012080020021A162D4
:101530002062616259A0E16220635B4860632164BC
:101540001020E163A063616458A1E01D03F035FC45
:1015500057A1204603F031FC2020A07110BDF7B543
:10156000054682B000200090EC6817462869A0422A
:1015700001D9061B02E0A968201A0E1AA868761E77
:10158000001BB04200D80646BE4200D33E46686803
:1015900032460019039903F0DFFB0098BF1B801946
:1015A00000900398A41980190390A868A04200D164
:1015B0000024EC60002FD9D1009805B0F0BDF7B53C
:1015C0000446C7688068E168C51B60681646401815
:1015D000B54205D9019903F0BFFBB819E060FEBD23
:1015E0002A46019903F0B8FB0198761B411932464F
:1015F000606803F0B1FBE660FEBD70B50E461821D1
:101600004843254914464518E86A1835002804D08F
:1016100001280FD0022805D113E0284600F031F848
:10162000A04201D2002411E0224631462846FFF7AD
:10163000C6FF0BE0284600F024F8A042F4D204468E
:10164000F2E731462846FFF78AFF0446204670BD80
:10165000F8B507461048154600780E46002801D117
:10166000FFF758FFEFF31084012080F310882A461B
:1016700031463846FFF7C1FFE1B281F31088F8BD6B
:1016800048E70269C1688A4203D88068401A801816
:1016900000E0501A401E7047343A00205465726DC5
:1016A000696E616C000000007C3E002052545400C2
:1016B000534547474552000010B5044680686368AB
:1016C000421C934205D323681954A260E068401C71
:1016D000E060A2686068824209D121682069FFF752
:1016E000B7FFA168884203D00020C043E06010BD6E
:1016F0000020A06010BDFFB581B001261F46354611
:101700000A9C029802E003F0FDFA6D1C03998842DE
:10171000F9D2AF4200D93D460B98C00718D1002C32
:1017200016D00B98800701D5002F02D02020009002
:101730000CE03020FBE7641E00990198FFF7BCFF26
:101740000198C06800283DDB002C01D0A542F2D3EF
:101750000198C068002835DB012F01D97F1E06E003
:101760003146029803F0CEFA0399884202D30398D7
:101770004643F1E7D24F3146029803F0C3FA0146DF
:10178000029A7143511A0291395C0198FFF794FF54
:101790000198C068002805DB3046039903F0B2FACF
:1017A0000600E8D10B98C0070CD0002C0AD0A54247
:1017B00008D22021641E0198FFF77EFF0198C068BF
:1017C0000028F2DA05B0F0BDF7B59AB007A802908C
:1017D0004020039000200C461A99154604900826D4
:1017E000069105902178641C00296ED0252907D028
:1017F00002A8FFF761FF05980028F3DA1DB0F0BDDD
:101800000122002013460227217823291BD02B29EF
:1018100016D02D2902D0302906D101E0184300E06E
:101820003843641C002AEFD1002122781346303B54
:101830000A2B0AD20A23594389183039641CF4E769
:1018400004210843EDE73043EBE70023D7B22E2F06
:101850000AD1641C22781746303F0A2F04D20A2787
:101860007B439B18303BF4E76C2A0CD0682A0AD0E3
:10187000662A3FD00FDC582A30D007DC252A6FD0EB
:10188000462A71D136E06278641CEDE7632A0BD0FA
:10189000642A69D10DE0702A57D0732A46D0752A80
:1018A00014D0782A60D119E02868011D29600178D8
:1018B00057E02A68171D2F601768009101900A22CF
:1018C000394602A800F098F84EE04FE02A68171D4C
:1018D0002F6017680A220091019006E02A68171D00
:1018E0002F601768102200910190394602A8FFF777
:1018F00002FF39E00020179018901990286817AF60
:10190000C01DC008C0000146083129600CC86DA187
:10191000384603F02BFE39787F1C002924D002A81A
:10192000FFF7CAFE05980028F5DA1DE02868011DBA
:101930002960076839787F1C002915D002A8FFF7B5
:10194000BBFE05980028F5DA0EE028680823011D83
:10195000296001680020102200960190C6E7FFE789
:10196000252102A8FFF7A8FE641C44E7002800DC3C
:1019700044E70498002804D0024607A91A98FFF704
:1019800067FE049905984018059037E70FB408B52D
:1019900004A900916A460399FFF716FF01B008BC3D
:1019A00004B01847FFB5002481B01D461646002933
:1019B00002D00198FFF7EAFF01277F0713E06007D5
:1019C00004D1A2B241A10198FFF7E0FF325D41A12D
:1019D0000198FFF7DBFF6007F84203D13FA10198B0
:1019E000FFF7D4FF641CAC42E9DB600703D03BA1E6
:1019F0000198FFF7CBFFE5E6FFB583B00E467042D6
:101A00000D9F0C9C0090002900DB0846012502E098
:101A100003F08EF96D1C05998842F9DA0698A84200
:101A200000D90546002C04D0002E01DB780700D534
:101A3000641EB80702D50698002810D0F8070ED10A
:101A4000002C0CD0A5420AD22021641E0398FFF777
:101A500033FE0398C0680028F2DA07B0F0BD03989F
:101A6000C0680028F9DB002E02DA2D21009E02E07A
:101A7000780707D52B210398FFF71EFE0398C0684F
:101A80000028EADBB807800F022810D1069800284A
:101A90000DD1002C0BD0A54209D23021641E039831
:101AA000FFF70AFE0398C0680028F2DAD5E701972D
:101AB00000943146069B059A0398FFF71CFECCE77D
:101AC000B25E001025342E33660000005B253034F2
:101AD000785D200025303278200000000D0A0000DB
:101AE0000448804704480047FEE7FEE7FEE7FEE7BC
:101AF000FEE7FEE7FD1A0010C10000100249014890
:101B0000086070470024F400AC300020F1B5F848BC
:101B100080470746F74880470646F54C0120183CA9
:101B2000A047F44D00200C35A847F349009888479A
:101B30003046A8473846A047F8BDF0B5EF4DF0480D
:101B4000E96885B00818044603F040F92146401CB6
:101B500003F046F90024E9480125C668E8480C3836
:101B600031180391487C097C00020843A5402842B3
:101B700002903BD00B2060438119E148009109306D
:101B80000818019003F022F90746DD48301803F0E9
:101B90001DF987422AD10F21009889014018007D44
:101BA00000280CD0D64A00990D3A8A18517D127D32
:101BB000090211437818019903F012F905E002981F
:101BC0000399A8430874000A4874CD4800990D3061
:101BD000081803F0FBF8002808D0022D19D0042DB6
:101BE00017D0082D15D0102D1AD08047641CE4B2F0
:101BF0000A2CB0D3C148C168C1480C380918487CC8
:101C0000097C00020843800501D1BE48804705B029
:101C1000F0BDBD49012088470028E7D0222005E01B
:101C2000B949012088470028E0D03B20FFF76EFF2C
:101C3000DCE710B5B14912200969887072B601213C
:101C4000B04A0320B43A904762B610BDFEB50021F9
:101C5000684601710170AD4F0172AD4EA74CB84797
:101C6000A07102AB6A4601A9606902F064F900281C
:101C70004ED00820B047002803D00220B0470028EB
:101C80000FD068460078012811D0E0686569407A75
:101C900001283ED00228E2D19E4AA17928469047E9
:101CA000DDE7012168460170007A00282DD025214A
:101CB000E06849014118497B6569002908D09049CD
:101CC000D4314118487B097B000208439249884778
:101CD000284602F075F90028C1D068468D4A01797E
:101CE0009632606990472878C0438007B7D1A878BA
:101CF0001228B4D121691320887072B60121814A5B
:101D00000320B43A904762B6A9E73D20FFF7FEFEF4
:101D1000FEBD28780007000F0528A0D1687E297E27
:101D200000020843062805D3687F297F0002084384
:101D30000A2803D270491220884790E77349EE3190
:101D4000A81C8847287887224006C10FE0681154F4
:101D50000622A91C883002F0FFFF3721206903F01A
:101D600014F87CE7F0B5684999B00420884700284A
:101D70000ED0654904201A31884762491F20AC31D2
:101D80008847664880471620FFF7C0FE19B0F0BDAF
:101D900063488047002810D0584DEC68A1790807A7
:101DA000F4D5E079C2071CD05E49204698308847B8
:101DB000E868C179490849001FE0594E574F574D0F
:101DC000B2361C376C46103507E06846B04701282C
:101DD000DCD168460178601CB847A8470028F4D0D9
:101DE000D4E782070BD54F4A20461C328E30811C27
:101DF0009047E868FD22C17923E0C171C6E7420738
:101E000008D5484920466031A8308847E868FB2259
:101E1000C17916E00207F726002A09DA414A21466D
:101E20004232A07A0B319047E868C1793140E4E74B
:101E3000C00608D53B4968467C318847E868EF22F0
:101E4000C1791140D9E720463140FF30A1712130DE
:101E5000017D0026002910D0067521460722873112
:101E60000CA802F079FF21460DA82A228E310330FA
:101E700002F072FF2C490CA88847012069460870BF
:101E800048708E70E96800A82A2203308E3102F073
:101E900063FF2D220821254C6B460020A04775E7E3
:101EA00016490128896A0FD0022811D0042812D0BF
:101EB000082813D0102814D0202815D0402837D057
:101EC000802839D0012070478878C007C00F70473C
:101ED000887880072EE0887840072BE08878000714
:101EE00028E08878C00625E08878800622E0000097
:101EF000BF650000776A0000CF160000B0300020F8
:101F0000CE03000001120000F50A0000495700004E
:101F1000791900008B1E00002B620000BD600000DC
:101F2000054E000027260000DF470000A13E00000C
:101F300088784006C00F70478878C009704710B590
:101F4000017801291FD1401C02F040FFFE4A1028F1
:101F50003AD00DDC012817D002281DD0042823D048
:101F6000082810D1FFF79CFF00280CD1F74809E0A2
:101F7000202839D0402806D1FFF792FF002802D14F
:101F8000F2485430804710BD0120FFF789FF002838
:101F9000F9D1FFF7E7FE10BD0220FFF781FF00280F
:101FA000F9D1FFF753FE10BD0420FFF779FF002899
:101FB000F9D1D068407A012803D00228F3D1E4484F
:101FC000E0E7E348AE38DDE71020FFF769FF0028BF
:101FD000E9D1906A2030407D400701D53E2000E0E5
:101FE0000820FFF793FD10BD2020FFF759FF0028C0
:101FF000F9D1D6484830C5E770B5D34B1025996A5A
:1020000008260C460A462034603100281DD0907EF8
:1020100030439076087E5A7840094001D206D20EAD
:1020200010430876607B267B0202D8683243233057
:10203000437C067C1802304382420ED02073000A93
:102040006073C87D2843C87507E000202073607363
:10205000C87D2843C875BF480677012070BDBA48BF
:10206000C0682330417C027C080210430BD0BA497F
:1020700048780A7800021043032210430870000ACF
:1020800048700120B8E7704730B4B44CA44630BC67
:102090006047F8B5B048407A000663D5AA48C668DC
:1020A00030462330417C007C0F02AB49074348781F
:1020B000097804020C43002F01D1600752D5A64DC8
:1020C000A87B697B00026D1C08434BD0002F49D0D0
:1020D00068792979000208432ED12136707C317C41
:1020E0000002084303F08CF800229D4B02F08CFFA5
:1020F00003F094F880B27843642102F019FE4004A2
:10210000010C2971080A68710A204143707D327DF3
:1021100000021043814206D30A21401E02F008FE4D
:102120002871000A6871687929790002084303D18F
:1021300001202871002068718748A10709D5022174
:102140008C4301210C430470210A41700020FFF7E9
:1021500053FF68792A7901021143824B0022402003
:10216000FFF792FFF8BD1CB57B494A7A002A40D0A0
:102170004A780B7812021A43D3063AD4437804788B
:1021800018022043012834D1C878401E0006000EF2
:10219000C8702FD08B780846017BC47A0A0222438C
:1021A000017AC47909022143C01C012B2AD0521A9A
:1021B0000272120A42721206037A120C1A43521A5F
:1021C00069460A80427A017A120612140A43694665
:1021D0004A8061498A7B497B12020A4369468A80A8
:1021E000417B027B080210436946C8805E4968460D
:1021F00088471CBD887AC870402002430A70100AC4
:1022000048701CBD5218D3E7584A1047574A20322D
:10221000104738B5002469460C7021467F20FFF72F
:10222000F5FF00213B20FFF7F1FF29213B20FFF7BD
:10223000EDFF69463B20FFF7E7FF6846007880071F
:1022400001D5012038BD641CA4B2FF2CF1D90020B7
:1022500038BD10B546488047012010BD10B53A4939
:10226000444A8870002807D1C8688078022803D0C3
:1022700000209047012010BD0120FAE710B5324C34
:102280000128E168887004D0002831D0022846D0A7
:1022900059E0206B0146203002785208520002704B
:1022A0000278FD231A4002700878800980011C30F2
:1022B00008704878800980011C30487000217F2018
:1022C000FFF7A4FF03212120FFF7A0FF1F21032018
:1022D000FFF79CFF02217F20FFF798FF01210020DC
:1022E000FFF794FF00217F20FFF790FF0F2127E0E9
:1022F00000217F20FFF78AFF00210420FFF786FFDF
:1023000002217F20FFF782FF00210846FFF77EFFB2
:1023100000217F20FFF77AFF0021032011E0022136
:102320007F20FFF773FF03210020FFF76FFF0021DD
:102330007F20FFF76BFF00210320FFF767FF0021DD
:102340000420FFF763FF17E0B0300020791600008B
:102350002715000020000240E33E0020AB440000AF
:102360000000F43F5F20001033420000C561000010
:1023700007470000A7650000A078FFF76FFF012066
:1023800010BD10B5FFF77AFF012010BD10B5F6485B
:102390008047F648C06A017ADF22114001720120AD
:1023A00010BDFEB5F2488047F04C0190E06A817A9A
:1023B000007ACF07FF0F0026C506EE49ED0E4878DC
:1023C000097800020843800608D5A06A2030417BC6
:1023D000027B0802104301D0FFF75BFEA80702D082
:1023E0000126FFF7D3FFE148C06A817A4908490016
:1023F0008172DF490120183988470220FFF73EFF2C
:10240000DD4964208847002469460C702546012177
:102410007F20FFF7FBFE00210A20FFF7F7FE2221B5
:102420000A20FFF7F3FE69460A20FFF7EDFE684633
:1024300000784007EFD469460A20FFF7E5FE6846BA
:102440000078400705D568460078000706D40125C6
:1024500004E0641CC948A4B28442ECD3C649642099
:1024600088470020FFF70AFFC149019818398847BB
:10247000BE48C06A817A4908490039438172002EFA
:1024800002D0B9480C388047002D01D00120FEBD94
:102490000020FEBD10B51121B64802F076FC10BD3B
:1024A00070B50446401C02F091FC022818D00428A4
:1024B00019D001214904884247D125462035687B3F
:1024C000092301070209090F0020072A1CD0032A4B
:1024D00020D0022A25D0012A29D0002A2DD032E08E
:1024E000FFF7D8FF3AE0A14D0121E868FF30213025
:1024F000017501F0B0FDE8688078002801D1FFF790
:1025000050FFFFF786FE29E0581A06214843412173
:10251000C94304E0581A062148433521C943081A23
:1025200010E0581A062148432321C943F7E7581AF7
:10253000062148431721C943F1E7581A06214843A9
:10254000801D404240B2687308E040281DD0012140
:10255000C903884202D1601DFFF705FE854948780E
:10256000097800020843800607D5601C02F02EFCA3
:102570000005000F01D0FFF78CFD7C483C3002F0D5
:1025800025FC01462046884770BD7848383002F067
:102590001DFC4006E2D570BDF0B5744C0646E068FF
:1025A0008DB0FF302130407C0D46002829D0002D11
:1025B00026D072B6A068183002F008FCE16832221A
:1025C000FF312131897C6E4B514340186A463221DC
:1025D000984762B6002E04D0E068FF302130807C3E
:1025E0003070E7680A21FF372137B87C401C02F0C1
:1025F00089FBB974E078401CC0B2E0700A2802D9A7
:1026000000200DB0F0BD684600780128D1D100A9A6
:1026100007222846013102F09FFB2A22E81D02A969
:1026200002F09AFB0120ECE7F0B5054655498DB064
:10263000202088474D4C0426E16820690F468670AB
:102640000822C01CC931BD3702F086FB2069042274
:1026500039460B3002F080FB0D214B4A0320904796
:10266000E068294608220A31C13002F075FBE068B3
:10267000294604221231B93002F06EFB287A434F0A
:10268000002802D1687A00281FD00020E070E0689E
:102690002A7A01468030837B9A420AD16A7AC07BCB
:1026A000824206D108222846903102F079FB0028A8
:1026B00017D069460020FFF76FFF012826D00622B9
:1026C0000021334B012098479BE7E0680222817983
:1026D000114302468171C132FF3011461030B847B4
:1026E00010E0E0688179024631438171C1321146C0
:1026F0009830B847E06880308079012802D12149BC
:10270000022088472248A03080477AE7E06801A984
:102710002A228E30033102F01FFBB8E77CB5451C3E
:102720008078297800020843104C022810D00F2826
:1027300010D001211D2810D0FF3810280DD0154AC7
:10274000694601209047687829780002084302E032
:10275000032000E0022060717CBD61717CBD0348F4
:10276000407970470C49084713470000B0300020FB
:10277000BF650000E33E00202B620000FFFF000069
:1027800059530000050B00004D11000019220000F4
:10279000D91900001F1D0000B34400001CB5FF48FC
:1027A0000821017000214170017BC27A0902C01C1E
:1027B000114341D04279037912021A43891A0BB2AC
:1027C0006A461380417A027A0906091411436A465F
:1027D000518019220624D201062B02DA6B461C8096
:1027E00003E0934201DD6B461A80062902DA69464E
:1027F0004C8003E0914201DD69464A80417B027BC7
:10280000080210436946C880E448817B427B080285
:10281000104369468880E248C0682330417C027CCE
:102820000802104302D00020FFF7E6FBDD496846AE
:102830008847DD49402088471CBDD84948780A7838
:1028400000021043C2050CD5FF22013290430870EC
:10285000000A48700879401E0006000E087109D071
:102860009CE720221043102290430422104308705A
:10287000000A48707047FEB5C84D0446687829784C
:102880000002084300077DD5C848804769782A7848
:10289000090211430822914329700A0A6A706B7A6F
:1028A000064628461A066ED5A27967791202651C7B
:1028B0003A43BB4FE41C002A77D010221143017029
:1028C0000A0A427088065ED46879297900020843B2
:1028D00032D002F095FC01910090607821780002DE
:1028E000084302F08DFCB24C0022234602F08CFB20
:1028F000019B009A02F088FB01910090F86821305A
:10290000417C027C0802104302F07AFC002223463C
:1029100002F07AFB07460C46687A297A00020843DF
:10292000801B02F059FC3A46234602F06DFB019BE6
:10293000009A02F0B7FA24E0607821780002084398
:1029400002F042FC0446F8682130417C027C080217
:10295000104302F039FC214602F04BFA02F07CFCF5
:102960000022934B02F050FB07460C46687A297A06
:1029700000020843801B02F02FFC3A46234602F077
:1029800043FB02E06EE064E00FE00022894B02F0BE
:10299000A3FB02F043FC0104090C00D10121864B8A
:1029A00000228020FFF770FB53E09A0651D5827811
:1029B000012A4ED18A064CD4FF22784801321143B5
:1029C0000170090A41706078217800020843734958
:1029D0000A7BCB7A1102194388423AD902F0F4FB00
:1029E0000446F8682130417C027C0802104302F062
:1029F000EBFB214602F0FDF902F02EFC00226C4BAD
:102A000002F002FB07460C46687A297A0002084366
:102A1000801B02F0E1FB3A46234602F0F5FA002261
:102A2000644B02F059FB02F0F9FB0104090C00D1E0
:102A30000121614B00228020FFF726FB5748417897
:102A4000027809021143FF22013211430170090A81
:102A5000417003206946088102229103574C02AB62
:102A60000020A047FEBD10B50446007800280DD117
:102A7000A17862780802104309D001281CD00328ED
:102A800023D00C2802D1201DFFF748FE10BD4C4971
:102A9000201D8847002802D12820FFF737F8201D85
:102AA000FFF7E9FE3E480121C36806220904002021
:102AB000424C3133A04710BD4249201D88470028B1
:102AC000F9D12820FFF722F810BD201DFFF7ACFD3B
:102AD00010BD10B50078012801D1FFF72EF810BD08
:102AE000F0B5394885B0804701217F20FFF78EFB84
:102AF00069465020FFF788FB68460078042801D01B
:102B000032488047FFF785FB254CE0688078012834
:102B10006ED0022869D0FFF744FC01256846458045
:102B200005802B48204901906846843988476846CB
:102B3000057045700025458026480190264BE068C9
:102B400008226946C01802F007F9184E01214020FA
:102B50005E3EB04701218020B04701212020B047D0
:102B6000FF210C31684601800B2141808580C580A2
:102B7000058145818581C5811848049018496846BA
:102B80008847A0680A3002F021F9044A154B573AE9
:102B90005721984701F05FFA012027E0E33E00202B
:102BA000B030002033420000B3440000BF550000A5
:102BB0000000F43F000059403B280010A13E0000F7
:102BC0005D5B0000475F0000793D0000F7460000B4
:102BD000D32A00103F1F0010CE020000672A001009
:102BE0008D4300005953000002E022E005B0F0BD23
:102BF000FE4880470746E06A817ACD07817AED0F6B
:102C0000490849008172F94E0120183EB047022060
:102C1000FFF734FBF649642088470120FFF72EFBBD
:102C20003846B047E06A817A4908490029438172F1
:102C300073E70220FFF722FB6FE710B5ED488047EE
:102C4000012010BDEB4910B51E318847012010BD91
:102C5000E84910B554318847012010BDE54910B549
:102C600060318847012010BDE24910B56E318847B8
:102C7000012010BDDF4910B57E318847012010BD0D
:102C800010B5DC4CE634A047012010BDF8B5DA4C95
:102C9000DA49E0683730884720693B230178BF254F
:102CA0000A09E16812015B5C1B071B0F1A430270E3
:102CB0001207120F012A79D00B4640335A781B783D
:102CC00012021A430B4642331A70120A5A700278E3
:102CD0008B7A2A409B011A435206520E02706623D9
:102CE0005B5C42789B1D92099B0692019B0E1A43E6
:102CF00042700622801C0B3102F02EF8E16866203B
:102D0000425C002A04D020696731083002F024F8C0
:102D1000E0680021203041772069B94A417889066E
:102D2000890E891C9047206901780A091201121D39
:102D30000270E1682A408B7ADB075B0E1A4302704F
:102D400046235B5C42789B1D92099B0692019B0E79
:102D50001A4342700622801C0B3101F0FDFFE1682E
:102D60004620425C002A04D020694731083001F037
:102D7000F3FF2069A24A41782C328906890E891C0A
:102D80009047E068012705462035E97E01293BD0C0
:102D900000294CD002294AD0062948D00023994C5A
:102DA0001A4601211846A047F8BDFFE70A464032FF
:102DB000137953718B7A0278DB072A405B0E1A4332
:102DC000027087235B5C5206520EDB011A430270CD
:102DD00042780B31920992010C3242700622801C1B
:102DE00001F0BAFF2069E16806220830883101F05D
:102DF000B3FFE16803223D204254804A8720405CB3
:102E0000323A8831904787E74030417900290AD02B
:102E100028200621A26A937EFD242340937617750D
:102E20006B7F2A7F43E0477101200146F2E70646A7
:102E30004236717832780B02134317D01921890179
:102E40004B432230417F047F08022043012280044B
:102E5000800C009006D00146184601F053FF421C3A
:102E60007F2A10D8D4B23770380A14E03770390A84
:102E700071702230417F027F0802104301248004D8
:102E8000800C009008E07F24104621467E3001F03F
:102E900039FF3070000A70705748806A817E0222C4
:102EA0001143817607756B7F2A7F00992046564C27
:102EB000A04755483E30804776E710B5FFF7E6FE5D
:102EC000012010BD10B55149032008704849642005
:102ED0001A3188474E488047012010BD72B6002144
:102EE000454A906A4175037C01210B430374D06805
:102EF00045221154423001700021417062B6012018
:102F0000704710B543498847012010BDF0B53A4CD1
:102F1000A56A2C4660342678FD27C0073E40800F06
:102F200006432670A170627062352B71180A6871B1
:102F300005982071000A6071F0BDF8B52E4D2F493B
:102F4000E868373088471120EF68002480013D1879
:102F50006E79A8790321401C01F0D4FE012088403D
:102F6000A971064203D1641CE4B2032CF1D31125EC
:102F7000AD017C19607B217B00020843A91C7F18EE
:102F8000010A1D4E3873797300280BD0607A227ABB
:102F9000010219201143800101F0B4FE0206120E55
:102FA00004D004E001203873002078730122787A7D
:102FB000397A000208430090607A217A03020B43B9
:102FC000A0791549095CE079FFF7A0FFF0680021BE
:102FD00040190171C170017441748178002901D0D8
:102FE000082901D908218170044817E0BF65000055
:102FF0002B620000833D0000B0300020B15700007C
:10300000D9600000A13E00005F56000000000240B1
:103010000747000001410000C25E00108C38804765
:10302000C2E610B5FFF789FF012010BD10B5F848C2
:103030008047012010BDF64910B5083188470120AE
:1030400010BDF34910B516318847012010BDF04975
:1030500010B578318847012010BDEE494870012035
:103060007047EB4910B586318847012010BDE84A0A
:1030700010B58E329047012010BD7CB5054601F099
:10308000A5FEE4490446383101F0AAFE281D01F0EE
:103090009DFEE0493C3101F0A3FE40208443DE4820
:1030A000DB490190009468469631884701207CBD39
:1030B00010B5DA498847012010BDD84A10B508324A
:1030C0009047012010BD10B5D5488047022801D98E
:1030D000002010BD012010BDF8B50E46D1490746AD
:1030E00048780978000208431C461546800609D531
:1030F000C848806A2030417B027B0802104301D01F
:10310000FEF7C7FFC8490120884700280CD0C448F3
:103110008047022809D972B62346C04C2A46314658
:1031200038461834A04762B63EE600203CE6BF4968
:10313000084710B50446BC4901208847002803D041
:10314000BA4920460831884710BD70B50546B64AD1
:103150000C4601209047002804D0B44A2146284656
:103160002232904770BDFFB50F4681B0AE491D4673
:10317000164601200A9C8847002807D00094AB4CD3
:103180002B463246394644340198A04705E5F8B548
:103190000E460746A4491C461546012088470028CC
:1031A00006D02346A14C2A46314638467C34A047F7
:1031B000FAE510B504469C4901208847002803D051
:1031C0009A492046AC31884710BD70B50546964AED
:1031D0000C4601209047002804D0944A21462846F6
:1031E000C632904770BD70B505468F4A0C46012027
:1031F0009047002804D08D4A21462846E83290475F
:1032000070BDF8B50E46074687491C461546012095
:103210008847002805D02346854C2A463146384643
:10322000A047C1E570B50D4606467F49144601200A
:103230008847002805D07E4B224629463046303349
:10324000984770BD70B50D46064677491446012073
:103250008847002805D0764B2246294630465C3305
:10326000984770BDF8B50E4607466F491C4615468F
:1032700001208847002806D023466D4C2A46314657
:1032800038468834A0478FE510B5044666490120CA
:103290008847002803D066492046B831884710BDCA
:1032A00010B5614901208847002802D06048CC3021
:1032B000804710BD70B5574D0446082804D0E86813
:1032C000407808280DD014E000217F20FEF79EFFF3
:1032D00001214020FEF79AFFE86A0178C908C90079
:1032E0000EE000217F20FEF791FF00214020FEF735
:1032F0008DFFE86A01786207C908C900520F1143BF
:103300000170E8684470012070BDD3E710B5044631
:10331000484880472070012010BD10B5044645483C
:10332000801D80472070012010BD424910B51C311E
:103330008847012010BD3F4810B5723080470120FA
:1033400010BD3D4800473D4908473C491A310847F0
:1033500008B53B49684688476846C0788007C00F73
:1033600008BD08B53649684688476846C078C00930
:1033700000D0012008BD10B5FEF746FF10BD10B506
:10338000FEF744FF10BD2348806AC07B052805D0A6
:10339000062803D00F2801D0002070470120704775
:1033A00010B5FFF7F0FF002802D1224852308047C5
:1033B000012010BD10B517490122886A4275437C6F
:1033C000DB09DB019B1C4374931E83741B0AC374CB
:1033D000C96ACB7AEF242340CB724B7B93434B7368
:1033E0008B7A13438B72817E022319438176017C91
:1033F00011430174114905201A318847114880474B
:10340000012010BD0F4810B512308047012010BDBB
:103410001D420000B0300020A12400102D43000008
:103420002B4E0000E33E0020F50A0000B73A0000F2
:10343000BB3B00009F440000FB5F00002B620000CC
:103440004D650000E546000010B5F74988470120AA
:10345000DDE7F54910B5183188470120D7E710B5E9
:10346000F24988470120D2E7F04954310847EF4933
:1034700010B5A23188470120C9E7EC4810B5C63025
:1034800080470120C3E7E94810B5DE3080470120BE
:10349000BDE7E74B1847E64B36331847F8B5074604
:1034A000E448002680680D463446283001F08EFC42
:1034B0002903C9194118DF48406B814211D9002006
:1034C00072E472B6DB488068283001F07FFC21038B
:1034D000C9194018D84A01219047064662B6641CB3
:1034E000E4B2AC42EDD330465EE4F8B5D14D0446CB
:1034F000A86817460E46283001F068FC0146A2195C
:1035000080186A6B90420AD8002908D072B6081950
:10351000C94B3A463146EA3B984762B644E400203C
:1035200042E4F8B5C34D0446A86817460E46283055
:1035300001F04CFC0146A21980186A6B90420AD82F
:10354000002908D072B60819BB4B3A463146823B77
:10355000984762B628E4002026E470B5B7480024F6
:103560000078B54EB34D00280DD001281ED024E0C0
:1035700072B6143001F02AFC210340180121B04733
:1035800062B6641CE4B2A868C17B827B0902114365
:10359000A142EDD811E072B6103001F017FC210302
:1035A00040180121B04762B6641CE4B2A868C17B30
:1035B000827B09021143A142EDD8012070BD70B594
:1035C00004460D46000B42199A488068C17B837BF4
:1035D000090219438A4201D9002070BD9749964ECD
:1035E0000978002902D0012903D00AE072B614300C
:1035F00001E072B6103001F0E9FB00192946B0472E
:1036000062B6012070BDF8B504468C480F460178BB
:103610008848894D8068823D1646002902D00129DC
:1036200003D00BE072B6143001E072B6103001F036
:10363000CDFB001932463946A84762B601203BE46B
:1036400030B47C4B9C68E37BA47B1B0223431B03AD
:10365000834202D230BC0020704730BCD3E730B484
:10366000774CA44630BC6047F3B5724889B0806897
:103670000024283001F0AAFB0746099846090025D6
:1036800011E072B668016C4BC01920216A46EA3B12
:10369000984762B6002069460A5C401C121994B231
:1036A0002028F9D36D1CB542EBD30998C606F60E57
:1036B00072B631466801604BC0196A46EA3B9847CA
:1036C00062B60020694603E00A5C121994B2401CFD
:1036D000B042F9D30A98844202D101200BB0F0BD68
:1036E0000020FBE7F8B55148E2388047534C573487
:1036F000607A002840D00006042500280FDA6078A0
:10370000217800020843400709D5FEF7C2FC607823
:10371000217800020843A8432070000A6070607896
:10372000217800020843474F474E41060CD54021FF
:1037300088432070000A60700220694608800246B3
:103740006B4639460020B047607821780002084374
:10375000C10711D0400840002070010A6170800745
:1037600002D56846058002E00520694608800222ED
:103770006B4639460020B04752E43448004738B51C
:103780002C4C2078002805D1274968467E39884787
:1037900001202070012038BDF8B50278002A70D0D1
:1037A000264957314A7242788A72002A01D0042A87
:1037B00001D904228A72C278847813021F4A2343F3
:1037C0005732D3721C0A14734479057924022C43AE
:1037D00015466C73240AAC73C4798579200228439A
:1037E000D073000A107413480827C068D21C213017
:1037F000447C007C240204430120A34228D90025F4
:103800008D701B1B8C7AA34204DA1071000A507170
:103810008B722AE0E400A34202DA1071000A01E090
:103820001771380A507120E0CB6500003D47000059
:10383000A5480000B0300020435400008C3E00201A
:103840007B4A000000800000A13E0000F94B000010
:1038500088708E7AE51AB5420EDA060A1071567132
:103860009C4201D1887200E08D72887AC87008711C
:10387000FEF794FF012057E4F3009D42D0DACCE735
:10388000FFE7002050E4FE49496A0870020A4A70C6
:10389000020C8A70000EC870487A022210434872E7
:1038A000704738B5044600200090F64968468847BE
:1038B0000099F8208143E006000E08430090FFF7CE
:1038C000E2FF38BD08B500200090EE496846884701
:1038D00000980006C00E009008BDEA48723000470C
:1038E000E8495A310847E8490847E7491A31084783
:1038F000E6480047E5490C310847F8B500260B4675
:1039000004460125304631462D03675C491CBE192B
:10391000A942FAD30021675C491C7840A942FAD336
:103920009E4221D190421FD1D54EB0680A3001F09D
:103930004DFA00195722D64901F00EFAB0681C3032
:1039400001F044FAF168001907220A3101F004FA83
:103950000121D04A00209047CE4B00202246294624
:10396000823B9847012023E4002021E470B5012622
:103970000546C34C3603C74B00203146EA3BA269DB
:103980009847C54928468847A0681C3001F01EFAB0
:10399000A16907224018E1680A3101F0DDF901212F
:1039A000BC4A00209047BB4B00203146823BA269B5
:1039B000984770BD10B50446B14880680A3001F0E0
:1039C00005FAB44B1021EA3B2246573098471EE5D2
:1039D00070B501260546AA4C3603AE4B0020314691
:1039E000EA3BA26998470121AA4A00209047A068B3
:1039F0000A3001F0EBF9A16910225731401829462D
:103A000001F0AAF9A34B00203146823BA2699847F6
:103A100070BD9B4840690178C943890702D180780D
:103A2000062801D000207047012070479B4A1047AC
:103A3000F3B581B0060025D0914F386A0446C179AC
:103A400080790D020543E01C01F0C0F90102A07865
:103A500001430C46002D17D0002C15D001218D4BB1
:103A600009030020EA3BBA699847B8680A3001F0B8
:103A7000ADF9B9696731405C401CC7B2032F05D965
:103A80000220FEBD0120FEBD0420FEBDB54204D1D2
:103A90000298844201D10020FEBD01217D4A002010
:103AA0009047774CA0680A3001F090F9A269794BF1
:103AB000114667314754012109030020823B984792
:103AC0000320FEBD08B56F49684688470098410845
:103AD000C90701D0002008BD0221084369490090B0
:103AE00028318847012008BD6948012102786448CF
:103AF00009078068002A03D0012A07D000207047F8
:103B0000C27B837B10021843400304E0C27B837BAB
:103B10001002184300034018704770B504465C4813
:103B20000D46017856480126B6038068002903D067
:103B3000012903D0002070BD143000E0103001F0E6
:103B400045F9801972B60019524A2946904762B663
:103B500070BDF8B505464E480F4601784848012427
:103B6000A40380681646002903D0012903D0002051
:103B7000A6E4143000E0103001F028F9001972B604
:103B80004019444B32463946EA3B984762B697E4BF
:103B9000F8B505463E480F46017839480124A4038C
:103BA00080681646002903D0012903D0002087E44D
:103BB000143000E0103001F009F9001972B6401914
:103BC000344B32463946823B984762B678E410B5AA
:103BD000030001F0F6FC09060C16202A343E416D64
:103BE000890001217F20FEF711FB882104E00121DB
:103BF0007F20FEF70BFB8A216120FEF707FB812166
:103C00006FE001217F20FEF701FB8A216120FEF792
:103C1000FDFA832165E001217F20FEF7F7FA8A2172
:103C20006120FEF7F3FA87215BE001217F20FEF798
:103C3000EDFA8A216120FEF7E9FA8F2151E0012196
:103C40007F20FEF7E3FA8A216120FEF7DFFA9F2149
:103C500047E001217F203DE000217F20FEF7D6FADA
:103C600002213020FEF7D2FA01217F20FEF7CEFAA2
:103C70001F216320FEF7CAFA03216D2010E0000027
:103C8000B03000204D6500002B620000776A000014
:103C90008C3E002043540000A13D0000D96000008C
:103CA000FEF7B4FA8A216120FEF7B0FAB02118E0DD
:103CB00000217F20FEF7AAFA02213020FEF7A6FAA3
:103CC00001217F20FEF7A2FA1F216320FEF79EFA52
:103CD00007216D20FEF79AFA8A216120FEF796FAF5
:103CE000BF216520FEF792FA71E610B5FD4CA06881
:103CF000283001F06BF8616B081A68E6FA48007822
:103D00007047F8B50546F74EF748B2690078144693
:103D1000002801D0002003E4280502D02805000D6A
:103D20002D1A72B601210903F04F0020B84762B680
:103D3000706B2146401B283101F052F805462046A1
:103D4000103001F043F80090281A41080098081834
:103D50002146143101F044F801460098081A000188
:103D6000000CA073000AE07372B60121DF4A002044
:103D7000EA32904762B672B60121DC4B090300209B
:103D80006833B269984731210020B268B84762B6FB
:103D9000012054E4D348D34B80799B7902091B0757
:103DA00009201B0FC01A062300215843072A08D0F8
:103DB000032A09D0022A0BD0012A0CD0002A0DD0E8
:103DC0000FE04121C94301E03521C943081A07E04A
:103DD0002321C943FAE71721C943F7E7801D404271
:103DE00041B2C8B27047F3B5C14EC24F8DB005465F
:103DF000002432226B4621460320B04768464088A3
:103E0000A84206D1684601790E98017001200FB0D2
:103E1000F0BDB84204D068460088001984B2E8E7D3
:103E20000020F4E7F3B5B24EB24F8DB00546002442
:103E300032226B4621460320B04768464088A8429C
:103E400008D1241DA1B2012203200E9B00F012F91B
:103E50000120DCE7B84204D068460088001984B22B
:103E6000E6E70020D3E7F3B5A14EA24F8DB005469B
:103E7000002432226B4621460220B04768468178F2
:103E8000427808021043A84205D1684641790E984D
:103E900001700120BBE7B84204D0684600780019E1
:103EA00084B2E6E70020B2E78F4910B55731487871
:103EB000097800020843800603D5FEF7EAF80120DE
:103EC00085E5002083E58C4B184710B504468548EE
:103ED00080680A3000F07AFF0821844B2246673060
:103EE000984774E570B5054672B67E4C01263603D8
:103EF0007E4B31460020A26998477C4A0121002070
:103F0000EA329047A0680A3000F060FFA1690822F9
:103F100067314018294600F01FFF744B00203146DE
:103F20006833A269984762B670BD74490820084793
:103F30006C4948637047F0B56A4C0025A46AE6787E
:103F4000360701D50020F0BD00BF6D1CEDB2642D19
:103F5000FAD3254640356E7CB607FCD400252646AC
:103F6000C036377947556D1CEDB2022DF9D346782E
:103F70000125F709002F08D0F606F60E0E70157011
:103F800042785206D20F1A7004E0B3069B0E0B70F3
:103F900000231370534B0A789B6A801CC033272A76
:103FA0000CD20022C03403E026798654521CD2B2CF
:103FB0000E789642F8D85D720120F0BD5D72C1E7BF
:103FC00010B5027800219207920F464B012A39D092
:103FD000022A0CD0032A33D182780E2A2FD84078B7
:103FE000474BC0069A5CC00E904228D028E0427829
:103FF000D206D20E042A07D9C2788478120222434C
:10400000172A01D8012200E000221A71002A17D0D5
:104010004179027909021143052910D006290ED1F0
:10402000C1788278090211438079354A40000F3205
:1040300080184038C08F814201D0002100E001216A
:104040000846C4E419790029F7D04078C006C00EAC
:104050001728F4D9F1E770B52A4D0024214EA8475E
:10406000F1680919FF310131641CE4B2C873102CE6
:10407000F5D370BDFFB51B4C0200E06981B01E4650
:104080000D4606D0012A06D0022A06D0032A06D001
:1040900009E0001D04E0083002E00C3000E01030C0
:1040A00000F094FE01464D1972B601273F030F4BF5
:1040B00039460020A269984762B6A0693146401986
:1040C000039A00F049FE72B60121084A0020EA3244
:1040D0009047064B002039466833A269984762B67C
:1040E00005B0F0BDB03000208C3E002059530000D8
:1040F000C9280000FFFF0000192200007919000004
:10410000C55E0010FB5F000070B51E46002915D08B
:10411000FE4DAC696B699C4210D205C40846083C50
:1041200001F06EF8FA4AFB4B00F06EFF01F076F8F2
:10413000A0602673002060611834AC6170BD8842B5
:1041400000D308467047002206E00021491C89B2CE
:104150001829FBD3521C92B28242F6D3704710B595
:10416000EA4C60682030017CC9070FD0017C490807
:1041700049000174082000F0CCFA60682030417CCE
:104180000122114341743220FFF7DDFF10BD70B5ED
:10419000DE4C0D46616803462031087CC00706D01E
:1041A000087C4008400008743220FFF7CCFF6268AA
:1041B00020321375180A5075180C9075180ED075AA
:1041C000107CEF2108401074907C400840009074EF
:1041D000D1480560507C012528435074082000F028
:1041E0008FFA60682030017C2943017470BDCEE7EE
:1041F00070B5C64D18212878AE68484369690C1A15
:104200002869801928610020C043A86018E0207B3D
:10421000002814D02069B04204D16068002807D07B
:10422000804705E0801B206102D0A168884201D947
:10423000A0682061A968884200D90846A86018349F
:1042400068698442E3D3A868002805D0411C03D0E4
:10425000B249FFF7CCFF70BDFFF781FF70BDF0B52D
:10426000AA48AF4D416840310B7918464B791B0283
:1042700018438B79CA791B04184312060E79104330
:1042800032464E79360232438E79CB793604324348
:104290001B060F791A433B464F793F023B438F7908
:1042A000CE793F043B4336063343641C904201D130
:1042B0009A4201D0AC42D7D3F0BDF8B50446FFF71F
:1042C000CEFF924A91680B1A13610023884200D9ED
:1042D00013610020C0439060117818204143506959
:1042E0001769411A17E00D68A54202D10B734B61A3
:1042F00010E00D7B002D0DD00D69ED1B0D6102D07E
:104300008E68B54201D98D680D619668B54200D8B6
:104310002E46966018318142E5D39068002805D07A
:10432000411C03D07D49FFF762FFF8BDFFF717FF7F
:10433000F8BDF3B581B00646FFF7BFFF73481822FA
:104340000178456951436C1A714F0FE02068B04203
:104350000BD1A0682061029800F052FF3A466D4BE5
:1043600000F052FE00F05AFFA0601834AC42EDD3CA
:10437000FEBD6649CA688243CA607047F8B5634C9F
:1043800005462078182148436169081A06E002684A
:10439000AA4202D1027B002A3AD118308842F6D3D1
:1043A000FFF75DFFA1680A1A2261884201D9002047
:1043B00020610020C043A060207818216369484331
:1043C000191A0127266919E00868A84203D18868EC
:1043D00008610F730BE0087B00280ED00869801B72
:1043E000086102D08A68904201D988680861024653
:1043F000A068824200D81046A06018319942E3D3E9
:10440000A068002805D0411C03D04449FFF7EFFE07
:10441000F8BDFFF7A4FEF8BDF8B53C4C0546E068D2
:10442000A843E060FFF71BFFA1680A1A22618842D7
:1044300001D9002020610020C043A060217818200D
:1044400063694143591A0127266919E00868A8429F
:1044500003D1886808610F730BE0087B00280ED039
:104460000869801B086102D08A68904201D9886877
:1044700008610246A068824200D81046A060183148
:104480009942E3D3A068002805D0411C03D02349FA
:10449000FFF7ADFEF8BDFFF762FEF8BD1B4918221D
:1044A0000B7853434A69D11A05E00B68834201D166
:1044B000087B704718319142F7D3FF20704770B5E1
:1044C0000D460446FFF75BF9002808D00F48182175
:1044D00004704C43611985614161FFF740FE70BD76
:1044E0000A494A68114620310875030A4B75030CC6
:1044F0008B75000EC8758B7C012003438B744B7C3D
:1045000003434B740B7C03430B740BE0F03000202F
:10451000FCA9F1D24D624040F43E0020F141001070
:10452000FF3F00002032D37CDB07FCD00A7C52081E
:1045300052000A744A7C02434A7470477C484068BF
:104540002030C17CC90708D0417C0122114341744D
:1045500078480068002800D00047704770B5744C58
:10456000064660680D462030017CFD23890700293E
:1045700005DA017C194001743220FFF7E4FD62681E
:1045800020321676300A5076300C9076300ED07687
:10459000107C202108431074907C1840907465486A
:1045A0004560507C022528435074092000F0A8F88B
:1045B00060682030017C2943017470BD10B55C4CEB
:1045C00060682030017C89070FD5017CFD221140F5
:1045D0000174092000F09DF860682030417C0222BF
:1045E000114341743220FFF7AEFD10BD50484068C2
:1045F0002030C17C890708D5417C022211434174D7
:104600004C484068002800D00047704770B5484CBF
:10461000064660680D462030017CFB2349070029CF
:1046200005DA017C194001743220FFF78CFD6268C5
:1046300020321677300A5077300C9077300ED077D2
:10464000107C402108431074907C184090743948C5
:104650008560507C0425284350740A2000F050F8EF
:1046600060682030017C2943017470BD3048082106
:104670004068403041180A7810464A7812021043C8
:104680008A78C978120410430906084370472848FD
:104690000C214068403041180A7810464A781202CE
:1046A00010438A78C97812041043090608437047FA
:1046B00010B51F4C60682030017C49070FD5017C84
:1046C000FB22114001740A2000F023F860682030BA
:1046D000417C0422114341743220FFF734FD10BDA8
:1046E000134840682030C17C490708D5417C04222A
:1046F000114341740F488068002800D0004770477C
:10470000002805DBC106C90E012088400A4908605F
:10471000704700280ADBC106C90E012088400649FF
:1047200080310860BFF34F8FBFF36F8F7047000079
:10473000F0300020F43E002000E100E018B5F6481B
:1047400000680090002069460B5C0A241A09624345
:104750001B070A541B0FD2180A54401C0328F3DB12
:10476000009818BD08B5FFF7E9FF0090684601788A
:10477000C078EA4A401E50430A1868468178E12012
:1047800000014143684640783C23584308181118FB
:10479000E34A1069814201D3081A02E0E14B081A8A
:1047A000C018116108BD70B50D46002802D0DA4E60
:1047B000083E01E0D84E0C3E0024285D0A2100F09E
:1047C000A1FA000101432955641C032CF5DB28469E
:1047D00000F0FCFA30606420FFF7B5FCCE482038CA
:1047E000C17A08221143C17270BD38B5CC4909693C
:1047F0004418CA49204600F085FA421C6846C27037
:10480000E12508462D01294600F07CFA024668465B
:1048100082702946204600F075FA08463C2100F0D7
:1048200071FA0146684641703C21204600F06AFA60
:104830006846017069460020FFF7B5FF38BD38B5FE
:10484000FFF77CFF009068460178C078B34A401EAD
:1048500050430A1868468178E120000141436846C8
:1048600040783C23584308181118AD4BAE485A6A9B
:104870000468914201D38A1A02E0AA4D8A1A521999
:10488000A21802601046596238BD70B500290BD0DD
:10489000A34D6E69AC69B44206D2A16005C4237110
:1048A0000020E0601034AC6170BD884200D308463F
:1048B0007047994920398A7A0F238343887A1A40AE
:1048C0000009000110438872704770B5C00742D0DC
:1048D000934C18216078666848436169081A0A4653
:1048E00003E0037B002B02D118309042F9D38842B9
:1048F00031D2FFF737FFE16860680818E0600020F8
:10490000C04360606178182041436069451A18E02F
:10491000287B002814D02869B04204D16868002898
:1049200007D0804705E0801B286102D0A968884233
:1049300001D9A86828616168884200D9084660608A
:10494000183560698542E3D36068002804D0411CB3
:1049500002D0FFF74AFF70BD0120FFF7AAFF70BD2C
:104960006F498A6882438A607047F8B50446FFF74A
:10497000F9FE6B4AD06072B60021C943516051788C
:10498000182359435369591A002717E00D68A542A7
:1049900002D10F734F6110E00D7B002D0DD00D691A
:1049A0002D1A0D6102D08E68B54201D98D680D6156
:1049B0005668B54200D93546556018319942E5D35D
:1049C0005068002804D0411C02D0FFF70EFF02E01F
:1049D0000120FFF76EFF62B6F8BDF8B5504C0546F2
:1049E0006078182148436169081A06E00268AA4203
:1049F00002D1027B002A38D118308842F6D3FFF763
:104A0000B1FEE06072B60021C9436160617818228E
:104A100066695143711A012719E00A68AA4203D155
:104A20008A680A610F730BE00A7B002A0ED00A69BC
:104A3000121A0A6102D08B689A4201D98A680A6107
:104A400013466268934200D81A4662601831B14238
:104A5000E3D36068002804D0411C02D0FFF7C5FEF4
:104A600002E00120FFF725FF62B6F8BD2C49C861BE
:104A70007047F1B582B0FFF775FE294DE86072B658
:104A80000021C943696069786E691822514300901A
:104A9000741AEF6920E02068B84209D13C210298DD
:104AA00000F030F93C20401A2061012020730CE016
:104AB000207B00280FD021690098081A206102D0BD
:104AC000A168884201D9A06820612069696888428C
:104AD00000D9084668601834B442DCD368680028FE
:104AE00004D0411C02D0FFF780FE02E00120FFF756
:104AF000E0FE62B6FEBD0A4918224B7853434A696C
:104B0000D11A05E00B68834201D1087B7047183148
:104B10009142F7D3FF207047C01000508051010030
:104B20000C310020803A0900A83000207149087833
:104B3000002808D17048C37A01221343C372C37A94
:104B4000DB07FCD10A7070476A49086270476A49FE
:104B50008A7A024310078A7A000F1209120102436F
:104B60008A72704764498A7A1209024310018A7A6C
:104B70001207120F02438A72704770B5054600246F
:104B8000285D0A2100F0BEF8000101432955641C8C
:104B9000032CF5DB284600F019F957492039C86382
:104BA00070BD554A138A401EDB0BDB034004400CEA
:104BB00003431382907C090700090001090F084391
:104BC000907470474C48C17A04221143C172C17A73
:104BD0004907FCD4704747490878012809D146485D
:104BE000C27A02231A43C272C27A9207FCD400200E
:104BF00008707047F3B581B0FFF7EDFFFFF7E2FFF4
:104C000001200021C003FFF7CCFF6420FFF79BFACF
:104C100001216846C1700024847044700470FFF75D
:104C2000ACFF344D07262C616846C6701727877085
:104C30003B244470047069460120FFF7B4FD6846C8
:104C4000C67087704470047069460020FFF7ABFDA2
:104C50000F20FFF787FF0F20FFF72BFE0120FFF744
:104C600076FF02982862FFF761FF2449042008605C
:104C7000FEBD70B50D460446FEF781FD00280BD041
:104C80001C48182144704C43611985614161012021
:104C90001B49C003FFF7AEFF70BD10B51648407A40
:104CA00003071B0F1846FFF75DFF1248016A002932
:104CB00001D01846884710BD0E480078704718B5D7
:104CC000002802D00C48183001E00B48143000686E
:104CD0000090002069460B5C0A241A0962431B07F6
:104CE0000A541B0FD2180A54401C0328F3DB009807
:104CF00018BD00000C310020A010005000E100E0C1
:104D0000CB48001030B50B4601460020202201247C
:104D100009E00D46D5409D4205D31D469540491BEF
:104D20002546954040191546521E002DF1DC30BD38
:104D300070B500242546002801DA012440420029EC
:104D400001DA01254942FFF7DDFFAC4200D04042C5
:104D5000002C00D0494270BD03460B439B0703D093
:104D600009E008C9121F08C0042AFAD203E00B7830
:104D70000370401C491C521EF9D27047D2B201E0A8
:104D80000270401C491EFBD270470022F6E710B5A6
:104D900013460A4604461946FFF7F0FF204610BDA9
:104DA00030B504460020034600E05B1C934203D26A
:104DB000E05CCD5C401BF8D030BD03460A78027041
:104DC000401C491C002AF9D1184670470321001DD8
:104DD000401E037812021A43491EF9D51046704747
:104DE000034603220870000A491C521EFAD51846D1
:104DF0007047F8B502464A40D40F42004B005208B3
:104E00005B089A4202D20246084611464A0023D065
:104E1000C30D4A00DDB2120EAD1A202D35DA49025B
:104E20000126490AF6058A19002C00D05242202199
:104E30004F1B1146B9402A411018C20D9A4221D089
:104E4000002C17D0012D08DCDA05801AD20F80194A
:104E5000D207DBB200F080FAF8BDDA05801A012330
:104E600040001B06C01880185A428018CA0F104311
:104E7000490007E04908C2071143DA05801A801982
:104E80004008801800F060FAF8BD61000122511A54
:104E9000001BF7E70122D2075140AAE70122D207FF
:104EA0005040A6E7F0B507460846584087B0C00F07
:104EB000049048000E46590040084908BC1A884131
:104EC00005D2384631461E4617460B460246580064
:104ED000400810434CD0300D039040055900400D60
:104EE000490D0590401A0290402872DA18030121FA
:104EF000000B09050843019004980092002805D092
:104F0000019952420020884100920190029840216C
:104F10000A1A0199009800F0E3F905460C466B4621
:104F200007CB00F0FEF9C0197141039A0E0D002362
:104F3000D71756401A467A40164344D0049A002A9E
:104F40002DD0029A012A039A15DC1205C01A91414C
:104F500001263605001C7141D20F059ED207009331
:104F6000019202962A46234600F03CFA07B0F0BDB3
:104F700038463146FAE71605224A0F46B218C01ADB
:104F8000B74101210905001C4F4100187F4111461E
:104F900018187941E20F10436D19644113E0E207DC
:104FA0006D0815436408C2071443039A01261205CD
:104FB000C01A91413605001C7141CE0740083043AC
:104FC0004908C01851412A46234600F0FEF9CDE7B2
:104FD000FFE7049801224000C117121A00238B41F9
:104FE00004983146C417381AA141EEE730B40124C1
:104FF000E407634030BC55E730B40124E407614066
:1050000030BC4FE70000E0FFF0B51FB488B00B994B
:105010000998002448400999C00F4900490809919E
:10502000C0070B990090490049080B91099908980D
:10503000A64608431CD00B990A98084318D0099833
:1050400001244000420D4800410D09982405000349
:10505000000B204309900B980003000B20430B909A
:1050600050181C494018002201901446104605E0D3
:10507000002001460DB0F0BD032801DA034600E030
:1050800003239C46C11A0AAE0AE05F0008ADED5B3F
:105090004F00F75B7D430027AA187C41491C5B1E2B
:1050A0006145F2DD410004AB5A522104120C0A435F
:1050B000240C401C0828DFDB019802900099704600
:1050C00001910090059B049A0799069800F08AF9CF
:1050D000D0E700000DFCFFFFF0B50C465C4085B04A
:1050E000E40FE40703944C0000266408590094463A
:1050F000490802460296224321D062460A431ED046
:105100006200570D4A000E032303550D0124024689
:105110002C492405781B1B0B360B401823432643D0
:10512000614600901C46501AB44103D30098401CBD
:10513000009002E0921800985B41002803DA0020FA
:10514000014605B0F0BD002001210905074686464D
:1051500011E064461D46141BB54106D36546521B3B
:10516000B341744607430C43A646CD07400849089F
:10517000284392185B4105460D43EAD11046184377
:1051800013D06046194650407140084306D060462F
:10519000101AB34106D20122002306E000220123A7
:1051A000DB0702E00122D243531000987446010548
:1051B000381C6141029C039D0019694100F005F90A
:1051C000BFE70000FD03000010B500229623114642
:1051D00000F0C2F810BD00000EB5C217C10F50405C
:1051E000CA0740180021054B0293019200910A461C
:1051F0000B4600F0F7F803B000BD000033040000D8
:105200000EB505490291002100910A460B46019115
:1052100000F0E8F803B000BD330400004A000903C1
:105220000123090B1B051943094B10B5520D9A4276
:1052300001DA002010BD064B34339A4203DC9A1A7F
:1052400000F05EF810BD03495118884010BD000001
:10525000FF030000CDFBFFFFC20FD2074000400854
:105260000BD0C10D0723DB01C91840020905400A14
:105270001143C208400711437047002001467047A0
:10528000F0B51FB40646002082B0054640240191C7
:1052900000901BE0019922460F46304600F030F89E
:1052A000049A059B801A994110D31046194622464C
:1052B00000F016F8361A8F4101972246012000218E
:1052C000009F00F00DF838184D4100902046641EF4
:1052D0000028DFDC019B00982946324607B0F0BD6C
:1052E00010B5202A04DB0146203A9140002010BD71
:1052F000914020239C1A0346E3401943904010BD7F
:1053000010B5202A04DB0846203AD040002110BD09
:105310000B46D340D0402024A21A9140084319469E
:1053200010BD10B5202A06DBCB170846203A1041E5
:10533000C1170B4306E00B461341D0402024A21AAC
:1053400091400843194610BD002904DA401C490069
:1053500001D140084000704770B40024050C05D10D
:105360001024000402D1002921D01124050E01D1FE
:1053700000020834050F01D10001241D850F01D161
:105380008000A41C002801DB4000641C002908D018
:1053900020252E1B0D46F540A14000D001212943B8
:1053A000084301061B1B000ADB1D02D5002070BC50
:1053B0007047DB05181880180029F8DA401C4900EE
:1053C000F5D170BC40084000704710B5002B08DADA
:1053D0000024401C614192185B411A4301D14008EE
:1053E000400010BDF0B51FB482B005460C0003D0DC
:1053F000084600F0CFF802E000F0CCF8203002467A
:10540000009021462846FFF76BFF049B059A04464F
:105410000F4618431143084314D0184610431BD0BD
:10542000009840210A1A18460599FFF769FF0546BA
:105430000E46009A05990498FFF752FF084305D0DD
:10544000012004E02046394607B0F0BD0020C11716
:1054500005430E432C43374300990E986305401AC9
:105460007905E40A00220C43FD0A0A3002D5002027
:105470000146E9E70105101969410C9C0D9D0019D1
:105480006941FFF7A2FFDFE74A0009030123090B87
:105490001B0519430A4B10B5520D9A4202DA00203F
:1054A000014610BD064B34339A4203DC9A1AFFF7CB
:1054B00027FF10BD034BD218FFF712FF10BD0000ED
:1054C000FF030000CDFBFFFF10B5002904DB012422
:1054D000E40740428C412146002B04DB1C4601239B
:1054E000DB075242A341994200D1904210BD000017
:1054F000064C0125064E05E0E36807CC2B430C3C27
:1055000098471034B442F7D3FAF7DEFDEC5E001092
:105510000C5F001070B58C180578401C6B075B0F92
:1055200001D10378401C2A1106D10278401C03E007
:1055300006780E70401C491C5B1EF9D12B0705D460
:105540000023521E0DD40B70491CFAE70378401C4F
:10555000CB1A921C03E01D780D70491C5B1C521E77
:10556000F9D5A142D8D3002070BD00000FB410B50A
:1055700004A9074B02AA039800F0FAF8044602A90E
:10558000002000F091FC204610BC08BC04B0184775
:10559000A95E00102021020C01D010211046020A41
:1055A00001D010460839020901D01046091F8208AF
:1055B00001D01046891E420801D0881E7047081A83
:1055C000704730B47446641E2578641CAB4200D228
:1055D0001D46635D5B00E31830BC184702E008C855
:1055E000121F08C1002AFAD170477047002001E05D
:1055F00001C1121F002AFBD170470000F0B51FB493
:1056000086B00998089A030D0021024314D051482E
:10561000514A1818504305141198012810981AD0AF
:10562000281A401C00264D4F4D49009601910490C8
:10563000002812DA444211E01198012449A30128FC
:1056400001D11098C1430698119A84600360C2602A
:1056500041600BB0F0BD4042E4E704462105002064
:105660003F4A001C51410391029012E0E00707D02D
:1056700032463B4601990098FFF7C6FC0191009025
:1056800032463B4610461946FFF7BEFC06460F461B
:105690006410002CEAD10498039B0028029A09990F
:1056A000089806DAFFF7B0FC019B009AFFF7ACFC04
:1056B00005E0FFF711FD019B009AFFF70DFD044681
:1056C0000E460022284BFFF7FFFE03D80020C04300
:1056D000014607E00022254B20463146FFF7E2FB5A
:1056E000FFF7D2FE102409E0002C0ADB0A22002377
:1056F000FFF7C6FD079B30321A55641E02460A4367
:10570000F2D11122641C079B121B1C19119B012B47
:1057100003D0012308430ED10AE0084304D011202E
:1057200010900020119077E71098151A6D1E0BE06D
:105730001098824202DD00236D1C03E0824201DAF0
:1057400000236D1E002BEED0069811998260C16077
:1057500030C07EE701FCFFFF104D00000000144048
:105760000000F03F300000000000F0430000E03F88
:10577000FFB597B00646002518E2252877D100240A
:105780002746FD49049400E00443761C327801204A
:10579000203A90400842F7D130782A280ED00222D1
:1057A000307801463039092916D804990A2359431B
:1057B000303940181443761C0490F1E7189802C859
:1057C00004911890002904DA012040030443484260
:1057D000049002200443761C30782E2814D1042033
:1057E00004437078761C2A2809D11898761C80C842
:1057F000189009E00A214F43303FC719761C3078D2
:10580000014630390929F5D930786C2810D006DCEA
:105810004C281AD068280ED06A2817D104E07428C2
:1058200013D07A2812D110E00120400504430CE087
:105830000121090501E0032109050C43717881422A
:1058400003D1012000052418761C761C30781190B5
:1058500066280BD013DC58287DD009DC00287BD0CB
:105860004528F6D04628F4D047281AD1A5E118E0FB
:10587000632835D0642870D0652812D19DE1702846
:105880006CD008DC6728F1D069287BD06E280DD059
:105890006F2806D1BAE073282ED0752871D07828E9
:1058A00059D01A9A199990476D1C7EE16002400FF9
:1058B000022809D003280DD00428189801680DD0BB
:1058C0000D60001D189070E11898EA1701680D60CE
:1058D0004A60F6E7189801680D80F2E70D70F0E76E
:1058E00018986A4601781172001D189000205072B5
:1058F00002A80090012005E0189802C81890002026
:105900000091C04361070DD5002101E00199491CB8
:105910000191B94212DA8142F8DB009A515C002908
:10592000F4D10BE0002101E00199491C0191814271
:10593000FADB019A0099895C0029F5D10199049854
:105940001A9B471A21463846199A00F097FA01998E
:10595000401945180BE04FE02CE113E04EE00098B1
:1059600000990078491C00911A9A1999904701985A
:10597000401E0190401CF2D1214638461A9B199ACC
:1059800010E137E00A200021009001916002410FF0
:10599000022907D0189A01CA1892C21794460329FF
:1059A00008D00AE01898C01DC108C90005C918919F
:1059B000944607E000B2C2179446042902D140B2CF
:1059C000C1178C4600226146944506DA0A4600213A
:1059D000404291418C462D2102E0210504D52B2126
:1059E0006A461173012103E0E10701D02021F7E7A6
:1059F000029155E00A200AE0102008E010200090F3
:105A00000021042004430191082703E0082000211D
:105A1000019100906002410F022907D0189A01CA33
:105A2000189200229446032908D008E01898C01D57
:105A3000C108C90005C91891944603E080B2042941
:105A400000D1C0B200210291210729D511997029F6
:105A500006D0009A1021019B4A401A4305D00EE05F
:105A600040216A461173012108E06146014306D0D6
:105A700030216A4611731199517302210291009AE3
:105A80000821019B4A401A430AD16146014301D1D2
:105A9000610705D530216A46117301217F1E0291ED
:105AA0001199582904D035A10E910DA90D910DE041
:105AB00037A1F9E76146019B009AFFF7E1FB0E9BD6
:105AC0008C469B5C0D9A521E0D92137061460143E9
:105AD000F0D10D9805A9081A20300190600703D570
