:020000041000EA
:10000000004300202D1C0010351C0010A308001018
:1000100000000000000000000000000000000000E0
:10002000000000000000000000000000391C00106B
:1000300000000000000000003B1C00103D1C0010F0
:10004000000000003F1C0010534F00103F1C001028
:100050003F1C00103F1C001087150010B115001048
:10006000F5470010A5480010994900103F1C0010EA
:10007000051400103F1C00103F1C00103F1C001016
:100080003F1C00103F1C00103F1C00103F1C0010C4
:100090003F1C00103F1C00103F1C00103F1C0010B4
:1000A0000000000000000000000000000000000050
:1000B0000000000000000000000000000000000040
:1000C0000348854605F070FB00480047870700108D
:1000D000004300208307FF22DB0E9A408907090EA8
:1000E0009940002808DB8308F7489B00181803682C
:1000F00093430B43036070470007000F08388308E1
:10010000F2489B001818C36993430B43C3617047BF
:10011000F8B50025EE4800950068FF2120302F46F5
:100120002E462C46017041709F228270CF22C270F1
:1001300001712846012209282CD006DC062829D086
:10014000072827D0082806D124E00F2807D0102838
:1001500005D0152823D0114681400D430C43401C87
:10016000C0B22028E7D3384601F04CF839460020C9
:1001700001F015F83846B04301F0B2F8304601F00E
:10018000C7F82846009901F055F82146002000F0F4
:10019000D3FFF8BD114681400F430E43DFE7114600
:1001A0008140009B0D430C4319430091D7E770B584
:1001B00086B0002069460872072048741920800123
:1001C00048821E20888202A802F005FE684602F0DE
:1001D000F0FD6946BF484E78C6728D780573CC78BD
:1001E00044730B7983734A79C273897901741B3024
:1001F000067145718471C371027241720246142303
:100200001B211B3802F0EDFDB3490120087506B033
:1002100070BD0EB5002802D001280FD106E01020D5
:100220006946C880C8204881002006E05020694601
:10023000C8804B20C00048810A200881C020694640
:1002400008710420487101A803F058FB69464889E9
:1002500000900B89CA88A1A1002001F03DFC0EBDD1
:100260009C4910B50C398878401CC0B288700328AE
:1002700008D3002048700120FFF7CBFFFF2001309A
:1002800004F077F910BD3EB5924C0C3CE278D207F1
:100290000ED001246A461480032555801F259580C1
:1002A000148103460A466946204602F0C5FF3EBD5A
:1002B00000203EBD874A10B50C3A9088401C81B2A0
:1002C0009248918009C8984205D1032903D900209A
:1002D000507004F0CFFA10BDF0B58C4E85B0356883
:1002E0007468A54231D07B4F0C3F7878002807D145
:1002F000012078700020B8808549A32004F08AFA94
:1003000001239B02A54201D32D1B01E0281BC51828
:10031000142D1CD31F466F4900200C3988807D4B5B
:1003200069461A5D641C0A54BC4200D30024401C78
:10033000C0B21428F5D314216846FFF7A4FF0028A3
:1003400003D0143D7460142DE5D205B0F0BD002D2E
:10035000FBD0B8880328F8D30020694608E06D4A2E
:10036000125D641C0A549C4200D30024401CC0B29D
:10037000A842F4D3E9B26846FFF785FF002800D011
:1003800074600020B880E0E7F0B504468DB0401CF2
:1003900004F078FEC11FFF39FA3919D0FF2101316D
:1003A0000027884239D1402000F0CAFF0822611D91
:1003B00003A804F02DFE6846C08915214902884231
:1003C0001AD155A003C8019100900820694621E088
:1003D000802000F0B5FF21460E221531684604F05A
:1003E00017FE1E22611D04A804F012FE04AD0FCDFD
:1003F00000F05CFA0DB0F0BD49498842FAD1684678
:1004000007700197694601A8029700F035FD68461C
:1004100001A9007802F001FFECE72E4E01210C3E0D
:1004200002281BD0394D042829D04A03641C90426D
:1004300048D160792279000210430128DAD1607A2C
:10044000237A020230461A43C078012A31D0884309
:10045000F070080200F05CFF32A190E03170FF20E4
:10046000B770013004F0E6F80120400200F038FFD8
:100470000623A21D31A1002001F03AFBBAE7627900
:1004800032A1002001F028FBF77037706868012462
:1004900064022860204604F06CF8FFF788FE02F042
:1004A000BDFD204600F034FF601000F031FF2EA1AA
:1004B00065E00843F07068682860FF20013000F0B4
:1004C0000FFF5BE05FE0000000E400E000ED00E013
:1004D000583000200C30002000000240736D617223
:1004E000745F706172616D7320696E74657276619C
:1004F0006C3A2578206C6174656E63793A257820B2
:100500007376746F3A25780D0A00000034350020A8
:10051000B5020010343100205359445F5541525404
:1005200001FF000055415254206E6F7469667920B6
:1005300044697361626C6564210D0A00436F6E6EDD
:10054000656374656420616464723A00446973632E
:100550006F6E6E65637465642C7265736F6E3A308E
:1005600078253032780D0A007374617274206164EA
:100570007620402064697363210D0A00EAA10020FF
:1005800001F0AAFA36E70121C903884224D1607933
:10059000217900020843030005F06FF906051416DF
:1005A000181A1C0426E7E6A1002001F095FA684617
:1005B00002F0FDFD684643880288E7A1002001F0B3
:1005C0008BFA17E7EBA1DAE7F0A1D8E7F5A1D6E7B8
:1005D000FAA1D4E7FEA1D2E70121090488420DD196
:1005E00001A802F0E4FD6846008900906846C388CF
:1005F0008288FCA1002001F06FFAFBE60128C1D13E
:1006000002F00CFDF6E6F8B5FE4C207800281BD071
:100610000026FD4D012818D001277F0202281ED098
:10062000032811D12670384603F0A3FFF7A100205C
:1006300001F052FA7D20C00000F0E6FAF7A1002098
:1006400001F04AFA02F0ACFFF8BD00F0F9FAF8A1A7
:10065000002001F041FA022020702E70F8BD2878A9
:10066000401CC0B228702028F8D9F4A1002001F065
:1006700033FA384603F07DFFF8BD10B5F248182173
:10068000006841180A7810464A78120210438A78A6
:10069000C9781204104309060843800214D5EBA15F
:1006A000002001F019FA03F0CAF9002807D1ECA1E3
:1006B00001F012FA012001F07CFE00F05DFFEC4831
:1006C0008022C1781143C17010BD10B502210120F4
:1006D000FFF700FD02210846FFF7FCFC0221032082
:1006E000FFF7F8FC02210420FFF7F4FC02210520AB
:1006F000FFF7F0FC00210620FFF7ECFC02210720A9
:10070000FFF7E8FC02210820FFF7E4FC02210920A2
:10071000FFF7E0FC02210A20FFF7DCFC02210B209E
:10072000FFF7D8FC02210C20FFF7D4FC02210D209A
:10073000FFF7D0FC02210E20FFF7CCFC00210F2098
:10074000FFF7C8FC02211020FFF7C4FC0221112092
:10075000FFF7C0FC02211220FFF7BCFC022113208E
:10076000FFF7B8FC02211420FFF7B4FC022115208A
:10077000FFF7B0FC02211620FFF7ACFC0221172086
:10078000FFF7A8FC10BD72B600F0D2F9FFF79DFF8D
:10079000002002F06AFE01F0E7FD002001F09DFE5E
:1007A000FF20F53003F053F901F0A7FE01F00EF839
:1007B000B0A3B3A2B5A1002001F08EF9B94902207F
:1007C00003F0D9FF00F01EFFB749012004F0ADFB94
:1007D00000F036FFFFF79CFC00F054FE0120B34907
:1007E000400500F0D6FDB24900200860486002F0E4
:1007F00015FC62B6834FAF4DAF4E9D4C03F024F80D
:100800000120400500F0B4FD002812D1E078ABA132
:100810004006400EE070002001F05EF903F00FF991
:10082000012806D1A9A1002001F056F9002001F00D
:10083000C0FD00F067F83878012801D1FFF7E3FE2A
:100840002868002814D0800509D5FFF7DCFE0120B8
:10085000400203F0EAFEA1A1002001F03DF9288842
:10086000C00505D5FFF7FCFCFF20013003F0DDFEDD
:10087000306800280AD0400708D501F03EFE9BA151
:10088000002001F029F9042004F0C6F9E078C0073F
:1008900001D0FFF721FDE0780006AFD402F030FE72
:1008A000ACE796A1002001F017F9FEE70FB4F8B508
:1008B00069464A8B897F06A8022A09D0944B9A423E
:1008C00002D1C01D00F0D3F9F8BC08BC04B0184731
:1008D000774B17241A6862438E4CA154012207E01B
:1008E0008518AE791D6817277D432D19AE54521C0B
:1008F0009142F5D21868401C18603228E4D30020D9
:100900001860E1E7F8B56A4C25686068A84209D02C
:10091000804E00276068A84204D017214843315C0C
:100920008019F9E003E1000055415254206E6F74C4
:1009300069667920456E61626C6564210D0A00006C
:100940007570646174652072737020414343455033
:100950005445440D0A000000696E74657276616C3E
:100960003A2578206C6174656E63793A25780D0AB2
:10097000000000007570646174652072737020520D
:10098000454A45435445440D0A00000075706461B2
:100990007465207273702054494D45524F55540D63
:1009A0000A000000757064617465207273702053D2
:1009B0005543434545440D0A00000000456E616201
:1009C0006C65206C6174656E63790D0A000000002F
:1009D00044697361626C65206C6174656E63790D46
:1009E0000A000000434F4E4E5F5550444154455F4E
:1009F000434F4D503A2025642C2025642C2025643B
:100A00000D0A00003C3000203D3000204F544120B2
:100A100066696E6973680D0A0000000053746172A4
:100A2000742052657365742031303030730D0A00C4
:100A30004F54412073746172740D0A004F54412069
:100A40006661696C650D0A006830002057414B45AE
:100A500055505F50494E20646F776E0D0A000000BC
:100A600055617274456E2874727565290D0A00000F
:100A70000030002031313A32393A35380000000078
:100A80004665622032382032303232005379643881
:100A90003831315F554152542025733A25730D0A80
:100AA00000000000EC3900201C3A00207B060010FA
:100AB000BC390020FC3000201431002057414B4548
:100AC00055505F50494E2055500D0A0055617274C3
:100AD000456E2866616C7365290D0A004556545FA2
:100AE00031535F4F54410D0A0000000052544345FA
:100AF00056545F313835530D0A0000004552523AC2
:100B000020486172644661756C74210D0A00000012
:100B100001FF00003C350020401C00F064F86068D4
:100B2000401C6060322800D2F4E66760F2E6F8BD4F
:100B300010B588B002F084F8012002F03EFB19489D
:100B400002F066FB03216A46117300245473907B04
:100B5000FB228843401C10406A4690731020D073DB
:100B60001474517403A802F016FBC02005900E48BF
:100B7000069005A802F031FB002002F021FDFFF7EE
:100B800016FB6A461470D47001201071507090707A
:100B9000D11D400504F080FA684602F076FC08B0EA
:100BA00010BD00000830002089030010FEB501A927
:100BB000684600F0C7FC002001266A46104901ACD7
:100BC000104DB60213780BE00F68225CEA550A68F4
:100BD000521C0A60B24201D300220A60401CC0B21B
:100BE0009842F1D3FEBD70B50D460646002404E0E0
:100BF000305D00F09CFC641CE4B2AC42F8D370BDE4
:100C000034350020343100200022064B06E000215C
:100C1000491C89B29942FBD3521C92B28242F6D34C
:100C2000704700008C0A000010B5E74B0E241B69CA
:100C30001C70541C5C709870D81C04F0E9F910BD4D
:100C400008B502F03CFD002069460870012216201C
:100C5000FFF7EAFF08BD0022DB49002801D00A7037
:100C60004A704A80CA808A800A81CA607047FEB58D
:100C7000D54D0E4669880024002905D02A78002A1F
:100C800002D06C7000219FE00178032615296DD0F9
:100C90001CDC112935D012293ED0132941D014294A
:100CA00022D1C17982790E0216436E80417A027A8E
:100CB0000F021743EF80801C04F0E4F9E860AC8079
:100CC0002C8133460246C1A1009773E001277F02C1
:100CD00016290AD020294DD0232957D0242903D101
:100CE000801C00F048F92E70FEBD0020FFF791FA3D
:100CF000C3A1002000F0F0FE384603F09BFC012069
:100D000007E00020FFF785FAC1A1002000F0E4FE13
:100D100004202870EC60FEBD801C00F0BFF80520A8
:100D20001EE0871CC01C04F0ADF901463A78BD48AE
:100D300002F095FE0646781C04F0A4F903463878C4
:100D400000903246B8A1002000F0C6FE002E09D067
:100D500068460471012201A91820FFF765FF0620EB
:100D60002870FEBD012069460871F3E7801C00F081
:100D7000CBF8B8E70020FFF74CFAB1A1002000F053
:100D8000ABFE384603F056FC0720C2E7C1798279F2
:100D90000E0216436E80417A027A0F021743EF80EB
:100DA000801C04F06FF9E860AC802C813346024669
:100DB000A8A10097002000F08FFEFEBD435C2C89A7
:100DC0001B19491C2B8189B2B142F7D381071AD074
:100DD00001463246AD4804F01BF92878022806D0B7
:100DE000012804D0082808D0072806D023E0A988C5
:100DF000E868A64A4018314615E0A988E868A34A81
:100E00004018314615E0704BD9689B88CB18022AF0
:100E100006D0012A04D0082A08D0072A06D00AE002
:100E200002463146184602F0BDFC04E00246314657
:100E3000184602F028FCA888801981B2A980688829
:100E40008142BAD32A89E888824204D1002000F086
:100E50004CF88FA103E0012000F047F890A100209A
:100E600000F03AFEEB882A8991A1002000F034FEC0
:100E70000020FFF7F0FEFEBD70B5534C0D46216912
:100E80004A7821461431921C04F0C2F82069407857
:100E9000801C287000206061A06170BD38B50446D8
:100EA00040782178000208430121090388421BD8B9
:100EB000A27882188A4201D9091AA1705949A278E8
:100EC0004018E11C04F0A4F86078217802020A437B
:100ED000A37882A1002000F0FFFD00206946087081
:100EE00001221720FFF7A0FE38BD1CB56B465970D4
:100EF000090A9970DA70110A197118700522694689
:100F00001420FFF791FE1CBD38B504465F48203021
:100F10000179002905D02038006A5C4A400102F0BE
:100F200041FC204604F0AEF8617922790B021343AC
:100F3000024671A1002000F0CFFD204604F0A2F887
:100F4000617922790B02134302460021084602F020
:100F500038FC044602466EA1002000F0BDFD002CC6
:100F600007D000206946087001221820FFF75CFEB8
:100F700038BD0120F6E738B5044604F083F86179FE
:100F800022790B02134302465BA1002000F0A4FD6E
:100F9000204604F077F8617922790902114302F0C2
:100FA00015FC044602465FA1002000F095FD002CD0
:100FB00007D000206946087001221820FFF734FE90
:100FC00038BD0120F6E700003C300020434D445F6F
:100FD00046575F57524954455F5354415254206F0E
:100FE00066667365743A25782C73697A653A257854
:100FF00020636865636B73756D3A25780D0A000090
:10100000434D445F46575F45524153450D0A00002A
:10101000344B53455454494E475F45524153452044
:101020000D0A00004A070020436F64655570646133
:1010300074653D25642025782025780D0A00000080
:10104000464C415348444154415F45524153452029
:101050000D0A0000464C415348444154415F5752E9
:101060004954455F5354415254206F66667365740A
:101070003A25782C73697A653A2578206368656328
:101080006B73756D3A25780D0A000000C439002095
:1010900073656374696F6E204F4B21200000000060
:1010A00073656374696F6E206661696C65212000E9
:1010B0006F74615F726563656976655F63686563B8
:1010C0006B3A2578206F74615F73656374696F6E26
:1010D0005F636865636B3A25780D0A00636D64345D
:1010E0004B53455454494E475772697465202578CF
:1010F0002025780D0A0000006F746120737A3A256C
:101100007820636865636B73756D3A2578200000FD
:10111000436F64655570646174657632303D256453
:101120000D0A0000436F6465557064617465763321
:10113000303D25640D0A0000F0B5CF4C221D9446C9
:10114000002829D0012826D1CC4B002B23D0002009
:1011500001228240114207D01F5C01252668BD4054
:101160002E432660914302D0401C1828F0D318204B
:1011700001252A4682402B46114209D06446064684
:101180002478183EB3401C4363461C70914302D040
:10119000401C2028EDD3F0BDB84B183BD5E7F0B587
:1011A000B54C221D9446002829D0012826D1B34BE6
:1011B000002B23D0002001228240114207D01F5C67
:1011C00001252668BD40AE432660914302D0401CF5
:1011D0001828F0D3182001252A4682402B461142B8
:1011E00009D0644626780446183CA3409E436346D3
:1011F0001E70914302D0401C2028EDD3F0BD9F4BC0
:10120000183BD5E79D4910B530394A681478214616
:101210005478240221439478D378240421431B0674
:10122000194381431170080A5070080C9070080E21
:10123000D07010BD70B5914E303E73681D782A464F
:101240005D782D022A439D78DC782D042A432406FC
:10125000224302431A70140A5C70140C9C70120E24
:10126000DA70F3681D782A465D782D022A439D784E
:10127000DC782D042A432406224302431A70140A00
:101280005C70140C9C70120EDA7008229C18257881
:101290002A4665782D022A43A578E4782D042A434E
:1012A0002406224382431A72100A5872100C987254
:1012B000100ED87208201A18147820465478240288
:1012C00020439478D2782404204312061043084324
:1012D0001872010A5972010C9972000ED87270BD11
:1012E000664910B530398A6814782146547824024A
:1012F00021439478D378240421431B0619430143E6
:101300001170080A5070080C9070080ED07010BD53
:101310005A4910B530398A68147821465478240225
:1013200021439478D378240421431B061943814335
:101330001170080A5070080C9070080ED07010BD23
:101340004E4910B530398A68147821465478240201
:1013500021439478D378240421431B061943414048
:101360001170080A5070080C9070080ED07010BDF3
:1013700042493039C9680A1D1378194653781B024F
:1013800019439378D2781B0419431206114308407D
:10139000704770B5394C1822303C23699D182E785F
:1013A00032466E7836023243AE78ED7836043243F8
:1013B0002D062A4302401A70150A5D70150C9D70A7
:1013C000120EDA7010229D182E7832466E78360290
:1013D0003243AE78ED78360432432D062A438243F9
:1013E0001A74100A5874100C9874100ED8742033A4
:1013F00018784008400018706161012020490003FE
:10140000086070BD10B51D4C1820303C23691918B8
:101410000A7810464A78120210438A78C978120472
:1014200010430906084310215A18137819465378B7
:101430001B0219439378D2781B04194312061143F7
:10144000884318D06069002800D08047216918209F
:101450000A181378184653781B0218439378D278E9
:101460001B041843120610430870020A4A70020C4B
:101470008A70000EC87010BD8010005088300020A7
:1014800000E100E0F8B555480068C17B8909890191
:10149000C91CC173017C89098901091D01742030AF
:1014A0008178DF22114081708378BF210B408370E7
:1014B0004B4C206883785B085B00837003781B09C2
:1014C0001B010833037003785B065B0E037003781F
:1014D0000B400370C37810252B43C3708378042519
:1014E0002B438370857820231D4385708678EF25F4
:1014F0002E408670867880273E43867086780E4020
:10150000867001782940017001781140017081785E
:10151000022211438170C1781943C170062000F086
:1015200054F820688178082211438170F8BD2C4955
:101530000968487008788006FCD50878DF221040DA
:101540000870704738B500226C462270244B1B6827
:101550000DE01C798C546D46521C2C78D2B2641C60
:101560002C702C78641C2C702C78641C2C70DC780B
:10157000E407EED0027038BD19480068C178202217
:101580001143C170704710B5154C20680178C90629
:1015900005D50178EF2211400170FFF707FB2068A5
:1015A0008178890703D5817802221143817010BDAB
:1015B00010B50B4840680178C90605D50178EF22BF
:1015C00011400170FFF7F2FA10BD002805DBC106DB
:1015D000C90E012088400349086070475830002038
:1015E000A030002000E100E00F48FF220168013236
:1015F0001143016070470C480122016852021143F7
:101600000160704710B57D242401FF200023074AA4
:101610002146013002F0D4FE01200023044A214675
:10162000400202F0CDFE10BDFC300020E915001094
:10163000F715001008480422016811430160704743
:1016400010B50023054AB921042003F07AFA0420DA
:1016500003F01FFB10BD00001431002035160010F0
:1016600010B5604C0120206160615FA0A061204640
:101670004830E061012080020021A16220626162A5
:1016800059A0E16220635B48606321641020E1633C
:10169000A063616458A1E01D03F0EBFC57A1204654
:1016A00003F0E7FC2020A07110BDF7B5054682B01D
:1016B00000200090EC6817462869A04201D9061B5B
:1016C00002E0A968201A0E1AA868761E001BB04214
:1016D00000D80646BE4200D33E466868324600192E
:1016E000039903F095FC0098BF1B801900900398A4
:1016F000A41980190390A868A04200D10024EC60CE
:10170000002FD9D1009805B0F0BDF7B50446C768E1
:101710008068E168C51B606816464018B54205D967
:10172000019903F075FCB819E060FEBD2A460199E5
:1017300003F06EFC0198761B41193246606803F095
:1017400067FCE660FEBD70B50E461821484325498A
:1017500014464518E86A1835002804D001280FD02F
:10176000022805D113E0284600F031F8A04201D24A
:10177000002411E0224631462846FFF7C6FF0BE061
:10178000284600F024F8A042F4D20446F2E731469D
:101790002846FFF78AFF0446204670BDF8B5074685
:1017A0001048154600780E46002801D1FFF758FF73
:1017B000EFF31084012080F310882A463146384622
:1017C000FFF7C1FFE1B281F31088F8BD48E7026975
:1017D000C1688A4203D88068401A801800E0501A15
:1017E000401E7047343A00205465726D696E616C1A
:1017F000000000007C3E00205254540053454747EF
:101800004552000010B5044680686368421C93424C
:1018100005D323681954A260E068401CE060A26808
:101820006068824209D121682069FFF7B7FFA1688B
:10183000884203D00020C043E06010BD0020A060BB
:1018400010BDFFB581B001261F4635460A9C02989F
:1018500002E003F0B3FB6D1C03998842F9D2AF425A
:1018600000D93D460B98C00718D1002C16D00B9814
:10187000800701D5002F02D0202000900CE03020FE
:10188000FBE7641E00990198FFF7BCFF0198C06850
:1018900000283DDB002C01D0A542F2D30198C0689E
:1018A000002835DB012F01D97F1E06E03146029862
:1018B00003F084FB0399884202D303984643F1E77F
:1018C000D24F3146029803F079FB0146029A7143E8
:1018D000511A0291395C0198FFF794FF0198C06892
:1018E000002805DB3046039903F068FB0600E8D1C9
:1018F0000B98C0070CD0002C0AD0A54208D220219A
:10190000641E0198FFF77EFF0198C0680028F2DA94
:1019100005B0F0BDF7B59AB007A80290402003903B
:1019200000200C461A991546049008260691059049
:101930002178641C00296ED0252907D002A8FFF762
:1019400061FF05980028F3DA1DB0F0BD01220020E8
:1019500013460227217823291BD02B2916D02D29A5
:1019600002D0302906D101E0184300E03843641C5E
:10197000002AEFD1002122781346303B0A2B0AD2ED
:101980000A23594389183039641CF4E704210843B9
:10199000EDE73043EBE70023D7B22E2F0AD1641CCA
:1019A00022781746303F0A2F04D20A277B439B1820
:1019B000303BF4E76C2A0CD0682A0AD0662A3FD064
:1019C0000FDC582A30D007DC252A6FD0462A71D187
:1019D00036E06278641CEDE7632A0BD0642A69D193
:1019E0000DE0702A57D0732A46D0752A14D0782A71
:1019F00060D119E02868011D2960017857E02A6844
:101A0000171D2F601768009101900A22394602A81D
:101A100000F098F84EE04FE02A68171D2F60176815
:101A20000A220091019006E02A68171D2F601768AE
:101A3000102200910190394602A8FFF702FF39E019
:101A40000020179018901990286817AFC01DC00883
:101A5000C0000146083129600CC86DA1384603F06A
:101A6000E1FE39787F1C002924D002A8FFF7CAFEC6
:101A700005980028F5DA1DE02868011D296007682F
:101A800039787F1C002915D002A8FFF7BBFE059806
:101A90000028F5DA0EE028680823011D2960016896
:101AA0000020102200960190C6E7FFE7252102A83A
:101AB000FFF7A8FE641C44E7002800DC44E7049814
:101AC000002804D0024607A91A98FFF767FE049978
:101AD00005984018059037E70FB408B504A90091A0
:101AE0006A460399FFF716FF01B008BC04B0184717
:101AF000FFB5002481B01D461646002902D001988A
:101B0000FFF7EAFF01277F0713E0600704D1A2B2C5
:101B100041A10198FFF7E0FF325D41A10198FFF775
:101B2000DBFF6007F84203D13FA10198FFF7D4FF24
:101B3000641CAC42E9DB600703D03BA10198FFF7CE
:101B4000CBFFE5E6FFB583B00E4670420D9F0C9CBF
:101B50000090002900DB0846012502E003F044FA6A
:101B60006D1C05998842F9DA0698A84200D9054605
:101B7000002C04D0002E01DB780700D5641EB807C6
:101B800002D50698002810D0F8070ED1002C0CD0F2
:101B9000A5420AD22021641E0398FFF733FE039862
:101BA000C0680028F2DA07B0F0BD0398C0680028CA
:101BB000F9DB002E02DA2D21009E02E0780707D51E
:101BC0002B210398FFF71EFE0398C0680028EADB6C
:101BD000B807800F022810D1069800280DD1002CDC
:101BE0000BD0A54209D23021641E0398FFF70AFEEC
:101BF0000398C0680028F2DAD5E7019700943146CF
:101C0000069B059A0398FFF71CFECCE76A6100105B
:101C100025342E33660000005B253034785D2000CB
:101C200025303278200000000D0A0000044880476B
:101C300004480047FEE7FEE7FEE7FEE7FEE7FEE7B3
:101C4000491C0010C100001002490148086070479B
:101C50000024F400AC300020F1B5F8488047074676
:101C6000F74880470646F54C0120183CA047F44D44
:101C700000200C35A847F349009888473046A8470C
:101C80003846A047F8BDF0B5EF4DF048E96885B09B
:101C90000818044603F0F6F92146401C03F0FCF94D
:101CA0000024E9480125C668E8480C38311803913A
:101CB000487C097C00020843A540284202903BD0A2
:101CC0000B2060438119E148009109300818019008
:101CD00003F0D8F90746DD48301803F0D3F98742FE
:101CE0002AD10F21009889014018007D00280CD0CE
:101CF000D64A00990D3A8A18517D127D0902114386
:101D00007818019903F0C8F905E002980399A843EF
:101D10000874000A4874CD4800990D30081803F083
:101D2000B1F9002808D0022D19D0042D17D0082DA4
:101D300015D0102D1AD08047641CE4B20A2CB0D301
:101D4000C148C168C1480C380918487C097C0002A8
:101D50000843800501D1BE48804705B0F0BDBD49AC
:101D6000012088470028E7D0222005E0B94901205A
:101D700088470028E0D03B20FFF76EFFDCE710B576
:101D8000B14912200969887072B60121B04A032056
:101D9000B43A904762B610BDFEB5002168460171A5
:101DA0000170AD4F0172AD4EA74CB847A07102ABA8
:101DB0006A4601A9606902F00AFA00284ED008209C
:101DC000B047002803D00220B04700280FD0684653
:101DD0000078012811D0E0686569407A01283ED07A
:101DE0000228E2D19E4AA17928469047DDE70121E9
:101DF00068460170007A00282DD02521E06849014D
:101E00004118497B6569002908D09049D4314118AF
:101E1000487B097B0002084392498847284602F024
:101E200029FA0028C1D068468D4A01799632606946
:101E300090472878C0438007B7D1A8781228B4D13A
:101E400021691320887072B60121814A0320B43AB7
:101E5000904762B6A9E73D20FFF7FEFEFEBD287859
:101E60000007000F0528A0D1687E297E00020843E4
:101E7000062805D3687F297F000208430A2803D279
:101E800070491220884790E77349EE31A81C8847B3
:101E9000287887224006C10FE06811540622A91C49
:101EA000883003F0B5F83721206903F0CAF87CE7E1
:101EB000F0B5684999B00420884700280ED06549DC
:101EC00004201A31884762491F20AC318847664890
:101ED00080471620FFF7C0FE19B0F0BD6348804769
:101EE000002810D0584DEC68A1790807F4D5E079A6
:101EF000C2071CD05E49204698308847E868C179FF
:101F0000490849001FE0594E574F574DB2361C370C
:101F10006C46103507E06846B0470128DCD16846BA
:101F20000178601CB847A8470028F4D0D4E782079E
:101F30000BD54F4A20461C328E30811C9047E868F2
:101F4000FD22C17923E0C171C6E7420708D548499F
:101F500020466031A8308847E868FB22C17916E046
:101F60000207F726002A09DA414A21464232A07ABE
:101F70000B319047E868C1793140E4E7C00608D5E5
:101F80003B4968467C318847E868EF22C1791140B7
:101F9000D9E720463140FF30A1712130017D002674
:101FA000002910D006752146072287310CA803F0BE
:101FB0002FF821460DA82A228E31033003F028F88D
:101FC0002C490CA8884701206946087048708E701B
:101FD000E96800A82A2203308E3103F019F82D2277
:101FE0000821254C6B460020A04775E716490128BB
:101FF000896A0FD0022811D0042812D0082813D0E3
:10200000102814D0202815D0402837D0802839D067
:10201000012070478878C007C00F70478878800714
:102020002EE0887840072BE08878000728E0887841
:10203000C00625E08878800622E00000BF65000029
:10204000776A0000CF160000B0300020CE030000F9
:1020500001120000F50A000049570000791900003C
:102060008B1E00002B620000BD600000054E0000CA
:1020700027260000DF470000A13E000088784006C8
:10208000C00F70478878C009704710B501780129E2
:102090001FD1401C02F0F6FFFE4A10283AD00DDC9A
:1020A000012817D002281DD0042823D0082810D1D9
:1020B000FFF79CFF00280CD1F74809E0202839D011
:1020C000402806D1FFF792FF002802D1F248543091
:1020D000804710BD0120FFF789FF0028F9D1FFF7E5
:1020E000E7FE10BD0220FFF781FF0028F9D1FFF7BE
:1020F00053FE10BD0420FFF779FF0028F9D1D06806
:10210000407A012803D00228F3D1E448E0E7E3480D
:10211000AE38DDE71020FFF769FF0028E9D1906AAB
:102120002030407D400701D53E2000E00820FFF729
:1021300093FD10BD2020FFF759FF0028F9D1D648A4
:102140004830C5E770B510250826D24C002821D0AC
:10215000A06A817E31438176014660310A7E6378D0
:1021600052095201DB06DB0E1A430A762030427B0D
:10217000067B1302E26833432332547C167C22022E
:102180003243934214D00273120A4273C87D28432B
:10219000C8750DE002F008F8A06A0022014620315F
:1021A0000A734A736030C17D2943C175BC48067704
:1021B000012070BDB748C0682330417C027C080212
:1021C00010430BD0B74948780A7800021043032225
:1021D00010430870000A48700120B3E7704730B41C
:1021E000B14CA44630BC6047F8B5AE48407A000612
:1021F00063D5A848C66830462330417C007C0F0276
:10220000A84907434878097804020C43002F01D1FC
:10221000600752D5A34DA87B697B00026D1C084363
:102220004BD0002F49D068792979000208432ED17C
:102230002136707C317C0002084303F03DF9002216
:102240009A4B03F03DF803F045F980B278436421DE
:1022500002F0CAFE4004010C2971080A68710A20C4
:102260004143707D327D00021043814206D30A2132
:10227000401E02F0B9FE2871000A68716879297958
:102280000002084303D101202871002068718548AD
:10229000A10709D502218C4301210C430470210AB6
:1022A00041700020FFF74EFF68792A79010211433F
:1022B0007F4B00224020FFF792FFF8BD1CB5794903
:1022C0004A7A002A40D04A780B7812021A43D30681
:1022D0003AD44378047818022043012834D1C878CE
:1022E000401E0006000EC8702FD08B780846017B78
:1022F000C47A0A022243017AC47909022143C01C2C
:10230000012B2AD0521A0272120A42721206037A62
:10231000120C1A43521A69460A80427A017A12064E
:1023200012140A4369464A805E498A7B497B12023D
:102330000A4369468A80417B027B08021043694652
:10234000C8805C49684688471CBD887AC8704020B0
:1023500002430A70100A48701CBD5218D3E7564A4F
:102360001047554A2032104738B5002469460C7092
:1023700021467F20FFF7F5FF00213B20FFF7F1FF0B
:1023800029213B20FFF7EDFF69463B20FFF7E7FFE0
:1023900068460078800701D5012038BD641CA4B2CE
:1023A000FF2CF1D9002038BD10B5444880470120EA
:1023B00010BD10B53749424A8870002807D1C86857
:1023C0008078022803D000209047012010BD012012
:1023D000FAE710B52F4C0128E168887004D0002876
:1023E00031D0022846D073E0206B014620300278BD
:1023F0005208520002700278FD231A4002700878D9
:10240000800980011C3008704878800980011C30E8
:10241000487000217F20FFF7A4FF03212120FFF750
:10242000A0FF1F210320FFF79CFF02217F20FFF761
:1024300098FF01210020FFF794FF00217F20FFF784
:1024400090FF0F2141E000217F20FFF78AFF00214C
:102450000420FFF786FF02217F20FFF782FF002183
:102460000846FFF77EFF00217F20FFF77AFF00215B
:1024700003202BE002217F20FFF773FF03210020C0
:10248000FFF76FFF00217F20FFF76BFF0021032084
:1024900018E00000B0300020791600002715000079
:1024A00020000240E33E0020AB4400000000F43F67
:1024B000B521001033420000C5610000074700004D
:1024C000A7650000FFF74DFF00210420FFF749FF3B
:1024D000A078FFF76EFF012010BD10B5FFF779FF60
:1024E000012010BD10B5F6488047F648C06A017A51
:1024F000DF2211400172012010BDFEB5F248804775
:10250000F04C0190E06A817A007ACF07FF0F002635
:10251000C506EE49ED0E48780978000208438006AA
:1025200008D5A06A2030417B027B0802104301D00D
:10253000FFF75AFEA80702D00126FFF7D3FFE148B4
:10254000C06A817A490849008172DF49012018393F
:1025500088470220FFF73DFFDD49642088470024BB
:1025600069460C70254601217F20FFF7FAFE002105
:102570000A20FFF7F6FE22210A20FFF7F2FE694645
:102580000A20FFF7ECFE684600784007EFD4694662
:102590000A20FFF7E4FE68460078400705D5684644
:1025A0000078000706D4012504E0641CC948A4B2E1
:1025B0008442ECD3C649642088470020FFF709FF16
:1025C000C149019818398847BE48C06A817A4908CC
:1025D000490039438172002E02D0B9480C38804737
:1025E000002D01D00120FEBD0020FEBD10B511213F
:1025F000B64802F026FD10BD70B50446401C02F03E
:1026000041FD022818D0042819D00121490488422C
:1026100047D125462035687B092301070209090FA8
:102620000020072A1CD0032A20D0022A25D0012A04
:1026300029D0002A2DD032E0FFF7D8FF3AE0A14D93
:102640000121E868FF302130017501F05EFEE86885
:102650008078002801D1FFF750FFFFF785FE29E0C1
:10266000581A062148434121C94304E0581A06215B
:1026700048433521C943081A10E0581A0621484337
:102680002321C943F7E7581A062148431721C943B4
:10269000F1E7581A06214843801D404240B2687352
:1026A00008E040281DD00121C903884202D1601DE5
:1026B000FFF704FE85494878097800020843800640
:1026C00007D5601C02F0DEFC0005000F01D0FFF70B
:1026D0008BFD7C483C3002F0D5FC01462046884703
:1026E00070BD7848383002F0CDFC4006E2D570BDB0
:1026F000F0B5744C0646E0688DB0FF302130407C68
:102700000D46002829D0002D26D072B6A0681830BA
:1027100002F0B8FCE1683222FF312131897C6E4B36
:10272000514340186A463221984762B6002E04D0C1
:10273000E068FF302130807C3070E7680A21FF3785
:102740002137B87C401C02F039FCB974E078401C99
:10275000C0B2E0700A2802D900200DB0F0BD684672
:1027600000780128D1D100A907222846013102F0C2
:102770004FFC2A22E81D02A902F04AFC0120ECE7E6
:10278000F0B5054655498DB0202088474D4C0426AC
:10279000E16820690F4686700822C01CC931BD3728
:1027A00002F036FC2069042239460B3002F030FC7E
:1027B0000D214B4A03209047E068294608220A3140
:1027C000C13002F025FCE068294604221231B930FC
:1027D00002F01EFC287A434F002802D1687A0028B4
:1027E0001FD00020E070E0682A7A01468030837BA9
:1027F0009A420AD16A7AC07B824206D108222846D0
:10280000903102F029FC002817D069460020FFF71C
:102810006FFF012826D006220021334B0120984764
:102820009BE7E06802228179114302468171C1323F
:10283000FF3011461030B84710E0E0688179024659
:1028400031438171C13211469830B847E068803019
:102850008079012802D12149022088472248A030EE
:1028600080477AE7E06801A92A228E30033102F01E
:10287000CFFBB8E77CB5451C807829780002084377
:10288000104C022810D00F2810D001211D2810D084
:10289000FF3810280DD0154A694601209047687806
:1028A00029780002084302E0032000E00220607162
:1028B0007CBD61717CBD0348407970470C49084775
:1028C00013470000B0300020BF650000E33E002049
:1028D0002B620000FFFF000059530000050B0000B1
:1028E0004D11000019220000D91900001F1D000021
:1028F000B34400001CB5FF4808210170002141705D
:10290000017BC27A0902C01C114341D0427903798C
:1029100012021A43891A0BB26A461380417A027A6C
:102920000906091411436A46518019220624D2016E
:10293000062B02DA6B461C8003E0934201DD6B46F6
:102940001A80062902DA69464C8003E0914201DDD3
:1029500069464A80417B027B080210436946C88071
:10296000E448817B427B0802104369468880E24844
:10297000C0682330417C027C0802104302D0002052
:10298000FFF7E0FBDD4968468847DD49402088477E
:102990001CBDD84948780A7800021043C2050CD5FE
:1029A000FF22013290430870000A48700879401EE7
:1029B0000006000E087109D09CE720221043102267
:1029C0009043042210430870000A48707047FEB517
:1029D000C84D0446687829780002084300077DD571
:1029E000C848804769782A78090211430822914330
:1029F00029700A0A6A706B7A064628461A066ED54E
:102A0000A27967791202651C3A43BB4FE41C002A85
:102A100077D01022114301700A0A427088065ED4F2
:102A2000687929790002084332D002F045FD01910E
:102A30000090607821780002084302F03DFDB24C1E
:102A40000022234602F03CFC019B009A02F038FC75
:102A500001910090F8682130417C027C080210430B
:102A600002F02AFD0022234602F02AFC07460C460B
:102A7000687A297A00020843801B02F009FD3A4671
:102A8000234602F01DFC019B009A02F067FB24E044
:102A9000607821780002084302F0F2FC0446F868EE
:102AA0002130417C027C0802104302F0E9FC2146FF
:102AB00002F0FBFA02F02CFD0022934B02F000FC26
:102AC00007460C46687A297A00020843801B02F008
:102AD000DFFC3A46234602F0F3FB02E06EE064E0DE
:102AE0000FE00022894B02F053FC02F0F3FC0104DA
:102AF000090C00D10121864B00228020FFF76FFBDB
:102B000053E09A0651D58278012A4ED18A064CD4D8
:102B1000FF227848013211430170090A4170607840
:102B200021780002084373490A7BCB7A11021943CA
:102B300088423AD902F0A4FC0446F8682130417C6E
:102B4000027C0802104302F09BFC214602F0ADFA21
:102B500002F0DEFC00226C4B02F0B2FB07460C4692
:102B6000687A297A00020843801B02F091FC3A46F9
:102B7000234602F0A5FB0022644B02F009FC02F0A0
:102B8000A9FC0104090C00D10121614B0022802025
:102B9000FFF725FB57484178027809021143FF22CD
:102BA000013211430170090A41700320694608810E
:102BB00002229103574C02AB0020A047FEBD10B586
:102BC0000446007800280DD1A178627808021043ED
:102BD00009D001281ED0032827D00C2802D1201D9F
:102BE000FFF748FE10BD01F0DFFA4B49201D884772
:102BF000002802D12820FFF72FF8201DFFF7E7FE5D
:102C00003D480121C368062209040020414C3133AC
:102C1000A04710BD01F0C8FA4049201D8847002890
:102C2000F7D12820FFF718F810BD201DFFF7A8FDE9
:102C300010BD10B50078012801D1FFF724F810BDB0
:102C4000F0B5374885B0804701217F20FFF789FB29
:102C500069465020FFF783FB68460078042801D0BE
:102C600030488047FFF780FB234CE06880780128DC
:102C70006DD002287ED0FFF740FC012568464580D4
:102C8000058029481E49019068468439884768466E
:102C9000057045700025458024480190244BE0686C
:102CA00008226946C01802F0B3F9164E01214020EF
:102CB0005E3EB04701218020B04701212020B0476F
:102CC000FF210C31684601800B2141808580C58041
:102CD000058145818581C58116480490164968465D
:102CE0008847A0680A3002F0CDF9024A134B573AE0
:102CF000572126E0E33E0020B030002033420000A0
:102D0000B3440000BF5500000000F43F00005940EC
:102D100093290010A13E00005D5B0000475F0000AA
:102D2000793D0000F7460000332C00108B20001086
:102D3000CE020000BF2B00108D430000595300004D
:102D400005E0984701F0E1FA012005B0F0BDFE482A
:102D500080470746E06A817ACD07817AED0F4908FE
:102D600049008172F84E0120183EB0470220FFF75B
:102D700030FB00E00EE0F549642088470120FFF7B2
:102D800028FB3846B047E06A817A49084900294360
:102D9000817272E70220FFF71CFB6EE710B5EC486A
:102DA0008047012010BDEA4910B51E318847012037
:102DB00010BDE74910B554318847012010BDE449E2
:102DC00010B560318847012010BDE14910B56E3162
:102DD0008847012010BDDE4910B57E3188470120AB
:102DE00010BD10B5DA4CE634A047012010BDF8B58F
:102DF000D84CD949E0683730884720693B230178AF
:102E0000BF250A09E16812015B5C1B071B0F1A430F
:102E100002701207120F012A79D00B4640335A78FC
:102E20001B7812021A430B4642331A70120A5A7068
:102E300002788B7A2A409B011A435206520E027086
:102E400066235B5C42789B1D92099B0692019B0E58
:102E50001A4342700622801C0B3102F0D9F8E16857
:102E60006620425C002A04D020696731083002F0F5
:102E7000CFF8E0680021203041772069B74A4178D7
:102E80008906890E891C9047206901780A09120178
:102E9000121D0270E1682A408B7ADB075B0E1A4331
:102EA000027046235B5C42789B1D92099B0692014F
:102EB0009B0E1A4342700622801C0B3102F0A8F8C8
:102EC000E1684620425C002A04D02069473108307E
:102ED00002F09EF82069A14A41782C328906890EB9
:102EE000891C9047E068012705462035E97E0129C5
:102EF0003BD000294CD002294AD0062948D00023D3
:102F0000974C1A4601211846A047F8BDFFE70A462C
:102F10004032137953718B7A0278DB072A405B0EBB
:102F20001A43027087235B5C5206520EDB011A4380
:102F3000027042780B31920992010C3242700622E3
:102F4000801C02F065F82069E168062208308831AB
:102F500002F05EF8E16803223D2042547E4A872059
:102F6000405C323A8831904787E740304179002908
:102F70000AD028200621A26A937EFD24234093765E
:102F800017756B7F2A7F43E0477101200146F2E706
:102F900006464236717832780B02134317D0192156
:102FA00089014B432230417F047F080220430122E4
:102FB0008004800C009006D00146184601F0FEFF08
:102FC000421C7F2A10D8D4B23770380A14E0377008
:102FD000390A71702230417F027F080210430124B8
:102FE0008004800C009008E07F24104621467E304B
:102FF00001F0E4FF3070000A70705648806A817EEC
:1030000002221143817607756B7F2A7F0099204643
:10301000544CA04753483E30804776E710B5FFF741
:10302000E6FE012010BD10B54F4903200870474946
:1030300064201A3188474D488047012010BD72B680
:103040000021444A906A4175037C01210B430374BB
:10305000D06845221154423001700021417062B69F
:103060000120704710B542498847012010BDF0B5D6
:10307000384CA56A2C4660342678FD27C0073E40B0
:10308000800F06432670A170627062352B71180A9A
:10309000687105982071000A6071F0BDF8B52D4D7A
:1030A0002D49E868373088471120EF6800248001F7
:1030B0003D186E79A8790321401C01F07FFF0120A3
:1030C0008840A971064203D1641CE4B2032CF1D3F9
:1030D0001125AD017C19607B217B00020843A91CEE
:1030E0007F18010A1B4E3873797300280BD0607A61
:1030F000227A010219201143800101F05FFF0206CC
:10310000120E04D004E001203873002078730122ED
:10311000787A397A000208430090607A217A0302B3
:103120000B43A0791349095CE079FFF7A0FFF06831
:10313000002140190171C170017441748178002926
:1031400001D008291AD917E0BF6500002B620000E2
:10315000833D0000B0300020B1570000D96000006E
:10316000A13E00005F56000000000240074700003B
:10317000014100007A61001008218170F948804700
:10318000C3E610B5FFF78AFF012010BD10B5F64861
:103190008047012010BDF44910B50831884701204F
:1031A00010BDF14910B516318847012010BDEE4918
:1031B00010B578318847012010BDEC4948700120D6
:1031C0007047E94910B586318847012010BDE64AAD
:1031D00010B58E329047012010BD7CB5054601F038
:1031E00051FFE2490446383101F056FF281D01F035
:1031F00049FFDE493C3101F04FFF40208443DC4869
:10320000D9490190009468469631884701207CBDD9
:1032100010B5D8498847012010BDD64A10B50832EC
:103220009047012010BD10B5D3488047022801D92E
:10323000002010BD012010BDF8B50E46CF4907464D
:1032400048780978000208431C461546800609D5CF
:10325000C648806A2030417B027B0802104301D0BF
:10326000FEF7C2FFC6490120884700280CD0C2489B
:103270008047022809D972B62346BE4C2A463146F9
:1032800038461834A04762B63FE600203DE6BD4907
:10329000084710B50446BA4901208847002803D0E2
:1032A000B84920460831884710BD70B50546B44A74
:1032B0000C4601209047002804D0B24A21462846F7
:1032C0002232904770BDFFB50F4681B0AC491D4614
:1032D000164601200A9C8847002807D00094A94C74
:1032E0002B463246394644340198A0472DE5F8B5BF
:1032F0000E460746A2491C4615460120884700286D
:1033000006D023469F4C2A46314638467C34A04797
:10331000FBE510B504469A4901208847002803D0F0
:1033200098492046AC31884710BD70B50546944A8F
:103330000C4601209047002804D0924A2146284696
:10334000C632904770BD70B505468D4A0C460120C7
:103350009047002804D08B4A21462846E8329047FF
:1033600070BDF8B50E46074685491C461546012036
:103370008847002805D02346834C2A4631463846E4
:10338000A047C2E570B50D4606467D4914460120AA
:103390008847002805D07C4B2246294630463033EA
:1033A000984770BD70B50D46064675491446012014
:1033B0008847002805D0744B2246294630465C33A6
:1033C000984770BDF8B50E4607466D491C46154630
:1033D00001208847002806D023466B4C2A463146F8
:1033E00038468834A04790E510B50446644901206A
:1033F0008847002803D064492046B831884710BD6B
:1034000010B55F4901208847002802D05E48CC30C3
:10341000804710BD70B5554D0446082804D0E868B3
:10342000407808280DD014E000217F20FEF799FF96
:1034300001214020FEF795FFE86A0178C908C9001C
:103440000EE000217F20FEF78CFF00214020FEF7D8
:1034500088FFE86A01786207C908C900520F114362
:103460000170E8684470012070BDD3E710B50446D0
:10347000464880472070012010BD10B504464348DF
:10348000801D80472070012010BD404910B51C31BF
:103490008847012010BD3D4810B57230804701209B
:1034A00010BD3B4800473B4908473A491A31084795
:1034B00008B53949684688476846C0788007C00F14
:1034C00008BD08B53449684688476846C078C009D1
:1034D00000D0012008BD10B5FEF741FF10BD10B5AA
:1034E000FEF73FFF10BD2148806AC07B052805D04C
:1034F000062803D00F2801D0002070470120704714
:1035000010B5FFF7F0FF002802D120485230804765
:10351000012010BD10B515490122886A4275437C0F
:10352000DB09DB019B1C4374931E83741B0AC37469
:10353000C96ACB7AEF242340CB724B7B93434B7306
:103540008B7A13438B72817E022319438176017C2F
:10355000114301740F4905201A3188470F488047ED
:10356000012010BD255700001D420000B030002092
:10357000F92500102D4300002B4E0000E33E0020F3
:10358000F50A0000B73A0000BB3B00009F44000072
:10359000FB5F00002B6200004D650000E546000067
:1035A00010B5F84880470120DBE710B5F649884799
:1035B0000120D6E7F44910B5183188470120D0E73B
:1035C000F04910B5463188470120CAE7ED499A31E4
:1035D0000847EC4910B5E83188470120C1E710B52C
:1035E000EA4880470120BCE7E84810B5183080471A
:1035F0000120B6E7E54BA2331847E44BD833184710
:10360000F8B50746E248002680680D463446283063
:1036100001F038FD2903C9194118DD48406B81428A
:1036200011D9002071E472B6D9488068283001F0C1
:1036300029FD2103C9194018D64A012190470646A1
:1036400062B6641CE4B2AC42EDD330465DE4F8B53A
:10365000CF4D0446A86817460E46283001F012FDEB
:103660000146A21980186A6B90420AD8002908D036
:1036700072B60819C74B3A463146EA3B984762B6DC
:1036800043E4002041E4F8B5C14D0446A86817465C
:103690000E46283001F0F6FC0146A21980186A6B2C
:1036A00090420AD8002908D072B60819B94B3A4698
:1036B0003146823B984762B627E4002025E470B586
:1036C000B54800240078B34EB14D00280DD0012834
:1036D0001ED024E072B6143001F0D4FC210340184F
:1036E0000121B04762B6641CE4B2A868C17B827B4A
:1036F00009021143A142EDD811E072B6103001F079
:10370000C1FC210340180121B04762B6641CE4B239
:10371000A868C17B827B09021143A142EDD8012038
:1037200070BD70B504460D46000B4219984880687C
:10373000C17B837B090219438A4201D9002070BDF5
:103740009549944E0978002902D0012903D00AE056
:1037500072B6143001E072B6103001F093FC00191B
:103760002946B04762B6012070BDF8B504468A48C4
:103770000F4601788648874D8068823D16460029AD
:1037800002D0012903D00BE072B6143001E072B60A
:10379000103001F077FC001932463946A84762B66E
:1037A00001203AE430B47A4B9C68E37BA47B1B0293
:1037B00023431B03834202D230BC0020704730BC3D
:1037C000D3E730B4754CA44630BC6047F3B57048BD
:1037D00089B080680024283001F054FC074609981D
:1037E0004609002511E072B668016A4BC019202114
:1037F0006A46EA3B984762B6002069460A5C401C6C
:10380000121994B22028F9D36D1CB542EBD3099854
:10381000C606F60E72B6314668015E4BC0196A469E
:10382000EA3B984762B60020694603E00A5C121939
:1038300094B2401CB042F9D30A98844202D10120CC
:103840000BB0F0BD0020FBE7F8B54E489C38804730
:10385000514C5734607A002840D0000604250028D7
:103860000FDA6078217800020843400709D5FEF797
:10387000BBFC6078217800020843A8432070000A4E
:1038800060706078217800020843454F454E41063C
:103890000CD5402188432070000A607002206946E0
:1038A000088002466B4639460020B0476078217890
:1038B00000020843C10711D0400840002070010AEF
:1038C0006170800702D56846058002E005206946E0
:1038D000088002226B4639460020B04750E4324847
:1038E000004738B52A4C2078002805D1264968467B
:1038F0007E39884701202070012038BDF8B5027854
:10390000002A70D0244957314A7242788A72002ABC
:1039100001D0042A01D904228A72C2788478130261
:103920001D4A23435732D3721C0A14734479057914
:1039300024022C4315466C73240AAC73C479857930
:1039400020022843D073000A107411480827C06869
:10395000D21C2130447C007C240204430120A34279
:1039600028D900258D701B1B8C7AA34204DA1071B4
:10397000000A50718B722AE0E400A34216DA10713B
:10398000000A15E0F7460000CB6500000348000080
:10399000B0300020435400008C3E00207B4A0000E1
:1039A00000800000A13E0000F94B00001771380AAA
:1039B00050710CE088708E7AE51AB5420EDA060A6C
:1039C000107156719C4201D1887200E08D72887A24
:1039D000C8700871FEF78EFF012055E4F3009D4288
:1039E000E4DACCE7FFE700204EE4FE49496A0870BC
:1039F000020A4A70020C8A70000EC870487A0222CD
:103A000010434872704738B5044600200090F649CC
:103A1000684688470099F8208143E006000E084375
:103A20000090FFF7E2FF38BD08B500200090EE4996
:103A30006846884700980006C00E009008BDEA4816
:103A400072300047E8495A310847E8490847E749D2
:103A50001A310847E6480047E5490C310847F8B5F0
:103A600000260B4604460125304631462D03675C8F
:103A7000491CBE19A942FAD30021675C491C784051
:103A8000A942FAD39E4221D190421FD1D54EB068AF
:103A90000A3001F0F7FA00195722D64901F0B8FAB6
:103AA000B0681C3001F0EEFAF168001907220A3103
:103AB00001F0AEFA0121D04A00209047CE4B002001
:103AC00022462946823B9847012021E400201FE43A
:103AD00070B501260546C34C3603C74B002031465E
:103AE000EA3BA2699847C54928468847A0681C3028
:103AF00001F0C8FAA16907224018E1680A3101F013
:103B000087FA0121BC4A00209047BB4B0020314678
:103B1000823BA269984770BD10B50446B1488068E1
:103B20000A3001F0AFFAB44B1021EA3B224657307D
:103B3000984716E570B501260546AA4C3603AE4BEC
:103B400000203146EA3BA26998470121AA4A002099
:103B50009047A0680A3001F095FAA1691022573108
:103B60004018294601F054FAA34B00203146823B0D
:103B7000A269984770BD9B4840690178C94389078D
:103B800002D18078062801D00020704701207047BC
:103B90009B4A1047F3B581B0060025D0914F386A93
:103BA0000446C17980790D020543E01C01F06AFAF0
:103BB0000102A07801430C46002D17D0002C15D02F
:103BC00001218D4B09030020EA3BBA699847B86888
:103BD0000A3001F057FAB9696731405C401CC7B23E
:103BE000032F05D90220FEBD0120FEBD0420FEBD2D
:103BF000B54204D10298844201D10020FEBD0121CA
:103C00007D4A00209047774CA0680A3001F03AFACC
:103C1000A269794B114667314754012109030020FD
:103C2000823B98470320FEBD08B56F496846884728
:103C300000984108C90701D0002008BD02210843AF
:103C40006949009028318847012008BD6948012151
:103C50000278644809078068002A03D0012A07D047
:103C600000207047C27B837B10021843400304E0AE
:103C7000C27B837B1002184300034018704770B565
:103C800004465C480D46017856480126B603806814
:103C9000002903D0012903D0002070BD143000E0BA
:103CA000103001F0EFF9801972B60019524A294616
:103CB000904762B670BDF8B505464E480F4601788C
:103CC00048480124A40380681646002903D001292E
:103CD00003D00020A6E4143000E0103001F0D2F947
:103CE000001972B64019444B32463946EA3B9847B0
:103CF00062B697E4F8B505463E480F460178394864
:103D00000124A40380681646002903D0012903D0AA
:103D1000002087E4143000E0103001F0B3F90019FE
:103D200072B64019344B32463946823B984762B6E8
:103D300078E410B5030001F0A0FD09060C16202A56
:103D4000343E416D890001217F20FEF70AFB882166
:103D500004E001217F20FEF704FB8A216120FEF7A9
:103D600000FB81216FE001217F20FEF7FAFA8A2112
:103D70006120FEF7F6FA832165E001217F20FEF73E
:103D8000F0FA8A216120FEF7ECFA87215BE001213D
:103D90007F20FEF7E6FA8A216120FEF7E2FA8F2102
:103DA00051E001217F20FEF7DCFA8A216120FEF735
:103DB000D8FA9F2147E001217F203DE000217F20AC
:103DC000FEF7CFFA02213020FEF7CBFA01217F2047
:103DD000FEF7C7FA1F216320FEF7C3FA03216D2007
:103DE00010E00000B03000204D6500002B620000A4
:103DF000776A00008C3E002043540000A13D000083
:103E0000D9600000FEF7ADFA8A216120FEF7A9FA19
:103E1000B02118E000217F20FEF7A3FA0221302014
:103E2000FEF79FFA01217F20FEF79BFA1F216320F6
:103E3000FEF797FA07216D20FEF793FA8A21612099
:103E4000FEF78FFABF216520FEF78BFA71E610B5F9
:103E5000FB4CA068283001F015F9616B081A68E680
:103E6000F84800787047F8B50546F54EF548B26950
:103E700000781446002801D0002003E4280502D071
:103E80002805000D2D1A72B601210903EE4F0020FE
:103E9000B84762B6706B2146401B283101F0FCF830
:103EA00005462046103001F0EDF80090281A410830
:103EB000009808182146143101F0EEF801460098E8
:103EC000081A0001000CA073000AE07372B6012109
:103ED000DD4A0020EA32904762B672B60121DA4B21
:103EE000090300206833B269984731210020B26885
:103EF000B84762B6012054E4D148D14B80799B7910
:103F000002091B0709201B0FC01A06230021584372
:103F1000072A08D0032A09D0022A0BD0012A0CD084
:103F2000002A0DD00FE04121C94301E03521C943EA
:103F3000081A07E02321C943FAE71721C943F7E725
:103F4000801D404241B2C8B27047F3B5BF4EC04F6A
:103F50008DB00546002432226B4621460320B0472F
:103F600068464088A84206D1684601790E980170DB
:103F700001200FB0F0BDB84204D068460088001997
:103F800084B2E8E70020F4E7F3B5B04EB04F8DB04F
:103F90000546002432226B4621460320B04768467E
:103FA0004088A84208D1241DA1B2012203200E9B03
:103FB00000F0BAF90120DCE7B84204D06846008876
:103FC000001984B2E6E70020D3E7F3B59F4EA04F77
:103FD0008DB00546002432226B4621460220B047B0
:103FE00068468178427808021043A84205D16846A5
:103FF00041790E9801700120BBE7B84204D06846B1
:104000000078001984B2E6E70020B2E78D4910B5C8
:1040100057314878097800020843800603D5FEF737
:10402000E3F8012085E5002083E58A4B184710B5A9
:104030000446834880680A3001F024F80821824B46
:1040400022466730984774E570B5054672B67C4CD9
:10405000012636037C4B31460020A26998477A4AF4
:1040600001210020EA329047A0680A3001F00AF8E6
:10407000A169082267314018294600F0C9FF724B38
:10408000002031466833A269984762B670BD724914
:10409000082008476A4948637047FEB5684D002705
:1040A000A868801D00F0EEFF674E01AA0621B04708
:1040B000002823D000241CE0A868801D00F0E2FF47
:1040C00061006118891D40186A460321B047002825
:1040D00014D068460078032809D1684640787F28C4
:1040E00001D169468F78012F01D1572807D0641C70
:1040F000A4B268460089A042DED80020FEBD684612
:104100008078FEBDF1B54E4E84B0B0680027801DAA
:1041100000F0B8FF4C4D01AA0621A847002823D083
:1041200000241CE0B068801D00F0ACFF6100611845
:10413000891D40186A460321A847002814D0684604
:104140000078032809D1684640787F2801D1694664
:104150008F78012F01D1572808D0641CA4B268467B
:104160000089A042DED8002005B0F0BD72B601275C
:104170003F0339460020B269A847334A0121002095
:10418000EA329047B068801D00F07CFFB269049964
:10419000831860002018083019542B4B0020394632
:1041A0006833984762B6DFE710B500F0F4F80028EE
:1041B00004D000F0F0F80128FBD0BAE400F0EBF8EE
:1041C0000028FBD000F0E7F80128FBD0B1E4F0B5FF
:1041D0001B4C0025A46AE678360701D50020F0BD07
:1041E00000BF6D1CEDB2642DFAD3254640356E7CC0
:1041F000B607FCD400252646C036377947556D1CD6
:10420000EDB2022DF9D346780125F709002F08D029
:10421000F606F60E0E70157042785206D20F1A701E
:1042200004E0B3069B0E0B7000231370044B0A7856
:104230009B6A801CC033272A1AD20022C03411E0A6
:10424000B03000208C3E002059530000C9280000E7
:10425000FFFF00001922000079190000267986541A
:10426000521CD2B20E789642F8D85D720120F0BD91
:104270005D72B3E710B5027800219207920F4C4BA4
:10428000012A39D0022A0CD0032A33D182780E2A8F
:104290002FD84078474BC0069A5CC00E904228D079
:1042A00028E04278D206D20E042A07D9C278847850
:1042B00012022243172A01D8012200E000221A71BB
:1042C000002A17D04179027909021143052910D03B
:1042D00006290ED1C1788278090211438079354AC6
:1042E00040000F3280184038C08F814201D0002139
:1042F00000E0012108461CE419790029F7D0407834
:10430000C006C00E1728F4D9F1E770B52A4D002475
:10431000274EA847F1680919FF310131641CE4B246
:10432000C873102CF5D370BDFFB5214C0200E069B5
:1043300081B01E460D4606D0012A06D0022A06D0BC
:10434000032A06D009E0001D04E0083002E00C302A
:1043500000E0103000F096FE01464D1972B60127BC
:104360003F03164B39460020A269984762B6A06900
:1043700031464019039A00F04BFE72B601210F4AF4
:104380000020EA3290470D4B002039466833A2697D
:10439000984762B6E8E60648816A0A466032907C31
:1043A000927C603101E0887C8A7C9042FBD170472E
:1043B000B03000207D610010FB5F00005953000009
:1043C00070B51E46002915D0FE4DAC696B699C4244
:1043D00010D205C40846083C01F06EF8FA4AFB4BBF
:1043E00000F06EFF01F076F8A06026730020606197
:1043F0001834AC6170BD884200D308467047002273
:1044000006E00021491C89B21829FBD3521C92B244
:104410008242F6D3704710B5EA4C60682030017CC8
:10442000C9070FD0017C490849000174082000F039
:10443000CCFA60682030417C012211434174322063
:10444000FFF7DDFF10BD70B5DE4C0D466168034619
:104450002031087CC00706D0087C40084000087462
:104460003220FFF7CCFF626820321375180A5075AE
:10447000180C9075180ED075107CEF210840107440
:10448000907C400840009074D1480560507C012524
:1044900028435074082000F08FFA60682030017CB7
:1044A0002943017470BDCEE770B5C64D1821287838
:1044B000AE68484369690C1A286980192861002090
:1044C000C043A86018E0207B002814D02069B042C7
:1044D00004D16068002807D0804705E0801B206178
:1044E00002D0A168884201D9A0682061A9688842E9
:1044F00000D90846A860183468698442E3D3A868E4
:10450000002805D0411C03D0B249FFF7CCFF70BD95
:10451000FFF781FF70BDF0B5AA48AF4D416840314B
:104520000B7918464B791B0218438B79CA791B0407
:10453000184312060E79104332464E793602324342
:104540008E79CB79360432431B060F791A433B46EA
:104550004F793F023B438F79CE793F043B43360688
:104560003343641C904201D19A4201D0AC42D7D36C
:10457000F0BDF8B50446FFF7CEFF924A91680B1ADA
:1045800013610023884200D913610020C04390606A
:1045900011781820414350691769411A17E00D68D6
:1045A000A54202D10B734B6110E00D7B002D0DD0A5
:1045B0000D69ED1B0D6102D08E68B54201D98D6881
:1045C0000D619668B54200D82E469660183181423A
:1045D000E5D39068002805D0411C03D07D49FFF742
:1045E00062FFF8BDFFF717FFF8BDF3B581B00646CF
:1045F000FFF7BFFF734818220178456951436C1AD1
:10460000714F0FE02068B0420BD1A0682061029882
:1046100000F052FF3A466D4B00F052FE00F05AFF98
:10462000A0601834AC42EDD3FEBD6649CA6882432F
:10463000CA607047F8B5634C054620781821484396
:104640006169081A06E00268AA4202D1027B002AC8
:104650003AD118308842F6D3FFF75DFFA1680A1AF5
:104660002261884201D9002020610020C043A0605F
:104670002078182163694843191A0127266919E02F
:104680000868A84203D1886808610F730BE0087BB3
:1046900000280ED00869801B086102D08A68904209
:1046A00001D9886808610246A068824200D8104695
:1046B000A06018319942E3D3A068002805D0411CBE
:1046C00003D04449FFF7EFFEF8BDFFF7A4FEF8BDA5
:1046D000F8B53C4C0546E068A843E060FFF71BFFD7
:1046E000A1680A1A2261884201D9002020610020B5
:1046F000C043A0602178182063694143591A0127FB
:10470000266919E00868A84203D1886808610F7318
:104710000BE0087B00280ED00869801B086102D0DE
:104720008A68904201D9886808610246A06882427E
:1047300000D81046A06018319942E3D3A068002841
:1047400005D0411C03D02349FFF7ADFEF8BDFFF7AC
:1047500062FEF8BD1B4918220B7853434A69D11AEF
:1047600005E00B68834201D1087B70471831914204
:10477000F7D3FF20704770B50D460446FFF7B1F838
:10478000002808D00F48182104704C436119856136
:104790004161FFF740FE70BD0A494A681146203169
:1047A0000875030A4B75030C8B75000EC8758B7C5E
:1047B000012003438B744B7C03434B740B7C0343FA
:1047C0000B740BE0F0300020FCA9F1D24D624040A8
:1047D000F43E0020A9440010FF3F00002032D37CAB
:1047E000DB07FCD00A7C520852000A744A7C024360
:1047F0004A7470477C4840682030C17CC90708D0A3
:10480000417C01221143417478480068002800D09F
:104810000047704770B5744C064660680D462030FE
:10482000017CFD238907002905DA017C1940017408
:104830003220FFF7E4FD626820321676300A5076A7
:10484000300C9076300ED076107C20210843107406
:10485000907C1840907465484560507C0225284340
:104860005074092000F0A8F860682030017C2943CA
:10487000017470BD10B55C4C60682030017C890704
:104880000FD5017CFD2211400174092000F09DF834
:1048900060682030417C0222114341743220FFF7CE
:1048A000AEFD10BD504840682030C17C890708D556
:1048B000417C0222114341744C484068002800D0DA
:1048C0000047704770B5484C064660680D4620307A
:1048D000017CFB234907002905DA017C194001749A
:1048E0003220FFF78CFD626820321677300A50774D
:1048F000300C9077300ED077107C40210843107434
:10490000907C1840907439488560507C0425284379
:1049100050740A2000F050F860682030017C294370
:10492000017470BD304808214068403041180A7851
:1049300010464A78120210438A78C978120410434C
:1049400009060843704728480C2140684030411848
:104950000A7810464A78120210438A78C9781204FD
:10496000104309060843704710B51F4C606820309B
:10497000017C49070FD5017CFB22114001740A20FC
:1049800000F023F860682030417C04221143417418
:104990003220FFF734FD10BD134840682030C17C41
:1049A000490708D5417C0422114341740F488068AF
:1049B000002800D000477047002805DBC106C90E5B
:1049C000012088400A490860704700280ADBC106B8
:1049D000C90E01208840064980310860BFF34F8F1F
:1049E000BFF36F8F70470000F0300020F43E0020CE
:1049F00000E100E018B5F648006800900020694624
:104A00000B5C0A241A0962431B070A541B0FD218B5
:104A10000A54401C0328F3DB009818BD08B5FFF7C3
:104A2000E9FF009068460178C078EA4A401E50438A
:104A30000A1868468178E1200001414368464078C1
:104A40003C23584308181118E34A1069814201D3E6
:104A5000081A02E0E14B081AC018116108BD70B5D0
:104A60000D46002802D0DA4E083E01E0D84E0C3E3A
:104A70000024285D0A2100F0A1FA00010143295514
:104A8000641C032CF5DB284600F0FCFA306064203F
:104A9000FFF7B5FCCE482038C17A08221143C17215
:104AA00070BD38B5CC4909694418CA49204600F0A0
:104AB00085FA421C6846C270E12508462D01294648
:104AC00000F07CFA0246684682702946204600F0D3
:104AD00075FA08463C2100F071FA014668464170BB
:104AE0003C21204600F06AFA6846017069460020C1
:104AF000FFF7B5FF38BD38B5FFF77CFF009068467B
:104B00000178C078B34A401E50430A18684681783D
:104B1000E12000014143684640783C23584308188F
:104B20001118AD4BAE485A6A0468914201D38A1AF3
:104B300002E0AA4D8A1A5219A21802601046596260
:104B400038BD70B500290BD0A34D6E69AC69B44275
:104B500006D2A16005C423710020E0601034AC616E
:104B600070BD884200D308467047994920398A7A37
:104B70000F238343887A1A4000090001104388728A
:104B8000704770B5C00742D0934C182160786668B2
:104B900048436169081A0A4603E0037B002B02D1EF
:104BA00018309042F9D3884231D2FFF737FFE168DD
:104BB00060680818E0600020C043606061781820D9
:104BC00041436069451A18E0287B002814D0286901
:104BD000B04204D16868002807D0804705E0801BF8
:104BE000286102D0A968884201D9A8682861616853
:104BF000884200D908466060183560698542E3D371
:104C00006068002804D0411C02D0FFF74AFF70BD45
:104C10000120FFF7AAFF70BD6F498A6882438A604E
:104C20007047F8B50446FFF7F9FE6B4AD06072B6DC
:104C30000021C94351605178182359435369591AC7
:104C4000002717E00D68A54202D10F734F6110E0F5
:104C50000D7B002D0DD00D692D1A0D6102D08E68CF
:104C6000B54201D98D680D615668B54200D9354607
:104C7000556018319942E5D35068002804D0411C92
:104C800002D0FFF70EFF02E00120FFF76EFF62B6D1
:104C9000F8BDF8B5504C0546607818214843616965
:104CA000081A06E00268AA4202D1027B002A38D123
:104CB00018308842F6D3FFF7B1FEE06072B60021EB
:104CC000C94361606178182266695143711A0127EE
:104CD00019E00A68AA4203D18A680A610F730BE0DF
:104CE0000A7B002A0ED00A69121A0A6102D08B6868
:104CF0009A4201D98A680A6113466268934200D8D1
:104D00001A4662601831B142E3D36068002804D0CB
:104D1000411C02D0FFF7C5FE02E00120FFF725FF8E
:104D200062B6F8BD2C49C8617047F1B582B0FFF793
:104D300075FE294DE86072B60021C9436960697843
:104D40006E69182251430090741AEF6920E02068C0
:104D5000B84209D13C21029800F030F93C20401AB9
:104D60002061012020730CE0207B00280FD02169F6
:104D70000098081A206102D0A168884201D9A06871
:104D8000206120696968884200D908466860183443
:104D9000B442DCD36868002804D0411C02D0FFF77D
:104DA00080FE02E00120FFF7E0FE62B6FEBD0A4988
:104DB00018224B7853434A69D11A05E00B688342A5
:104DC00001D1087B704718319142F7D3FF2070471B
:104DD000C0100050805101000C310020803A0900C1
:104DE000A830002071490878002808D17048C37A9B
:104DF00001221343C372C37ADB07FCD10A707047E8
:104E00006A49086270476A498A7A024310078A7AB7
:104E1000000F1209120102438A72704764498A7AAC
:104E20001209024310018A7A1207120F02438A7292
:104E3000704770B505460024285D0A2100F0BEF8D1
:104E4000000101432955641C032CF5DB284600F0C2
:104E500019F957492039C86370BD554A138A401E55
:104E6000DB0BDB034004400C03431382907C0907F7
:104E700000090001090F0843907470474C48C17A3B
:104E800004221143C172C17A4907FCD470474749D3
:104E90000878012809D14648C27A02231A43C2720F
:104EA000C27A9207FCD4002008707047F3B581B035
:104EB000FFF7EDFFFFF7E2FF01200021C003FFF73E
:104EC000CCFF6420FFF79BFA01216846C1700024E3
:104ED000847044700470FFF7ACFF344D07262C61DA
:104EE0006846C670172787703B2444700470694673
:104EF0000120FFF7B4FD6846C670877044700470E7
:104F000069460020FFF7ABFD0F20FFF787FF0F205A
:104F1000FFF72BFE0120FFF776FF02982862FFF7CC
:104F200061FF244904200860FEBD70B50D460446AB
:104F3000FEF7D7FC00280BD01C48182144704C43C6
:104F400061198561416101201B49C003FFF7AEFF74
:104F500070BD10B51648407A03071B0F1846FFF7BF
:104F60005DFF1248016A002901D01846884710BD2C
:104F70000E480078704718B5002802D00C48183049
:104F800001E00B48143000680090002069460B5C7B
:104F90000A241A0962431B070A541B0FD2180A5429
:104FA000401C0328F3DB009818BD00000C310020E2
:104FB000A010005000E100E0834B001030B50B461C
:104FC000014600202022012409E00D46D5409D42E3
:104FD00005D31D469540491B254695404019154669
:104FE000521E002DF1DC30BD70B50024254600288E
:104FF00001DA01244042002901DA01254942FFF784
:10500000DDFFAC4200D04042002C00D0494270BDD0
:1050100003460B439B0703D009E008C9121F08C0D1
:10502000042AFAD203E00B780370401C491C521E7C
:10503000F9D27047D2B201E00270401C491EFBD287
:1050400070470022F6E710B513460A460446194693
:10505000FFF7F0FF204610BD30B5044600200346A0
:1050600000E05B1C934203D2E05CCD5C401BF8D0B7
:1050700030BD03460A780270401C491C002AF9D151
:10508000184670470321001D401E037812021A4380
:10509000491EF9D510467047034603220870000ADE
:1050A000491C521EFAD518467047F8B502464A40C8
:1050B000D40F42004B0052085B089A4202D20246CB
:1050C000084611464A0023D0C30D4A00DDB2120E35
:1050D000AD1A202D35DA49020126490AF6058A194A
:1050E000002C00D0524220214F1B1146B9402A41CA
:1050F0001018C20D9A4221D0002C17D0012D08DCC7
:10510000DA05801AD20F8019D207DBB200F080FADC
:10511000F8BDDA05801A012340001B06C01880186C
:105120005A428018CA0F1043490007E04908C207D5
:105130001143DA05801A80194008801800F060FADF
:10514000F8BD61000122511A001BF7E70122D207C6
:105150005140AAE70122D2075040A6E7F0B5074622
:105160000846584087B0C00F049048000E465900CA
:1051700040084908BC1A884105D2384631461E46C7
:1051800017460B4602465800400810434CD0300DDD
:10519000039040055900400D490D0590401A0290BA
:1051A000402872DA18030121000B09050843019019
:1051B00004980092002805D00199524200208841AD
:1051C00000920190029840210A1A0199009800F07B
:1051D000E3F905460C466B4607CB00F0FEF9C01913
:1051E0007141039A0E0D0023D71756401A467A4094
:1051F000164344D0049A002A2DD0029A012A039A19
:1052000015DC1205C01A914101263605001C7141BA
:10521000D20F059ED2070093019202962A4623469A
:1052200000F03CFA07B0F0BD38463146FAE7160503
:10523000224A0F46B218C01AB74101210905001CC5
:105240004F4100187F41114618187941E20F104371
:105250006D19644113E0E2076D0815436408C20745
:105260001443039A01261205C01A91413605001C09
:105270007141CE07400830434908C01851412A46C1
:10528000234600F0FEF9CDE7FFE704980122400035
:10529000C117121A00238B4104983146C417381ADB
:1052A000A141EEE730B40124E407634030BC55E788
:1052B00030B40124E407614030BC4FE70000E0FF58
:1052C000F0B51FB488B00B9909980024484009999B
:1052D000C00F490049080991C0070B990090490087
:1052E00049080B9109990898A64608431CD00B99C8
:1052F0000A98084318D0099801244000420D48003C
:10530000410D099824050003000B204309900B98D8
:105310000003000B20430B9050181C49401800223A
:1053200001901446104605E0002001460DB0F0BD86
:10533000032801DA034600E003239C46C11A0AAEA3
:105340000AE05F0008ADED5B4F00F75B7D4300278F
:10535000AA187C41491C5B1E6145F2DD410004AB8B
:105360005A522104120C0A43240C401C0828DFDB8B
:10537000019802900099704601910090059B049A53
:105380000799069800F08AF9D0E700000DFCFFFFAE
:10539000F0B50C465C4085B0E40FE40703944C0084
:1053A00000266408590094464908024602962243A2
:1053B00021D062460A431ED06200570D4A000E03F8
:1053C0002303550D012402462C492405781B1B0B91
:1053D000360B401823432643614600901C46501A62
:1053E000B44103D30098401C009002E0921800984A
:1053F0005B41002803DA0020014605B0F0BD002023
:10540000012109050746864611E064461D46141B26
:10541000B54106D36546521BB341744607430C435E
:10542000A646CD0740084908284392185B41054627
:105430000D43EAD11046184313D060461946504038
:105440007140084306D06046101AB34106D20122CB
:10545000002306E000220123DB0702E00122D24301
:105460005310009874460105381C6141029C039D4D
:105470000019694100F005F9BFE70000FD030000D5
:1054800010B500229623114600F0C2F810BD0000AE
:105490000EB5C217C10F5040CA0740180021054B76
:1054A0000293019200910A460B4600F0F7F803B010
:1054B00000BD0000330400000EB505490291002133
:1054C00000910A460B46019100F0E8F803B000BDD8
:1054D000330400004A0009030123090B1B0519438B
:1054E000094B10B5520D9A4201DA002010BD064B4F
:1054F00034339A4203DC9A1A00F05EF810BD034977
:105500005118884010BD0000FF030000CDFBFFFFD5
:10551000C20FD207400040080BD0C10D0723DB01AA
:10552000C91840020905400A1143C2084007114347
:105530007047002001467047F0B51FB406460020B2
:1055400082B005464024019100901BE0019922465B
:105550000F46304600F030F8049A059B801A9941B6
:1055600010D310461946224600F016F8361A8F411D
:105570000197224601200021009F00F00DF8381805
:105580004D4100902046641E0028DFDC019B0098FE
:105590002946324607B0F0BD10B5202A04DB01468B
:1055A000203A9140002010BD914020239C1A0346D0
:1055B000E3401943904010BD10B5202A04DB084693
:1055C000203AD040002110BD0B46D340D0402024CB
:1055D000A21A91400843194610BD10B5202A06DBD7
:1055E000CB170846203A1041C1170B4306E00B4683
:1055F0001341D0402024A21A91400843194610BDFF
:10560000002904DA401C490001D1400840007047DD
:1056100070B40024050C05D11024000402D1002927
:1056200021D01124050E01D100020834050F01D14B
:105630000001241D850F01D18000A41C002801DB7E
:105640004000641C002908D020252E1B0D46F54083
:10565000A14000D001212943084301061B1B000A79
:10566000DB1D02D5002070BC7047DB0518188018C0
:105670000029F8DA401C4900F5D170BC4008400010
:10568000704710B5002B08DA0024401C61419218C5
:105690005B411A4301D14008400010BDF0B51FB472
:1056A00082B005460C0003D0084600F0CFF802E0B7
:1056B00000F0CCF820300246009021462846FFF743
:1056C0006BFF049B059A04460F4618431143084399
:1056D00014D0184610431BD0009840210A1A1846CF
:1056E0000599FFF769FF05460E46009A059904984B
:1056F000FFF752FF084305D0012004E02046394659
:1057000007B0F0BD0020C11705430E432C433743BB
:1057100000990E986305401A7905E40A00220C43AB
:10572000FD0A0A3002D500200146E9E701051019FB
:1057300069410C9C0D9D00196941FFF7A2FFDFE74D
:105740004A0009030123090B1B0519430A4B10B535
:10575000520D9A4202DA0020014610BD064B343346
:105760009A4203DC9A1AFFF727FF10BD034BD218A9
:10577000FFF712FF10BD0000FF030000CDFBFFFF8D
:1057800010B5002904DB0124E40740428C41214686
:10579000002B04DB1C460123DB075242A341994244
:1057A00000D1904210BD0000064C0125064E05E0D8
:1057B000E36807CC2B430C3C98471034B442F7D332
:1057C000FAF782FCA4610010C461001070B58C1857
:1057D0000578401C6B075B0F01D10378401C2A1130
:1057E00006D10278401C03E006780E70401C491C6C
:1057F0005B1EF9D12B0705D40023521E0DD40B706C
:10580000491CFAE70378401CCB1A921C03E01D7870
:105810000D70491C5B1C521EF9D5A142D8D3002043
:1058200070BD00000FB410B504A9074B02AA03987D
:1058300000F0FAF8044602A9002000F091FC20468E
:1058400010BC08BC04B01847616100102021020C94
:1058500001D010211046020A01D010460839020971
:1058600001D01046091F820801D01046891E420847
:1058700001D0881E7047081A704730B47446641E01
:105880002578641CAB4200D21D46635D5B00E318C3
:1058900030BC184702E008C8121F08C1002AFAD11C
:1058A00070477047002001E001C1121F002AFBD1A0
:1058B00070470000F0B51FB486B00998089A030D30
:1058C0000021024314D05148514A1818504305147E
:1058D0001198012810981AD0281A401C00264D4F04
:1058E0004D49009601910490002812DA444211E0DB
:1058F0001198012449A3012801D11098C1430698A9
:10590000119A84600360C26041600BB0F0BD4042F8
:10591000E4E70446210500203F4A001C5141039161
:10592000029012E0E00707D032463B46019900980A
:10593000FFF7C6FC0191009032463B4610461946DF
:10594000FFF7BEFC06460F466410002CEAD104980F
:10595000039B0028029A0999089806DAFFF7B0FC21
:10596000019B009AFFF7ACFC05E0FFF711FD019BDE
:10597000009AFFF70DFD04460E460022284BFFF764
:10598000FFFE03D80020C043014607E00022254B5C
:1059900020463146FFF7E2FBFFF7D2FE102409E074
:1059A000002C0ADB0A220023FFF7C6FD079B3032DA
:1059B0001A55641E02460A43F2D11122641C079B49
:1059C000121B1C19119B012B03D0012308430ED17C
:1059D0000AE0084304D0112010900020119077E7CE
:1059E0001098151A6D1E0BE01098824202DD0023FC
:1059F0006D1C03E0824201DA00236D1E002BEED005
:105A0000069811998260C16030C07EE701FCFFFFFB
:105A1000104D0000000014400000F03F3000000076
:105A20000000F0430000E03FFFB597B006460025B8
:105A300018E2252877D100242746FD49049400E088
:105A40000443761C32780120203A90400842F7D176
:105A500030782A280ED002223078014630390929C0
:105A600016D804990A235943303940181443761C38
:105A70000490F1E7189802C804911890002904DAFC
:105A80000120400304434842049002200443761C52
:105A900030782E2814D1042004437078761C2A28EC
:105AA00009D11898761C80C8189009E00A214F4344
:105AB000303FC719761C3078014630390929F5D9AD
:105AC00030786C2810D006DC4C281AD068280ED00C
:105AD0006A2817D104E0742813D07A2812D110E074
