:020000041000EA
:10000000F03C0020E5230010ED230010E90700106C
:1000100000000000000000000000000000000000E0
:10002000000000000000000000000000F1230010AC
:100030000000000000000000F3230010F523001072
:1000400000000000F723001013570010F7230010E2
:10005000F7230010F7230010F7230010F7230010F8
:10006000B54F00106550001059510010F7230010D3
:1000700087160010F7230010F7230010750C0010EE
:10008000F7230010F7230010F7230010F7230010C8
:10009000890C0010F7230010F7230010F72300103D
:1000A0000000000000000000000000000000000050
:1000B0000000000000000000000000000000000040
:1000C0000348854605F058FF00480047DF0600104A
:1000D000F03C0020F8B50024FC4800940068FF21A3
:1000E0002030274625462646017041709F228270A7
:1000F000CF22C27001710178BF221140017000202F
:100100000122811F0B0005F0A0FF0D16120C0C0C34
:100110000C080812160812081200114681400F43FD
:1001200009E0114681400C430D430E4303E01146A4
:1001300081400C430D43401CC0B22028E1D3384617
:1001400001F032F93946002001F0FAF800993846FA
:10015000884301F0DAF9009801F0EEF92146A9434D
:10016000002001F0EDF83146204601F034F929462F
:10017000002001F0B1F8F8BD70B586B000206946E6
:100180000872072048741920800148821E20888246
:1001900002A803F000FA684603F0EBF96946CC4880
:1001A0004E78C6728D780573CC7844730B7983735F
:1001B0004A79C273897901741B3006714571847163
:1001C000C37102724172024614231B211B3803F0D3
:1001D000E8F9C0490120087506B070BD0EB50028C9
:1001E00002D001280FD106E010206946C880C8203F
:1001F0004881002006E050206946C8804B20C0009E
:1002000048810A200881C02069460871042048718D
:1002100001A803F053FF6946488900900B89CA88FA
:10022000ADA1002002F034F80EBDA94910B50C397B
:100230008878401CC0B28870032808D3002048701A
:100240000120FFF7CBFFFF20013004F072FD10BD4D
:100250003EB59F4C0C3CE278D2070ED001246A4692
:100260001480032555801F259580148103460A4676
:100270006946204603F0C0FB3EBD00203EBDF0B500
:10028000044689B0401C05F0E4FA01277F029E4D28
:10029000B84211D11E22611D684605F099FA6846E0
:1002A0004088022806D0A84204D168468179C01D42
:1002B00000F09DFD09B0F0BDFF210131002688420C
:1002C00021D10822611D03A805F082FA6846C08981
:1002D00015214902884206D18CA003C801910090E3
:1002E000082069460CE0A842E4D1684606700196F1
:1002F000694601A8029600F07FFE684601A90078D1
:1003000003F06BFBD6E7724D01220C3D022817D09B
:10031000042821D05103641C884237D160792179A7
:10032000000208430128C5D1607A237A01022846D9
:100330001943C078012922D09043E87075A121E0CB
:100340002A70AE70084604F055FD0623A21D77A161
:10035000002001F0A9FFADE7627978A1002001F04B
:1003600097FFEE702E70384604F0E3FCFFF704FFB1
:1003700003F034FA002002F0FCFB77A102E0104306
:10038000E8707AA1002001F083FF93E70121C903FF
:10039000884224D16079217900020843030005F0E6
:1003A00054FE06051416181A1C0483E775A10020D4
:1003B00001F06EFF684603F0DAFA68464388028867
:1003C00076A1002001F064FF74E77BA1DAE780A149
:1003D000D8E785A1D6E78AA1D4E78EA1D2E701218B
:1003E000090488420DD101A803F0C1FA68460089CA
:1003F00000906846C38882888BA1002001F048FFE6
:1004000058E70128A7D103F0E9F953E7F8B58E4C76
:10041000207800281BD000268C4D012818D00127F9
:100420007F0202281ED0032811D12670384604F01E
:1004300080FC87A1002001F02BFF7D20C00000F090
:1004400085FA87A1002001F023FF03F089FCF8BDA5
:1004500000F0B6FC87A1002001F01AFF02202070F6
:100460002E70F8BD2878401CC0B228702028F8D91A
:1004700083A1002001F00CFF384604F05AFCF8BDBF
:1004800010B58248824C0078C00715D0A088401C67
:1004900080B2A080012803D17EA1002001F0F8FEE7
:1004A000A088C82807D10120400301F05CF87FA193
:1004B000002001F0EDFE10BD0120800204F039FCA7
:1004C000A088401E632800D2FAE005E168300020D1
:1004D0000C30002000000240736D6172745F706127
:1004E00072616D7320696E74657276616C3A2578FD
:1004F000206C6174656E63793A2578207376746F29
:100500003A25780D0A00000001FF00005359445FAE
:100510005541525455415254206E6F74696679208A
:1005200044697361626C6564210D0A00436F6E6EED
:10053000656374656420616464723A00446973633E
:100540006F6E6E65637465642C7265736F6E3A309E
:1005500078253032780D0A007374617274206164FA
:100560007620402064697363210D0A00554152547E
:10057000206E6F7469667920456E61626C656421D6
:100580000D0A0000757064617465207273702041FB
:10059000434345505445440D0A000000696E74659C
:1005A0007276616C3A2578206C6174656E63793A75
:1005B00025780D0A00000000757064617465207272
:1005C00073702052454A45435445440D0A000000CB
:1005D000757064617465207273702054494D455282
:1005E0004F55540D0A0000007570646174652072E7
:1005F000737020535543434545440D0A00000000E5
:10060000456E61626C65206C6174656E63790D0A7C
:100610000000000044697361626C65206C61746560
:100620006E63790D0A000000434F4E4E5F555044F3
:100630004154455F434F4D503A2025642C2025649A
:100640002C2025640D0A00004C3000204D30002085
:100650004F54412066696E6973680D0A00000000FE
:100660005374617274205265736574203130303078
:10067000730D0A004F54412073746172740D0A00A7
:100680004F5441206661696C650D0A0040300020BE
:10069000003000204361706465742053746172748B
:1006A0002050726573730D0A00000000436170648E
:1006B0006574206C6F6E672050726573730D0A004D
:1006C00069A1002001F0E4FD6DA1002001F0E0FD32
:1006D0000120000400F047FF0020A08010BD72B68A
:1006E00000F087F8002003F0A0FA02F01DFA0020C5
:1006F00002F0D3FAFF20F53003F089FD02F0DDFAB5
:1007000001F0ACFB63A366A268A1002001F0C0FD6C
:100710006C49032004F00FFC01F00BF86A4901203A
:1007200004F0E3FF01F032F8FFF7D4FC0A2000F0F8
:100730000DF903F053F862B600F024F9634C644DF0
:10074000644F654E03F060FC206800281DD08005D2
:1007500009D5FFF75BFE0120400204F046FB5FA1D4
:10076000002001F095FD2088C00505D5FFF75DFD4F
:10077000FF20013004F039FB2088400505D5FFF744
:100780007FFE0120800204F030FB2868002814D08E
:10079000C00706D055A1002001F07AFD012004F029
:1007A0001BFE2878400708D502F087FA53A10020E5
:1007B00001F06EFD042004F00FFE3878012801D10D
:1007C000FFF724FE30788106BCD5DF210840802168
:1007D000084330704D490020087000F0AEF94CA17C
:1007E000002001F055FDADE751A1002001F050FDC2
:1007F000FEE710B588B002F003FE012003F0BDF85B
:10080000504803F0E5F803206A461073002454733F
:10081000917BFB228143491C11406A469173102150
:10082000D1731474507403A803F095F8C020059098
:100830004548069005A803F0B0F8002003F0A0FAA0
:10084000FFF79AFC6A461470D4701471547001203A
:10085000907050710F20D11D000205F004F8684619
:1008600003F0F3F908B010BD436170646574207340
:10087000686F72742050726573730D0A0000000077
:100880004361706465742052656C656173650D0A1F
:100890000000000031363A31303A313100000000BA
:1008A0004D61722020372032303232005379643863
:1008B0003831315F554152542025733A25730D0A62
:1008C000000000000032002048320020503100209B
:1008D000683100204C3000203D3000204556545FE8
:1008E00031535F4F54410D0A0000000052544345FC
:1008F00056545F3130530D0A0000000052544345F6
:1009000056545F313835530D0A0000003E30002048
:100910006361706465745F63616C6962726174695C
:100920006F6E2D3E696E69745F616C6C0D0A00001C
:100930004552523A20486172644661756C74210DCB
:100940000A000000083000207F02001000220C4B3B
:1009500006E00021491C89B29942FBD3521C92B295
:100960008242F6D37047002206E00021491C89B27A
:100970000229FBD3521C92B28242F6D37047000088
:100980008C0A000010B598B0C8A1002001F080FCCE
:10099000CA4800680178BF2211400170C848006849
:1009A0000178402319430170C64800680146203190
:1009B0000B7813400B708179890989011C31817191
:1009C0005021C14804F01DFFC04C0020207160215F
:1009D000684604F016FF06F06DFB684606F046FD1B
:1009E000012008A90875487569460870684606F030
:1009F00087FEB7A1002001F04BFC0121002006F08A
:100A000045FDC821402006F041FD0021412006F0AF
:100A10003DFD6421422006F039FD0021432006F00F
:100A200035FD3221442006F031FD1E21452006F01F
:100A30002DFD1E21462006F029FD1E21472006F02F
:100A400025FD1921482006F021FD0021492006F04E
:100A50001DFD08214A2006F019FD00214B2006F05B
:100A600015FD08214C2006F011FD00214D2006F057
:100A70000DFD0321582006F009FDFE214E2006F051
:100A800005FD0121592006F001FD01215A2006F043
:100A9000FDFC40213A2006F0F9FC06213B2006F03F
:100AA000F5FC64213C2006F0F1FC00213D2006F01D
:100AB000EDFC00213E2006F0E9FC06F031FE8848FE
:100AC0000222417B114341730F2000F0E6F814200D
:100AD00000F0E3F8607810210843607018B010BD92
:100AE00070B545243225002801D1592446252146D8
:100AF000402006F0CBFC210A412006F0C7FC294625
:100B0000422006F0C3FC290A432006F0BFFC2B4616
:100B1000224674A1002001F0BBFB70BD6A4810B5ED
:100B20004030007B002807D00121002006F0AEFCF9
:100B300075A1002001F0ACFB10BD634810B540303A
:100B4000007B002807D000215C2006F09FFC73A1E9
:100B5000002001F09DFB10BD5B4810B54030007BCC
:100B6000032807D004215C2006F090FC6FA1002030
:100B700001F08EFB10BD10B504F05CFA5348202242
:100B800041781143417010BD10B5504C2078401C85
:100B9000C0B220706178C9060CD5032809D3FFF7CD
:100BA000EAFF6078EF210840607064A1002001F046
:100BB0006FFB10BD0728FCD3FFF7DDFF10BDF8B5B4
:100BC000414806F01DFC414D0746E8682030007C96
:100BD000800704D401206249C00304F0FBF9002619
:100BE0002E706878384C0106403400290EDAA97856
:100BF000491CC9B2A9701E2924D34006400E4021C9
:100C000008436870FFF7A8FFAE701BE0400619D5D7
:100C1000207B032816D12C480821415E0F2909DDCD
:100C2000FFF77CFFFFF789FF687880210843687031
:100C30004CA100E050A1002001F02AFB6878AF2110
:100C400008406870002F0CD0207A5049C00709D0A6
:100C50000878C20705D1012210430870900204F001
:100C6000C9F8F8BDAE600878C207FAD04008400065
:100C70000870F8BD10B5002006F08AFB134901206A
:100C8000C870FFF79CFF10BD10B541A1002001F016
:100C9000FFFA002006F07CFB10BD002805DBC10632
:100CA000C90E012088403F49086070474341505FAA
:100CB00044455420696E69740D0A000074300020A8
:100CC0006C30002068300020883100203C3000204B
:100CD00031206368616E6E656C210D0A00000000B2
:100CE00000100050746F7563685F666F7263655FB4
:100CF00043616C6962726174696F6E3A2025642089
:100D00002025640D0A000000466F72636520436170
:100D10006C6962726174696F6E0D0A00466F72636E
:100D2000652057616B6555700D0A0000466F726350
:100D30006520536C6565700D0A000000504F5745E3
:100D4000524F4E5F41574159535F544F5543485F8F
:100D500043414C4942524154494F4E0D0A00000054
:100D6000890B001063616C6962726174696F6E2037
:100D70006661696C650D0A0063616C696272617419
:100D8000696F6E206F6B0D0A00000000403000207C
:100D9000544F5543485F49525148616E646C6572C7
:100DA000210D0A0000E100E010B5E74B0E241B699D
:100DB0001C70541C5C709870D81C04F009FD10BDA8
:100DC00008B503F05CF8002069460870012216207F
:100DD000FFF7EAFF08BD0022DB49002801D00A70B6
:100DE0004A704A80CA808A800A81CA607047FEB50C
:100DF000D54D0E4669880024002905D02A78002A9E
:100E000002D06C7000219FE00178032615296DD077
:100E10001CDC112935D012293ED0132941D01429C8
:100E200022D1C17982790E0216436E80417A027A0C
:100E30000F021743EF80801C04F00BFDE860AC80CC
:100E40002C8133460246C1A1009773E001277F023F
:100E500016290AD020294DD0232957D0242903D17F
:100E6000801C00F048F92E70FEBD0020FFF7B6F997
:100E7000C3A1002001F00CFA384603F0BBFF0120AB
:100E800007E00020FFF7AAF9C1A1002001F000FA55
:100E900004202870EC60FEBD801C00F0BFF8052027
:100EA0001EE0871CC01C04F0D4FC01463A78BD4803
:100EB00003F0B5F90646781C04F0CBFC03463878FD
:100EC00000903246B8A1002001F0E2F9002E09D0CE
:100ED00068460471012201A91820FFF765FF06206A
:100EE0002870FEBD012069460871F3E7801C00F000
:100EF000CBF8B8E70020FFF771F9B1A1002001F0AD
:100F0000C7F9384603F076FF0720C2E7C179827936
:100F10000E0216436E80417A027A0F021743EF8069
:100F2000801C04F096FCE860AC802C8133460246BD
:100F3000A8A10097002001F0ABF9FEBD435C2C890D
:100F40001B19491C2B8189B2B142F7D381071AD0F2
:100F500001463246AD4804F03BFC2878022806D012
:100F6000012804D0082808D0072806D023E0A98843
:100F7000E868A64A4018314615E0A988E868A34AFF
:100F80004018314615E0704BD9689B88CB18022A6F
:100F900006D0012A04D0082A08D0072A06D00AE081
:100FA00002463146184602F0DDFF04E002463146B3
:100FB000184602F048FFA888801981B2A980688885
:100FC0008142BAD32A89E888824204D1002000F005
:100FD0004CF88FA103E0012000F047F890A1002019
:100FE00001F056F9EB882A8991A1002001F050F90F
:100FF0000020FFF7F0FEFEBD70B5534C0D46216991
:101000004A7821461431921C04F0E2FB20694078B2
:10101000801C287000206061A06170BD38B5044656
:1010200040782178000208430121090388421BD837
:10103000A27882188A4201D9091AA1705949A27866
:101040004018E11C04F0C4FB6078217802020A43D6
:10105000A37882A1002001F01BF9002069460870E6
:1010600001221720FFF7A0FE38BD1CB56B46597052
:10107000090A9970DA70110A197118700522694607
:101080001420FFF791FE1CBD38B504465F482030A0
:101090000179002905D02038006A5C4A400102F03D
:1010A00061FF204604F0D5FB617922790B021343DE
:1010B000024671A1002001F0EBF8204604F0C9FBC4
:1010C000617922790B02134302460021084602F09F
:1010D00058FF044602466EA1002001F0D9F8002C0A
:1010E00007D000206946087001221820FFF75CFE37
:1010F00038BD0120F6E738B5044604F0AAFB617953
:1011000022790B02134302465BA1002001F0C0F8D4
:10111000204604F09EFB617922790902114302F016
:1011200035FF044602465FA1002001F0B1F8002C13
:1011300007D000206946087001221820FFF734FE0E
:1011400038BD0120F6E700004C300020434D445FDD
:1011500046575F57524954455F5354415254206F8C
:1011600066667365743A25782C73697A653A2578D2
:1011700020636865636B73756D3A25780D0A00000E
:10118000434D445F46575F45524153450D0A0000A9
:10119000344B53455454494E475F455241534520C3
:1011A0000D0A00004A070020436F646555706461B2
:1011B00074653D25642025782025780D0A000000FF
:1011C000464C415348444154415F455241534520A8
:1011D0000D0A0000464C415348444154415F575268
:1011E0004954455F5354415254206F666673657489
:1011F0003A25782C73697A653A25782063686563A7
:101200006B73756D3A25780D0A000000D831002007
:1012100073656374696F6E204F4B212000000000DE
:1012200073656374696F6E206661696C6521200067
:101230006F74615F726563656976655F6368656336
:101240006B3A2578206F74615F73656374696F6EA4
:101250005F636865636B3A25780D0A00636D6434DB
:101260004B53455454494E4757726974652025784D
:101270002025780D0A0000006F746120737A3A25EA
:101280007820636865636B73756D3A25782000007C
:10129000436F64655570646174657632303D2564D2
:1012A0000D0A0000436F64655570646174657633A0
:1012B000303D25640D0A000070B5FF4B00221C680C
:1012C00001252B469340034202D0A154984302D0FB
:1012D000521C202AF5D370BDF0B5F84C221D94465F
:1012E00000282AD0012827D1F34B3033002B23D0FC
:1012F000002001228240114207D01F5C0125266890
:10130000BD402E432660914302D0401C1828F0D3E4
:10131000182001252A4682402B46114209D06446F6
:1013200006462478183EB3401C4363461C70914324
:1013300002D0401C2028EDD3F0BDDF4B1833D5E799
:10134000F0B5DE4C221D944600282AD0012827D172
:10135000D94B3033002B23D0002001228240114290
:1013600007D01F5C01252668BD40AE43266091432F
:1013700002D0401C1828F0D3182001252A468240AC
:101380002B46114209D0644626780446183CA340F7
:101390009E4363461E70914302D0401C2028EDD32B
:1013A000F0BDC54B1833D5E710B5C3494A6814786A
:1013B00021465478240221439478D378240421438D
:1013C0001B06194381431170080A5070080C907075
:1013D000080ED07010BD70B5B74E73681D782A46E0
:1013E0005D782D022A439D78DC782D042A4324065B
:1013F000224302431A70140A5C70140C9C70120E83
:10140000DA70F3681D782A465D782D022A439D78AC
:10141000DC782D042A432406224302431A70140A5E
:101420005C70140C9C70120EDA7008229C182578DF
:101430002A4665782D022A43A578E4782D042A43AC
:101440002406224382431A72100A5872100C9872B2
:10145000100ED87208201A181478204654782402E6
:1014600020439478D2782404204312061043084382
:101470001872010A5972010C9972000ED87270BD6F
:1014800010B58D494A6814782146547824022143C6
:101490009478D378240421431B0619430143117027
:1014A000080A5070080C9070080ED07010BD10B56E
:1014B0008149CA68147821465478240221439478DB
:1014C000D378240421431B06194301431170080AF1
:1014D0005070080C9070080ED07010BD10B5764991
:1014E000CA68147821465478240221439478D3782A
:1014F000240421431B06194381431170080A5070CC
:10150000080C9070080ED07010BD10B56A498A683A
:10151000147821465478240221439478D378240403
:1015200021431B06194301431170080A5070080C2F
:101530009070080ED07010BD10B55F498A6814789D
:1015400021465478240221439478D37824042143FB
:101550001B06194381431170080A5070080C9070E3
:10156000080ED07010BD10B553498A681478214612
:101570005478240221439478D378240421431B0611
:10158000194341401170080A5070080C9070080E01
:10159000D07010BD4849C9680A1D137819465378A0
:1015A0001B0219439378D2781B0419431206114386
:1015B0000840704770B5404C182223699D182E785A
:1015C00032466E7836023243AE78ED7836043243D6
:1015D0002D062A4302401A70150A5D70150C9D7085
:1015E000120EDA7010229D182E7832466E7836026E
:1015F0003243AE78ED78360432432D062A438243D7
:101600001A74100A5874100C9874100ED874203381
:1016100018784008400018706161012028490003D3
:10162000086070BD10B524490A69102153181C7850
:1016300021465C78240221439C78DB7824042143F2
:101640001B06194301431174080A5074080C907466
:10165000080ED07410BD01221949100380310860B2
:10166000BFF34F8FBFF36F8F1348491700690174A1
:101670000B0A43740B0C8374090EC174203001787B
:1016800011430170704710B50B4C182023691918CD
:101690000A7810464A78120210438A78C9781204F0
:1016A00010430906084310215A1813781946537835
:1016B0001B021943937805E0683000208010005029
:1016C00000E100E01B04D27819431206114388435D
:1016D00018D06069002800D08047216918200A18B6
:1016E0001378184653781B0218439378D2781B045A
:1016F0001843120610430870020A4A70020C8A70DE
:10170000000EC87010BD00001648FF2201680132AB
:1017100011430160704713480122016852021143CE
:10172000016070470F480122016892021143016075
:10173000704710B57D242401FF2000230A4A21466A
:10174000013003F01DFA01200023084A214640021F
:1017500003F016FA01200023054A1421800203F049
:101760000FFA10BD50310020091700101717001094
:10177000251700100F4801220168114301607047CE
:101780000C480422016811430160704710B5002322
:10179000094A0521012003F0B4FD0023074AB921BD
:1017A000042003F0AEFD012003F053FE042003F0FB
:1017B00050FE10BD68310020751700108117001011
:1017C00010B5FB4C012020616061FAA0A0612046A9
:1017D0004830E061012080020021A1622062616244
:1017E000F4A0E1622063F648606321641020E163A5
:1017F000A0636164F3A1E01D04F022F8F2A1204689
:1018000004F01EF82020A07110BDF7B5054682B087
:1018100000200090EC6817462869A04201D9061BF9
:1018200002E0A968201A0E1AA868761E001BB042B2
:1018300000D80646BE4200D33E46686832460019CC
:10184000039903F0C5FF0098BF1B8019009003980F
:10185000A41980190390A868A04200D10024EC606C
:10186000002FD9D1009805B0F0BDF7B50446C76880
:101870008068E168C51B606816464018B54205D906
:10188000019903F0A5FFB819E060FEBD2A46019951
:1018900003F09EFF0198761B41193246606803F001
:1018A00097FFE660FEBDFEB5C14F05463878164687
:1018B0000C46002801D1FFF783FF18204543ED199E
:1018C00000942C6CE86B002730350190844213D9CA
:1018D000A868071BB74200D3374668683A46011923
:1018E000009803F075FF0098F61BC0190090A868D7
:1018F000E419A04200D100240198001BB04200D29C
:101900000646002E07D0686832460119009803F099
:101910005FFFBF19A419002F00D02C613846FEBD0F
:1019200010B5EFF31084012383F31088FFF7BBFF9A
:10193000E1B281F3108810BDF8B50F461821484375
:101940009B4915464418A16A606A1834884201D13F
:10195000A06804E021698842216902D2081A401E69
:1019600003E0081AA168401E401885420BD921697E
:10197000281A08182061A06802E02169091A21616B
:1019800021698142F9D2E168A068461AE16860687D
:10199000AE4208D940182A46394603F019FFE068DC
:1019A0004019E060F8BD40183246394603F010FF98
:1019B0000020BF19AD1BE060A668761E002DE5D1A2
:1019C000F8BDF8B5009118214843794916464418E6
:1019D000A06A656A1834A84221D8A1684F1B791EF5
:1019E000B14207D360680099401903F0F1FEA819CD
:1019F000E06012E00818B04215D3B742F2D8606830
:101A00003A464019009903F0E3FE0098F21BC11911
:101A10001546606803F0DCFEE5600120F8BD401B60
:101A2000401EB042DED20020F8BD70B50E4618212F
:101A300048435F4914464518E86A1835002804D021
:101A400001280FD0022805D113E0284600F0A4FA9F
:101A5000A04201D2002411E0224631462846FFF779
:101A600004FF0BE0284600F097FAA042F4D20446A7
:101A7000F2E731462846FFF7C8FE0446204670BD0F
:101A8000F8B507464A48154600780E46002801D1A9
:101A9000FFF796FEEFF31084012080F310882A46AA
:101AA00031463846FFF7C1FFE1B281F31088F8BD37
:101AB00070B505460C46084603F0AEFE02462146C8
:101AC0002846FFF7DDFF70BD18225043384A10B595
:101AD0008018426A046A13461830521C944200D19E
:101AE00000220469944204D04468E154C260012099
:101AF00010BD002010BD70B52D4D064628780C464F
:101B0000002801D1FFF75CFEEFF31081012080F384
:101B10001088182046437019426A056A1346183027
:101B2000521C954200D100220569954204D04568B7
:101B3000EC54C260012000E00020C9B281F310889B
:101B400070BD70B51A4D064628780C46002801D1A4
:101B5000FFF736FEEFF31083012080F31088182082
:101B600046437019426A016A15461830521C914268
:101B700000D100224169022902D101699142FCD0C1
:101B80000169914204D041684C55C260012000E0D7
:101B90000020D9B281F3108870BD08B501226946D2
:101BA0000020FFF7BDFE012812D00020C04308BD71
:101BB000603200205465726D696E616C0000000037
:101BC000A836002052545400534547474552000060
:101BD00068460078EBE710B5FFF7DFFF0028FBDB76
:101BE00010BD10B5F24C2078002801D1FFF7E8FDB8
:101BF000E16B206C814201D0012010BD002010BD9E
:101C000018214843EA494018C16B006C081A704714
:101C1000FFB5E74C0746207881B015460E460028F0
:101C200001D1FFF7CDFDEFF31082012080F3108882
:101C300061690020182343431B195B6B002B02D002
:101C4000401C8142F6DC81420BDD18214143091919
:101C500000230B640F634E638D63CB63049B4B6463
:101C600001E00020C043D1B281F31088FBE5FFB54D
:101C7000CF4C0746207881B015460E46002801D18A
:101C8000FFF79EFDEFF31082012080F31088216999
:101C90000020182343431B19DB69002B02D0401C92
:101CA0008142F6DC81420BDD1821414309198F6125
:101CB000CE6100230D628B624B62049BCB6201E01C
:101CC0000020C043D1B281F31088CCE5FFB5B84FF6
:101CD0000446387881B01D461646002801D1FFF72A
:101CE0006FFD3869A04218D9EFF31080012181F30C
:101CF00010881821AE4A61438918002C06D0029A38
:101D0000CE610D628A6100228A624A620A9AC0B27A
:101D100080F31088CA620020A5E50020C043A2E538
:101D2000FFB5A34F0446387881B01D4616460028FB
:101D300001D1FFF745FD7869A04218D9EFF3108073
:101D4000012181F310881821994A61438918002CD8
:101D500006D0029A4E638D630A6300220A64CA6346
:101D60000A9AC0B280F310884A6400207BE5002004
:101D7000C04378E570B58E4D044628780E4600289D
:101D800001D1FFF71DFD2869A0420DD9EFF31080A6
:101D9000012181F3108818214C436119C0B280F3EE
:101DA00010888E61002070BD0020C04370BD70B5EA
:101DB0007F4D044628780E46002801D1FFF700FD2C
:101DC0006869A0420DD9EFF31080012181F31088DA
:101DD00018214C436119C0B280F310880E630020B3
:101DE00070BD0020C04370BD70B5714D04462878A9
:101DF0000E46002801D1FFF7E3FC2869A0420DD967
:101E0000EFF31080012181F3108818214C436119F0
:101E1000C0B280F31088CE62002070BD0020C043A5
:101E200070BD70B5624D044628780E46002801D179
:101E3000FFF7C6FC6869A0420DD9EFF310800121BD
:101E400081F3108818214C436119C0B280F31088C7
:101E50004E64002070BD0020C04370BD10B5FFF778
:101E6000AFFC10BDF8B5044651480078002801D1F8
:101E7000FFF7A6FCFF20002569460870102C2AD227
:101E80004C484B4E005D48701836EFF31087012028
:101E900080F31088307D8007800F02280DD03046F7
:101EA00000F07AF8022810D342480222401E047043
:101EB00069463046FFF7D9FC09E03E480222401E41
:101EC00004703046FFF7A1FC01E00025ED43F8B2B5
:101ED00080F3108801E00025ED432846F8BDF3B5F6
:101EE000334883B00078002801D1FFF769FC002750
:101EF0000398FF43102840D22D48183000900498D2
:101F000003F08AFC0546EFF310800190012080F376
:101F10001088009800F040F804460098264E007D96
:101F20008007800F04D0012807D0022807D11FE0C6
:101F3000281D84421CD2002415E0042C01D23C460A
:101F400011E00399009800F01BF8201F854200D390
:101F500005462A4604990098FFF757FC0446317855
:101F6000009800F00DF80198C0B280F3108805E0E9
:101F70000399009800F004F8EBE73C46204672E431
:101F800008B5FF226B461A700A4A515C597002224A
:101F90006946FFF73AFC0AE60269C1688A4203D83B
:101FA0008068401A801800E0501A401E70470000F8
:101FB00060320020B5300020B430002010B5044657
:101FC00080686368421C934205D323681954A26059
:101FD000E068401CE060A2686068824209D1216824
:101FE0002069FFF74DFDA168884203D00020C0435F
:101FF000E06010BD0020A06010BDFFB581B00126DB
:102000001F4635460A9C029802E003F0B7FB6D1CA0
:1020100003998842F9D2AF4200D93D460B98C007D8
:1020200018D1002C16D00B98800701D5002F02D0B4
:10203000202000900CE03020FBE7641E00990198FE
:10204000FFF7BCFF0198C06800283DDB002C01D0E1
:10205000A542F2D30198C068002835DB012F01D9D1
:102060007F1E06E03146029803F088FB0399884200
:1020700002D303984643F1E7D24F3146029803F06A
:102080007DFB0146029A7143511A0291395C019815
:10209000FFF794FF0198C068002805DB30460399DC
:1020A00003F06CFB0600E8D10B98C0070CD0002CA5
:1020B0000AD0A54208D22021641E0198FFF77EFFB6
:1020C0000198C0680028F2DA05B0F0BDF7B59AB003
:1020D00007A802904020039000200C461A9915464C
:1020E00004900826069105902178641C00296ED082
:1020F000252907D002A8FFF761FF05980028F3DA29
:102100001DB0F0BD012200201346022721782329AB
:102110001BD02B2916D02D2902D0302906D101E061
:10212000184300E03843641C002AEFD100212278D4
:102130001346303B0A2B0AD20A23594389183039F7
:10214000641CF4E704210843EDE73043EBE7002388
:10215000D7B22E2F0AD1641C22781746303F0A2F9F
:1021600004D20A277B439B18303BF4E76C2A0CD03F
:10217000682A0AD0662A3FD00FDC582A30D007DC04
:10218000252A6FD0462A71D136E06278641CEDE7CB
:10219000632A0BD0642A69D10DE0702A57D0732AC4
:1021A00046D0752A14D0782A60D119E02868011D1C
:1021B0002960017857E02A68171D2F601768009181
:1021C00001900A22394602A800F098F84EE04FE04C
:1021D0002A68171D2F6017680A220091019006E0F7
:1021E0002A68171D2F601768102200910190394648
:1021F00002A8FFF702FF39E000201790189019900D
:10220000286817AFC01DC008C0000146083129600A
:102210000CC86DA1384603F0EDFE39787F1C00290B
:1022200024D002A8FFF7CAFE05980028F5DA1DE0C1
:102230002868011D2960076839787F1C002915D09E
:1022400002A8FFF7BBFE05980028F5DA0EE0286823
:102250000823011D296001680020102200960190CA
:10226000C6E7FFE7252102A8FFF7A8FE641C44E7A4
:10227000002800DC44E70498002804D0024607A99F
:102280001A98FFF7FDFB049905984018059037E769
:102290000FB408B504A900916A460399FFF716FF29
:1022A00001B008BC04B01847FFB5002481B01D463A
:1022B0001646002902D00198FFF7EAFF01277F07A1
:1022C00013E0600704D1A2B241A10198FFF7E0FF3B
:1022D000325D41A10198FFF7DBFF6007F84203D1AF
:1022E0003FA10198FFF7D4FF641CAC42E9DB600713
:1022F00003D03BA10198FFF7CBFFE5E6FFB583B024
:102300000E4670420D9F0C9C0090002900DB084691
:10231000012502E003F048FA6D1C05998842F9DABC
:102320000698A84200D90546002C04D0002E01DBF7
:10233000780700D5641EB80702D50698002810D08B
:10234000F8070ED1002C0CD0A5420AD22021641E21
:102350000398FFF733FE0398C0680028F2DA07B04D
:10236000F0BD0398C0680028F9DB002E02DA2D21A9
:10237000009E02E0780707D52B210398FFF71EFE89
:102380000398C0680028EADBB807800F022810D144
:10239000069800280DD1002C0BD0A54209D230217F
:1023A000641E0398FFF70AFE0398C0680028F2DA5B
:1023B000D5E7019700943146069B059A0398FFF7ED
:1023C0001CFECCE77877001025342E336600000021
:1023D0005B253034785D2000253032782000000005
:1023E0000D0A00000448804704480047FEE7FEE766
:1023F000FEE7FEE7FEE7FEE709240010C10000103B
:102400000449034808607047024901480860704762
:102410000024F400C8300020F1B5F8488047074692
:10242000F74880470646F54C0120183CA047F44D7C
:1024300000200C35A847F349009888473046A84744
:102440003846A047F8BDF0B5EF4DF048E96885B0D3
:102450000818044603F0FDF92146401C03F003FA76
:102460000024E9480125C668E8480C383118039172
:10247000487C097C00020843A540284202903BD0DA
:102480000B2060438119E148009109300818019040
:1024900003F0DFF90746DD48301803F0DAF9874228
:1024A0002AD10F21009889014018007D00280CD006
:1024B000D64A00990D3A8A18517D127D09021143BE
:1024C0007818019903F0CFF905E002980399A84321
:1024D0000874000A4874CD4800990D30081803F0BC
:1024E000B8F9002808D0022D19D0042D17D0082DD6
:1024F00015D0102D1AD08047641CE4B20A2CB0D33A
:10250000C148C168C1480C380918487C097C0002E0
:102510000843800501D1BE48804705B0F0BDBD49E4
:10252000012088470028E7D0222005E0B949012092
:1025300088470028E0D03B20FFF76EFFDCE710B5AE
:10254000B14912200969887072B60121B04A03208E
:10255000B43A904762B610BDFEB5002168460171DD
:102560000170AD4F0172AD4EA74CB847A07102ABE0
:102570006A4601A9606902F00AFA00284ED00820D4
:10258000B047002803D00220B04700280FD068468B
:102590000078012811D0E0686569407A01283ED0B2
:1025A0000228E2D19E4AA17928469047DDE7012121
:1025B00068460170007A00282DD02521E068490185
:1025C0004118497B6569002908D09049D4314118E8
:1025D000487B097B0002084392498847284602F05D
:1025E00029FA0028C1D068468D4A0179963260697F
:1025F00090472878C0438007B7D1A8781228B4D173
:1026000021691320887072B60121814A0320B43AEF
:10261000904762B6A9E73D20FFF7FEFEFEBD287891
:102620000007000F0528A0D1687E297E000208431C
:10263000062805D3687F297F000208430A2803D2B1
:1026400070491220884790E77349EE31A81C8847EB
:10265000287887224006C10FE06811540622A91C81
:10266000883003F0B5F83721206903F0CAF87CE719
:10267000F0B5684999B00420884700280ED0654914
:1026800004201A31884762491F20AC3188476648C8
:1026900080471620FFF7C0FE19B0F0BD63488047A1
:1026A000002810D0584DEC68A1790807F4D5E079DE
:1026B000C2071CD05E49204698308847E868C17937
:1026C000490849001FE0594E574F574DB2361C3745
:1026D0006C46103507E06846B0470128DCD16846F3
:1026E0000178601CB847A8470028F4D0D4E78207D7
:1026F0000BD54F4A20461C328E30811C9047E8682B
:10270000FD22C17923E0C171C6E7420708D54849D7
:1027100020466031A8308847E868FB22C17916E07E
:102720000207F726002A09DA414A21464232A07AF6
:102730000B319047E868C1793140E4E7C00608D51D
:102740003B4968467C318847E868EF22C1791140EF
:10275000D9E720463140FF30A1712130017D0026AC
:10276000002910D006752146072287310CA803F0F6
:102770002FF821460DA82A228E31033003F028F8C5
:102780002C490CA8884701206946087048708E7053
:10279000E96800A82A2203308E3103F019F82D22AF
:1027A0000821254C6B460020A04775E716490128F3
:1027B000896A0FD0022811D0042812D0082813D01B
:1027C000102814D0202815D0402837D0802839D0A0
:1027D000012070478878C007C00F7047887880074D
:1027E0002EE0887840072BE08878000728E088787A
:1027F000C00625E08878800622E00000BF65000062
:10280000776A0000CF16000004310020CE030000DC
:1028100001120000F50A0000495700007919000074
:102820008B1E00002B620000BD600000054E000002
:1028300027260000DF470000A13E00008878400600
:10284000C00F70478878C009704710B5017801291A
:102850001FD1401C02F0FDFFFE4A10283AD00DDCCB
:10286000012817D002281DD0042823D0082810D111
:10287000FFF79CFF00280CD1F74809E0202839D049
:10288000402806D1FFF792FF002802D1F2485430C9
:10289000804710BD0120FFF789FF0028F9D1FFF71D
:1028A000E7FE10BD0220FFF781FF0028F9D1FFF7F6
:1028B00053FE10BD0420FFF779FF0028F9D1D0683E
:1028C000407A012803D00228F3D1E448E0E7E34846
:1028D000AE38DDE71020FFF769FF0028E9D1906AE4
:1028E0002030407D400701D53E2000E00820FFF762
:1028F00093FD10BD2020FFF759FF0028F9D1D648DD
:102900004830C5E770B510250826D24C002821D0E4
:10291000A06A817E31438176014660310A7E637808
:1029200052095201DB06DB0E1A430A762030427B45
:10293000067B1302E26833432332547C167C220266
:102940003243934214D00273120A4273C87D284363
:10295000C8750DE002F008F8A06A00220146203197
:102960000A734A736030C17D2943C175BC4806773C
:10297000012070BDB748C0682330417C027C08024A
:1029800010430BD0B74948780A780002104303225D
:1029900010430870000A48700120B3E7704730B454
:1029A000B14CA44630BC6047F8B5AE48407A00064A
:1029B00063D5A848C66830462330417C007C0F02AE
:1029C000A84907434878097804020C43002F01D135
:1029D000600752D5A34DA87B697B00026D1C08439C
:1029E0004BD0002F49D068792979000208432ED1B5
:1029F0002136707C317C0002084303F045F9002247
:102A00009A4B03F045F803F04DF980B27843642106
:102A100002F0CAFE4004010C2971080A68710A20FC
:102A20004143707D327D00021043814206D30A216A
:102A3000401E02F0B9FE2871000A68716879297990
:102A40000002084303D101202871002068718548E5
:102A5000A10709D502218C4301210C430470210AEE
:102A600041700020FFF74EFF68792A790102114377
:102A70007F4B00224020FFF792FFF8BD1CB579493B
:102A80004A7A002A40D04A780B7812021A43D306B9
:102A90003AD44378047818022043012834D1C87806
:102AA000401E0006000EC8702FD08B780846017BB0
:102AB000C47A0A022243017AC47909022143C01C64
:102AC000012B2AD0521A0272120A42721206037A9B
:102AD000120C1A43521A69460A80427A017A120687
:102AE00012140A4369464A805E498A7B497B120276
:102AF0000A4369468A80417B027B0802104369468B
:102B0000C8805C49684688471CBD887AC8704020E8
:102B100002430A70100A48701CBD5218D3E7564A87
:102B20001047554A2032104738B5002469460C70CA
:102B300021467F20FFF7F5FF00213B20FFF7F1FF43
:102B400029213B20FFF7EDFF69463B20FFF7E7FF18
:102B500068460078800701D5012038BD641CA4B206
:102B6000FF2CF1D9002038BD10B544488047012022
:102B700010BD10B53749424A8870002807D1C8688F
:102B80008078022803D000209047012010BD01204A
:102B9000FAE710B52F4C0128E168887004D00028AE
:102BA00031D0022846D073E0206B014620300278F5
:102BB0005208520002700278FD231A400270087811
:102BC000800980011C3008704878800980011C3021
:102BD000487000217F20FFF7A4FF03212120FFF789
:102BE000A0FF1F210320FFF79CFF02217F20FFF79A
:102BF00098FF01210020FFF794FF00217F20FFF7BD
:102C000090FF0F2141E000217F20FFF78AFF002184
:102C10000420FFF786FF02217F20FFF782FF0021BB
:102C20000846FFF77EFF00217F20FFF77AFF002193
:102C300003202BE002217F20FFF773FF03210020F8
:102C4000FFF76FFF00217F20FFF76BFF00210320BC
:102C500018E000000431002079160000271500005C
:102C600020000240CF380020AB4400000000F43FB9
:102C70007529001033420000C561000007470000BD
:102C8000A7650000FFF74DFF00210420FFF749FF73
:102C9000A078FFF76EFF012010BD10B5FFF779FF98
:102CA000012010BD10B5F6488047F648C06A017A89
:102CB000DF2211400172012010BDFEB5F2488047AD
:102CC000F04C0190E06A817A007ACF07FF0F00266E
:102CD000C506EE49ED0E48780978000208438006E3
:102CE00008D5A06A2030417B027B0802104301D046
:102CF000FFF75AFEA80702D00126FFF7D3FFE148ED
:102D0000C06A817A490849008172DF490120183977
:102D100088470220FFF73DFFDD49642088470024F3
:102D200069460C70254601217F20FFF7FAFE00213D
:102D30000A20FFF7F6FE22210A20FFF7F2FE69467D
:102D40000A20FFF7ECFE684600784007EFD469469A
:102D50000A20FFF7E4FE68460078400705D568467C
:102D60000078000706D4012504E0641CC948A4B219
:102D70008442ECD3C649642088470020FFF709FF4E
:102D8000C149019818398847BE48C06A817A490804
:102D9000490039438172002E02D0B9480C3880476F
:102DA000002D01D00120FEBD0020FEBD10B5112177
:102DB000B64802F026FD10BD70B50446401C02F076
:102DC00048FD022818D0042819D00121490488425E
:102DD00047D125462035687B092301070209090FE1
:102DE0000020072A1CD0032A20D0022A25D0012A3D
:102DF00029D0002A2DD032E0FFF7D8FF3AE0A14DCC
:102E00000121E868FF302130017501F05EFEE868BD
:102E10008078002801D1FFF750FFFFF785FE29E0F9
:102E2000581A062148434121C94304E0581A062193
:102E300048433521C943081A10E0581A062148436F
:102E40002321C943F7E7581A062148431721C943EC
:102E5000F1E7581A06214843801D404240B268738A
:102E600008E040281DD00121C903884202D1601D1D
:102E7000FFF704FE85494878097800020843800678
:102E800007D5601C02F0E5FC0005000F01D0FFF73C
:102E90008BFD7C483C3002F0DCFC01462046884734
:102EA00070BD7848383002F0D4FC4006E2D570BDE1
:102EB000F0B5744C0646E0688DB0FF302130407CA0
:102EC0000D46002829D0002D26D072B6A0681830F3
:102ED00002F0BFFCE1683222FF312131897C6E4B68
:102EE000514340186A463221984762B6002E04D0FA
:102EF000E068FF302130807C3070E7680A21FF37BE
:102F00002137B87C401C02F039FCB974E078401CD1
:102F1000C0B2E0700A2802D900200DB0F0BD6846AA
:102F200000780128D1D100A907222846013102F0FA
:102F30004FFC2A22E81D02A902F04AFC0120ECE71E
:102F4000F0B5054655498DB0202088474D4C0426E4
:102F5000E16820690F4686700822C01CC931BD3760
:102F600002F036FC2069042239460B3002F030FCB6
:102F70000D214B4A03209047E068294608220A3178
:102F8000C13002F025FCE068294604221231B93034
:102F900002F01EFC287A434F002802D1687A0028EC
:102FA0001FD00020E070E0682A7A01468030837BE1
:102FB0009A420AD16A7AC07B824206D10822284608
:102FC000903102F030FC002817D069460020FFF74E
:102FD0006FFF012826D006220021334B012098479D
:102FE0009BE7E06802228179114302468171C13278
:102FF000FF3011461030B84710E0E0688179024692
:1030000031438171C13211469830B847E068803051
:103010008079012802D12149022088472248A03026
:1030200080477AE7E06801A92A228E30033102F056
:10303000CFFBB8E77CB5451C8078297800020843AF
:10304000104C022810D00F2810D001211D2810D0BC
:10305000FF3810280DD0154A69460120904768783E
:1030600029780002084302E0032000E0022060719A
:103070007CBD61717CBD0348407970470C490847AD
:103080001347000004310020BF650000CF38002046
:103090002B620000FFFF000059530000050B0000E9
:1030A0004D11000019220000D91900001F1D000059
:1030B000B34400001CB5FF48082101700021417095
:1030C000017BC27A0902C01C114341D042790379C5
:1030D00012021A43891A0BB26A461380417A027AA5
:1030E0000906091411436A46518019220624D201A7
:1030F000062B02DA6B461C8003E0934201DD6B462F
:103100001A80062902DA69464C8003E0914201DD0B
:1031100069464A80417B027B080210436946C880A9
:10312000E448817B427B0802104369468880E2487C
:10313000C0682330417C027C0802104302D000208A
:10314000FFF7E0FBDD4968468847DD4940208847B6
:103150001CBDD84948780A7800021043C2050CD536
:10316000FF22013290430870000A48700879401E1F
:103170000006000E087109D09CE72022104310229F
:103180009043042210430870000A48707047FEB54F
:10319000C84D0446687829780002084300077DD5A9
:1031A000C848804769782A78090211430822914368
:1031B00029700A0A6A706B7A064628461A066ED586
:1031C000A27967791202651C3A43BB4FE41C002ABE
:1031D00077D01022114301700A0A427088065ED42B
:1031E000687929790002084332D002F04DFD01913F
:1031F0000090607821780002084302F045FDB24C4F
:103200000022234602F044FC019B009A02F040FC9D
:1032100001910090F8682130417C027C0802104343
:1032200002F032FD0022234602F032FC07460C4633
:10323000687A297A00020843801B02F011FD3A46A1
:10324000234602F025FC019B009A02F06FFB24E06C
:10325000607821780002084302F0FAFC0446F8681E
:103260002130417C027C0802104302F0F1FC21462F
:1032700002F002FB02F034FD0022934B02F008FC46
:1032800007460C46687A297A00020843801B02F040
:10329000E7FC3A46234602F0FBFB02E06EE064E006
:1032A0000FE00022894B02F05BFC02F0FBFC010402
:1032B000090C00D10121864B00228020FFF76FFB13
:1032C00053E09A0651D58278012A4ED18A064CD411
:1032D000FF227848013211430170090A4170607879
:1032E00021780002084373490A7BCB7A1102194303
:1032F00088423AD902F0ACFC0446F8682130417C9F
:10330000027C0802104302F0A3FC214602F0B4FA4A
:1033100002F0E6FC00226C4B02F0BAFB07460C46BA
:10332000687A297A00020843801B02F099FC3A4629
:10333000234602F0ADFB0022644B02F011FC02F0C8
:10334000B1FC0104090C00D10121614B0022802055
:10335000FFF725FB57484178027809021143FF2205
:10336000013211430170090A417003206946088146
:1033700002229103574C02AB0020A047FEBD10B5BE
:103380000446007800280DD1A17862780802104325
:1033900009D001281ED0032827D00C2802D1201DD7
:1033A000FFF748FE10BD01F0DFFA4B49201D8847AA
:1033B000002802D12820FFF72FF8201DFFF7E7FE95
:1033C0003D480121C368062209040020414C3133E5
:1033D000A04710BD01F0C8FA4049201D88470028C9
:1033E000F7D12820FFF718F810BD201DFFF7A8FD22
:1033F00010BD10B50078012801D1FFF724F810BDE9
:10340000F0B5374885B0804701217F20FFF789FB61
:1034100069465020FFF783FB68460078042801D0F6
:1034200030488047FFF780FB234CE0688078012814
:103430006DD002287ED0FFF740FC0125684645800C
:10344000058029481E4901906846843988476846A6
:10345000057045700025458024480190244BE068A4
:1034600008226946C01802F0B3F9164E0121402027
:103470005E3EB04701218020B04701212020B047A7
:10348000FF210C31684601800B2141808580C58079
:10349000058145818581C581164804901649684695
:1034A0008847A0680A3002F0D4F9024A134B573A11
:1034B000572126E0CF38002004310020334200009D
:1034C000B3440000BF5500000000F43F0000594025
:1034D00053310010A13E00005D5B0000475F00001B
:1034E000793D0000F7460000F33300104B28001030
:1034F000CE0200007F3300108D43000059530000BE
:1035000005E0984701F0E1FA012005B0F0BDFE4862
:1035100080470746E06A817ACD07817AED0F490836
:1035200049008172F84E0120183EB0470220FFF793
:1035300030FB00E00EE0F549642088470120FFF7EA
:1035400028FB3846B047E06A817A49084900294398
:10355000817272E70220FFF71CFB6EE710B5EC48A2
:103560008047012010BDEA4910B51E31884701206F
:1035700010BDE74910B554318847012010BDE4491A
:1035800010B560318847012010BDE14910B56E319A
:103590008847012010BDDE4910B57E3188470120E3
:1035A00010BD10B5DA4CE634A047012010BDF8B5C7
:1035B000D84CD949E0683730884720693B230178E7
:1035C000BF250A09E16812015B5C1B071B0F1A4348
:1035D00002701207120F012A79D00B4640335A7835
:1035E0001B7812021A430B4642331A70120A5A70A1
:1035F00002788B7A2A409B011A435206520E0270BF
:1036000066235B5C42789B1D92099B0692019B0E90
:103610001A4342700622801C0B3102F0D9F8E1688F
:103620006620425C002A04D020696731083002F02D
:10363000CFF8E0680021203041772069B74A41780F
:103640008906890E891C9047206901780A091201B0
:10365000121D0270E1682A408B7ADB075B0E1A4369
:10366000027046235B5C42789B1D92099B06920187
:103670009B0E1A4342700622801C0B3102F0A8F800
:10368000E1684620425C002A04D0206947310830B6
:1036900002F09EF82069A14A41782C328906890EF1
:1036A000891C9047E068012705462035E97E0129FD
:1036B0003BD000294CD002294AD0062948D000230B
:1036C000974C1A4601211846A047F8BDFFE70A4665
:1036D0004032137953718B7A0278DB072A405B0EF4
:1036E0001A43027087235B5C5206520EDB011A43B9
:1036F000027042780B31920992010C32427006221C
:10370000801C02F065F82069E168062208308831E3
:1037100002F05EF8E16803223D2042547E4A872091
:10372000405C323A8831904787E740304179002940
:103730000AD028200621A26A937EFD242340937696
:1037400017756B7F2A7F43E0477101200146F2E73E
:1037500006464236717832780B02134317D019218E
:1037600089014B432230417F047F0802204301221C
:103770008004800C009006D00146184601F0FEFF40
:10378000421C7F2A10D8D4B23770380A14E0377040
:10379000390A71702230417F027F080210430124F0
:1037A0008004800C009008E07F24104621467E3083
:1037B00001F0E4FF3070000A70705648806A817E24
:1037C00002221143817607756B7F2A7F009920467C
:1037D000544CA04753483E30804776E710B5FFF77A
:1037E000E6FE012010BD10B54F490320087047497F
:1037F00064201A3188474D488047012010BD72B6B9
:103800000021444A906A4175037C01210B430374F3
:10381000D06845221154423001700021417062B6D7
:103820000120704710B542498847012010BDF0B50E
:10383000384CA56A2C4660342678FD27C0073E40E8
:10384000800F06432670A170627062352B71180AD2
:10385000687105982071000A6071F0BDF8B52D4DB2
:103860002D49E868373088471120EF68002480012F
:103870003D186E79A8790321401C01F07FFF0120DB
:103880008840A971064203D1641CE4B2032CF1D331
:103890001125AD017C19607B217B00020843A91C26
:1038A0007F18010A1B4E3873797300280BD0607A99
:1038B000227A010219201143800101F05FFF020604
:1038C000120E04D004E00120387300207873012226
:1038D000787A397A000208430090607A217A0302EC
:1038E0000B43A0791349095CE079FFF7A0FFF0686A
:1038F000002140190171C17001744174817800295F
:1039000001D008291AD917E0BF6500002B6200001A
:10391000833D000004310020B1570000D960000051
:10392000A13E00005F560000000002400747000073
:10393000014100008877001008218170F948804714
:10394000C3E610B5FFF78AFF012010BD10B5F64899
:103950008047012010BDF44910B508318847012087
:1039600010BDF14910B516318847012010BDEE4950
:1039700010B578318847012010BDEC49487001200E
:103980007047E94910B586318847012010BDE64AE5
:1039900010B58E329047012010BD7CB5054601F070
:1039A00058FFE2490446383101F05DFF281D01F05F
:1039B00050FFDE493C3101F056FF40208443DC4893
:1039C000D9490190009468469631884701207CBD12
:1039D00010B5D8498847012010BDD64A10B5083225
:1039E0009047012010BD10B5D3488047022801D967
:1039F000002010BD012010BDF8B50E46CF49074686
:103A000048780978000208431C461546800609D507
:103A1000C648806A2030417B027B0802104301D0F7
:103A2000FEF7C2FFC6490120884700280CD0C248D3
:103A30008047022809D972B62346BE4C2A46314631
:103A400038461834A04762B63FE600203DE6BD493F
:103A5000084710B50446BA4901208847002803D01A
:103A6000B84920460831884710BD70B50546B44AAC
:103A70000C4601209047002804D0B24A214628462F
:103A80002232904770BDFFB50F4681B0AC491D464C
:103A9000164601200A9C8847002807D00094A94CAC
:103AA0002B463246394644340198A0472DE5F8B5F7
:103AB0000E460746A2491C461546012088470028A5
:103AC00006D023469F4C2A46314638467C34A047D0
:103AD000FBE510B504469A4901208847002803D029
:103AE00098492046AC31884710BD70B50546944AC8
:103AF0000C4601209047002804D0924A21462846CF
:103B0000C632904770BD70B505468D4A0C460120FF
:103B10009047002804D08B4A21462846E832904737
:103B200070BDF8B50E46074685491C46154601206E
:103B30008847002805D02346834C2A46314638461C
:103B4000A047C2E570B50D4606467D4914460120E2
:103B50008847002805D07C4B224629463046303322
:103B6000984770BD70B50D4606467549144601204C
:103B70008847002805D0744B2246294630465C33DE
:103B8000984770BDF8B50E4607466D491C46154668
:103B900001208847002806D023466B4C2A46314630
:103BA00038468834A04790E510B5044664490120A2
:103BB0008847002803D064492046B831884710BDA3
:103BC00010B55F4901208847002802D05E48CC30FC
:103BD000804710BD70B5554D0446082804D0E868EC
:103BE000407808280DD014E000217F20FEF799FFCF
:103BF00001214020FEF795FFE86A0178C908C90055
:103C00000EE000217F20FEF78CFF00214020FEF710
:103C100088FFE86A01786207C908C900520F11439A
:103C20000170E8684470012070BDD3E710B5044608
:103C3000464880472070012010BD10B50446434817
:103C4000801D80472070012010BD404910B51C31F7
:103C50008847012010BD3D4810B5723080470120D3
:103C600010BD3B4800473B4908473A491A310847CD
:103C700008B53949684688476846C0788007C00F4C
:103C800008BD08B53449684688476846C078C00909
:103C900000D0012008BD10B5FEF741FF10BD10B5E2
:103CA000FEF73FFF10BD2148806AC07B052805D084
:103CB000062803D00F2801D000207047012070474C
:103CC00010B5FFF7F0FF002802D12048523080479E
:103CD000012010BD10B515490122886A4275437C48
:103CE000DB09DB019B1C4374931E83741B0AC374A2
:103CF000C96ACB7AEF242340CB724B7B93434B733F
:103D00008B7A13438B72817E022319438176017C67
:103D1000114301740F4905201A3188470F48804725
:103D2000012010BD255700001D4200000431002075
:103D3000B92D00102D4300002B4E0000CF3800207D
:103D4000F50A0000B73A0000BB3B00009F440000AA
:103D5000FB5F00002B6200004D650000E54600009F
:103D600010B5F84880470120DBE710B5F6498847D1
:103D70000120D6E7F44910B5183188470120D0E773
:103D8000F04910B5463188470120CAE7ED499A311C
:103D90000847EC4910B5E83188470120C1E710B564
:103DA000EA4880470120BCE7E84810B51830804752
:103DB0000120B6E7E54BA2331847E44BD833184748
:103DC000F8B50746E248002680680D46344628309C
:103DD00001F03FFD2903C9194118DD48406B8142BC
:103DE00011D9002071E472B6D9488068283001F0FA
:103DF00030FD2103C9194018D64A012190470646D3
:103E000062B6641CE4B2AC42EDD330465DE4F8B572
:103E1000CF4D0446A86817460E46283001F019FD1C
:103E20000146A21980186A6B90420AD8002908D06E
:103E300072B60819C74B3A463146EA3B984762B614
:103E400043E4002041E4F8B5C14D0446A868174694
:103E50000E46283001F0FDFC0146A21980186A6B5D
:103E600090420AD8002908D072B60819B94B3A46D0
:103E70003146823B984762B627E4002025E470B5BE
:103E8000B54800240078B34EB14D00280DD001286C
:103E90001ED024E072B6143001F0DBFC2103401880
:103EA0000121B04762B6641CE4B2A868C17B827B82
:103EB00009021143A142EDD811E072B6103001F0B1
:103EC000C8FC210340180121B04762B6641CE4B26B
:103ED000A868C17B827B09021143A142EDD8012071
:103EE00070BD70B504460D46000B421998488068B5
:103EF000C17B837B090219438A4201D9002070BD2E
:103F00009549944E0978002902D0012903D00AE08E
:103F100072B6143001E072B6103001F09AFC00194C
:103F20002946B04762B6012070BDF8B504468A48FC
:103F30000F4601788648874D8068823D16460029E5
:103F400002D0012903D00BE072B6143001E072B642
:103F5000103001F07EFC001932463946A84762B69F
:103F600001203AE430B47A4B9C68E37BA47B1B02CB
:103F700023431B03834202D230BC0020704730BC75
:103F8000D3E730B4754CA44630BC6047F3B57048F5
:103F900089B080680024283001F05BFC074609984E
:103FA0004609002511E072B668016A4BC01920214C
:103FB0006A46EA3B984762B6002069460A5C401CA4
:103FC000121994B22028F9D36D1CB542EBD309988D
:103FD000C606F60E72B6314668015E4BC0196A46D7
:103FE000EA3B984762B60020694603E00A5C121972
:103FF00094B2401CB042F9D30A98844202D1012005
:104000000BB0F0BD0020FBE7F8B54E489C38804768
:10401000514C5734607A002840D00006042500280F
:104020000FDA6078217800020843400709D5FEF7CF
:10403000BBFC6078217800020843A8432070000A86
:1040400060706078217800020843454F454E410674
:104050000CD5402188432070000A60700220694618
:10406000088002466B4639460020B04760782178C8
:1040700000020843C10711D0400840002070010A27
:104080006170800702D56846058002E00520694618
:10409000088002226B4639460020B04750E432487F
:1040A000004738B52A4C2078002805D126496846B3
:1040B0007E39884701202070012038BDF8B502788C
:1040C000002A70D0244957314A7242788A72002AF5
:1040D00001D0042A01D904228A72C278847813029A
:1040E0001D4A23435732D3721C0A1473447905794D
:1040F00024022C4315466C73240AAC73C479857969
:1041000020022843D073000A107411480827C068A1
:10411000D21C2130447C007C240204430120A342B1
:1041200028D900258D701B1B8C7AA34204DA1071EC
:10413000000A50718B722AE0E400A34216DA107173
:10414000000A15E0F7460000CB65000003480000B8
:104150000431002043540000783800207B4A0000DE
:1041600000800000A13E0000F94B00001771380AE2
:1041700050710CE088708E7AE51AB5420EDA060AA4
:10418000107156719C4201D1887200E08D72887A5C
:10419000C8700871FEF78EFF012055E4F3009D42C0
:1041A000E4DACCE7FFE700204EE4FE49496A0870F4
:1041B000020A4A70020C8A70000EC870487A022205
:1041C00010434872704738B5044600200090F64905
:1041D000684688470099F8208143E006000E0843AE
:1041E0000090FFF7E2FF38BD08B500200090EE49CF
:1041F0006846884700980006C00E009008BDEA484F
:1042000072300047E8495A310847E8490847E7490A
:104210001A310847E6480047E5490C310847F8B528
:1042200000260B4604460125304631462D03675CC7
:10423000491CBE19A942FAD30021675C491C784089
:10424000A942FAD39E4221D190421FD1D54EB068E7
:104250000A3001F0FEFA00195722D64901F0B8FAE7
:10426000B0681C3001F0F5FAF168001907220A3134
:1042700001F0AEFA0121D04A00209047CE4B002039
:1042800022462946823B9847012021E400201FE472
:1042900070B501260546C34C3603C74B0020314696
:1042A000EA3BA2699847C54928468847A0681C3060
:1042B00001F0CFFAA16907224018E1680A3101F044
:1042C00087FA0121BC4A00209047BB4B00203146B1
:1042D000823BA269984770BD10B50446B14880681A
:1042E0000A3001F0B6FAB44B1021EA3B22465730AF
:1042F000984716E570B501260546AA4C3603AE4B25
:1043000000203146EA3BA26998470121AA4A0020D1
:104310009047A0680A3001F09CFAA1691022573139
:104320004018294601F054FAA34B00203146823B45
:10433000A269984770BD9B4840690178C9438907C5
:1043400002D18078062801D00020704701207047F4
:104350009B4A1047F3B581B0060025D0914F386ACB
:104360000446C17980790D020543E01C01F071FA21
:104370000102A07801430C46002D17D0002C15D067
:1043800001218D4B09030020EA3BBA699847B868C0
:104390000A3001F05EFAB9696731405C401CC7B26F
:1043A000032F05D90220FEBD0120FEBD0420FEBD65
:1043B000B54204D10298844201D10020FEBD012102
:1043C0007D4A00209047774CA0680A3001F041FAFE
:1043D000A269794B11466731475401210903002036
:1043E000823B98470320FEBD08B56F496846884761
:1043F00000984108C90701D0002008BD02210843E8
:104400006949009028318847012008BD6948012189
:104410000278644809078068002A03D0012A07D07F
:1044200000207047C27B837B10021843400304E0E6
:10443000C27B837B1002184300034018704770B59D
:1044400004465C480D46017856480126B60380684C
:10445000002903D0012903D0002070BD143000E0F2
:10446000103001F0F6F9801972B60019524A294647
:10447000904762B670BDF8B505464E480F460178C4
:1044800048480124A40380681646002903D0012966
:1044900003D00020A6E4143000E0103001F0D9F978
:1044A000001972B64019444B32463946EA3B9847E8
:1044B00062B697E4F8B505463E480F46017839489C
:1044C0000124A40380681646002903D0012903D0E3
:1044D000002087E4143000E0103001F0BAF9001930
:1044E00072B64019344B32463946823B984762B621
:1044F00078E410B5030001F0A8FD09060C16202A87
:10450000343E416D890001217F20FEF70AFB88219E
:1045100004E001217F20FEF704FB8A216120FEF7E1
:1045200000FB81216FE001217F20FEF7FAFA8A214A
:104530006120FEF7F6FA832165E001217F20FEF776
:10454000F0FA8A216120FEF7ECFA87215BE0012175
:104550007F20FEF7E6FA8A216120FEF7E2FA8F213A
:1045600051E001217F20FEF7DCFA8A216120FEF76D
:10457000D8FA9F2147E001217F203DE000217F20E4
:10458000FEF7CFFA02213020FEF7CBFA01217F207F
:10459000FEF7C7FA1F216320FEF7C3FA03216D203F
:1045A00010E00000043100204D6500002B62000087
:1045B000776A00007838002043540000A13D0000D5
:1045C000D9600000FEF7ADFA8A216120FEF7A9FA52
:1045D000B02118E000217F20FEF7A3FA022130204D
:1045E000FEF79FFA01217F20FEF79BFA1F2163202F
:1045F000FEF797FA07216D20FEF793FA8A216120D2
:10460000FEF78FFABF216520FEF78BFA71E610B531
:10461000FB4CA068283001F01CF9616B081A68E6B1
:10462000F84800787047F8B50546F54EF548B26988
:1046300000781446002801D0002003E4280502D0A9
:104640002805000D2D1A72B601210903EE4F002036
:10465000B84762B6706B2146401B283101F003F960
:1046600005462046103001F0F4F80090281A410861
:10467000009808182146143101F0F5F80146009819
:10468000081A0001000CA073000AE07372B6012141
:10469000DD4A0020EA32904762B672B60121DA4B59
:1046A000090300206833B269984731210020B268BD
:1046B000B84762B6012054E4D148D14B80799B7948
:1046C00002091B0709201B0FC01A062300215843AB
:1046D000072A08D0032A09D0022A0BD0012A0CD0BD
:1046E000002A0DD00FE04121C94301E03521C94323
:1046F000081A07E02321C943FAE71721C943F7E75E
:10470000801D404241B2C8B27047F3B5BF4EC04FA2
:104710008DB00546002432226B4621460320B04767
:1047200068464088A84206D1684601790E98017013
:1047300001200FB0F0BDB84204D0684600880019CF
:1047400084B2E8E70020F4E7F3B5B04EB04F8DB087
:104750000546002432226B4621460320B0476846B6
:104760004088A84208D1241DA1B2012203200E9B3B
:1047700000F0BAF90120DCE7B84204D068460088AE
:10478000001984B2E6E70020D3E7F3B59F4EA04FAF
:104790008DB00546002432226B4621460220B047E8
:1047A00068468178427808021043A84205D16846DD
:1047B00041790E9801700120BBE7B84204D06846E9
:1047C0000078001984B2E6E70020B2E78D4910B501
:1047D00057314878097800020843800603D5FEF770
:1047E000E3F8012085E5002083E58A4B184710B5E2
:1047F0000446834880680A3001F02BF80821824B78
:1048000022466730984774E570B5054672B67C4C11
:10481000012636037C4B31460020A26998477A4A2C
:1048200001210020EA329047A0680A3001F011F817
:10483000A169082267314018294600F0C9FF724B70
:10484000002031466833A269984762B670BD72494C
:10485000082008476A4948637047FEB5684D00273D
:10486000A868801D00F0F5FF674E01AA0621B04739
:10487000002823D000241CE0A868801D00F0E9FF78
:1048800061006118891D40186A460321B04700285D
:1048900014D068460078032809D1684640787F28FC
:1048A00001D169468F78012F01D1572807D0641CA8
:1048B000A4B268460089A042DED80020FEBD68464A
:1048C0008078FEBDF1B54E4E84B0B0680027801DE3
:1048D00000F0BFFF4C4D01AA0621A847002823D0B5
:1048E00000241CE0B068801D00F0B3FF6100611877
:1048F000891D40186A460321A847002814D068463D
:104900000078032809D1684640787F2801D169469C
:104910008F78012F01D1572808D0641CA4B26846B3
:104920000089A042DED8002005B0F0BD72B6012794
:104930003F0339460020B269A847334A01210020CD
:10494000EA329047B068801D00F083FFB269049995
:10495000831860002018083019542B4B002039466A
:104960006833984762B6DFE710B500F0F4F8002826
:1049700004D000F0F0F80128FBD0BAE400F0EBF826
:104980000028FBD000F0E7F80128FBD0B1E4F0B537
:104990001B4C0025A46AE678360701D50020F0BD3F
:1049A00000BF6D1CEDB2642DFAD3254640356E7CF8
:1049B000B607FCD400252646C036377947556D1C0E
:1049C000EDB2022DF9D346780125F709002F08D062
:1049D000F606F60E0E70157042785206D20F1A7057
:1049E00004E0B3069B0E0B7000231370044B0A788F
:1049F0009B6A801CC033272A1AD20022C03411E0DF
:104A0000043100207838002059530000C9280000E4
:104A1000FFFF000019220000791900002679865452
:104A2000521CD2B20E789642F8D85D720120F0BDC9
:104A30005D72B3E710B5027800219207920F4C4BDC
:104A4000012A39D0022A0CD0032A33D182780E2AC7
:104A50002FD84078474BC0069A5CC00E904228D0B1
:104A600028E04278D206D20E042A07D9C278847888
:104A700012022243172A01D8012200E000221A71F3
:104A8000002A17D04179027909021143052910D073
:104A900006290ED1C1788278090211438079354AFE
:104AA00040000F3280184038C08F814201D0002171
:104AB00000E0012108461CE419790029F7D040786C
:104AC000C006C00E1728F4D9F1E770B52A4D0024AE
:104AD000274EA847F1680919FF310131641CE4B27F
:104AE000C873102CF5D370BDFFB5214C0200E069EE
:104AF00081B01E460D4606D0012A06D0022A06D0F5
:104B0000032A06D009E0001D04E0083002E00C3062
:104B100000E0103000F09DFE01464D1972B60127ED
:104B20003F03164B39460020A269984762B6A06938
:104B300031464019039A00F04BFE72B601210F4A2C
:104B40000020EA3290470D4B002039466833A269B5
:104B5000984762B6E8E60648816A0A466032907C69
:104B6000927C603101E0887C8A7C9042FBD1704766
:104B7000043100208B770010FB5F000059530000C8
:104B800070B51E46002915D0FE4DAC696B699C427C
:104B900010D205C40846083C01F076F8FA4AFB4BEF
:104BA00000F076FF01F07EF8A060267300206061BF
:104BB0001834AC6170BD884200D3084670470022AB
:104BC00006E00021491C89B21829FBD3521C92B27D
:104BD0008242F6D3704710B5EA4C60682030017C01
:104BE000C9070FD0017C490849000174082000F072
:104BF000CCFA60682030417C01221143417432209C
:104C0000FFF7DDFF10BD70B5DE4C0D466168034651
:104C10002031087CC00706D0087C4008400008749A
:104C20003220FFF7CCFF626820321375180A5075E6
:104C3000180C9075180ED075107CEF210840107478
:104C4000907C400840009074D1480560507C01255C
:104C500028435074082000F08FFA60682030017CEF
:104C60002943017470BDCEE770B5C64D1821287870
:104C7000AE68484369690C1A2869801928610020C8
:104C8000C043A86018E0207B002814D02069B042FF
:104C900004D16068002807D0804705E0801B2061B0
:104CA00002D0A168884201D9A0682061A968884221
:104CB00000D90846A860183468698442E3D3A8681C
:104CC000002805D0411C03D0B249FFF7CCFF70BDCE
:104CD000FFF781FF70BDF0B5AA48AF4D4168403184
:104CE0000B7918464B791B0218438B79CA791B0440
:104CF000184312060E79104332464E79360232437B
:104D00008E79CB79360432431B060F791A433B4622
:104D10004F793F023B438F79CE793F043B433606C0
:104D20003343641C904201D19A4201D0AC42D7D3A4
:104D3000F0BDF8B50446FFF7CEFF924A91680B1A12
:104D400013610023884200D913610020C0439060A2
:104D500011781820414350691769411A17E00D680E
:104D6000A54202D10B734B6110E00D7B002D0DD0DD
:104D70000D69ED1B0D6102D08E68B54201D98D68B9
:104D80000D619668B54200D82E4696601831814272
:104D9000E5D39068002805D0411C03D07D49FFF77A
:104DA00062FFF8BDFFF717FFF8BDF3B581B0064607
:104DB000FFF7BFFF734818220178456951436C1A09
:104DC000714F0FE02068B0420BD1A06820610298BB
:104DD00000F05AFF3A466D4B00F05AFE00F062FFB9
:104DE000A0601834AC42EDD3FEBD6649CA68824368
:104DF000CA607047F8B5634C0546207818214843CF
:104E00006169081A06E00268AA4202D1027B002A00
:104E10003AD118308842F6D3FFF75DFFA1680A1A2D
:104E20002261884201D9002020610020C043A06097
:104E30002078182163694843191A0127266919E067
:104E40000868A84203D1886808610F730BE0087BEB
:104E500000280ED00869801B086102D08A68904241
:104E600001D9886808610246A068824200D81046CD
:104E7000A06018319942E3D3A068002805D0411CF6
:104E800003D04449FFF7EFFEF8BDFFF7A4FEF8BDDD
:104E9000F8B53C4C0546E068A843E060FFF71BFF0F
:104EA000A1680A1A2261884201D9002020610020ED
:104EB000C043A0602178182063694143591A012733
:104EC000266919E00868A84203D1886808610F7351
:104ED0000BE0087B00280ED00869801B086102D017
:104EE0008A68904201D9886808610246A0688242B7
:104EF00000D81046A06018319942E3D3A06800287A
:104F000005D0411C03D02349FFF7ADFEF8BDFFF7E4
:104F100062FEF8BD1B4918220B7853434A69D11A27
:104F200005E00B68834201D1087B7047183191423C
:104F3000F7D3FF20704770B50D460446FFF7B1F870
:104F4000002808D00F48182104704C43611985616E
:104F50004161FFF740FE70BD0A494A6811462031A1
:104F60000875030A4B75030C8B75000EC8758B7C96
:104F7000012003438B744B7C03434B740B7C034332
:104F80000B740BE044310020FCA9F1D24D6240408B
:104F9000E0380020694C0010FF3F00002032D37C35
:104FA000DB07FCD00A7C520852000A744A7C024398
:104FB0004A7470477C4840682030C17CC90708D0DB
:104FC000417C01221143417478480068002800D0D8
:104FD0000047704770B5744C064660680D46203037
:104FE000017CFD238907002905DA017C1940017441
:104FF0003220FFF7E4FD626820321676300A5076E0
:10500000300C9076300ED076107C2021084310743E
:10501000907C1840907465484560507C0225284378
:105020005074092000F0A8F860682030017C294302
:10503000017470BD10B55C4C60682030017C89073C
:105040000FD5017CFD2211400174092000F09DF86C
:1050500060682030417C0222114341743220FFF706
:10506000AEFD10BD504840682030C17C890708D58E
:10507000417C0222114341744C484068002800D012
:105080000047704770B5484C064660680D462030B2
:10509000017CFB234907002905DA017C19400174D2
:1050A0003220FFF78CFD626820321677300A507785
:1050B000300C9077300ED077107C4021084310746C
:1050C000907C1840907439488560507C04252843B2
:1050D00050740A2000F050F860682030017C2943A9
:1050E000017470BD304808214068403041180A788A
:1050F00010464A78120210438A78C9781204104385
:1051000009060843704728480C2140684030411880
:105110000A7810464A78120210438A78C978120435
:10512000104309060843704710B51F4C60682030D3
:10513000017C49070FD5017CFB22114001740A2034
:1051400000F023F860682030417C04221143417450
:105150003220FFF734FD10BD134840682030C17C79
:10516000490708D5417C0422114341740F488068E7
:10517000002800D000477047002805DBC106C90E93
:10518000012088400A490860704700280ADBC106F0
:10519000C90E01208840064980310860BFF34F8F57
:1051A000BFF36F8F7047000044310020E0380020CB
:1051B00000E100E018B5F64800680090002069465C
:1051C0000B5C0A241A0962431B070A541B0FD218EE
:1051D0000A54401C0328F3DB009818BD08B5FFF7FC
:1051E000E9FF009068460178C078EA4A401E5043C3
:1051F0000A1868468178E1200001414368464078FA
:105200003C23584308181118E34A1069814201D31E
:10521000081A02E0E14B081AC018116108BD70B508
:105220000D46002802D0DA4E083E01E0D84E0C3E72
:105230000024285D0A2100F0A1FA0001014329554C
:10524000641C032CF5DB284600F003FB306064206F
:10525000FFF7B5FCCE482038C17A08221143C1724D
:1052600070BD38B5CC4909694418CA49204600F0D8
:1052700085FA421C6846C270E12508462D01294680
:1052800000F07CFA0246684682702946204600F00B
:1052900075FA08463C2100F071FA014668464170F3
:1052A0003C21204600F06AFA6846017069460020F9
:1052B000FFF7B5FF38BD38B5FFF77CFF00906846B3
:1052C0000178C078B34A401E50430A186846817876
:1052D000E12000014143684640783C2358430818C8
:1052E0001118AD4BAE485A6A0468914201D38A1A2C
:1052F00002E0AA4D8A1A5219A21802601046596299
:1053000038BD70B500290BD0A34D6E69AC69B442AD
:1053100006D2A16005C423710020E0601034AC61A6
:1053200070BD884200D308467047994920398A7A6F
:105330000F238343887A1A400009000110438872C2
:10534000704770B5C00742D0934C182160786668EA
:1053500048436169081A0A4603E0037B002B02D127
:1053600018309042F9D3884231D2FFF737FFE16815
:1053700060680818E0600020C04360606178182011
:1053800041436069451A18E0287B002814D0286939
:10539000B04204D16868002807D0804705E0801B30
:1053A000286102D0A968884201D9A868286161688B
:1053B000884200D908466060183560698542E3D3A9
:1053C0006068002804D0411C02D0FFF74AFF70BD7E
:1053D0000120FFF7AAFF70BD6F498A6882438A6087
:1053E0007047F8B50446FFF7F9FE6B4AD06072B615
:1053F0000021C94351605178182359435369591A00
:10540000002717E00D68A54202D10F734F6110E02D
:105410000D7B002D0DD00D692D1A0D6102D08E6807
:10542000B54201D98D680D615668B54200D935463F
:10543000556018319942E5D35068002804D0411CCA
:1054400002D0FFF70EFF02E00120FFF76EFF62B609
:10545000F8BDF8B5504C054660781821484361699D
:10546000081A06E00268AA4202D1027B002A38D15B
:1054700018308842F6D3FFF7B1FEE06072B6002123
:10548000C94361606178182266695143711A012726
:1054900019E00A68AA4203D18A680A610F730BE017
:1054A0000A7B002A0ED00A69121A0A6102D08B68A0
:1054B0009A4201D98A680A6113466268934200D809
:1054C0001A4662601831B142E3D36068002804D004
:1054D000411C02D0FFF7C5FE02E00120FFF725FFC7
:1054E00062B6F8BD2C49C8617047F1B582B0FFF7CC
:1054F00075FE294DE86072B60021C943696069787C
:105500006E69182251430090741AEF6920E02068F8
:10551000B84209D13C21029800F030F93C20401AF1
:105520002061012020730CE0207B00280FD021692E
:105530000098081A206102D0A168884201D9A068A9
:10554000206120696968884200D90846686018347B
:10555000B442DCD36868002804D0411C02D0FFF7B5
:1055600080FE02E00120FFF7E0FE62B6FEBD0A49C0
:1055700018224B7853434A69D11A05E00B688342DD
:1055800001D1087B704718319142F7D3FF20704753
:10559000C01000508051010060310020803A0900A5
:1055A000B030002071490878002808D17048C37ACB
:1055B00001221343C372C37ADB07FCD10A70704720
:1055C0006A49086270476A498A7A024310078A7AF0
:1055D000000F1209120102438A72704764498A7AE5
:1055E0001209024310018A7A1207120F02438A72CB
:1055F000704770B505460024285D0A2100F0BEF80A
:10560000000101432955641C032CF5DB284600F0FA
:1056100020F957492039C86370BD554A138A401E86
:10562000DB0BDB034004400C03431382907C09072F
:1056300000090001090F0843907470474C48C17A73
:1056400004221143C172C17A4907FCD4704747490B
:105650000878012809D14648C27A02231A43C27247
:10566000C27A9207FCD4002008707047F3B581B06D
:10567000FFF7EDFFFFF7E2FF01200021C003FFF776
:10568000CCFF6420FFF79BFA01216846C17000241B
:10569000847044700470FFF7ACFF344D07262C6112
:1056A0006846C670172787703B24447004706946AB
:1056B0000120FFF7B4FD6846C6708770447004701F
:1056C00069460020FFF7ABFD0F20FFF787FF0F2093
:1056D000FFF72BFE0120FFF776FF02982862FFF705
:1056E00061FF244904200860FEBD70B50D460446E4
:1056F000FEF7D7FC00280BD01C48182144704C43FF
:1057000061198561416101201B49C003FFF7AEFFAC
:1057100070BD10B51648407A03071B0F1846FFF7F7
:105720005DFF1248016A002901D01846884710BD64
:105730000E480078704718B5002802D00C48183081
:1057400001E00B48143000680090002069460B5CB3
:105750000A241A0962431B070A541B0FD2180A5461
:10576000401C0328F3DB009818BD000060310020C6
:10577000A010005000E100E04353001030B50B468C
:10578000014600202022012409E00D46D5409D421B
:1057900005D31D469540491B2546954040191546A1
:1057A000521E002DF1DC30BD70B5002425460028C6
:1057B00001DA01244042002901DA01254942FFF7BC
:1057C000DDFFAC4200D04042002C00D0494270BD09
:1057D00003460B439B0703D009E008C9121F08C00A
:1057E000042AFAD203E00B780370401C491C521EB5
:1057F000F9D27047D2B201E00270401C491EFBD2C0
:1058000070470022F6E710B513460A4604461946CB
:10581000FFF7F0FF204610BD421C0178401C002914
:10582000FBD1801A704730B504460020034600E0E3
:105830005B1C934203D2E05CCD5C401BF8D030BDD2
:1058400003460A780270401C491C002AF9D1184608
:1058500070470321001D401E037812021A43491E9F
:10586000F9D510467047034603220870000A491C08
:10587000521EFAD518467047F8B502464A40D40F72
:1058800042004B0052085B089A4202D20246084688
:1058900011464A0023D0C30D4A00DDB2120EAD1AE4
:1058A000202D35DA49020126490AF6058A19002C0D
:1058B00000D0524220214F1B1146B9402A411018F6
:1058C000C20D9A4221D0002C17D0012D08DCDA0538
:1058D000801AD20F8019D207DBB200F081FAF8BD2E
:1058E000DA05801A012340001B06C01880185A42AE
:1058F0008018CA0F1043490007E04908C207114346
:10590000DA05801A80194008801800F061FAF8BDA5
:1059100061000122511A001BF7E70122D207514012
:10592000AAE70122D2075040A6E70000F0B50746DB
:105930000846584087B0C00F049048000E465900F2
:1059400040084908BC1A884105D2384631461E46EF
:1059500017460B4602465800400810434CD0300D05
:10596000039040055900400D490D0590401A0290E2
:10597000402872DA18030121000B09050843019041
:1059800004980092002805D00199524200208841D5
:1059900000920190029840210A1A0199009800F0A3
:1059A000E3F905460C466B4607CB00F0FEF9C0193B
:1059B0007141039A0E0D0023D71756401A467A40BC
:1059C000164344D0049A002A2DD0029A012A039A41
:1059D00015DC1205C01A914101263605001C7141E3
:1059E000D20F059ED2070093019202962A462346C3
:1059F00000F03CFA07B0F0BD38463146FAE716052C
:105A0000224A0F46B218C01AB74101210905001CED
:105A10004F4100187F41114618187941E20F104399
:105A20006D19644113E0E2076D0815436408C2076D
:105A30001443039A01261205C01A91413605001C31
:105A40007141CE07400830434908C01851412A46E9
:105A5000234600F0FEF9CDE7FFE70498012240005D
:105A6000C117121A00238B4104983146C417381A03
:105A7000A141EEE730B40124E407634030BC55E7B0
:105A800030B40124E407614030BC4FE70000E0FF80
:105A9000F0B51FB488B00B990998002448400999C3
:105AA000C00F490049080991C0070B9900904900AF
:105AB00049080B9109990898A64608431CD00B99F0
:105AC0000A98084318D0099801244000420D480064
:105AD000410D099824050003000B204309900B9801
