:020000041000EA
:10000000904200202D2300103523001037230010CC
:1000100000000000000000000000000000000000E0
:100020000000000000000000000000003923001064
:1000300000000000000000003B2300103D230010E2
:10004000000000003F230010EB2E00103F230010A3
:100050003F2300103F2300106D1200101F130010EB
:100060008D2700103D280010312900103F2300107B
:10007000231000103F2300103F2300103F230010E7
:100080003F2300103F2300103F2300103F230010A8
:100090003F2300103F2300103F2300103F23001098
:1000A0000000000000000000000000000000000050
:1000B0000000000000000000000000000000000040
:1000C0000348854605F03AFE00480047D70800106F
:1000D000904200201FB5002168460170072141723F
:1000E000192149014181F94981810021017203F0FF
:1000F000E5FFF74803F0D0FFF5484078F549C873AD
:10010000F34880780874F248C0784874F048007961
:100110008874EF484079C874ED488079087500BF4D
:100120000623EB4A521CECA1002002F0B7F800BFF6
:10013000ED480378ED480178ED4AE64803F0C4FF46
:100140001FBD3EB50446002C02D0012C11D107E0A2
:1001500010216846C180C82141810021018108E049
:1001600050216846C1804B21C90041810A2101818B
:1001700000BF00BFC021684601710421417101A880
:1001800004F02EFD00BF6846408900906846038950
:10019000C288D8A1002002F06FF800BF3EBD13B5A1
:1001A00084B06846408A15214902884209D1DDA100
:1001B00003C903910290072402A9204604F0A1F983
:1001C0002AE06846408AD949884208D1D8A0006808
:1001D0000390022403A9204604F093F91CE068462A
:1001E000408AD44988420ED1002103910020019019
:1001F000029003A901A801F01BFC01A96846007B3D
:1002000004F07FF908E06846408ACB49884203D170
:10021000CA49012004F075F906B010BD0FB410B53D
:100220006846408902281FD16846C07BA12811D1A9
:1002300002A8007A01280DD102A8407A012809D12C
:1002400002A8807A012805D1002104F034F90120A8
:10025000BB49087000BF6846837B03AA0332B9A17B
:10026000002002F01BF820E068464089AF494C317D
:1002700088420DD168468089252809D100BF68468B
:10028000837B03AA0332B1A1002002F007F80CE03F
:1002900068464089A749884207D10020A8490870CC
:1002A0006846817B0F3001F0B7F910BC08BC04B080
:1002B00018471FB5044600200090684604702004CB
:1002C000010E68464170A6480078012814D19A4969
:1002D000C91C6846818095494C31C18022214181E9
:1002E00021210181012181816B46022201A9012086
:1002F00004F016F904B010BD0020FBE710B58CB077
:100300000446601C05F088F9012809D1FFF7E2FED8
:1003100003F0F7FF00BF93A1002001F0ADFFD1E192
:10032000601C05F079F9022815D100209149087068
:100330008B49087001209049087000208F4908708F
:10034000012001F056F900BF0623A21D8CA1002058
:1003500001F0A4FFB6E1601C05F05EF9042813D19A
:10036000002085490870834908707D49087003F0B2
:10037000C8FF0120400202F0C8F800BF627986A1E0
:10038000002001F079FF9DE1601C05F045F9012195
:100390004903884270D1A17962790802104301288B
:1003A00023D1217AE279080210430D28B7D1A17A2E
:1003B000627A08021043C007C00F002807D1A17A53
:1003C000627A0802104302210840002809D000BFC9
:1003D00078A1002001F050FF00BF0120654908709E
:1003E00070E10020634908706CE1A179627908022C
:1003F00010435149C91C88421FD1217AE279080271
:10040000104322288BD1A17A627A08021043C007D8
:10041000C00F002809D000BF6BA1002001F02CFF05
:1004200000BF01204E4908704CE100204C49087083
:1004300000BF6AA101F020FF44E1A17962790802BE
:1004400010433D49884285D1A17A627A080210435F
:10045000C007C00F002896D0374968468184C18400
:100460001321018501218185344B012209A9104600
:1004700004F056F826E1FFE7601C05F0CDF80121F5
:10048000490288420FD10E2221461531684605F0F7
:1004900089F81E22611D04A805F084F804A80FC87D
:1004A000FFF7BCFE0EE1601C05F0B6F8FF2101313C
:1004B000884209D10822611D0AA805F073F80B993A
:1004C0000A98FFF76CFEFDE094E00000FF3F00009B
:1004D0003E30002019300020646576696365206134
:1004E0006464723A000000003C3000203830002084
:1004F0003A300020736D6172745F706172616D7368
:1005000020696E74657276616C3A2578206C61742E
:10051000656E63793A2578207376746F3A25780D85
:100520000A0000005359445F48494400012A000072
:10053000C103000001FF00000F180000133000206D
:10054000113000206D73673A0D0A0000686964205D
:100550006B6579626F617264206D73673A0D0A0092
:1005600007300020526553746172744164760D0A3D
:100570000000000005300020103000200430002072
:100580004741505F4556545F434F4E4E4543544597
:100590004420616464723A004741505F4556545F9D
:1005A000444953434F4E4E45435445442025780D0E
:1005B0000A00000073746172745F747820656E6164
:1005C000626C650D0A0000006869645F6B65795FA5
:1005D000747820656E61626C650D0A006869645FFD
:1005E0006B65795F74782064697361626C650D0A6C
:1005F00000000000601C05F00FF80121090388428B
:1006000060D0601C05F008F8082805D100BFF9A1EA
:10061000002001F031FE55E0601C04F0FDFF0121D7
:100620008903884205D100BFF8A1002001F024FE13
:1006300048E0601C04F0F0FF0121C903884241D169
:10064000A179627908021043030005F0E0FB06047B
:10065000171E252C333A00BFF1A1002001F00CFE3B
:1006600000BF0AA803F017FF00BF6846438D028D44
:10067000F1A1002001F000FE00BF22E000BFF5A1C3
:10068000002001F0F9FD00BF1BE000BFF7A1002032
:1006900001F0F2FD00BF14E000BFFAA1002001F05C
:1006A000EBFD00BF0DE000BFFCA1002001F0E4FD68
:1006B00000BF06E000BFFEA1002001F0DDFD00BF8D
:1006C00000BF00BF0CB010BD00B587B003F02CFC1C
:1006D00003216846017000214170807881088900FB
:1006E000491C684681708078042188430146684629
:1006F00081701021C170002101710321417103F04B
:10070000BEFEC0200590EF48069005A803F0D9FE74
:10071000ED4803F0F1FE002004F0C5F8FFF7DAFC25
:100720000021684601720121417281720021C1726B
:100730000121017303A903310520000504F076FFB0
:1007400002A804F016F807B000BD10B5DF48007825
:1007500000284DD0DD480078012804D0022811D0AF
:10076000032843D122E000F04CFE00BFD8A10020B6
:1007700001F082FD00BF0220D44908700020D74953
:10078000087034E0D5480078401CD4490870084609
:100790000078202809DD00BFD1A1002001F06CFD08
:1007A00000BF0120400201F0B0FE20E00020C74958
:1007B00008700120400201F0A8FE00BFCBA100207C
:1007C00001F05AFD00BF7D20C00000F0F3FD00BF26
:1007D000CAA1002001F050FD00BF04F037F800BFAF
:1007E000CBA1002001F048FD00BF00E000BF00BF2A
:1007F00010BD10B5CA480078C007C00F002802D04D
:10080000012002F04FFF10BDFEB50025002600209C
:10081000019000270090FF21C2480068203001703D
:10082000C048006820304170BE48006820308170A8
:10083000CF21BC4800682030C170FF21B948006852
:1008400020300171002421E0142C06D0162C05D094
:10085000172C04D0182C0FD102E000BF00BF00BF3E
:100860000120A04005430120A04007430120A040F3
:1008700000990843009006E00120A04005430120B4
:10088000A040074300BF00BF601CC4B2202CDBDBCC
:10089000294631430846002100F01EFA304600F098
:1008A0007FFA324601998A43104600F00FFB019807
:1008B00000F025FB2846009900F08BFA394600200D
:1008C00000F023FA284600F0E8FA974905200005D1
:1008D00000F058FBFEBD72B6FFF7F6FE002003F0F5
:1008E00038FF02F0BAFE002002F06FFFFF20F53063
:1008F00000F060FD02F079FFFFF786FF01F02BFAB0
:1009000000BF8AA1002001F0B7FC00BF012002F067
:10091000C9FE00F0DDF9012002F0C4FE00BF87A38C
:1009200089A28CA1002001F0A7FC00BF8E49022003
:1009300001F0EDFE01F0DAF88C49012002F0C1FA75
:1009400001F0F3F862B603F0DCFC00BF88A10020E0
:1009500001F092FC00BF8BE104F0E8F801200005F3
:1009600000F0FFFA002820D0052000F023FD012030
:10097000000500F0F6FA002826D001207F49087013
:1009800000BF7FA1002001F077FC00BF01204005DF
:1009900000F0CEFAE920FFF78CFC00BF0120000533
:1009A00000F0DFFA0028F9D10EE074480078012841
:1009B0000AD100207149087000BF76A101F05CFCEB
:1009C00000BF0020FFF775FC0120800500F0C9FA88
:1009D00000280DD0052000F0EDFC0120800500F07E
:1009E000C0FA002805D001206E49087000BFDBE086
:1009F000EDE0FBE04741505F4556545F504149529E
:100A0000494E475F434F4D500D0A00004741505F2C
:100A10004556545F454E435F53544152540D0A00AE
:100A20007570646174652072737020414343455052
:100A30005445440D0A000000696E74657276616C5D
:100A40003A2578206C6174656E63793A25780D0AD1
:100A5000000000007570646174652072737020522C
:100A6000454A45435445440D0A00000075706461D1
:100A70007465207273702054494D45524F55540D82
:100A80000A000000757064617465207273702053F1
:100A90005543434545440D0A00000000456E616220
:100AA0006C65206C6174656E63790D0A000000004E
:100AB00044697361626C65206C6174656E63790D65
:100AC0000A000000FD0200100030002098300020D5
:100AD0004F54412073746172740D0A0099300020E4
:100AE0004F5441206661696C650D0A004F544120E6
:100AF00066696E6973680D0A0000000053746172C4
:100B0000742052657365742031303030730D0A00E3
:100B10005265736574206661696C65640D0A000036
:100B20000530002048300020F307001053594420BE
:100B300052545420496E69740D0A000031313A3420
:100B4000383A3432000000004A756C2033302032CD
:100B500030323100537964383831315F48494420AC
:100B600025733A25730D0A007C310020AC3100203A
:100B700053746172744164760D0A000008300020DD
:100B80004B4559312050726573732020562B0D0A46
:100B9000000000004B4559312052656C656173655A
:100BA0000D0A00000930002032A1002001F064FB92
:100BB00000BF202000F0BCF9EA20FFF77AFB00BF5D
:100BC0000120800500F0CDF90028F9D10EE02D4874
:100BD000007801280AD100202A49087000BF2AA104
:100BE00001F04AFB00BF0020FFF763FB2A480068C2
:100BF000002822D028480068012149020840002826
:100C00000BD0FFF7A2FD0120400201F0DAFC00BF8B
:100C100022A1002001F030FB00BF1F480068FF2127
:100C200001310840002808D0084601F0CAFC00BF86
:100C30001EA1002001F020FB00BF1F480068002813
:100C400010D01D4800680421084000280AD002F096
:100C5000CCFD00BF19A1002001F00EFB00BF042055
:100C600001F0A6FF19480078012801D1FFF76DFDBA
:100C700072E600004B45593220507265737320565E
:100C80002D0D0A00093000204B4559322052656C69
:100C9000656173650D0A0000DC3000204556545F25
:100CA00031535F4F54410D0A000000004556545F18
:100CB00032530D0A00000000F43000205254434526
:100CC00056545F313835530D0A000000983000202B
:100CD00010B500F0FDF910BD10B50246002010E07F
:100CE000012383401340002B0AD0EF4B1B6819549B
:100CF0000123834014469C432246002A00D102E08F
:100D0000401C2028ECD300BF10BDFCB50346E74CC7
:100D1000221D019200220092002B02D1E44A00928F
:100D200003E0012B01D1E34A0092009A002A36D059
:100D3000002013E0012282400D461540002D0CD00A
:100D40002568009E375C0126BE40354325600D4670
:100D500095432946002900D102E0401C1828E9D318
:100D600000BF182017E0012585402A460D46154092
:100D7000002D0FD0019D2D780646183E0127B74063
:100D80003D43EEB2019D2E700D4695432946002944
:100D900000D102E0401C2028E5D300BF00BFFCBD0D
:100DA000C54909680A461378194653781B02194346
:100DB00093781B041943D278120611438143BE4A2B
:100DC000126811700B0A53700B0C9370090ED170DE
:100DD000704710B5B84A126813461C7822465C78F2
:100DE000240222439C7824042243DB781B061A4306
:100DF0000243B14B1B681A70140A5C70140C9C708F
:100E0000120EDA70AD4A126813461C7822465C78DE
:100E1000240222439C7824042243DB781B061A43D5
:100E20000243A64B1B681A70140A5C70140C9C7069
:100E3000120EDA70A14A12680823D3181C782246D1
:100E40005C78240222439C7824042243DB781B062E
:100E50001A438243994B1B681A72140A5C72140C71
:100E60009C72120EDA72954A12680823D3181C7805
:100E700022465C78240222439C7824042243DB78B7
:100E80001B061A430A438D4B1B681A72140A5C72C4
:100E9000140C9C72120EDA7210BD884909680A4659
:100EA0001378194653781B02194393781B0419438E
:100EB000D278120611430143804A126811700B0A5E
:100EC00053700B0C9370090ED17070477C49096800
:100ED0000A461378194653781B02194393781B046A
:100EE0001943D278120611430143754A12681170F2
:100EF0000B0A53700B0C9370090ED1707047704938
:100F000009680A461378194653781B0219439378E7
:100F10001B041943D278120611438143684A1268B0
:100F200011700B0A53700B0C9370090ED17070473F
:100F3000634909680A461378194653781B02194316
:100F400093781B041943D2781206114341405C4A3E
:100F5000126811700B0A53700B0C9370090ED1704C
:100F60007047014655480068021D137818465378AB
:100F70001B02184393781B041843D27812061043BF
:100F80000840704710B50A464E4909681823CB1827
:100F90001C7821465C78240221439C782404214358
:100FA000DB781B0619430140464B1B6819700C0A7D
:100FB0005C700C0C9C70090ED970424909681023B2
:100FC000CB181C7821465C78240221439C782404A9
:100FD0002143DB781B06194381433A4B1B68197484
:100FE0000C0A5C740C0C9C74090ED97435490968A0
:100FF0002031097849084900324B1B6820331970A9
:1010000031490A600C21002909DB00BF00BFCC0672
:10101000E40E0123A3402D4C236000BF00BF00BF9E
:1010200010BD10B527480068182141180A781046ED
:101030004A78120210438A7812041043C9780906CC
:1010400008432049096810228A18137819465378F2
:101050001B02194393781B041943D27812061143DB
:10106000884300281ED018480068002802D016487F
:101070000068804713480068182141180A78104614
:101080004A78120210438A7812041043C97809067C
:1010900008430C4909680870020A4A70020C8A70F9
:1010A000000EC87010BD00004830002080100050B5
:1010B00060300020783000204C3000205430002078
:1010C00050300020583000205C30002000E100E06B
:1010D00010B5B4480068C07B80098001C01CB149CC
:1010E0000968C873AF480068007C80098001001D52
:1010F000AC4909680874AB4800682030807820212A
:101100008843A849096820318870A64800682030C3
:10111000807840218843A349096820318870A2481B
:1011200000688078400840009F49096888709E48A0
:10113000006800780009000108309B4909680870C0
:1011400099480068007880218843974909680870A9
:1011500095480068007840218843403092490968EA
:10116000087091480068C0781021884310308E497B
:101170000968C8708C480068807804218843001D85
:1011800089490968887088480068807820218843E8
:1011900085490968887084480068807810218843F0
:1011A0008149096888708048006880788021884378
:1011B0007D49096888707C480068807840218843B0
:1011C0007949096888707848006800781021884358
:1011D00075490968087074480068007820218843C0
:1011E0007149096808707048006880780221884356
:1011F000801C6D49096888706B480068C0782021A0
:101200008843203068490968C870062000F0BCF89F
:101210006548006880780821884308306249096879
:10122000887010BD18B5024600200023009314E01A
:101230005D4B1B681B790B54431CD8B26B461B7863
:101240005B1CDCB200946B461B785B1CDCB2009428
:101250006B461B785B1CDCB20094534B1B68DB783D
:10126000DB07DB0F002BE3D0107018BD0CB54E4828
:1012700000680078C006C00F00280CD04A480068FB
:10128000007810218843484909680870694601A818
:10129000FFF7C8FF00BF4448006800788006C00F11
:1012A000002807D0404800680078202188433E4944
:1012B000096808703C48006880788007C00F0028E3
:1012C00008D039480068807802218843801C36495C
:1012D000096888700CBD18B50246002000230093F1
:1012E00014E0324B1B681B790B54431CD8B26B467D
:1012F0001B785B1CDCB200946B461B785B1CDCB279
:1013000000946B461B785B1CDCB20094274B1B6877
:10131000DB78DB07DB0F002BE3D0107018BD0CB5BA
:10132000224800680078C006C00F00280CD01F4873
:1013300000680078102188431C49096808706946D4
:1013400001A8FFF7C8FF00BF1848006800788006B2
:10135000C00F002807D01548006800782021884376
:101360001249096808701148006880788007C00F2A
:10137000002808D00D480068807802218843801C2E
:101380000A49096888700CBD002809DB00BF00BF4E
:10139000C206D20E01219140054A116000BF00BF74
:1013A000704700004830002090300020943000202A
:1013B00000E100E0002108E0002201E0531C9AB2A5
:1013C000034B9A42FADB4B1C99B28142F4DB704723
:1013D0008C0A000070B504460E4615460E20F749EB
:1013E00009680870681CF54909684870F348006886
:1013F00084702A463146F1480068C01C04F0D2F8D7
:1014000070BD08B503F0CDFA0020009001226946B6
:101410001620FFF7DFFF08BD38B504466078217855
:101420000002084301210903884200DD38BD6078CD
:10143000217800020843A17840180121090388425D
:1014400007DD607821780002084301210903081AAA
:10145000A070A2786178237809021943D84BC81884
:10146000E11C04F09FF800BFA378607821780002A7
:1014700008430246D3A1002000F0FEFE00BF00207A
:101480000090012269461720FFF7A4FF00BFCDE7B7
:101490007CB504460D46164668464570290A81709B
:1014A000C670310A01710470052269461420FFF7E5
:1014B00091FF7CBD7CB504460025601C04F0ACF8AF
:1014C000064622783146BE4803F03BFC054600BF85
:1014D000601C04F0A1F80646207833462A46C0A1D5
:1014E0000090002000F0C8FE00BF002D02D10120B6
:1014F000019001E000200190012201A91820FFF7CE
:1015000069FF7CBDF8B5054600BFBB4800790028DF
:1015100008D0B94A1179203A126A5001B64A203AE5
:1015200003F0B2FA00BF284604F076F80646687960
:1015300029790002084303463246B0A1002000F09A
:101540009BFE00BF284604F067F8064668792979B3
:1015500000020843034632460021084603F0A3FA7E
:10156000044600BF2246ABA1002000F085FE00BF6C
:10157000002C02D10120009001E000200090012207
:1015800069461820FFF726FFF8BDF8B5054600BFED
:1015900000BF284604F040F8064668792979000221
:1015A00008430346324695A1002000F065FE00BFC7
:1015B000284604F031F8064668792A79000210437B
:1015C0000146304603F074FA044600BF224696A155
:1015D000002000F051FE00BF002C02D1012000903D
:1015E00001E000200090012269461820FFF7F2FE7A
:1015F000F8BD002804D00021904A1170904A117063
:101600000021904A1180904A1180904A1180904A9E
:101610001180904A11607047F8B505460E462C4679
:1016200088480088002803D084480078002877D1B3
:101630002078152844D008DC112823D0122831D076
:10164000132836D014281CD141E0162806D02028B3
:1016500068D023287BD02428F5D1A1E00020FEF714
:1016600070FD00BF7CA1002000F006FE00BF01203D
:10167000400200F0ABFF012070490870002075495E
:10168000086094E00020FEF75CFD00BF76A100201A
:1016900000F0F2FD00BF04206849087000206D4989
:1016A000086084E0A01CFFF7B7FE052063490870BE
:1016B0007DE0A01CFFF7FEFE06206049087076E082
:1016C000A01CFFF71FFF03205C4908706FE0E17961
:1016D000A279080210435B490880617A227A0802E5
:1016E000104359490880A01C03F096FF594908602F
:1016F0000020564908805649088000BFA01C03F00E
:101700008BFF0746617A227A0802104300904D4809
:1017100003883A4659A1002000F0AEFD00BF46E024
:1017200046E0FFE70020FEF70CFD00BF60A10020AF
:1017300000F0A2FD00BF0120400200F047FF07209B
:101740003E49087000204349086030E0FFE7E17936
:10175000A279080210433B490880617A227A080284
:10176000104339490880A01C03F056FF394908602E
:101770000020364908803649088000BFA01C03F0CD
:101780004BFF0746617A227A0802104300902D48E9
:1017900003883A464BA1002000F06EFD00BF06E032
:1017A000A01CFFF7F2FE03202449087000BF3EE1B1
:1017B0000020234908700027A8E00000B030002076
:1017C0004A070020636D64344B53455454494E47D7
:1017D00057726974652025782025780D0A0000006D
:1017E000436F64655570646174653D256420257898
:1017F0002025780D0A000000743100206F746120EC
:10180000737A3A257820636865636B73756D3A2542
:1018100078200000436F64655570646174657632AA
:10182000303D25640D0A0000436F646555706461A6
:1018300074657633303D25640D0A00009830002031
:10184000993000209A3000209E3000209C300020EB
:10185000A0300020A4300020434D445F46575F4530
:10186000524153450D0A0000344B53455454494EE0
:10187000475F4552415345200D0A0000434D445FE8
:1018800046575F57524954455F5354415254206F55
:1018900066667365743A25782C73697A653A25789B
:1018A00020636865636B73756D3A25780D0A0000D7
:1018B000464C415348444154415F455241534520B1
:1018C0000D0A0000464C415348444154415F575271
:1018D0004954455F5354415254206F666673657492
:1018E0003A25782C73697A653A25782063686563B0
:1018F0006B73756D3A25780D0A000000E85D574955
:101900000988401855490880781C87B2B742F5DB32
:101910002846E917890F091889108900691A29D002
:10192000324629464E4803F03DFE4E4800780228D4
:1019300003D04C48007801280AD14B4909684B4A2A
:1019400012888818464A314603F09EF8074635E06B
:1019500044480078082803D04248007807282DD151
:1019600041490968414A128888183D4A314602F0C7
:10197000FCFF23E03B480078022803D03948007878
:1019800001280AD138490968384A128888182A4635
:10199000314603F079F8074610E03248007808280D
:1019A00003D030480078072808D12F4909682F4A0A
:1019B000128888182A46314602F0D7FF2B48008843
:1019C00080192A49088008460088294909888842E0
:1019D0002CDB224800882749098888420CD11F48FF
:1019E0000288224801880020FFF752FD00BF22A193
:1019F000002000F041FC0CE0184802881B480188D8
:101A00000120FFF745FD00BF1FA1002000F034FCBE
:101A100000BF00BF17480388104802881EA100209D
:101A200000F02AFC00BF0020FFF7E3FD00BFF8BD77
:101A300070B505460C46234800684078821C224950
:101A4000284603F0AFFD1F4800684078801C2070D6
:101A50001D4800210160416070BD0000A0300020E1
:101A60005431002098300020A43000209C30002009
:101A70009A3000209E30002073656374696F6E2079
:101A80004F4B21200000000073656374696F6E2066
:101A90006661696C652120006F74615F72656365C2
:101AA0006976655F636865636B3A2578206F74615A
:101AB0005F73656374696F6E5F636865636B3A2516
:101AC000780D0A00B0300020A830002010480068CF
:101AD000FF21013108430E49086070470C48006837
:101AE0000121490208430A490860704710B50023E4
:101AF000084A7D210901FF20013000F02DFC002360
:101B0000054A7D2109010120400200F025FC10BD9D
:101B1000DC300020CD1A0010DD1A001008480068E3
:101B20000421084306490860704710B50023054AA0
:101B3000B921042000F0D1FF042001F076F810BD97
:101B4000F43000201D1B001010B5854C01202061D1
:101B5000606184A0A0618649E1610121890221625E
:101B60000021A1626162E1627EA02063814961631C
:101B70001021A16300212164E16361647EA1E01D65
:101B800003F041FD7DA1204603F03DFD2020A07122
:101B900010BDF7B582B00446174600200190E568F5
:101BA00000BF206900900098A84203D90098401B0C
:101BB000461E04E0A1680098281A401C0E1AA0686E
:101BC000401BB04201D9304601E0A068401B0646E8
:101BD000BE4201D2304600E03846064661684819E8
:101BE0003246039903F0DEFC0198801901900398B6
:101BF00080190390BF1BAD19A068A84200D1002531
:101C0000E560002FCDD1019805B0F0BDF7B582B0E9
:101C100004461546E668A068871BAF4208D961688C
:101C200088192A46039903F0BDFC7019E06010E0A2
:101C3000019761688819019A039903F0B3FCE81BC6
:101C40000190039AD1196068019A03F0ABFC0198E6
:101C5000E06005B0F0BD38B505460C46FF2168468A
:101C600001704848015D6846417002226946284675
:101C7000FFF78FFF38BD10B501460A69CB689A425D
:101C800004D88C68641EE41AA01801E0D41A601EFF
:101C900010BDF7B582B0074616460398019018208C
:101CA00078432F4918314018009000984069002867
:101CB00004D0012811D0022826D11EE00098FFF799
:101CC000DAFF0546B54201D2002405E0344632462B
:101CD00001990098FFF79AFF18E00098FFF7CBFFF3
:101CE0000546B54201D2284600E030460446224669
:101CF00001990098FFF78AFF08E0324601990098A1
:101D0000FFF747FF044601E0002400BF00BF204664
:101D100005B0F0BDF8B504460D46164600BF1048A4
:101D20000078002801D1FFF70FFF00BFEFF310800C
:101D30000746012080F3108800BF00BF32462946C5
:101D40002046FFF7A6FF0090F8B280F3108800BF8E
:101D500000BF0098F8BD10B5FFF7F6FE10BD0000FB
:101D6000C43100205465726D696E616C0000000022
:101D70000C3200200C360020525454005345474783
:101D800045520000B830002070B504460E46A568E4
:101D9000681C6168814206D320684655681CA060B3
:101DA000E068401CE0606168A06888420DD1A268CC
:101DB00021682069FFF7AEFFA168884203D00020A8
:101DC000C043E06001E00020A06070BDFFB585B0B9
:101DD000064617461D460E9C069802900120039069
:101DE000019007E03946029803F0B2FB0290019897
:101DF000401C01900298B842F4D20198854200D963
:101E000001950F98C007C00F00281DD1002C1BD0D2
:101E100002210F980840022804D1002D02D1302061
:101E2000009001E02020009008E0641E30460099F8
:101E3000FFF7AAFFF068002800DA04E0002C02D0C7
:101E40000198A042F1D300BFF068002848DB0FE002
:101E5000012D01D96D1E08E00399069803F078FB67
:101E600004900498B84200D203E0039878430390AA
:101E7000EEE700BF00BF0399069803F069FB0490EA
:101E80000399049848430699081A0690F74A04985B
:101E9000115C3046FFF778FFF068002800DA07E0B1
:101EA0003946039803F054FB039003980028E2D1CD
:101EB00000BF0F98C007C00F002811D0002C0FD012
:101EC00008E0641E20213046FFF75EFFF06800281E
:101ED00000DA04E0002C02D00198A042F1D300BF48
:101EE00009B0F0BDFFB585B006460F460F9D0E9CAC
:101EF000002F01DA784200E0384603900120049078
:101F000007E00799039803F039FB03900498401CFD
:101F10000490079903988842F3DA04990898884254
:101F200001D908980490002C06D0002F03DB042070
:101F30002840042800D1641E02202840002802D036
:101F40000898002815D0E807C00F002811D1002CF0
:101F50000FD008E0641E20213046FFF715FFF0681F
:101F6000002800DA04E0002C02D00498A042F1D34B
:101F700000BFF06800283ADB002F05DA7F422D21F0
:101F80003046FFF701FF07E004202840042803D172
:101F90002B213046FFF7F8FEF068002827DB0220EF
:101FA0002840022818D1E807C00F002814D108984B
:101FB000002811D1002C0FD008E0641E30213046DB
:101FC000FFF7E2FEF068002800DA04E0002C02D0FF
:101FD0000498A042F1D300BFF068002807DB019508
:101FE000009439463046089B079AFFF7EFFE09B088
:101FF000F0BDF7B59EB00D46144606A819904020D6
:102000001A9000201B901E981D9000201C9000BF6D
:102010002E786D1C002E00D115E1252E72D10027DF
:102020000120189000BF2E78232E12D02B2E0CD01A
:102030002D2E02D0302E10D103E0012007436D1C5D
:102040000EE0022007436D1C0AE0042007436D1CCC
:1020500006E0082007436D1C02E00020189000BF36
:1020600000BF18980028DED1169000BF2E78302EC1
:1020700001DB392E00DD08E06D1C0A21169848436B
:102080003146303940181690F0E700BF0020179015
:102090002E782E2E11D16D1C00BF2E78302E01DB34
:1020A000392E00DD08E06D1C0A211798484331469F
:1020B000303940181790F0E700BF2E7800BF6C2E23
:1020C00001D0682E02D16D1C2E7800E000E0F6E70A
:1020D00000BF662E52D00CDC582E40D004DC252EDA
:1020E00075D0462E74D14AE0632E0CD0642EF9D1FF
:1020F00016E0702E6DD0732E6DD0752E1FD0782EF9
:10210000F0D12BE097E02168081D20600868189046
:102110001898C0B2059019A80599FFF735FE87E019
:102120002168081D20600868189016980197009093
:102130000A2219A8179B1899FFF7D4FE78E02168A6
:10214000081D2060086818901698019700900A22D0
:1021500019A8179B1899FFF739FE69E000BF21689D
:10216000081D2060086818901698019700901022AA
:1021700019A8179B1899FFF729FE59E000BF002006
:1021800003900490059003A802902068C01DC00829
:10219000C00001460830206003C90191009034A1BD
:1021A00003A8019B009A03F007FE00BF029806787F
:1021B0000298401C0290002E00D106E0314619A87A
:1021C000FFF7E2FD1C980028F0DA00BF30E029E0BC
:1021D0002DE017E0FFE72168081D206008680590E2
:1021E00000BF059806780598401C0590002E00D188
:1021F00006E0314619A8FFF7C7FD1C980028F0DA61
:1022000000BF15E02168081D2060086818900020B4
:1022100008210B4610220091019019A81899FFF788
:10222000D5FD05E0252119A8FFF7AEFD00E000BFB0
:1022300000BF6D1C03E0314619A8FFF7A5FD1C98EF
:10224000002800DBE4E600BF1C9800280BDD1B988B
:10225000002804D006A91B9A1E98FFF75BFD1B9966
:102260001C9840181C901C9821B0F0BDFE66001010
:1022700025342E33660000000FB438B5044606A896
:1022800000906A4620460599FFF7B3FE05460020F8
:102290000090284638BC08BC04B01847FFB581B090
:1022A0000D4616461F460024002D03D029460198EE
:1022B000FFF7E2FF00241EE02046E117490F09184E
:1022C000C910C900611A04D1A2B213A10198FFF785
:1022D000D3FF325D12A10198FFF7CEFF601CC1173A
:1022E000490F0918C910C900411A03D10EA101985C
:1022F000FFF7C2FF641CBC42DEDB2046E117490F3A
:102300000918C910C900611A03D007A10198FFF785
:10231000B3FF05B0F0BD00005B253034785D2000D0
:1023200025303278200000000D0A00000448804764
:1023300004480047FEE7FEE7FEE7FEE7FEE7FEE7AC
:1023400049230010C100001001480249086070478D
:102350000024F400CC30002070B51E46002915D0B2
:10236000FE4DAC696B699C4210D205C40846083C1E
:1023700003F06CFBFA4AFB4B03F06CFA03F074FBBE
:10238000A0602673002060611834AC6170BD884283
:1023900000D308467047002206E00021491C89B29C
:1023A0001829FBD3521C92B28242F6D3704710B563
:1023B000EA4C60682030017CC9070FD0017C4908D5
:1023C00049000174082000F0CCFA60682030417C9C
:1023D0000122114341743220FFF7DDFF10BD70B5BB
:1023E000DE4C0D46616803462031087CC00706D0EC
:1023F000087C4008400008743220FFF7CCFF626878
:1024000020321375180A5075180C9075180ED07577
:10241000107CEF2108401074907C400840009074BC
:10242000D1480560507C012528435074082000F0F5
:102430008FFA60682030017C2943017470BDCEE7BB
:1024400070B5C64D18212878AE68484369690C1AE2
:102450002869801928610020C043A86018E0207B0B
:10246000002814D02069B04204D16068002807D049
:10247000804705E0801B206102D0A168884201D915
:10248000A0682061A968884200D90846A86018346D
:1024900068698442E3D3A868002805D0411C03D0B2
:1024A000B249FFF7CCFF70BDFFF781FF70BDF0B5FB
:1024B000AA48AF4D416840310B7918464B791B0251
:1024C00018438B79CA791B04184312060E791043FE
:1024D00032464E79360232438E79CB793604324316
:1024E0001B060F791A433B464F793F023B438F79D6
:1024F000CE793F043B4336063343641C904201D1FE
:102500009A4201D0AC42D7D3F0BDF8B50446FFF7EC
:10251000CEFF924A91680B1A13610023884200D9BA
:1025200013610020C0439060117818204143506926
:102530001769411A17E00D68A54202D10B734B6170
:1025400010E00D7B002D0DD00D69ED1B0D6102D04B
:102550008E68B54201D98D680D619668B54200D884
:102560002E46966018318142E5D39068002805D048
:10257000411C03D07D49FFF762FFF8BDFFF717FF4D
:10258000F8BDF3B581B00646FFF7BFFF73481822C8
:102590000178456951436C1A714F0FE02068B042D1
:1025A0000BD1A0682061029803F050FA3A466D4BB7
:1025B00003F050F903F058FAA0601834AC42EDD3A0
:1025C000FEBD6649CA688243CA607047F8B5634C6D
:1025D00005462078182148436169081A06E0026818
:1025E000AA4202D1027B002A3AD118308842F6D39F
:1025F000FFF75DFFA1680A1A2261884201D9002015
:1026000020610020C043A0602078182163694843FE
:10261000191A0127266919E00868A84203D18868B9
:1026200008610F730BE0087B00280ED00869801B3F
:10263000086102D08A68904201D988680861024620
:10264000A068824200D81046A06018319942E3D3B6
:10265000A068002805D0411C03D04449FFF7EFFED5
:10266000F8BDFFF7A4FEF8BDF8B53C4C0546E068A0
:10267000A843E060FFF71BFFA1680A1A22618842A5
:1026800001D9002020610020C043A06021781820DB
:1026900063694143591A0127266919E00868A8426D
:1026A00003D1886808610F730BE0087B00280ED007
:1026B0000869801B086102D08A68904201D9886845
:1026C00008610246A068824200D81046A060183116
:1026D0009942E3D3A068002805D0411C03D02349C8
:1026E000FFF7ADFEF8BDFFF762FEF8BD1B491822EB
:1026F0000B7853434A69D11A05E00B68834201D134
:10270000087B704718319142F7D3FF20704770B5AE
:102710000D46044602F057FA002808D00F48182149
:1027200004704C43611985614161FFF740FE70BD43
:102730000A494A68114620310875030A4B75030C93
:102740008B75000EC8758B7C012003438B744B7C0A
:1027500003434B740B7C03430B740BE0D03000201D
:10276000FCA9F1D24D6240401C36002041240010EB
:10277000FF3F00002032D37CDB07FCD00A7C5208EC
:1027800052000A744A7C02434A7470477C4840688D
:102790002030C17CC90708D0417C0122114341741B
:1027A00078480068002800D00047704770B5744C26
:1027B000064660680D462030017CFD23890700290C
:1027C00005DA017C194001743220FFF7E4FD6268EC
:1027D00020321676300A5076300C9076300ED07655
:1027E000107C202108431074907C18409074654838
:1027F0004560507C022528435074092000F0A8F859
:1028000060682030017C2943017470BD10B55C4CB8
:1028100060682030017C89070FD5017CFD221140C2
:102820000174092000F09DF860682030417C02228C
:10283000114341743220FFF7AEFD10BD504840688F
:102840002030C17C890708D5417C022211434174A4
:102850004C484068002800D00047704770B5484C8D
:10286000064660680D462030017CFB23490700299D
:1028700005DA017C194001743220FFF78CFD626893
:1028800020321677300A5077300C9077300ED077A0
:10289000107C402108431074907C18409074394893
:1028A0008560507C0425284350740A2000F050F8BD
:1028B00060682030017C2943017470BD30480821D4
:1028C0004068403041180A7810464A781202104396
:1028D0008A78C978120410430906084370472848CB
:1028E0000C214068403041180A7810464A7812029C
:1028F00010438A78C97812041043090608437047C8
:1029000010B51F4C60682030017C49070FD5017C51
:10291000FB22114001740A2000F023F86068203087
:10292000417C0422114341743220FFF734FD10BD75
:10293000134840682030C17C490708D5417C0422F7
:10294000114341740F488068002800D00047704749
:10295000002805DBC106C90E012088400A4908602D
:10296000704700280ADBC106C90E012088400649CD
:1029700080310860BFF34F8FBFF36F8F7047000047
:10298000D03000201C36002000E100E018B5F648E9
:1029900000680090002069460B5C0A241A09624313
:1029A0001B070A541B0FD2180A54401C0328F3DBE0
:1029B000009818BD08B5FFF7E9FF00906846017858
:1029C000C078EA4A401E50430A1868468178E120E0
:1029D00000014143684640783C23584308181118C9
:1029E000E34A1069814201D3081A02E0E14B081A58
:1029F000C018116108BD70B50D46002802D0DA4E2E
:102A0000083E01E0D84E0C3E0024285D0A2102F069
:102A10009FFD000101432955641C032CF5DB28466A
:102A200002F0FAFD30606420FFF7B5FCCE48203894
:102A3000C17A08221143C17270BD38B5CC49096909
:102A40004418CA49204602F083FD421C6846C27001
:102A5000E12508462D01294602F07AFD0246684626
:102A600082702946204602F073FD08463C2102F0A0
:102A70006FFD0146684641703C21204602F068FD2A
:102A80006846017069460020FFF7B5FF38BD38B5CC
:102A9000FFF77CFF009068460178C078B34A401E7B
:102AA00050430A1868468178E12000014143684696
:102AB00040783C23584308181118AD4BAE485A6A69
:102AC0000468914201D38A1A02E0AA4D8A1A521967
:102AD000A21802601046596238BD70B500290BD0AB
:102AE000A34D6E69AC69B44206D2A16005C42371DE
:102AF0000020E0601034AC6170BD884200D308460D
:102B00007047994920398A7A0F238343887A1A407B
:102B10000009000110438872704770B5C00742D0A9
:102B2000934C18216078666848436169081A0A4620
:102B300003E0037B002B02D118309042F9D3884286
:102B400031D2FFF737FFE16860680818E0600020C5
:102B5000C04360606178182041436069451A18E0FD
:102B6000287B002814D02869B04204D16868002866
:102B700007D0804705E0801B286102D0A968884201
:102B800001D9A86828616168884200D90846606058
:102B9000183560698542E3D36068002804D0411C81
:102BA00002D0FFF74AFF70BD0120FFF7AAFF70BDFA
:102BB0006F498A6882438A607047F8B50446FFF718
:102BC000F9FE6B4AD06072B60021C943516051785A
:102BD000182359435369591A002717E00D68A54275
:102BE00002D10F734F6110E00D7B002D0DD00D69E8
:102BF0002D1A0D6102D08E68B54201D98D680D6124
:102C00005668B54200D93546556018319942E5D32A
:102C10005068002804D0411C02D0FFF70EFF02E0EC
:102C20000120FFF76EFF62B6F8BDF8B5504C0546BF
:102C30006078182148436169081A06E00268AA42D0
:102C400002D1027B002A38D118308842F6D3FFF730
:102C5000B1FEE06072B60021C9436160617818225C
:102C600066695143711A012719E00A68AA4203D123
:102C70008A680A610F730BE00A7B002A0ED00A698A
:102C8000121A0A6102D08B689A4201D98A680A61D5
:102C900013466268934200D81A4662601831B14206
:102CA000E3D36068002804D0411C02D0FFF7C5FEC2
:102CB00002E00120FFF725FF62B6F8BD2C49C8618C
:102CC0007047F1B582B0FFF775FE294DE86072B626
:102CD0000021C943696069786E69182251430090E8
:102CE000741AEF6920E02068B84209D13C210298AB
:102CF00002F02EFC3C20401A2061012020730CE0E1
:102D0000207B00280FD021690098081A206102D08A
:102D1000A168884201D9A068206120696968884259
:102D200000D9084668601834B442DCD368680028CB
:102D300004D0411C02D0FFF780FE02E00120FFF723
:102D4000E0FE62B6FEBD0A4918224B7853434A6939
:102D5000D11A05E00B68834201D1087B7047183116
:102D60009142F7D3FF207047C010005080510100FE
:102D7000EC300020803A0900B43000207149087816
:102D8000002808D17048C37A01221343C372C37A62
:102D9000DB07FCD10A7070476A49086270476A49CC
:102DA0008A7A024310078A7A000F1209120102433D
:102DB0008A72704764498A7A1209024310018A7A3A
:102DC0001207120F02438A72704770B5054600243D
:102DD000285D0A2102F0BCFB000101432955641C57
:102DE000032CF5DB284602F017FC57492039C8634D
:102DF00070BD554A138A401EDB0BDB034004400CB8
:102E000003431382907C090700090001090F08435E
:102E1000907470474C48C17A04221143C172C17A40
:102E20004907FCD4704747490878012809D146482A
:102E3000C27A02231A43C272C27A9207FCD40020DB
:102E400008707047F3B581B0FFF7EDFFFFF7E2FFC1
:102E500001200021C003FFF7CCFF6420FFF79BFA9D
:102E600001216846C1700024847044700470FFF72B
:102E7000ACFF344D07262C616846C6701727877053
:102E80003B244470047069460120FFF7B4FD684696
:102E9000C67087704470047069460020FFF7ABFD70
:102EA0000F20FFF787FF0F20FFF72BFE0120FFF712
:102EB00076FF02982862FFF761FF2449042008602A
:102EC000FEBD70B50D46044601F07DFE00280BD016
:102ED0001C48182144704C436119856141610120EF
:102EE0001B49C003FFF7AEFF70BD10B51648407A0E
:102EF00003071B0F1846FFF75DFF1248016A002900
:102F000001D01846884710BD0E480078704718B5A4
:102F1000002802D00C48183001E00B48143000683B
:102F20000090002069460B5C0A241A0962431B07C3
:102F30000A541B0FD2180A54401C0328F3DB0098D4
:102F400018BD0000EC300020A010005000E100E0AF
:102F50001B2B0010F1B5F84880470746F74880471B
:102F60000646F54C0120183CA047F44D00200C35D6
:102F7000A847F349009888473046A8473846A047F5
:102F8000F8BDF0B5EF4DF048E96885B00818044683
:102F900002F042FB2146401C02F048FB0024E948B5
:102FA0000125C668E8480C3831180391487C097C33
:102FB00000020843A540284202903BD00B2060430A
:102FC0008119E148009109300818019002F024FBB2
:102FD0000746DD48301802F01FFB87422AD10F2137
:102FE000009889014018007D00280CD0D64A00992D
:102FF0000D3A8A18517D127D090211437818019902
:1030000002F014FB05E002980399A8430874000A33
:103010004874CD4800990D30081802F0FDFA0028D8
:1030200008D0022D19D0042D17D0082D15D0102D41
:103030001AD08047641CE4B20A2CB0D3C148C168DE
:10304000C1480C380918487C097C000208438005F7
:1030500001D1BE48804705B0F0BDBD490120884779
:103060000028E7D0222005E0B94901208847002840
:10307000E0D03B20FFF76EFFDCE710B5B14912202E
:103080000969887072B60121B04A0320B43A9047AA
:1030900062B610BDFEB50021684601710170AD4FEA
:1030A0000172AD4EA74CB847A07102AB6A4601A9A8
:1030B000606902F064F900284ED00820B04700286B
:1030C00003D00220B04700280FD0684600780128BE
:1030D00011D0E0686569407A01283ED00228E2D12B
:1030E0009E4AA17928469047DDE701216846017094
:1030F000007A00282DD02521E06849014118497B3C
:103100006569002908D09049D4314118487B097B72
:103110000002084392498847284602F075F90028C2
:10312000C1D068468D4A0179963260699047287807
:10313000C0438007B7D1A8781228B4D121691320E1
:10314000887072B60121814A0320B43A904762B672
:10315000A9E73D20FFF7FEFEFEBD28780007000F1F
:103160000528A0D1687E297E00020843062805D3E1
:10317000687F297F000208430A2803D27049122081
:10318000884790E77349EE31A81C88472878872242
:103190004006C10FE06811540622A91C883002F0D5
:1031A00001FA3721206902F016FA7CE7F0B5684988
:1031B00099B00420884700280ED0654904201A31B0
:1031C000884762491F20AC318847664880471620EF
:1031D000FFF7C0FE19B0F0BD63488047002810D04B
:1031E000584DEC68A1790807F4D5E079C2071CD0E6
:1031F0005E49204698308847E868C1794908490007
:103200001FE0594E574F574DB2361C376C4610359C
:1032100007E06846B0470128DCD168460178601CA9
:10322000B847A8470028F4D0D4E782070BD54F4A07
:1032300020461C328E30811C9047E868FD22C179FF
:1032400023E0C171C6E7420708D5484920466031EE
:10325000A8308847E868FB22C17916E00207F72604
:10326000002A09DA414A21464232A07A0B319047BE
:10327000E868C1793140E4E7C00608D53B496846B3
:103280007C318847E868EF22C1791140D9E72046B0
:103290003140FF30A1712130017D0026002910D07E
:1032A00006752146072287310CA802F07BF92146DA
:1032B0000DA82A228E31033002F074F92C490CA893
:1032C000884701206946087048708E70E96800A838
:1032D0002A2203308E3102F065F92D220821254C77
:1032E0006B460020A04775E716490128896A0FD070
:1032F000022811D0042812D0082813D0102814D086
:10330000202815D0402837D0802839D00120704798
:103310008878C007C00F7047887880072EE08878CB
:1033200040072BE08878000728E08878C00625E071
:103330008878800622E00000BF650000776A000000
:10334000CF16000014310020CE030000011200004F
:10335000F50A000049570000791900008B1E000093
:103360002B620000BD600000054E00002726000013
:10337000DF470000A13E000088784006C00F70477C
:103380008878C009704710B5017801291FD1401C09
:1033900002F042F9FE4A10283AD00DDC012817D07D
:1033A00002281DD0042823D0082810D1FFF79CFF45
:1033B00000280CD1F74809E0202839D0402806D150
:1033C000FFF792FF002802D1F2485430804710BD29
:1033D0000120FFF789FF0028F9D1FFF7E7FE10BDB4
:1033E0000220FFF781FF0028F9D1FFF753FE10BD3F
:1033F0000420FFF779FF0028F9D1D068407A01282E
:1034000003D00228F3D1E448E0E7E348AE38DDE733
:103410001020FFF769FF0028E9D1906A2030407D35
:10342000400701D53E2000E00820FFF793FD10BDC6
:103430002020FFF759FF0028F9D1D6484830C5E7CA
:1034400070B5D34B1025996A08260C460A462034DD
:10345000603100281DD0907E30439076087E5A78E7
:1034600040094001D206D20E10430876607B267BCD
:103470000202D86832432330437C067C1802304372
:1034800082420ED02073000A6073C87D2843C8753D
:1034900007E0002020736073C87D2843C875BF48CB
:1034A0000677012070BDBA48C0682330417C027C99
:1034B000080210430BD0BA4948780A78000210433A
:1034C000032210430870000A48700120B8E77047D3
:1034D00030B4B44CA44630BC6047F8B5B048407A2C
:1034E000000663D5AA48C66830462330417C007C7C
:1034F0000F02AB4907434878097804020C43002FB8
:1035000001D1600752D5A64DA87B697B00026D1CD6
:1035100008434BD0002F49D068792979000208432D
:103520002ED12136707C317C0002084302F08EFAE5
:1035300000229D4B02F08EF902F096FA80B2784399
:10354000642102F01BF84004010C2971080A68711B
:103550000A204143707D327D00021043814206D330
:103560000A21401E02F00AF82871000A6871687981
:1035700029790002084303D10120287100206871D5
:103580008748A10709D502218C4301210C4304700F
:10359000210A41700020FFF753FF68792A79010260
:1035A0001143824B00224020FFF792FFF8BD1CB56B
:1035B0007B494A7A002A40D04A780B7812021A4393
:1035C000D3063AD44378047818022043012834D132
:1035D000C878401E0006000EC8702FD08B780846B1
:1035E000017BC47A0A022243017AC4790902214389
:1035F000C01C012B2AD0521A0272120A4272120601
:10360000037A120C1A43521A69460A80427A017AE6
:10361000120612140A4369464A8061498A7B497B33
:1036200012020A4369468A80417B027B08021043EA
:103630006946C8805E49684688471CBD887AC8705C
:10364000402002430A70100A48701CBD5218D3E78C
:10365000584A1047574A2032104738B50024694667
:103660000C7021467F20FFF7F5FF00213B20FFF77C
:10367000F1FF29213B20FFF7EDFF69463B20FFF7D3
:10368000E7FF68460078800701D5012038BD641C3B
:10369000A4B2FF2CF1D9002038BD10B546488047B0
:1036A000012010BD10B53A49444A8870002807D15E
:1036B000C8688078022803D000209047012010BD00
:1036C0000120FAE710B5324C0128E168887004D077
:1036D000002831D0022846D059E0206B0146203026
:1036E00002785208520002700278FD231A400270DC
:1036F0000878800980011C300870487880098001B2
:103700001C30487000217F20FFF7A4FF03212120F7
:10371000FFF7A0FF1F210320FFF79CFF02217F205E
:10372000FFF798FF01210020FFF794FF00217F2081
:10373000FFF790FF0F2127E000217F20FFF78AFF8E
:1037400000210420FFF786FF02217F20FFF782FF80
:1037500000210846FFF77EFF00217F20FFF77AFF58
:103760000021032011E002217F20FFF773FF0321D6
:103770000020FFF76FFF00217F20FFF76BFF002184
:103780000320FFF767FF00210420FFF763FF17E026
:103790001431002079160000271500002000024097
:1037A0007F360020AB4400000000F43FA734001037
:1037B00033420000C561000007470000A765000014
:1037C000A078FFF76FFF012010BD10B5FFF77AFF5B
:1037D000012010BD10B5F6488047F648C06A017A4E
:1037E000DF2211400172012010BDFEB5F248804772
:1037F000F04C0190E06A817A007ACF07FF0F002633
:10380000C506EE49ED0E48780978000208438006A7
:1038100008D5A06A2030417B027B0802104301D00A
:10382000FFF75BFEA80702D00126FFF7D3FFE148B0
:10383000C06A817A490849008172DF49012018393C
:1038400088470220FFF73EFFDD49642088470024B7
:1038500069460C70254601217F20FFF7FBFE002101
:103860000A20FFF7F7FE22210A20FFF7F3FE694640
:103870000A20FFF7EDFE684600784007EFD469465E
:103880000A20FFF7E5FE68460078400705D5684640
:103890000078000706D4012504E0641CC948A4B2DE
:1038A0008442ECD3C649642088470020FFF70AFF12
:1038B000C149019818398847BE48C06A817A4908C9
:1038C000490039438172002E02D0B9480C38804734
:1038D000002D01D00120FEBD0020FEBD10B511213C
:1038E000B64801F078FE10BD70B50446401C01F0EA
:1038F00093FE022818D0042819D0012149048842D7
:1039000047D125462035687B092301070209090FA5
:103910000020072A1CD0032A20D0022A25D0012A01
:1039200029D0002A2DD032E0FFF7D8FF3AE0A14D90
:103930000121E868FF302130017501F0B0FDE86831
:103940008078002801D1FFF750FFFFF786FE29E0BD
:10395000581A062148434121C94304E0581A062158
:1039600048433521C943081A10E0581A0621484334
:103970002321C943F7E7581A062148431721C943B1
:10398000F1E7581A06214843801D404240B268734F
:1039900008E040281DD00121C903884202D1601DE2
:1039A000FFF705FE8549487809780002084380063C
:1039B00007D5601C01F030FE0005000F01D0FFF7B5
:1039C0008CFD7C483C3001F027FE014620468847AC
:1039D00070BD7848383001F01FFE4006E2D570BD5A
:1039E000F0B5744C0646E0688DB0FF302130407C65
:1039F0000D46002829D0002D26D072B6A0681830B8
:103A000001F00AFEE1683222FF312131897C6E4BE0
:103A1000514340186A463221984762B6002E04D0BE
:103A2000E068FF302130807C3070E7680A21FF3782
:103A30002137B87C401C01F08BFDB974E078401C44
:103A4000C0B2E0700A2802D900200DB0F0BD68466F
:103A500000780128D1D100A907222846013101F0C0
:103A6000A1FD2A22E81D02A901F09CFD0120ECE73E
:103A7000F0B5054655498DB0202088474D4C0426A9
:103A8000E16820690F4686700822C01CC931BD3725
:103A900001F088FD2069042239460B3001F082FDD7
:103AA0000D214B4A03209047E068294608220A313D
:103AB000C13001F077FDE068294604221231B930A7
:103AC00001F070FD287A434F002802D1687A00285F
:103AD0001FD00020E070E0682A7A01468030837BA6
:103AE0009A420AD16A7AC07B824206D108222846CD
:103AF000903101F07BFD002817D069460020FFF7C8
:103B00006FFF012826D006220021334B0120984761
:103B10009BE7E06802228179114302468171C1323C
:103B2000FF3011461030B84710E0E0688179024656
:103B300031438171C13211469830B847E068803016
:103B40008079012802D12149022088472248A030EB
:103B500080477AE7E06801A92A228E30033101F01C
:103B600021FDB8E77CB5451C807829780002084320
:103B7000104C022810D00F2810D001211D2810D081
:103B8000FF3810280DD0154A694601209047687803
:103B900029780002084302E0032000E0022060715F
:103BA0007CBD61717CBD0348407970470C49084772
:103BB0001347000014310020BF6500007F3600204D
:103BC0002B620000FFFF000059530000050B0000AE
:103BD0004D11000019220000D91900001F1D00001E
:103BE000B34400001CB5FF4808210170002141705A
:103BF000017BC27A0902C01C114341D0427903798A
:103C000012021A43891A0BB26A461380417A027A69
:103C10000906091411436A46518019220624D2016B
:103C2000062B02DA6B461C8003E0934201DD6B46F3
:103C30001A80062902DA69464C8003E0914201DDD0
:103C400069464A80417B027B080210436946C8806E
:103C5000E448817B427B0802104369468880E24841
:103C6000C0682330417C027C0802104302D000204F
:103C7000FFF7E6FBDD4968468847DD494020884775
:103C80001CBDD84948780A7800021043C2050CD5FB
:103C9000FF22013290430870000A48700879401EE4
:103CA0000006000E087109D09CE720221043102264
:103CB0009043042210430870000A48707047FEB514
:103CC000C84D0446687829780002084300077DD56E
:103CD000C848804769782A7809021143082291432D
:103CE00029700A0A6A706B7A064628461A066ED54B
:103CF000A27967791202651C3A43BB4FE41C002A83
:103D000077D01022114301700A0A427088065ED4EF
:103D1000687929790002084332D001F097FE0191B9
:103D20000090607821780002084301F08FFEB24CC9
:103D30000022234601F08EFD019B009A01F08AFDCE
:103D400001910090F8682130417C027C0802104308
:103D500001F07CFE0022234601F07CFD07460C4664
:103D6000687A297A00020843801B01F05BFE3A461C
:103D7000234601F06FFD019B009A01F0B9FC24E09D
:103D8000607821780002084301F044FE0446F86898
:103D90002130417C027C0802104301F03BFE2146A9
:103DA00001F04DFC01F07EFE0022934B01F052FD2C
:103DB00007460C46687A297A00020843801B01F006
:103DC00031FE3A46234601F045FD02E06EE064E034
:103DD0000FE00022894B01F0A5FD01F045FE010432
:103DE000090C00D10121864B00228020FFF770FBD7
:103DF00053E09A0651D58278012A4ED18A064CD4D6
:103E0000FF227848013211430170090A417060783D
:103E100021780002084373490A7BCB7A11021943C7
:103E200088423AD901F0F6FD0446F8682130417C19
:103E3000027C0802104301F0EDFD214601F0FFFB7A
:103E400001F030FE00226C4B01F004FD07460C46E9
:103E5000687A297A00020843801B01F0E3FD3A46A4
:103E6000234601F0F7FC0022644B01F05BFD01F0FA
:103E7000FBFD0104090C00D10121614B00228020CF
:103E8000FFF726FB57484178027809021143FF22C9
:103E9000013211430170090A41700320694608810B
:103EA00002229103574C02AB0020A047FEBD10B583
:103EB0000446007800280DD1A178627808021043EA
:103EC00009D001281CD0032823D00C2802D1201DA2
:103ED000FFF748FE10BD4C49201D8847002802D13D
:103EE0002820FFF737F8201DFFF7E9FE3E480121A3
:103EF000C368062209040020424C3133A04710BD9C
:103F00004249201D88470028F9D12820FFF722F8D0
:103F100010BD201DFFF7ACFD10BD10B500780128C5
:103F200001D1FFF72EF810BDF0B5394885B08047B4
:103F300001217F20FFF78EFB69465020FFF788FBA9
:103F400068460078042801D032488047FFF785FB97
:103F5000254CE068807801286ED0022869D0FFF7F0
:103F600044FC01256846458005802B482049019086
:103F70006846843988476846057045700025458045
:103F800026480190264BE06808226946C01801F0D7
:103F900009FB184E012140205E3EB04701218020E0
:103FA000B04701212020B047FF210C316846018035
:103FB0000B2141808580C580058145818581C58132
:103FC00018480490184968468847A0680A3001F0EC
:103FD00023FB044A154B573A5721984701F05FFAE3
:103FE000012027E07F3600201431002033420000FA
:103FF000B3440000BF5500000000F43F00005940EA
:10400000833C0010A13E00005D5B0000475F0000A4
:10401000793D0000F74600001B3F00108733001079
:10402000CE020000AF3E00108D4300005953000047
:1040300002E022E005B0F0BDFE4880470746E06A96
:10404000817ACD07817AED0F490849008172F94ED6
:104050000120183EB0470220FFF734FBF6496420E8
:1040600088470120FFF72EFB3846B047E06A817A87
:10407000490849002943817273E70220FFF722FBB8
:104080006FE710B5ED488047012010BDEB4910B532
:104090001E318847012010BDE84910B554318847CA
:1040A000012010BDE54910B560318847012010BDE1
:1040B000E24910B56E318847012010BDDF4910B5C7
:1040C0007E318847012010BD10B5DC4CE634A04796
:1040D000012010BDF8B5DA4CDA49E068373088477E
:1040E00020693B230178BF250A09E16812015B5C66
:1040F0001B071B0F1A4302701207120F012A79D0F7
:104100000B4640335A781B7812021A430B4642334F
:104110001A70120A5A7002788B7A2A409B011A434D
:104120005206520E027066235B5C42789B1D920918
:104130009B0692019B0E1A4342700622801C0B3193
:1041400001F030FAE1686620425C002A04D0206960
:104150006731083001F026FAE0680021203041770D
:104160002069B94A41788906890E891C90472069DF
:1041700001780A091201121D0270E1682A408B7A47
:10418000DB075B0E1A43027046235B5C42789B1D83
:1041900092099B0692019B0E1A4342700622801CD4
:1041A0000B3101F0FFF9E1684620425C002A04D09F
:1041B00020694731083001F0F5F92069A24A4178B9
:1041C0002C328906890E891C9047E0680127054634
:1041D0002035E97E01293BD000294CD002294AD064
:1041E000062948D00023994C1A4601211846A047B9
:1041F000F8BDFFE70A464032137953718B7A027893
:10420000DB072A405B0E1A43027087235B5C520671
:10421000520EDB011A43027042780B31920992016F
:104220000C3242700622801C01F0BCF92069E16862
:1042300006220830883101F0B5F9E16803223D20FB
:104240004254804A8720405C323A8831904787E761
:104250004030417900290AD028200621A26A937EA5
:10426000FD242340937617756B7F2A7F43E04771C7
:1042700001200146F2E706464236717832780B0299
:10428000134317D0192189014B432230417F047F0A
:104290000802204301228004800C009006D00146D1
:1042A000184601F055F9421C7F2A10D8D4B2377055
:1042B000380A14E03770390A71702230417F027F6A
:1042C0000802104301248004800C009008E07F2441
:1042D000104621467E3001F03BF93070000A7070C4
:1042E0005748806A817E02221143817607756B7F71
:1042F0002A7F00992046564CA04755483E308047BB
:1043000076E710B5FFF7E6FE012010BD10B5514964
:1043100003200870484964201A3188474E48804776
:10432000012010BD72B60021454A906A4175037C98
:1043300001210B430374D0684522115442300170AF
:104340000021417062B60120704710B5434988478B
:10435000012010BDF0B53A4CA56A2C466034267891
:10436000FD27C0073E40800F06432670A170627093
:1043700062352B71180A687105982071000A607106
:10438000F0BDF8B52E4D2F49E86837308847112029
:10439000EF68002480013D186E79A8790321401C44
:1043A00001F0D6F801208840A971064203D1641CAF
:1043B000E4B2032CF1D31125AD017C19607B217B84
:1043C00000020843A91C7F18010A1D4E3873797337
:1043D00000280BD0607A227A010219201143800153
:1043E00001F0B6F80206120E04D004E00120387382
:1043F000002078730122787A397A0002084300900D
:10440000607A217A03020B43A0791549095CE079AF
:10441000FFF7A0FFF068002140190171C17001741D
:1044200041748178002901D0082901D908218170BF
:10443000044817E0BF6500002B620000833D0000C8
:1044400014310020B1570000D9600000A13E0000E7
:104450005F560000000002400747000001410000D5
:104460000E6700108C388047C2E610B5FFF789FF51
:10447000012010BD10B5F8488047012010BDF64955
:1044800010B508318847012010BDF34910B5163129
:104490008847012010BDF04910B5783188470120C8
:1044A00010BDEE49487001207047EB4910B58631C8
:1044B0008847012010BDE84A10B58E329047012090
:1044C00010BD7CB5054601F0A7F8E4490446383133
:1044D00001F0ACF8281D01F09FF8E0493C3101F0F3
:1044E000A5F840208443DE48DB49019000946846EB
:1044F0009631884701207CBD10B5DA4988470120F4
:1045000010BDD84A10B508329047012010BD10B533
:10451000D5488047022801D9002010BD012010BDD8
:10452000F8B50E46D1490746487809780002084395
:104530001C461546800609D5C848806A2030417B54
:10454000027B0802104301D0FEF7C7FFC8490120D3
:10455000884700280CD0C4488047022809D972B681
:104560002346C04C2A46314638461834A04762B626
:104570003EE600203CE6BF49084710B50446BC496A
:1045800001208847002803D0BA49204608318847CF
:1045900010BD70B50546B64A0C460120904700286C
:1045A00004D0B44A214628462232904770BDFFB558
:1045B0000F4681B0AE491D46164601200A9C884729
:1045C000002807D00094AB4C2B4632463946443481
:1045D0000198A04705E5F8B50E460746A4491C46D4
:1045E000154601208847002806D02346A14C2A46BC
:1045F000314638467C34A047FAE510B504469C495C
:1046000001208847002803D09A492046AC318847CA
:1046100010BD70B50546964A0C460120904700280B
:1046200004D0944A21462846C632904770BD70B5E2
:1046300005468F4A0C4601209047002804D08D4A39
:1046400021462846E832904770BDF8B50E46074629
:1046500087491C46154601208847002805D0234677
:10466000854C2A4631463846A047C1E570B50D460F
:1046700006467F49144601208847002805D07E4B16
:104680002246294630463033984770BD70B50D46F6
:1046900006467749144601208847002805D0764B06
:1046A0002246294630465C33984770BDF8B50E4621
:1046B00007466F491C46154601208847002806D04A
:1046C00023466D4C2A46314638468834A0478FE54C
:1046D00010B50446664901208847002803D0664982
:1046E0002046B831884710BD10B561490120884780
:1046F000002802D06048CC30804710BD70B5574DBF
:104700000446082804D0E868407808280DD014E052
:1047100000217F20FEF79EFF01214020FEF79AFF37
:10472000E86A0178C908C9000EE000217F20FEF781
:1047300091FF00214020FEF78DFFE86A01786207B3
:10474000C908C900520F11430170E8684470012084
:1047500070BDD3E710B5044648488047207001205B
:1047600010BD10B504464548801D804720700120CB
:1047700010BD424910B51C318847012010BD3F488B
:1047800010B572308047012010BD3D4800473D49BB
:1047900008473C491A31084708B53B4968468847ED
:1047A0006846C0788007C00F08BD08B5364968461E
:1047B00088476846C078C00900D0012008BD10B500
:1047C000FEF746FF10BD10B5FEF744FF10BD2348AD
:1047D000806AC07B052805D0062803D00F2801D0A9
:1047E000002070470120704710B5FFF7F0FF002848
:1047F00002D1224852308047012010BD10B5174920
:104800000122886A4275437CDB09DB019B1C4374EF
:10481000931E83741B0AC374C96ACB7AEF242340A6
:10482000CB724B7B93434B738B7A13438B72817E9A
:10483000022319438176017C11430174114905203B
:104840001A31884711488047012010BD0F4810B524
:1048500012308047012010BD1D420000143100209D
:10486000E93800102D4300002B4E00007F36002059
:10487000F50A0000B73A0000BB3B00009F4400006F
:10488000FB5F00002B6200004D650000E546000064
:1048900010B5F74988470120DDE7F54910B5183113
:1048A00088470120D7E710B5F24988470120D2E7B1
:1048B000F04954310847EF4910B5A231884701202B
:1048C000C9E7EC4810B5C63080470120C3E7E94886
:1048D00010B5DE3080470120BDE7E74B1847E64BB7
:1048E00036331847F8B50746E448002680680D4679
:1048F0003446283000F090FE2903C9194118DF48DA
:10490000406B814211D9002072E472B6DB488068A6
:10491000283000F081FE2103C9194018D84A01212E
:104920009047064662B6641CE4B2AC42EDD3304612
:104930005EE4F8B5D14D0446A86817460E46283007
:1049400000F06AFE0146A21980186A6B90420AD8EC
:10495000002908D072B60819C94B3A463146EA3BDD
:10496000984762B644E4002042E4F8B5C34D0446DB
:10497000A86817460E46283000F04EFE0146A219E0
:1049800080186A6B90420AD8002908D072B60819BC
:10499000BB4B3A463146823B984762B628E400203A
:1049A00026E470B5B74800240078B54EB34D002812
:1049B0000DD001281ED024E072B6143000F02CFE79
:1049C000210340180121B04762B6641CE4B2A86814
:1049D000C17B827B09021143A142EDD811E072B67E
:1049E000103000F019FE210340180121B04762B6D3
:1049F000641CE4B2A868C17B827B09021143A14216
:104A0000EDD8012070BD70B504460D46000B42196B
:104A10009A488068C17B837B090219438A4201D985
:104A2000002070BD9749964E0978002902D00129CF
:104A300003D00AE072B6143001E072B6103000F014
:104A4000EBFD00192946B04762B6012070BDF8B5EC
:104A500004468C480F4601788848894D8068823D1D
:104A60001646002902D0012903D00BE072B614309B
:104A700001E072B6103000F0CFFD00193246394621
:104A8000A84762B601203BE430B47C4B9C68E37BD2
:104A9000A47B1B0223431B03834202D230BC0020B1
:104AA000704730BCD3E730B4774CA44630BC604785
:104AB000F3B5724889B080680024283000F0ACFD5E
:104AC000074609984609002511E072B668016C4B4B
:104AD000C01920216A46EA3B984762B60020694621
:104AE0000A5C401C121994B22028F9D36D1CB542FF
:104AF000EBD30998C606F60E72B631466801604BD4
:104B0000C0196A46EA3B984762B60020694603E04E
:104B10000A5C121994B2401CB042F9D30A9884423C
:104B200002D101200BB0F0BD0020FBE7F8B55148E1
:104B3000E2388047534C5734607A002840D0000652
:104B4000042500280FDA6078217800020843400726
:104B500009D5FEF7C2FC6078217800020843A8431B
:104B60002070000A60706078217800020843474F87
:104B7000474E41060CD5402188432070000A6070E2
:104B800002206946088002466B4639460020B0473D
:104B90006078217800020843C10711D04008400026
:104BA0002070010A6170800702D56846058002E026
:104BB00005206946088002226B4639460020B0472E
:104BC00052E43448004738B52C4C2078002805D1F1
:104BD000274968467E39884701202070012038BD6A
:104BE000F8B50278002A70D0264957314A724278C7
:104BF0008A72002A01D0042A01D904228A72C2785A
:104C0000847813021F4A23435732D3721C0A147349
:104C10004479057924022C4315466C73240AAC733D
:104C2000C479857920022843D073000A1074134890
:104C30000827C068D21C2130447C007C2402044335
:104C40000120A34228D900258D701B1B8C7AA3421A
:104C500004DA1071000A50718B722AE0E400A3425A
:104C600002DA1071000A01E01771380A507120E071
:104C7000CB6500003D470000A5480000143100202E
:104C800043540000283600207B4A000000800000CA
:104C9000A13E0000F94B000088708E7AE51AB542FB
:104CA0000EDA060A107156719C4201D1887200E03A
:104CB0008D72887AC8700871FEF794FF012057E45E
:104CC000F3009D42D0DACCE7FFE7002050E4FE4934
:104CD000496A0870020A4A70020C8A70000EC87095
:104CE000487A022210434872704738B504460020C3
:104CF0000090F649684688470099F8208143E0060D
:104D0000000E08430090FFF7E2FF38BD08B5002011
:104D10000090EE496846884700980006C00E009053
:104D200008BDEA4872300047E8495A310847E84967
:104D30000847E7491A310847E6480047E5490C317A
:104D40000847F8B500260B46044601253046314693
:104D50002D03675C491CBE19A942FAD30021675C88
:104D6000491C7840A942FAD39E4221D190421FD1DA
:104D7000D54EB0680A3000F04FFC00195722D649D2
:104D800000F010FCB0681C3000F046FCF16800191F
:104D900007220A3100F006FC0121D04A002090478A
:104DA000CE4B002022462946823B9847012023E42F
:104DB000002021E470B501260546C34C3603C74BDD
:104DC00000203146EA3BA2699847C54928468847F2
:104DD000A0681C3000F020FCA16907224018E1689F
:104DE0000A3100F0DFFB0121BC4A00209047BB4B99
:104DF00000203146823BA269984770BD10B5044639
:104E0000B14880680A3000F007FCB44B1021EA3B3F
:104E10002246573098471EE570B501260546AA4C34
:104E20003603AE4B00203146EA3BA2699847012188
:104E3000AA4A00209047A0680A3000F0EDFBA16963
:104E4000102257314018294600F0ACFBA34B00203C
:104E50003146823BA269984770BD9B484069017802
:104E6000C943890702D18078062801D00020704705
:104E7000012070479B4A1047F3B581B0060025D04A
:104E8000914F386A0446C17980790D020543E01CD0
:104E900000F0C2FB0102A07801430C46002D17D0A0
:104EA000002C15D001218D4B09030020EA3BBA6983
:104EB0009847B8680A3000F0AFFBB9696731405CC9
:104EC000401CC7B2032F05D90220FEBD0120FEBD44
:104ED0000420FEBDB54204D10298844201D10020D5
:104EE000FEBD01217D4A00209047774CA0680A3022
:104EF00000F092FBA269794B1146673147540121BA
:104F000009030020823B98470320FEBD08B56F4986
:104F10006846884700984108C90701D0002008BDAD
:104F2000022108436949009028318847012008BDC3
:104F3000694801210278644809078068002A03D083
:104F4000012A07D000207047C27B837B10021843E0
:104F5000400304E0C27B837B100218430003401827
:104F6000704770B504465C480D46017856480126E6
:104F7000B6038068002903D0012903D0002070BD4A
:104F8000143000E0103000F047FB801972B60019B1
:104F9000524A2946904762B670BDF8B505464E485C
:104FA0000F46017848480124A4038068164600296A
:104FB00003D0012903D00020A6E4143000E0103013
:104FC00000F02AFB001972B64019444B32463946AC
:104FD000EA3B984762B697E4F8B505463E480F4667
:104FE000017839480124A40380681646002903D0BB
:104FF000012903D0002087E4143000E0103000F0D5
:105000000BFB001972B64019344B32463946823BCD
:10501000984762B678E410B5030000F0F8FE090680
:105020000C16202A343E416D890001217F20FEF7B5
:1050300011FB882104E001217F20FEF70BFB8A2170
:105040006120FEF707FB81216FE001217F20FEF741
:1050500001FB8A216120FEF7FDFA832165E0012131
:105060007F20FEF7F7FA8A216120FEF7F3FA872105
:105070005BE001217F20FEF7EDFA8A216120FEF737
:10508000E9FA8F2151E001217F20FEF7E3FA8A211E
:105090006120FEF7DFFA9F2147E001217F203DE0FC
:1050A00000217F20FEF7D6FA02213020FEF7D2FA47
:1050B00001217F20FEF7CEFA1F216320FEF7CAFAF6
:1050C00003216D2010E00000143100204D65000028
:1050D0002B620000776A000028360020435400004D
:1050E000A13D0000D9600000FEF7B4FA8A216120DA
:1050F000FEF7B0FAB02118E000217F20FEF7AAFAEF
:1051000002213020FEF7A6FA01217F20FEF7A2FA45
:105110001F216320FEF79EFA07216D20FEF79AFA01
:105120008A216120FEF796FABF216520FEF792FAE8
:1051300071E610B5FD4CA068283000F06DFA616B87
:10514000081A68E6FA4800787047F8B50546F74E41
:10515000F748B26900781446002801D0002003E423
:10516000280502D02805000D2D1A72B60121090369
:10517000F04F0020B84762B6706B2146401B2831C3
:1051800000F054FA05462046103000F045FA009031
:10519000281A4108009808182146143100F046FAF0
:1051A00001460098081A0001000CA073000AE07381
:1051B00072B60121DF4A0020EA32904762B672B629
:1051C0000121DC4B090300206833B2699847312183
:1051D0000020B268B84762B6012054E4D348D34BEC
:1051E00080799B7902091B0709201B0FC01A06232F
:1051F00000215843072A08D0032A09D0022A0BD0DD
:10520000012A0CD0002A0DD00FE04121C94301E052
:105210003521C943081A07E02321C943FAE71721BA
:10522000C943F7E7801D404241B2C8B27047F3B5A9
:10523000C14EC24F8DB00546002432226B46214636
:105240000320B04768464088A84206D168460179E5
:105250000E98017001200FB0F0BDB84204D068462E
:105260000088001984B2E8E70020F4E7F3B5B24EF5
:10527000B24F8DB00546002432226B4621460320F2
:10528000B04768464088A84208D1241DA1B2012237
:1052900003200E9B00F012F90120DCE7B84204D095
:1052A00068460088001984B2E6E70020D3E7F3B52A
:1052B000A14EA24F8DB00546002432226B462146F6
:1052C0000220B04768468178427808021043A8421D
:1052D00005D1684641790E9801700120BBE7B842BC
:1052E00004D068460078001984B2E6E70020B2E7EF
:1052F0008F4910B557314878097800020843800675
:1053000003D5FEF7EAF8012085E5002083E58C4B04
:10531000184710B50446854880680A3000F07CF9CB
:105320000821844B22466730984774E570B50546DE
:1053300072B67E4C012636037E4B31460020A269B0
:1053400098477C4A01210020EA329047A0680A3041
:1053500000F062F9A169082267314018294600F07F
:1053600021F9744B002031466833A269984762B630
:1053700070BD7449082008476C4948637047F0B510
:105380006A4C0025A46AE678360701D50020F0BDF6
:1053900000BF6D1CEDB2642DFAD3254640356E7CFE
:1053A000B607FCD400252646C036377947556D1C14
:1053B000EDB2022DF9D346780125F709002F08D068
:1053C000F606F60E0E70157042785206D20F1A705D
:1053D00004E0B3069B0E0B7000231370534B0A7846
:1053E0009B6A801CC033272A0CD20022C03403E001
:1053F00026798654521CD2B20E789642F8D85D7245
:105400000120F0BD5D72C1E710B50278002192075E
:10541000920F464B012A39D0022A0CD0032A33D1ED
:1054200082780E2A2FD84078474BC0069A5CC00E6F
:10543000904228D028E04278D206D20E042A07D91A
:10544000C278847812022243172A01D8012200E090
:1054500000221A71002A17D04179027909021143FA
:10546000052910D006290ED1C1788278090211438E
:105470008079354A40000F3280184038C08F814211
:1054800001D0002100E001210846C4E41979002977
:10549000F7D04078C006C00E1728F4D9F1E770B5F0
:1054A0002A4D0024214EA847F1680919FF31013126
:1054B000641CE4B2C873102CF5D370BDFFB51B4C4F
:1054C0000200E06981B01E460D4606D0012A06D0D2
:1054D000022A06D0032A06D009E0001D04E00830A5
:1054E00002E00C3000E0103000F096F801464D1953
:1054F00072B601273F030F4B39460020A269984737
:1055000062B6A06931464019039A00F04BF872B6B2
:105510000121084A0020EA329047064B0020394614
:105520006833A269984762B605B0F0BD1431002017
:105530002836002059530000C9280000FFFF000052
:10554000192200007919000011670010FB5F0000AC
:1055500030B50B46014600202022012409E00D460B
:10556000D5409D4205D31D469540491B2546954093
:1055700040191546521E002DF1DC30BD70B50024D7
:105580002546002801DA01244042002901DA0125DC
:105590004942FFF7DDFFAC4200D04042002C00D072
:1055A000494270BD03460B439B0703D009E008C97D
:1055B000121F08C0042AFAD203E00B780370401CC3
:1055C000491C521EF9D27047D2B201E00270401C51
:1055D000491EFBD270470022F6E710B513460A4673
:1055E00004461946FFF7F0FF204610BD30B50446CB
:1055F0000020034600E05B1C934203D2E05CCD5CDC
:10560000401BF8D030BD03460A780270401C491C8C
:10561000002AF9D1184670470321001D401E037867
:1056200012021A43491EF9D5104670470346032259
:105630000870000A491C521EFAD518467047F8B582
:1056400002464A40D40F42004B0052085B089A427F
:1056500002D20246084611464A0023D0C30D4A0032
:10566000DDB2120EAD1A202D35DA49020126490AA3
:10567000F6058A19002C00D0524220214F1B1146FA
:10568000B9402A411018C20D9A4221D0002C17D0DF
:10569000012D08DCDA05801AD20F8019D207DBB29F
:1056A00000F080FAF8BDDA05801A012340001B06DD
:1056B000C01880185A428018CA0F1043490007E0EA
:1056C0004908C2071143DA05801A8019400880187A
:1056D00000F060FAF8BD61000122511A001BF7E7E3
:1056E0000122D2075140AAE70122D2075040A6E783
:1056F000F0B507460846584087B0C00F04904800F0
:105700000E46590040084908BC1A884105D238465F
:1057100031461E4617460B460246580040081043C5
:105720004CD0300D039040055900400D490D0590B7
:10573000401A0290402872DA18030121000B090573
:105740000843019004980092002805D00199524224
:105750000020884100920190029840210A1A019984
:10576000009800F0E3F905460C466B4607CB00F0C5
:10577000FEF9C0197141039A0E0D0023D717564048
:105780001A467A40164344D0049A002A2DD0029A31
:10579000012A039A15DC1205C01A9141012636052B
:1057A000001C7141D20F059ED20700930192029610
:1057B0002A46234600F03CFA07B0F0BD3846314691
:1057C000FAE71605224A0F46B218C01AB74101215E
:1057D0000905001C4F4100187F41114618187941F6
:1057E000E20F10436D19644113E0E2076D081543A1
:1057F0006408C2071443039A01261205C01A914196
:105800003605001C7141CE07400830434908C018D6
:1058100051412A46234600F0FEF9CDE7FFE7049800
:1058200001224000C117121A00238B41049831460F
:10583000C417381AA141EEE730B40124E4076340ED
:1058400030BC55E730B40124E407614030BC4FE779
:105850000000E0FFF0B51FB488B00B990998002450
:1058600048400999C00F490049080991C0070B99A0
:105870000090490049080B9109990898A6460843E9
:105880001CD00B990A98084318D0099801244000AD
:10589000420D4800410D099824050003000B2043E8
:1058A00009900B980003000B20430B9050181C49E3
:1058B0004018002201901446104605E000200146E1
:1058C0000DB0F0BD032801DA034600E003239C4637
:1058D000C11A0AAE0AE05F0008ADED5B4F00F75B4E
:1058E0007D430027AA187C41491C5B1E6145F2DDFF
:1058F000410004AB5A522104120C0A43240C401CF0
:105900000828DFDB01980290009970460191009011
:10591000059B049A0799069800F08AF9D0E70000E1
:105920000DFCFFFFF0B50C465C4085B0E40FE407CA
:1059300003944C0000266408590094464908024626
:105940000296224321D062460A431ED06200570DC0
:105950004A000E032303550D012402462C49240559
:10596000781B1B0B360B40182343264361460090DF
:105970001C46501AB44103D30098401C009002E02A
:10598000921800985B41002803DA0020014605B018
:10599000F0BD0020012109050746864611E0644656
:1059A0001D46141BB54106D36546521BB3417446D0
:1059B00007430C43A646CD074008490828439218E0
:1059C0005B4105460D43EAD11046184313D06046AB
:1059D000194650407140084306D06046101AB34142
:1059E00006D20122002306E000220123DB0702E0A9
:1059F0000122D2435310009874460105381C6141BE
:105A0000029C039D0019694100F005F9BFE7000001
:105A1000FD03000010B500229623114600F0C2F8E5
:105A200010BD00000EB5C217C10F5040CA07401884
:105A30000021054B0293019200910A460B4600F0AB
:105A4000F7F803B000BD0000330400000EB50549AF
:105A50000291002100910A460B46019100F0E8F8FE
:105A600003B000BD330400004A0009030123090B01
:105A70001B051943094B10B5520D9A4201DA00205B
:105A800010BD064B34339A4203DC9A1A00F05EF8DC
:105A900010BD03495118884010BD0000FF030000ED
:105AA000CDFBFFFFC20FD207400040080BD0C10D55
:105AB0000723DB01C91840020905400A1143C20847
:105AC000400711437047002001467047F0B51FB4EE
:105AD0000646002082B005464024019100901BE05C
